:020000040800F2
:10000000503D0020D500000899DF00081970000855
:1000100000000000000000000000000000000000E0
:100020000000000000000000000000002112010894
:100030000000000000000000BDE60008853B01084C
:10004000E7000008E7000008AFF50008E700000837
:10005000E70000084D2E00085D2E00086D2E0008F8
:10006000E7000008E7000008412D0008E70000084D
:10007000E7000008E7000008E7000008E7000008C4
:10008000E7000008E7000008E700000800000000A3
:10009000E7000008E7000008E7000008E7000008A4
:1000A000E7000008E7000008E7000008054601082F
:1000B000E7000008E7000008000000001D5C0108E0
:1000C0000348854600F036FE004800471DB501088C
:1000D000503D00200448804704480047FEE7FEE703
:1000E000FEE7FEE7FEE7FEE7413D0108C10000082C
:1000F00030B50B46014600202022012409E00D46C0
:10010000D5409D4205D31D469540491B2546954047
:1001100040191546521E002DF1DC30BD70B500248B
:100120002546002801DA01244042002901DA012590
:100130004942FFF7DDFFAC4200D04042002C00D026
:10014000494270BDF0B51FB40646002082B0054696
:100150004024019100901BE0019922460F46304651
:1001600000F05CFC049A059B801A994110D310465C
:100170001946224600F042FC361A8F41019722466A
:1001800001200021009F00F039FC38184D410090FB
:100190002046641E0028DFDC019B00982946324679
:1001A00007B0F0BDF8B500242546002904DA0E4654
:1001B000012400214042B141002B04DA1E460023F5
:1001C00052420125B341FFF7BDFF8C4617461E463C
:1001D000AC4203D0002540428D41AC46002C02D0F9
:1001E000002657429E4161463A46334601B0F0BD73
:1001F000F0B51FB486B000200090019002900698E0
:10020000069980B204900798090C02040014114367
:1002100007900027089D099806913E463C460390AA
:100220000398A9B20204000C039004982D0C154306
:1002300048430021224600F0E1FBC7197141103408
:100240000E46402CECDB3846029A00F0D7FB009AB1
:10025000019B801800905941029801911030029042
:100260004028CCDB00980BB0F0BD03460B439B0746
:1002700003D009E008C9121F08C0042AFAD203E01B
:100280000B780370401C491C521EF9D27047D2B241
:1002900001E00270401C491EFBD270470022F6E7C5
:1002A00010B513460A4604461946FFF7F0FF2046EC
:1002B00010BD70B5064615F07DFE046805460A229D
:1002C0000021304600F020FC2C6070BDF8B50246DD
:1002D0004A40D40F42004B0052085B089A4202D2B7
:1002E0000246084611464A0023D0C30D4A00DDB23B
:1002F000120EAD1A202D35DA49020126490AF605FB
:100300008A19002C00D0524220214F1B1146B940BF
:100310002A411018C20D9A4221D0002C17D0012D6D
:1003200008DCDA05801AD20F8019D207DBB200F0A0
:100330002BFCF8BDDA05801A012340001B06C0180B
:1003400080185A428018CA0F1043490007E0490834
:10035000C2071143DA05801A80194008801800F09E
:100360000BFCF8BD61000122511A001BF7E70122C6
:10037000D2075140AAE70122D2075040A6E7024621
:1003800070B54A40D30FDB0740002DD04A002AD079
:10039000010E140E000212020919400A520A8418B2
:1003A000E50104465443000A120A2E045043A419DE
:1003B0004219200CC543AA18120C0125AD03521C8A
:1003C000521912047F39240400D0521C104301D466
:1003D0004000491EC2B20C06C0092018401C40084B
:1003E000802A02D003E0002070BD400840000029B0
:1003F00000DA0020184370BD70B502464A40D50FA0
:1004000040004A00ED0740085208002814D0002A96
:1004100012D0C40DD30D41020120C0055202490A79
:10042000520AE41A091812187D34914201D3641C4F
:1004300000E04900002C01DA002070BD0023914249
:1004400001D3891A0343400849000028F7D1002945
:100450000AD0914202D10121C90705E0914201D29F
:10046000012101E00121C943E005C018401900F055
:1004700083FB70BD420005D04200120E52428A42F8
:1004800001DB00207047C90508187047F0B5074622
:100490000846584087B0C00F049048000E465900E7
:1004A00040084908BC1A884105D2384631461E46E4
:1004B00017460B4602465800400810434CD0300DFA
:1004C000039040055900400D490D0590401A0290D7
:1004D000402872DA18030121000B09050843019036
:1004E00004980092002805D00199524200208841CA
:1004F00000920190029840210A1A0199009800F098
:100500007DFA05460C466B4607CB00F098FAC019F9
:100510007141039A0E0D0023D71756401A467A40B0
:10052000164344D0049A002A2DD0029A012A039A35
:1005300015DC1205C01A914101263605001C7141D7
:10054000D20F059ED2070093019202962A462346B7
:1005500000F060FB07B0F0BD38463146FAE71605FB
:10056000224A0F46B218C01AB74101210905001CE2
:100570004F4100187F41114618187941E20F10438E
:100580006D19644113E0E2076D0815436408C20762
:100590001443039A01261205C01A91413605001C26
:1005A0007141CE07400830434908C01851412A46DE
:1005B000234600F022FBCDE7FFE70498012240002C
:1005C000C117121A00238B4104983146C417381AF8
:1005D000A141EEE730B40124E407634030BC55E7A5
:1005E00030B40124E407614030BC4FE70000E0FF75
:1005F000F0B51FB488B00B990998002448400999B8
:10060000C00F490049080991C0070B9900904900A3
:1006100049080B9109990898A64608431CD00B99E4
:100620000A98084318D0099801244000420D480058
:10063000410D099824050003000B204309900B98F5
:100640000003000B20430B9050181C494018002257
:1006500001901446104605E0002001460DB0F0BDA3
:10066000032801DA034600E003239C46C11A0AAEC0
:100670000AE05F0008ADED5B4F00F75B7D430027AC
:10068000AA187C41491C5B1E6145F2DD410004ABA8
:100690005A522104120C0A43240C401C0828DFDBA8
:1006A000019802900099704601910090059B049A70
:1006B0000799069800F0AEFAD0E700000DFCFFFFA6
:1006C000F0B50C465C4085B0E40FE40703944C00A1
:1006D00000266408590094464908024602962243BF
:1006E00021D062460A431ED06200570D4A000E0315
:1006F0002303550D012402462C492405781B1B0BAE
:10070000360B401823432643614600901C46501A7E
:10071000B44103D30098401C009002E09218009866
:100720005B41002803DA0020014605B0F0BD00203F
:10073000012109050746864611E064461D46141B43
:10074000B54106D36546521BB341744607430C437B
:10075000A646CD0740084908284392185B41054644
:100760000D43EAD11046184313D060461946504055
:100770007140084306D06046101AB34106D20122E8
:10078000002306E000220123DB0702E00122D2431E
:100790005310009874460105381C6141029C039D6A
:1007A0000019694100F029FABFE70000FD030000CD
:1007B00070B54B005B0803430BD04B005C0D00266B
:1007C00033466542B341D417AD1AA34102DB002082
:1007D000014670BD12053018514170BDC217C10FDE
:1007E000504010B54018CA079623002100F0CCF9FC
:1007F00010BD10B500229623114600F0C5F910BDBA
:100800000EB5C217C10F5040CA0740180021054B52
:100810000293019200910A460B4600F0FBF903B0E7
:1008200000BD0000330400000EB50549029100210F
:1008300000910A460B46019100F0ECF903B000BDAF
:1008400033040000C20F410040020123400ADB05CF
:10085000D207090EC0187F2901DA002070479629B7
:1008600003DC9623591AC84001E096398840002AD3
:10087000F4D040427047410040020122400AD205B4
:10088000090E80187F2901DA00207047962903DCC1
:100890009622511AC8407047963988407047000028
:1008A00070B5CD0F4A0009030123090B1B0519433D
:1008B0000B4BED070024520D9A4201DA002070BD67
:1008C000074B34339A4203DC9A1A00F0A7F802E08F
:1008D0000449511888402C43F1D0404270BD0000BB
:1008E000FF030000CDFBFFFF4A0009030123090BB2
:1008F0001B051943094B10B5520D9A4201DA00202D
:1009000010BD064B34339A4203DC9A1A00F086F885
:1009100010BD03495118884010BD0000FF030000BE
:10092000CDFBFFFFC20FD207400040080BD0C10D26
:100930000723DB01C91840020905400A1143C20818
:1009400040071143704700200146704710B5002949
:1009500004DB0124E40740428C412146002B04DBE8
:100960001C460123DB075242A3418B4200D1824245
:1009700010BD000010B5002904DB0124E40740424B
:100980008C412146002B04DB1C460123DB0752422D
:10099000A341994200D1904210BD0000CB0FDB076C
:1009A000490010B5490802460A4307D00A0D07243A
:1009B0000903E401090B121B002A01DC002010BD11
:1009C000C900440F0C43C100E018D205801800F0A4
:1009D000D3F810BD0122D207002800DB101A00292D
:1009E00000DB511A814270470122D207002800DB48
:1009F000101A002900DB511A8842704710B5202ACE
:100A000004DB0146203A9140002010BD9140202394
:100A10009C1A0346E3401943904010BD10B5202AAC
:100A200004DB0846203AD040002110BD0B46D340DD
:100A3000D0402024A21A91400843194610BD10B599
:100A4000202A06DBCB170846203A1041C1170B437A
:100A500006E00B461341D0402024A21A91400843DF
:100A6000194610BD0FB400B589B00CA900910B99BF
:100A70000023CB60204B214A069307920422019267
:100A80001F4A02921F4A089202466B46002000F05D
:100A900000FA09B008BC04B0184770B586B0064625
:100AA0000020C0430190002015460C4600910291A1
:100AB00004903246694604A8FFF7D4FF0246049822
:100AC0002118002D05D0002801D0084600E020465E
:100AD0002860049800280DD0002A02DD0098884282
:100AE00008D0081B0190009432466946029404A87D
:100AF000FFF7B8FF06B070BDE91000080911000843
:100B0000FFFFFF7F610D0008F7B5009C0F46002630
:100B10002578641C002D05D000F01EF90068405DAA
:100B2000C007F5D12B2D02D02D2D18D0641E3946CB
:100B30002046029A00F0FAFA002F04D03968A14248
:100B400001D1009939607105022400290BDA404275
:100B5000002803DD15F02EFA0460A007FEBD012079
:100B600080020643E3E70028F8DA15F023FA046070
:100B70000048FEBDFFFFFF7F002904DA401C49004A
:100B800001D140084000704770B40024050C05D125
:100B90001024000402D1002921D01124050E01D116
:100BA00000020834050F01D10001241D850F01D179
:100BB0008000A41C002801DB4000641C002908D030
:100BC00020252E1B0D46F540A14000D001212943D0
:100BD000084301061B1B000ADB1D02D5002070BC68
:100BE0007047DB05181880180029F8DA401C490006
:100BF000F5D170BC40084000704710B5002B08DAF2
:100C00000024401C614192185B411A4301D1400805
:100C1000400010BDF0B51FB482B005460C0003D0F3
:100C2000084615F081F902E015F07EF92030024601
:100C3000009021462846FFF7E1FE049B059A0446F2
:100C40000F4618431143084314D0184610431BD0D5
:100C5000009840210A1A18460599FFF7DFFE05465D
:100C60000E46009A05990498FFF7C8FE084305D080
:100C7000012004E02046394607B0F0BD0020C1172E
:100C800005430E432C43374300990E986305401AE1
:100C90007905E40A00220C43FD0A0A3002D500203F
:100CA0000146E9E70105101969410C9C0D9D0019E9
:100CB0006941FFF7A2FFDFE7F8B5054648004008A5
:100CC0000C46284304D06000184A400D904201DDD4
:100CD0002846F8BD15493539884210DC88420BDBBF
:100CE000290D200308432903014305D0E00F1049D3
:100CF000C00741180020F8BD00200146F8BD161AB3
:100D00004020821B28462146FFF778FE07460091C7
:100D1000284621463246FFF781FE3A46009BFFF700
:100D20006CFF3246FFF76AFEF8BD00003304000096
:100D30000000F03F064C0125064E05E0E36807CCB5
:100D40002B430C3C98471034B442F7D3FFF7BCF95F
:100D500058CA010878CA010800487047C4C9010888
:100D600010B50446FFF7F8FF0068005DC007C00F2C
:100D700010BD0000FFB5087889B01546FF2805D0E2
:100D8000491C2D2804D00022002407E000240BE099
:100D90000122F9E70A235C430419491C0878FF285B
:100DA000F8D1002A00D06442002004902A7801463D
:100DB0002D2A01D02B2A0FD16D1C2D2A02D0002202
:100DC000049209E00122FBE700260A2233466D1C4B
:100DD000FFF70EFA381871412F78FF2FF4D10C9AD3
:100DE000A218069202460A4304D0FF23069A9133C2
:100DF000DA4205DA002109980A4606C00DB0F0BDB6
:100E00000024B74AB54D2646079200F0F1F902904A
:100E100006980391002801DA474200E007463905A9
:100E20000020AF4A001C51410191009012E0F807E8
:100E300007D022462B4630460799FFF7D9FB0646D6
:100E4000079122462B4610461946FFF7D1FB044670
:100E50000D467F10002FEAD10698019B0028009ACA
:100E60000399029806DAFFF72BFC3246079BFFF73F
:100E700027FC05E0FFF7BCFB3246079BFFF7B8FBFA
:100E8000049A002A02D00122D2075140099A03C2D3
:100E9000B4E7FFB591B0002009900025ED432E2066
:100EA0009E685C681F460190B9696D1C129888475E
:100EB0000090396A88470028F6D10098401C0AD073
:100EC0000D20C0018443002E12DD00982B2809D08C
:100ED0002D280DD103E00020C04315B0F0BD012046
:100EE00080020443B9696D1C12988847761E0090F1
:100EF00003A9600501D52D2000E02B206A46107360
:100F0000491C0CA80F9102900AE0B9696D1C129857
:100F1000884700900120400204431398761E056024
:100F2000002E02DD00983028EFD001990098884209
:100F300046D18020044308E00998401E0990012012
:100F4000400204431399681C0860B9696D1C761E41
:100F50001298884700903028EED031E001998842FD
:100F600005D1200603D480200443761E1EE000989D
:100F700015F040F8002826D001204002044307A9BC
:100F80000F980331761E88420BD200980F993038A3
:100F900008700F98401C0F90200607D50998401E36
:100FA00003E0200602D40998401C0990A00502D550
:100FB0001399681C0860B9696D1C129888470090E5
:100FC000002ECBDC59E0002E57DD0098652801D0BB
:100FD000452852D1A00550D5032000028443B969A9
:100FE0006D1C761E129888470090002E0CDD2B2871
:100FF00004D02D2808D1FF2001300443B9696D1CAD
:1010000012988847761E0090E00501D52D2100E05A
:101010002B21029801700298401C0290019025E05B
:101020000120400204430EA902980131761E884235
:101030000ED20098029930380006000E087003D1D5
:101040000299019881420AD90298401C029006E058
:10105000E00501D5234801E0224840420990B969E2
:101060006D1C12988847009013980560002E04DDCF
:10107000009814F0BFFF0028D2D1F9691298884770
:101080000F99FF200870029903AA087000200A90A7
:101090000B900CA90AA8099BFFF76CFEA00502D4CF
:1010A0000120C04319E72420044209D0E00713D1EE
:1010B00038680B9A0A99031D3B60006806C00BE074
:1010C0000B990A98FFF76AFC0146E00704D13868DB
:1010D000021D3A60006801602846FEE600001440E8
:1010E0000000F03FF1D8FFFF4268002A08D00168F5
:1010F0000B78491C002B03D0521E06C018467047BF
:101100000121C160881E70474268002A0BD0C36865
:101110000168002B07D183688B4204D0491E521C02
:1011200006C0002070470020C0437047F7B582B06A
:10113000029C00272078641C15460197302802D0B5
:10114000002D15D015E020780127641C782804D0E4
:10115000582802D0002D09D00BE0002D01D0102D11
:1011600007D1002710252078641C02E0082500E044
:101170000A250026009610E0009901276943081807
:10118000020C294680B2714300908E1838048642C2
:1011900001D3012001902078641C294600F019F841
:1011A0000028E9DA0398002805D0002F01D0641E3A
:1011B00000E0029C04600198002806D014F0FAFEBA
:1011C00002210160C81E05B0F0BD0099300408433B
:1011D000F9E73A2800D23038202302469A43412AC0
:1011E00001D310463738884201D30020C0437047EE
:1011F0000EB5054A02920022009213460192FFF7B3
:1012000009FD03B000BD00003304000070B58C1868
:101210000578401C6B075B0F01D10378401C2A1135
:1012200006D10278401C03E006780E70401C491C71
:101230005B1EF9D12B0705D40023521E0DD40B7071
:10124000491CFAE70378401CCB1A921C03E01D7876
:101250000D70491C5B1C521EF9D5A142D8D3002049
:1012600070BD10B5052000221021000702F00FFF0D
:1012700010BD10B5052001221021000702F007FF64
:1012800010BD000038B50446084807490068FEF75D
:101290002FFF6043009002E00098401E00900098ED
:1012A0000028F9D138BD000040420F00A8020020FC
:1012B000F8B50446206881688907890F012902D1A1
:1012C0000168C9072AD18168154A102611400125F5
:1012D000002907D0A06D3043A065E06D2843E0658C
:1012E0000120F8BD8168294381600120FFF7CAFF12
:1012F00005F062FC07460CE005F05EFCC01B0A2806
:1013000007D9A06D3043A065E06D2843E06501205A
:10131000F8BD20680068C043C007EDD10020F8BDCB
:1013200017000080F0B589B007460C461022002156
:1013300005A81AF058FA224605A905A815F0A5F83F
:101340006846007D8726000605AA002810DA0020DE
:10135000115C13185B784900DB0919431154401CD8
:101360000F28F5DB08A9C87840007040C8700EE06F
:101370000020115C13185B784900DB0919431154F4
:10138000401C0F28F5DB08A9C8784000C870E11D93
:10139000F9314869102814D06846007D00061CD534
:1013A0000020135C15186D785B00ED092B43135476
:1013B000401C0F28F5DB08ABD87840007040D8708F
:1013C0001AE000202118FF3101314B78155C6B4089
:1013D0004B70401C1028F5DB26E00020135C15182C
:1013E0006D785B00ED092B431354401C0F28F5DB8F
:1013F00008ABD8784000D8708020E51D4B69FA35DD
:101400005855002300E043554869401C48611028A6
:10141000F9D300202118FF3101314B78155C6B4066
:101420004B70401C1028F5DB002021180B46E031E2
:10143000FF330A460133497C5B7859405174401CA4
:101440001028F2DB21461022F13101A81AF0B3F97D
:101450002246394601A815F018F81022002105A8E7
:101460001AF0C1F909B0F0BD10B5044620461022AB
:101470000021F1301AF0B7F90021FF201530015199
:10148000F02220461AF0AFF910BD10B5024608460A
:10149000102115F025F810BDF0B587B006460D46B1
:1014A0001446F01DF9300690F11D4069FA3105919E
:1014B00010390491002843D010210F1AA74200D3FD
:1014C00027460599BAB2401829461AF074F90698C9
:1014D00006994069C019486110283AD3BC4238D0F7
:1014E000002031180A46E032FF310131537C49783F
:1014F0004B405374401C1028F3DB049932460846D5
:1015000014F0C3FFED19E41B1AE00022B018E0301C
:10151000417CAB5C59404174521C102AF6DB10220E
:10152000684604991AF047F932466946684614F04D
:10153000ACFF1022694604981AF03DF91035103CB2
:10154000102CE2D8A2B2294605981AF034F9069870
:10155000446107B0F0BD000070B5164C607A0028F9
:1015600018D0012000F01EF9E06D05F079FC054669
:10157000FFF77FFE01F0B5FE05F01EFBE16E401A9D
:10158000A84204D912F0B6F805F016FBE066012077
:1015900000F0F8F8FFF76DFE01F0A3FE05F02DFE58
:1015A000642002F025FC608D0AF00AFA05F04AFD7D
:1015B00070BD0000780500207CB50C4C20782546D5
:1015C000403D00280ED10120694608710848806816
:1015D000009020464030406800780FF075F80020F9
:1015E00028752070A87C60707CBD000088120020E7
:1015F000AC1400201CB50F48817C427C914218D26B
:10160000491C8174C80714D022206A461071094C05
:10161000FF21803460682D31095C9171F921095CEA
:101620005171007801A90FF045F800906168E03130
:1016300048761CBD4812002070B505462C68002C69
:101640000ED0E068416800290CD020468847012868
:101650000AD014212046FEF721FE0020286070BD2C
:10166000012070BD012070BD012070BD10B50028A3
:101670000AD0C268002909D09269002A08D0904790
:10168000012807D0002010BD012010BD012010BD91
:10169000012010BD012010BD10B50C4600222260B3
:1016A00000280CD0012810D0204600F053F9012862
:1016B00010D1204600F0CEF801280BD110BD2046F5
:1016C00000F048F9012805D110BD204600F0C2F80D
:1016D000012801D0002010BD012010BD10B5002848
:1016E00008D0C1688968002906D08847012805D03C
:1016F000002010BD012010BD012010BD012010BD33
:1017000010B586B002221C490123002806D001280A
:101710000BD0022811D003281CD115E0CC6A144349
:10172000CC62C96A1140009114E0CA6A1A43CA62C5
:10173000C96AC907C90F00910CE0CC6A1443CC6296
:10174000C96A1140009105E0CC6A1443CC62C96AB1
:1017500011400091094A4100515A01910293002120
:1017600003910321049106498000085801A902F061
:10177000D5FB06B010BD00000010024038C40108BF
:101780009802002010B5054A4100515A044A8000D1
:101790001058002202F07BFC10BD000038C4010884
:1017A0009802002010B5054A4100515A044A8000B1
:1017B0001058012202F06BFC10BD000038C4010873
:1017C0009802002070B505461D4CE078012825D010
:1017D00012F02CF8012823D0B1202070B8206070BE
:1017E0000026A670E6702671012060711548A06081
:1017F0001549E16015492161154A011F0A60016020
:10180000466020462C60E168096800290AD08847B4
:1018100001280DD006F00AFD002070BD012070BD2A
:10182000012070BD1421FEF739FD2E60012070BD2E
:1018300014212868FEF732FD2E60012070BD0000E3
:10184000340800205C02002000000020340000204A
:101850007000002070B505461C4CE07D012823D0A7
:1018600011F0E4FF012821D033202075322060756B
:101870000120A0750026E675267660762046303079
:10188000E061134820626662204612492830816078
:10189000C66014382860C1680968002908D08847E4
:1018A00001280BD0002070BD012070BD012070BD4B
:1018B0001421FEF7F3FC2E60012070BD142128686E
:1018C000FEF7ECFC2E60012070BD000048080020EF
:1018D000980000206402002070B505461A4CE0789C
:1018E000012820D011F0A2FF01281ED04020207036
:1018F0003C2060700026A670E670267101206071A1
:101900001248A0601249E1602661011F0160466033
:1019100020462C60E1680968002908D08847012822
:101920000BD0002070BD012070BD012070BD1421BE
:10193000FEF7B4FC2E60012070BD14212868FEF76C
:10194000ADFC2E60012070BD8008002074020020D4
:10195000E800002070B505461D4CE078012826D02F
:1019600011F064FF012824D06A202070D620607016
:101970000026A670E670267101206071204628308E
:10198000A0601449E160144921611549134A0A60B5
:101990000160466020462C60E168096800290AD091
:1019A000884701280DD008F0D9FF002070BD012024
:1019B00070BD012070BD1421FEF770FC2E60012067
:1019C00070BD14212868FEF769FC2E60012070BDEF
:1019D00048080020000200203001002050020020B2
:1019E0006802002070B505462C68002C0ED0E06817
:1019F000416800290CD02046884701280AD01421CC
:101A00002046FEF74BFC0020286070BD012070BD11
:101A1000012070BD012070BD10B500280AD0C26839
:101A2000002909D09269002A08D09047012807D0E0
:101A3000002010BD012010BD012010BD012010BDEF
:101A4000012010BD10B50246084600210160002AA1
:101A500004D0FFF741FF012804D110BDFFF73CFF80
:101A6000012801D0002010BD012010BD70B5054631
:101A70002C68002C0ED0E068416800290CD020466C
:101A8000884701280AD014212046FEF707FC0020D1
:101A9000286070BD012070BD012070BD012070BDA7
:101AA00010B500280AD0C268002909D09269002A1E
:101AB00008D09047012807D0002010BD012010BD9C
:101AC000012010BD012010BD012010BD10B502463F
:101AD000084600210160002A04D0FFF773FE0128A8
:101AE00004D110BDFFF76EFE012801D0002010BD0B
:101AF000012010BD10B5002808D0C16889680029F0
:101B000006D08847012805D0002010BD012010BD57
:101B1000012010BD012010BD10B50648FFF78CFD57
:101B20000448001DFFF75EFF0248001FFFF79EFFFD
:101B300010BD0000B402002010B507490020FFF7D7
:101B400081FF05490120091FFFF7A6FD024900207A
:101B50000839FFF7BBFF10BDB8020020F0B587B011
:101B600004460020069000272D4EB068FFF7B6FD12
:101B7000002802D0002007B0F0BD322002F038F972
:101B800003A9B068FFF748FF002801D00020F2E762
:101B90000398A0610498E061059820627068FFF7DF
:101BA0009DFD002801D00020E5E7322002F020F959
:101BB00069467068FFF75AFD002801D00020DAE777
:101BC000009860620198A0620298E0620A2002F028
:101BD0000FF93068FFF78EFF002801D00020CAE718
:101BE0000A2002F005F9002506A93068FFF758FF22
:101BF000002801D00020BEE70A2002F0F9F838469C
:101C00000699FEF763FB07466D1C0F2DECDB0549BB
:101C10003846FEF7F1FB069020600120ABE700009C
:101C2000B0020020000070410FB4F0B5E7B010A87A
:101C300018F038FA68A8007D002804D0FAA110A88E
:101C400014F05EF903E0F9A110A814F059F968A89E
:101C5000017FC27E837E407E0290039304920591B1
:101C600068A8017EC07D0191009068A8837D427DB7
:101C700010A8EFA1033014F043F970A80279C178DD
:101C800083784078029003930592049170A80178BC
:101C900068A8C07F0191009068A8837F427F14A844
:101CA000E3A1033014F02CF970A8017DC27C837C81
:101CB000407C0A900B930C920D9170A8037CC27B20
:101CC000817B407B06AC0FC470A8017BC27A837A0B
:101CD000407A029003930492059170A8017AC0792A
:101CE0000191009070A88379427918A8D9490330EE
:101CF00014F006F970A8017EC07D0191009070A8D3
:101D0000837D427D20A8CEA1033014F0F9F878A895
:101D1000037AC179827940790A900D930B920C91E4
:101D200078A80279C1788378407806900793099261
:101D3000089178A8037870A8C27F817F407F02ACA9
:101D40000FC470A8017FC07E0191009070A8837EAF
:101D5000427E22A8BF49033014F0D2F878A8037E4F
:101D6000C17D827D407D0A900D930B920C9178A8E5
:101D7000017DC37C827C407C06AC0DC4099178A8AF
:101D8000027CC17B837B407B02900393059204918C
:101D900078A8017BC07A0191009078A8837A427A72
:101DA0002AA8AC49033014F0ABF878A8417E30A8DB
:101DB0003031C17278A8817E30A83031017378A8A3
:101DC000C17E30A83031417378A8027F33A8A2A128
:101DD000023014F095F878A8427F34A89EA1013013
:101DE00014F08EF878A8817F30A8303101757D26F7
:101DF000F60031468098FEF77BF90F90E1252D0122
:101E000029460F98FEF774F9044608463C21FEF770
:101E10006FF907463C210F98FEF76AF9009135A843
:101E20003B4622468DA1013014F06AF83146819874
:101E3000FEF75EF90F9029460F98FEF759F9044610
:101E400008463C21FEF754F907463C210F98FEF75F
:101E50004FF9009137A83B46224680A1013014F08B
:101E60004FF831468298FEF743F906462946304638
:101E7000FEF73EF9044608463C21FEF739F90746CD
:101E80003C213046FEF734F9009139A83B46224602
:101E900072A1013014F034F880A8017B3BA8013016
:101EA000002903D071A114F02BF802E070A114F006
:101EB00027F880A8417B3CA8002903D06BA114F02F
:101EC0001FF802E06AA114F01BF8542038A9C87466
:101ED00080A9887B3C263E27002802D038A80675BA
:101EE00001E038A8077580A80F22825610AC3DA8E3
:101EF0000234013058A114F003F880A8017C3FA8F7
:101F00000330002903D059A113F0FAFF02E058A1D1
:101F100013F0F6FF80A8417CFE38002903D053A1BE
:101F200013F0EEFF02E052A113F0EAFF482040A9AF
:101F3000487180A9887C002802D040A8867101E001
:101F400040A8877180A8828A2046C53042A113F03C
:101F5000D7FF80A8817DEF38002903D043A113F07B
:101F6000CFFF02E042A113F0CBFF80A8C17D45A8BE
:101F7000002903D03DA113F0C3FF02E03CA113F000
:101F8000BFFF4C2040A9C87580A9087E002802D058
:101F900040A8067601E040A8077680A8428B20463C
:101FA000D7302DA113F0ACFF80A8017FDD380029C8
:101FB00003D02EA113F0A4FF02E02DA113F0A0FF87
:101FC00080A8417FDA38002903D028A113F098FFB8
:101FD00002E027A113F094FF412048A9487280A98C
:101FE000887F002802D048A8867201E048A887723E
:101FF00080A8028C2046E93017A113F081FF88A841
:102000008178EB38002903D018A113F079FF02E0A2
:1020100017A113F075FF88A8C1784EA8002929D010
:1020200012A113F06DFF28E04F54410041425000CF
:102030002530325825303258253032582530325824
:102040002530325825303258253032582530325814
:102050000000000014CA010825642A0025303264FB
:102060003A253032643A2530326400005945530035
:102070004E4F2A006E4913F043FF4D2050A9C871FE
:1020800088A90879002802D050A8067201E050A85B
:10209000077280A8C28C20466549FF300830183985
:1020A00013F02EFF88A8017ACD38002904D06049AA
:1020B000091F13F025FF02E05D4913F021FF88A8F6
:1020C000417ACA38002904D05949091F13F018FF72
:1020D00002E0574913F014FF7D21C9008B98FEF7E9
:1020E00007F80F9029460F98FEF702F805460846B4
:1020F0003C21FDF7FDFF0E903C210F98FDF7F8FF06
:1021000000914B4959A82A46143901300E9B13F00F
:10211000F7FE88A8017CB338002904D04449091F80
:1021200013F0EEFE02E0424913F0EAFE88A8417C7B
:102130005CA8002904D03E49091F13F0E1FE02E02B
:102140003B4913F0DDFE88A8817CAD38002904D01E
:102150003749091F13F0D4FE02E0354913F0D0FED1
:102160004E2058A9887588A9C87C002802D058A894
:10217000C67501E058A8C77580A8828E20462C49F4
:10218000FF303730183913F0BBFE80A8C18E7E387F
:10219000002904D02649091F13F0B2FE02E02449A9
:1021A00013F0AEFE88A8017E9B38002904D0204998
:1021B000091F13F0A5FE02E01D4913F0A1FE88A837
:1021C000417E62A8002904D01949091F13F098FE26
:1021D00002E0174913F094FE88A8817E9538002903
:1021E00004D01349091F13F08BFE02E0104913F0CD
:1021F00087FE80A8818F7238002904D00C49091FFE
:1022000013F07EFE02E00A4913F07AFE80A83E2217
:10221000825E08A16F3813F073FEFF225B3210A9B3
:102220006C98FEF722F867B0F0BC08BC04B0184701
:102230007020000825690000FFB585B0044600271E
:10224000102565571120205604900898A168016058
:102250006079012843D1022069460873A07C887305
:10226000E07C03A90EF026FA029046B2B54200DCEB
:102270003546B54203D10898002101602FE0A189BD
:10228000A068884200D30127E2898918814226D8B4
:10229000082069460873E07C03A90EF00BFA02904F
:1022A00040B20490E189A068FDF722FF012916D110
:1022B0002220694608734D73A07C8873E07C03A9D3
:1022C0000EF0F8F9029045B2B54208D10027207906
:1022D000012804D169460871E07C0EF0F5F90698F2
:1022E0000570079904980870384609B0F0BD0000E1
:1022F000FEB51D4CFF226168D532525C00250126D7
:10230000002A2DD06A461670FF223E32535C6A4680
:102310009370D070FF318131C86C11F063FD019072
:10232000114F803FB86902906A4655706078400747
:1023300006D5002009F012FE002801D0684646703C
:102340006068694600780DF08BFAFF226068C3323E
:10235000B969125AFF304A43511A81308164FEBD77
:102360006A461570D0E70000C81200200449896C45
:10237000002903D08968002900D008477047000071
:102380004811002038B50C4600220092694601F041
:102390008BF8002801D0002038BD0098844203D873
:1023A000401C01D0002038BD012038BD0A48817C86
:1023B000407C814201D3012070470748803040783B
:1023C000800704D5044840300078012801D000205F
:1023D0007047012070470000481200200E48FF227D
:1023E0000146037C803148681932125C934201D364
:1023F000012070474978890708D5E030007C002823
:1024000006D005482030407B002803D000207047CC
:10241000012070470120704748120020FFB587B0A7
:10242000109D06460F461C46002F0DD0002D0BD0E8
:1024300018480690FFF718F801A9204601F016F891
:102440000446002C03D023E002200BB0F0BD01991C
:102450000698491CFFF719F8002E04D010223146C7
:102460000698FFF719F83946099A0698FFF714F805
:1024700002A80699FEF756FF6A46D17A107A090635
:102480000843917A527A09041202114308432860E2
:102490002046DAE794180020FFB587B00D461A46AB
:1024A000129F139C109B11990646002E08D0002CF9
:1024B00006D0FF200130854204D90E200BB0F0BDBC
:1024C0000A20FBE703A8009102900197284609998A
:1024D0000CF03CF900942A46314603A8099B10F001
:1024E00085FB002801D00F20E8E70020E6E7000088
:1024F000F3B5A5B00C4623784F2B11D0002162789C
:10250000542A0FD000200140A07841280CD000258B
:10251000294001260027002908D06846067113E0EB
:102520000121ECE70120EEE70125F1E7412B44D042
:102530000021422A43D000221140502841D00020DF
:10254000014201D06846077101A81022E11C013048
:1025500019F054FD214603A810221331013019F05F
:102560004DFD214605A820222331013019F046FDFA
:10257000214609A808224331013019F03FFD2146C8
:102580000AA820224B31013019F038FD21460EA84F
:1025900020226B31013019F031FD20468030C17AA4
:1025A00010AA30395172017B30399172417B303938
:1025B000D17200211773577311E00121B9E701228D
:1025C000BAE70120BCE710AD2A7B0A256A4310ADAB
:1025D0002A739B7BD218303A2A73491CC9B26318FC
:1025E00080339A7B2A2AEED100210BE010AD6A7B62
:1025F0000A256A4310AD6A735B7CD218303A6A735D
:10260000491CC9B2631880335A7C2A2AEED1017D55
:1026100010AA30399173417D0A233039827D5943A4
:1026200030395118E12212015143027F0A258A18DC
:10263000017E437E3039694330395B183C214B437E
:10264000C17E30396943591851187D223039D20082
:1026500051431491817F407F0A22303850433038F3
:102660000918E120000141432046A0300279437857
:102670008A1801783039694330395B183C214B4363
:10268000C17830396943591851187D223039D20048
:102690005143159141790A233039827959433039B0
:1026A0005118E12212015143027B437A8A18017AC0
:1026B0003039694330395B183C214B43C17A30399A
:1026C0006943591851187D223039D200514316916F
:1026D000417B592901D0792909D1817B452901D034
:1026E000652904D1C17B532909D0732907D010A9CA
:1026F0000F77017C592905D0792903D00CE010A966
:102700000E77F6E7427C452A01D0652A04D1827C07
:10271000532A06D0732A04D04E2905D06E2903D03F
:1027200009E010A94E7706E0417C4F2901D06F29BE
:1027300001D110A94F77017D3C2909D010A98F77CD
:10274000022110AAD777B522125D2D2A03D010E0FE
:1027500010A98E77F4E703210BE010ADEA7F0A257C
:102760006A4310ADEA77DB7CD218303AEA77491C2D
:10277000C9B26318A033DA7C2A2AEED1417D2D2913
:102780000AD010AAD17FD177C17F2046C030592905
:1027900007D0792905D00EE010AAD17F4942D17720
:1027A000F2E70178452901D0652904D14178532900
:1027B00009D0732907D018A90F708178592905D03D
:1027C000792903D00CE018A90E70F6E7C278452AE3
:1027D00001D0652A04D10279532A06D0732A04D085
:1027E0004E2905D06E2903D009E018A94E7006E0E5
:1027F000C1784F2901D06F2901D118A94F70817973
:102800003C2904D018A98F700221002209E018A9E0
:102810008E70F9E70A256A43303A9A1812B2491CB9
:10282000C9B26318C0335B792A2BF3D110A98A840B
:10283000417C592901D0792909D1817C452901D0D0
:10284000652904D1C17C532909D0732907D018A95F
:102850008F71017D592905D0792903D00CE018A981
:102860008E71F6E7427D452A01D0652A04D1827D2A
:10287000532A06D0732A04D04E2905D06E2903D0DE
:1028800009E018A9CE7106E0417D4F2901D06F29DA
:1028900001D118A9CF71007E3C2804D018A8077276
:1028A0000220002109E018A80672F9E70A2359431B
:1028B0003039511809B2401CC0B22218C032D27D42
:1028C0002A2AF3D110A841852046E030C178592941
:1028D00001D0792909D10179452901D0652904D18F
:1028E0004179532909D0732907D018A90F73817929
:1028F000592905D0792903D00CE018A90E73F6E701
:10290000C279452A01D0652A04D1027A532A06D019
:10291000732A04D04E2905D06E2903D009E018A9E6
:102920004E7306E0C1794F2901D06F2901D118A952
:102930004F73817A3C2904D018A98F730221002299
:1029400009E018A98E73F9E70A256A43303A9A1804
:1029500012B2491CC9B26318E0335B7A2A2BF3D157
:1029600010A90A86417D592901D0792909D1817D93
:10297000452901D0652904D1C17D532909D0732986
:1029800007D018A98F74017E592905D0792903D061
:102990000CE018A98E74F6E7427E452A01D0652A1C
:1029A00004D1827E532A06D0732A04D04E2905D042
:1029B0006E2903D009E018A8C67406E0407E4F28AF
:1029C00001D06F2801D118A8C774E01DF930017A31
:1029D0003C2904D018A90F750221002209E018A98A
:1029E0000E75F9E70A256A43303A9A1812B2491C63
:1029F000C9B26318FF330133DB792A2BF2D110A956
:102A0000CA86C17C592901D0792909D1017D45297E
:102A100001D0652904D1417D532909D0732907D0FC
:102A200018A90F76817D592905D0792903D00CE0AA
:102A300018A90E76F6E7C27D452A01D0652A04D191
:102A4000027E532A06D0732A04D04E2905D06E295F
:102A500003D009E018A8467606E0C07D4F2801D0D3
:102A60006F2801D118A847762546FF3521356879AA
:102A70000A223038A979504330380818E121090179
:102A80004843297B0A234118287A6A7A3038584308
:102A9000303812183C204243E87A30385843101836
:102AA00008187D213038C90048431F90687B592899
:102AB00001D0792809D1A87B452801D0652804D107
:102AC000E87B532817D0732815D020A8077020461C
:102AD000FF305230249013F075FD0022664BFDF755
:102AE00087FDFDF7DDFE20A9C881287C592805D087
:102AF000792803D00CE020A80670E8E7687C452818
:102B000001D0652804D1A87C532809D0732807D0A8
:102B100020A84770E87C592805D0792803D00CE01C
:102B200020A84670F6E7297D452901D0652904D102
:102B3000697D532906D0732904D04E2805D06E280C
:102B400003D009E020A8867006E0287D4F2801D038
:102B50006F2801D120A88770E87D3C2804D020A8E8
:102B6000C7700220002109E020A8C670F9E70A23F7
:102B700059433039511809B2401CC0B22218FF32F3
:102B80002132927D2A2AF2D120A88180FF3441345B
:102B9000A078592801D0792809D1E078452801D0BA
:102BA000652804D12079532809D0732807D020A89C
:102BB000C7806079592805D0792803D00CE020A877
:102BC000C680F6E7A079452801D0652804D1E079D0
:102BD000532809D0732807D020A80772207A5928D3
:102BE00005D0792803D00CE020A80672F6E7607AB9
:102BF000452801D0652804D1A07A532809D073282C
:102C000007D020A84772E07A592805D0792803D048
:102C10000CE020A84672F6E7207B452801D0652805
:102C200004D1607B532809D0732807D020A887726D
:102C3000A07B592805D0792803D00CE020A8867203
:102C4000F6E7E07B452801D0652804D1207C532895
:102C50000FD073280DD020A887812498FDF729FB79
:102C600020A9C8818C2201A92598FDF7FEFA27B07A
:102C7000F0BD20A88681F0E70000244030B504466E
:102C800000200022012507E02B469340A34301D1F9
:102C9000401CC0B2521CD2B28A42F5D330BDFFB53F
:102CA00085B00025002700260020019040E0002488
:102CB00001984000049007990498095A0120A04007
:102CC00001422BD031190C2203915143089A5258DA
:102CD000002A23D0059A002A01D140071ED0089867
:102CE00009180820029108560211000701170698DA
:102CF00040B20CF0B7FF002810D00298407A0101D2
:102D00000E980818C068002802D07F1CFFB205E0AA
:102D100029460F9A6D1C0398EDB25054641CE4B21E
:102D2000102CC8D31036F6B20198401CC0B20190E6
:102D3000102EBCD310980770284609B0F0BD0000D3
:102D400010B5024800F084FE10BD0000D02C002019
:102D5000F0B5044685B0084615461E46002813D037
:102D6000002D11D0002E0FD0002100910191029171
:102D70000391052C0AD0062C08D0072C06D0082C6D
:102D800008D00B2005B0F0BD0A20FBE701216A4600
:102D9000117002E002216A46117001466F4603225B
:102DA000781C18F008FD03222946381D18F003FD91
:102DB00002223146F81D18F0FEFC0C4823464068FC
:102DC0000222044625786946284665782D02284364
:102DD000A578E4782D042843240620430FF010FF43
:102DE000002801D00F20CDE70020CBE7F41400200D
:102DF00000280CD000290AD0027B20301307002BBA
:102E000007D00378002B04D00020087018E00320BE
:102E10007047037A002B02D0130703D005E001208E
:102E200008700DE00378002B02D0120703D009E0F0
:102E30000220087004E00078002803D00320087006
:102E400000207047172070477047704710B5012069
:102E500001F058F8022001F055F810BD10B504201B
:102E600001F050F8082001F04DF810BD10B5102009
:102E700001F048F8202001F045F8402001F042F828
:102E8000802001F03FF8FF20013001F03BF80120E5
:102E9000400201F037F80120800201F033F80120F0
:102EA000C00201F02FF80120000301F02BF80120EF
:102EB000400301F027F80120800301F023F80120EE
:102EC000C00301F01FF810BDFEE70000F0B58DB0A3
:102ED000794E00273770707831790843F17A0843CA
:102EE000F1790843B17B08437ED0354620356879B7
:102EF000002802D003F060FE6F71F06D03F0B0FFA8
:102F0000044603F059FE316F401AA0426DD9FEF716
:102F1000B0F900F0E6F94B2000F06AFF04F092F8F7
:102F20004B2000F065FF04F068F96846FEF716FED6
:102F30007786B78660493431881E0CF03DFB5E4CC5
:102F40000698403460800798A0800898E08032207E
:102F50000A21305EFDF7E2F8C0B2B18EC905090E54
:102F60000C917178002917D0B178012903D103227F
:102F7000B256904205DB00290ED1032171568842DA
:102F80000ADD307F002807D003F016FE306710F00E
:102F90006DFA377710F0FEFE3079002814D0707982
:102FA000012803D1B2790C99914205D300280BD1A5
:102FB000B1790C98884207D903F0FEFD306710F014
:102FC00055FA777704F02AF8F07900281BD00A2008
:102FD00000F00EFF0CF0FEFBF086317A012902D1E1
:102FE000328D904207D301E064E060E000290AD10D
:102FF000318D884207D903F0DFFD306710F036FAD3
:10300000B7770AF02FFDF07A002826D0317B01290E
:103010000CD10222A25EB08D824216DB0422A25E97
:10302000824212DB0622A25E82420EDB002914D10C
:103030000221615EB08D814207DC0421615E814224
:1030400003DC0621615E814207DD03F0B5FD3067D8
:1030500010F00CFA2F700AF013FFB07B002826D076
:103060007D20C00000F0C4FE18F0F4FD0446B066F8
:10307000B07B00281BD0F07B012806D1308EFDF7F5
:10308000B8FB2146FDF7B0FC09D3F07B00280ED138
:10309000308EFDF7AEFBB16EFDF79CFC07D203F05E
:1030A0008BFD306710F0E2F96F700AF077FF03488C
:1030B00010F040FF0DB0F0BD780500205C29002025
:1030C00010B50520FFF752F910BD10B50420FFF729
:1030D0004DF910BD10B50620FFF748F910BD10B529
:1030E0000220FFF743F910BD10B50020FFF73EF9AD
:1030F00010BD10B50120FFF739F910BD10B5032040
:10310000FFF734F910BD00B5002200F001F800BD52
:1031100030B5054601200D4B5C7A012C15D8587A44
:1031200000241C54587A8000C01845605D7A184607
:1031300008302A54587A421C5A72303008703A20AB
:1031400048702F208870CC70002030BD502900209E
:1031500000B5002100F002F800BD000010B50146E6
:1031600001200A4B5A7A002A0FD009783039C9B2A7
:103170008A00D2185468002C07D0002050605918DB
:103180000872587A401E5872002010BD5029002045
:1031900010B5084900234B6107494A684C15224382
:1031A0004A604A68082422434A60C009C00103609B
:1031B00010BD0000940800200020024010B500203F
:1031C000204A9169CB05204904D548690223184358
:1031D0004861901593699B0505D54B6901242343EC
:1031E0004B616302184393695B0505D54B6908245D
:1031F00023434B61E301184393691B0505D54B69D4
:10320000042423434B616302184393699B0405D54F
:103210004B69102423434B616302184393699B035A
:1032200004D54C6920231C434C6118439369DB038C
:1032300005D54B69402423434B61A10208439061AB
:1032400010BD0000002002409408002070B5044624
:1032500000F024FF0546184E0AE0601C08D0002C40
:1032600004D000F01BFF401BA04201D9032070BD19
:10327000B069C007F1D1B069800701D50220B06103
:10328000B069C00511D4B06980050ED4B06940059D
:103290000BD4B069000508D4B069800405D4B069C6
:1032A000800302D4B069C00303D5FFF787FF012074
:1032B00070BD002070BD00000020024010B5002845
:1032C00005D01022002118F08EFA012010BD002038
:1032D00010BD10B5052000220421000700F0D7FE24
:1032E00010BD10B50524240701220421204600F05A
:1032F000CEFE01221102204600F0C9FE10BD0000E2
:103300000649800008580649401803D0C84203D037
:10331000002070470120704702207047A4C40108B4
:10332000702FFCFF38B5174C15482060FF20DD30AA
:1033300060602046143008F01DFF206100200090DE
:103340000F4869460838406800780DF0AAF9A06077
:103350000098E06020461C300FF084FCA0612046FD
:10336000243008F0C3FC206220462C3008F069FCB1
:10337000A0622046343008F099FD2063204638BD15
:10338000D0120020AC14002070B504460846154643
:1033900004E00178A14204D004F080F8A842F8D1FA
:1033A000002070BD7FB5089E0A9D099C002A0AD0A6
:1033B000002C08D0002D06D0030012F0CCFD05181B
:1033C0001B1E21072A000A2004B070BD6846807BBE
:1033D000012802D00320207014E0002904D0032922
:1033E00002D0012020700DE0022020700AE00420AD
:1033F000207007E00520207004E00620207001E026
:1034000007202070D28920782B46314608F068FECC
:10341000DAE70520D8E700000021094ACB00D3589D
:10342000834208D84B1CDB00D358834203D9C80021
:10343000801800797047491CC9B21529EED3FEE700
:10344000B0C2010810B50022074B94001C5D8442F5
:1034500004D19000C0180860002010BD521CD2B2E8
:10346000052AF2D30C2010BDD403002030B5002271
:103470000C4B1124640115015519ED182D192D7BE4
:10348000854208D1100110188B22C01892008018B4
:103490000860002030BD521CD2B2182AEBD30320A2
:1034A00030BD00008017002000B5002909D0164A61
:1034B0000300526812F04FFD0826070D13191C1F58
:1034C00022260A2000BD10690860104610301063E3
:1034D00016E05069086010461430106310E09069DF
:1034E00008601046183010630AE0D069086007E0F1
:1034F000106A086004E0506A086001E0906A0860A1
:10350000002000BD052000BDF414002038B50B4993
:103510006C4649680A46FF3121310B7BA37060700D
:103520000D202070C87F012802D10E206946087046
:10353000107869460DF0BEF8C0B238BDC812002040
:10354000884201D1C8B201E0401EC0B240B270470B
:1035500010B509480169446980690818002809D034
:103560000822064903F0A6FF044904221031204630
:1035700003F0A0FF10BD00004000F81F76040020FB
:10358000F8B50446002625464035287D012808D098
:1035900001202875206881688907890F01290ED1CB
:1035A00001E00220F8BD0168C90708D0A06D202104
:1035B0000843A0650126002028753046F8BDA16D9E
:1035C000FF220132914302221143A165C16889079C
:1035D000890F0091C16889088900C16020688168ED
:1035E00092071143816003F0E7FA07460EE003F00B
:1035F000E3FAC01B0A2809D9A06D022188431021D3
:103600000843A065002028750120F8BD2068806867
:103610000028ECDB2068C168009A1143C160A06DEE
:1036200080088000401CA065C5E70000F8B50C4686
:1036300005464035297D01290DD0012129750168F4
:103640008A68520709D5816D2022114381650020C7
:1036500028750120F8BD0220F8BD194B6268D80515
:103660004710184E9A4215D08A6A23685B035B0B99
:103670001A438A622168490305D5B1680143B160E4
:103680000A20FDF7FFFD2068800315D5B068384398
:10369000B06011E08A6A23685B035B0B9A438A621D
:1036A0002168490302D5B1688143B1602068800375
:1036B00002D5B068B843B06000202875F8BD00009E
:1036C00001100000002701400068006C70470000F6
:1036D00070B50446002C06D0A06D25460026403566
:1036E000002802D006E0012070BDE6652E75204658
:1036F00000F0D2F8A06DC00603D4206881684907A5
:1037000006D5A06D10210843A0652E75012070BD5F
:10371000A16DFF220132914302221143A16581680C
:103720005B4A8907890F012902D10168C9072BD19A
:10373000032361689B07994205D05B42994202D0FE
:103740005B00994209D101698900890801612068FB
:1037500001696368194301610CE001698900890806
:10376000016190680F2189048843906090686168C6
:10377000084390602068C16818239943C16020689D
:10378000C168A3681943C160906801214906884354
:1037900090609068218F4906084390602068816896
:1037A000C90004D481680122120711438160206896
:1037B000C168384A1140C1602069E168022823D0FD
:1037C00000200143206A226B400352001043014352
:1037D000606B0143A06980030143E069C0030143BA
:1037E0002068C2681143C160A06A0146FF39C2392E
:1037F00005D0E16A08432168CA681043C860606A5E
:103800000121012802D00BE00420DAE7206A002819
:1038100023D0A06D20221043A065E06D0843E06531
:10382000206C012820D020680169C90703D00169F4
:1038300049084900016120684169C908C90041611E
:1038400020684169E26B11434161E665A06D800823
:103850008000401CA065002070BD2068C268012364
:103860001B041A43C260DBE720680269FF239B0048
:103870009A43026120680269636CE56C1A43A36C89
:103880002B431A430261206802690A430261D2E7AE
:10389000002701401902FEFF7047F8B504460D46A7
:1038A00027466069403708280BD02068C068C007E9
:1038B00009D0A06D20210843A065002038750120A3
:1038C000F8BD082600E00C2603F076F9009011E020
:1038D000681C0FD0002D05D003F06EF90099401A36
:1038E000A84207D9A06D04210843A06500203875BF
:1038F0000320F8BD206800683042E9D0A06D0121A6
:1039000049020843A0652068C1680C220905890F97
:1039100000291AD1216A002917D10168090714D595
:10392000816801234907002908DB41689143416010
:10393000A06D190288431843A06506E0A06D202100
:103940000843A065E06D1843E065A069002801D137
:10395000206802600020F8BD70B504460020216890
:103960008968490723D425464035297D01291CD083
:1039700001212975E169012902D02046FDF798FC53
:10398000002811D1A16D0B4A1140FF2201321143D1
:10399000A1650021E165297522681C21116021685B
:1039A0008A6804231A438A6070BD022070BD022019
:1039B00070BD0000FEF1FFFF70B50024024620320A
:1039C0005179022903D00421C16301243CE001683C
:1039D0000B680E25AB430B6001680B685B085B004E
:1039E0000B601A4B0168994201D1012121E0174B6C
:1039F0001433994201D110211BE0144B2833994212
:103A000001D1891515E0114B3C33994201D189143C
:103A10000FE00E4B5033994202D10121090408E016
:103A20000A4B6433994202D10121090501E00121C9
:103A30000906064B083B59600121517100211171A3
:103A4000816B002900D08847204670BD08000240E5
:103A5000F8B504469D4802689C499C4E9B4F08312E
:103A600020680B041C363037884201D108211EE043
:103A7000B04201D180211AE0B84202D10121C9022D
:103A800015E092494431884202D10121C9030EE078
:103A90008E495831884201D1194608E08B496C3172
:103AA000884202D10121C90501E00121C90625464C
:103AB0000A402035002A3BD00168090738D5016843
:103AC000082291430160814920680831884201D170
:103AD00008201EE0B04201D180201AE0B84202D195
:103AE0000120C00215E079494431884202D1012009
:103AF000C0030EE075495831884201D1184608E0EC
:103B000072496C31884202D10120C00501E00120D8
:103B1000C0066E494860E06B01210843E063042061
:103B2000687100202871616B002901D02046884708
:103B3000664802686549206808310B15884201D142
:103B400004211EE0B04201D140211AE0B84201D167
:103B5000194616E05D494431884202D101218903AA
:103B60000FE05A495831884202D10121890408E006
:103B700056496C31884202D10121890501E00121B9
:103B800089060A4238D00168490735D50168890697
:103B900003D4026804218A4302604C49206808313A
:103BA000884201D104201EE0B04201D140201AE039
:103BB000B84201D1184616E044494431884202D146
:103BC000012080030FE041495831884202D1012091
:103BD000800408E03D496C31884202D10120800513
:103BE00001E0012080063949486005206871216B99
:103BF000002901D0204688473448026833492068AC
:103C000008314B15884201D102211EE0B04201D19A
:103C100020211AE0B84201D1194616E02B4944315F
:103C2000884202D1012149030FE0284958318842D6
:103C300002D10121490408E024496C31884202D1B3
:103C40000121490501E0012149060A423CD00168F1
:103C5000890739D50168890603D401680222914396
:103C600001601A4920680831884201D102201EE013
:103C7000B04201D120201AE0B84201D1184616E026
:103C800012494431884202D1012040030FE00F491C
:103C90005831884202D10120400408E00B496C31C0
:103CA000884202D10120400501E001204006074979
:103CB0004860E06BE0630120687100202871E16AD0
:103CC000002901D020468847F8BD000000000240CE
:103CD00070B5002805D0034620335979002902D059
:103CE00003E0012070BD00211971022159710168A2
:103CF0000C683D4A1440C568826846692A430569D4
:103D000035432A4385692A43C5692A43056A2A43FC
:103D100022430A60354A354C01687832A14208D105
:103D2000916A090909019162916A406801439162AF
:103D300055E02E4C1434A14209D1916AF024A143DC
:103D40009162916A406800010143916247E0274C0B
:103D50002834A1420AD1916A0F242402A14391621E
:103D6000916A406800020143916238E01F4C3C3484
:103D7000A1420AD1916A0F242403A1439162916A5E
:103D8000406800030143916229E0184C5034A1427D
:103D90000AD1916A0F242404A1439162916A808818
:103DA0000004014391621AE0104C6434A1420AD12C
:103DB000916A0F242405A1439162916A80880005CD
:103DC000014391620BE0914209D1916A0F242406CC
:103DD000A1439162916A007900060143916201203A
:103DE0005871002070BD00000FC0FFFF08000240A6
:103DF00001B5009802F056FE08BD0000F8B5054672
:103E00000E46184F387C012807D001203874164818
:103E1000FFF71CFA002802D020E00220F8BD0021A4
:103E2000C94331606C6813E02046FFF7B1F90E48D2
:103E3000FFF70CFA0D494A6808239A434A604A681A
:103E40004B159A434A60002801D0346006E0803464
:103E5000A9686A68C9018918A142E5D800213974A6
:103E6000F8BD00009408002050C30000002002406C
:103E7000034841680222114341600020704700005E
:103E800000200240F8B50E4617460B4C207C012856
:103E900008D0012020740948FFF7D8F90025002830
:103EA00002D006E00220F8BD656137600348FFF7E5
:103EB000CDF92574F8BD00009408002050C300001F
:103EC0000948416889070CD54168C90703D00749EB
:103ED000C1600749C16007490161074901610020CC
:103EE000704701207047000000200240EFCDAB89F1
:103EF00005040302BFAE9D8C1615141310B502F015
:103F000083FC10BD10B504494A69024202D04861E1
:103F1000FFF7F4FF10BD000000040140F0B50022DF
:103F200098E001249440A4462340002B7ED04C68A6
:103F3000022C01D0122C0CD1D408A40027183D6A01
:103F40005407E40E0F26A640B5430E69A6402E4343
:103F50003E624C68012C05D0022C03D0112C01D0FC
:103F6000122C11D1856854000326A640B543CE68B3
:103F7000A6402E43866044686546AC430D79ED0645
:103F8000ED0F954025434560076854000325A54083
:103F9000AF430E79B607B60FA6403E430660C6682B
:103FA000AE438D68A5403543C5604C68E40050D5EC
:103FB0002B4C666B01252E4366639508294CAD009A
:103FC0002D19AF689407240F0F26A640B743052686
:103FD0003607B04201D1002619E0234EB04201D18C
:103FE000012614E0214EB04201D102260FE0204EFE
:103FF000B04201D103260AE01E4EB04201D1042690
:1040000005E01D4EB04201D1052600E00626A6407F
:104010003E43AE60194D2C689C434E68F60300D5B4
:104020001C432C606C689C434E6800E011E0B603B2
:1040300000D51C436C60AC689C434E68F60200D50A
:104040001C43AC60EC689C434E68B60200D51C4330
:10405000EC60521C0B681C46D44000D061E7F0BDF8
:104060000010024000000140000400500008005011
:10407000000C005000100050001C005000040140D3
:104080000069084201D00120704700207047002AD3
:1040900001D081617047816270470000014800686B
:1040A00070470000AC02002070B50446002C12D00E
:1040B0002420254640356870206801684908490079
:1040C0000160204600F0EEF9002060646870206313
:1040D000A870287070BD012070BD403040787047D6
:1040E00070B50446002C06D0254640356878002679
:1040F000002802D005E0012070BD2E70204600F09F
:10410000D2F92420687020680168490849000160DC
:104110000F21606809068843216808612068826869
:104120000121C9038A438260E068012809D0212265
:10413000A0689202104322689060E068022805D0CF
:1041400008E0A068226808439060F6E70120226832
:10415000C0025060206842680F4B1A4342602068DA
:10416000C2688A43C260616920690843A169090283
:1041700008432168C860216AE06908432168086033
:104180002068016801221143016066642020687084
:104190002663AE70002070BD00800002FFB583B0C2
:1041A0000446254640356878202802D0022007B012
:1041B000F0BD0C98002815D00D98002812D0287852
:1041C000012811D00120287002F0F6FC06460122D9
:1041D0001923D1032046009603F0ECF8002805D0FF
:1041E0000320E4E70120E2E70220E0E722206870F4
:1041F0004020A870002767640C9860620D98608565
:1042000067630E980090019604A90EC9204603F03A
:1042100035F8002808D0606C042802D02F700320E5
:10422000C5E72F700120C2E7618D3B48FF2909D9FE
:10423000FF222285012300901B062046049903F0EB
:10424000A5F80AE0618D21850090208D0123C2B27E
:104250005B062046049903F099F800960022042199
:1042600020460E9B03F0A6F8002801D003209EE70D
:104270002068416A606A421C62620170208D401EA3
:1042800080B22085618D491E6185002825D1608D11
:10429000002822D000960022802120460E9B03F0A9
:1042A00089F8002801D0032081E7608DFF2809D913
:1042B000FF22228501231B0600972046049903F064
:1042C00065F80AE0608D20850097208D0123C2B239
:1042D0005B062046049903F059F8608D0028BCD194
:1042E000324620460E9903F089F8002806D0606C0B
:1042F000042801D003205AE7012058E72068202233
:10430000C26120684168054B194041606A70AF7016
:104310002F7000204BE700000024008000E800FE22
:10432000FFB583B00446254640356878202802D082
:10433000022007B0F0BD0C98002815D00D98002879
:1043400012D02878012811D00120287002F034FC06
:10435000074601221923D1032046009703F02AF8CB
:10436000002805D00320E4E70120E2E70220E0E78F
:10437000212068704020A870002666640C98606256
:104380000D98608566630E980090019704A90EC988
:10439000204602F0B7FF002808D0606C042802D045
:1043A0002E700320C5E72E700120C2E7608DFF2824
:1043B00009D9FF22228501231B0600962046049975
:1043C00002F0E4FF0AE0608D20850096208D012335
:1043D000C2B25B062046049902F0D8FF3A46204656
:1043E0000E9903F032F8002806D0606C042801D042
:1043F00003209EE701209CE7606A411C61622168FE
:1044000000788862608D401E6085208D401E80B2DD
:104410002085002825D1608D002822D00097002219
:10442000802120460E9B02F0C5FF002801D003200A
:104430007FE7608DFF2809D9FF22228501231B0613
:1044400000962046049902F0A1FF0AE0608D2085C5
:104450000096208D0123C2B25B062046049902F02B
:1044600095FF608D0028B9D13A4620460E9902F09A
:10447000C5FF002806D0606C042801D0032058E74F
:10448000012056E720682021C16120684268044B62
:104490001A4042606970AE702E70002049E700003B
:1044A00000E800FE7047704702480168491C01603F
:1044B00070470000AC02002010B5064801680222D7
:1044C00011430160032000F007F800F007F8002016
:1044D00010BD0000002002400020704710B50B48BE
:1044E000816B02041143816300F090FB00F086FBB6
:1044F0000748026808210A43026002688A43026092
:1045000000F074FB02F038FA10BD00000010024009
:1045100000200240002809DBC106C90E01208840A6
:1045200003490860BFF34F8FBFF36F8F70470000E0
:1045300080E100E0002805DBC106C90E01208840AB
:10454000014908607047000000E100E010B511F07B
:104550000FFD10BDBFF34F8F04490348C860BFF380
:104560004F8F00BFFDE700000400FA0500ED00E0FA
:104570000168FF30FF3002300122C2664031088BF3
:1045800010430883088B02221043088300207047E1
:1045900010B5016801224D23DB001A5013240023BB
:1045A0006401001903704031888A10438882888A28
:1045B000022210438882002010BD704710B50C06FF
:1045C00004D54907090E0818283003E049010818E6
:1045D000FF30293099B2002A06D0012202730181EE
:1045E000190C4181002010BD00220273C180F9E73F
:1045F00010B54A011218FF30FF300230D26B006F45
:1046000010F04AFA10BD10B54A011218FF30FF32FF
:10461000FF3001320230D26B006F10F0B3FA10BDE0
:1046200070B50446002C0DD011200321400125183F
:104630006972204600F0ADFA204600F019FA002019
:10464000687270BD012070BD10B511214901441878
:10465000217A012907D001212172006811F064F943
:104660000020207210BD022010BD70B54A07CD0990
:10467000520F5101091801230024002D02D02831C6
:104680004B7002E0FF3129314C700A701122520147
:1046900085182A7A012A06D02B72006811F0B0F82A
:1046A0002C72002070BD022070BD70B50A074368EF
:1046B000120F9A4201D9012070BD4A07CD09520F4D
:1046C0005101091801230024002D02D028314B701C
:1046D00002E0FF3129314C708C700A7011225201B6
:1046E00085182A7A012A06D02B72006811F03CF94D
:1046F0002C72002070BD022070BD00207047490759
:10470000090E0818FF300130406C7047F8B54F07AC
:10471000CC097F0F7901091801260025002C02D051
:1047200028314E7002E0FF3129314D700F700A615F
:10473000CB704A78002A00D0CF81022B00D10D71B6
:10474000112252018418227A012A06D026720068AA
:1047500010F016FF28462572F8BD0220F8BD70B58E
:104760000D466C07640F61010918FF3129314A6158
:104770008B610022CA614A700C706A0704D000681D
:1047800011F04EF9002070BD006811F049F9F9E709
:10479000F8B504460D4668076168400F884201D9A4
:1047A0000120F8BDE90900270122002904D04101B8
:1047B000091928314A7004E069010919FF312931CA
:1047C0004F708A700870112040012618307A012835
:1047D00006D03272206811F003F9680702D007E0B2
:1047E0000220F8BD232109016118206811F0BAF8F0
:1047F00037720020F8BD70B50D466C07640F61017B
:10480000091828314A618B610022CA6101224A706D
:104810000C706A0704D0006811F002F9002070BD26
:10482000006811F0FDF8F9E7F8B50446206811F0CA
:10483000FDF9000402D5204609F02EFD206811F094
:10484000F5F940050DD5206840308188012292029B
:1048500091438180204600F037F90021204600F086
:1048600065F9206811F0E2F9400406D5206840306F
:1048700081880122920391438180206811F0D6F94A
:10488000800406D52068403081880122520391437C
:104890008180206811F0CAF9C10413204001042668
:1048A0000827251800291CDA206840300188B14308
:1048B0000180206840300188B943018028780128B0
:1048C00005D10020287000212046FFF776FE204603
:1048D00000F00EF9206840308188012212039143D4
:1048E0008180206811F0A2F9000519D520684030B8
:1048F0000188394301802068403081880122D2023A
:1049000091438180206840300188314301802068D4
:1049100011F08CF9C043C00402D5204600F054F9D0
:10492000206811F083F900060BD52068403081889B
:10493000802291438180287800281ED0204600F0F4
:1049400043F9206811F072F9800509D520684030DC
:1049500081880122520291438180204600F0DEF8D6
:10496000206811F063F9C00506D5206840308188C1
:10497000FF22013291438180F8BD206840300188D8
:104980003143018020684030018839430180012093
:10499000287020684030808AF021084081089920E2
:1049A0008000015101212046FFF707FEC9E7F0B55D
:1049B00085B00446002C07D0112040012618707ADB
:1049C0000025002803D006E0012005B0F0BD3572B7
:1049D000204600F061F803207072206810F0B8FFE4
:1049E000002001270CE0410109190A4620325772C4
:1049F0001072C886D5728D63CD630D64401CC0B241
:104A000061688142EFD800200EE0410109190A4691
:104A1000FF3121314D720872CD72D11DF9318D6394
:104A2000CD630D64401CC0B261688142EDD821465F
:104A3000142210316846FBF718FC20460FC810F00E
:104A40007AFF002803D0022070720120BDE72420E5
:104A500005557772E069012802D12046FFF798FDDD
:104A6000206A012802D12046FFF782FD0020ACE732
:104A700010B500680649884208D10648816B0122BA
:104A8000D205914381631F20FFF744FD10BD000054
:104A9000005C00400010024010B5006808498842E0
:104AA0000DD10848816B0122D20511438163002298
:104AB00011461F20FFF74AFD1F20FFF73BFD10BDE9
:104AC000005C00400010024070B504460125A0685B
:104AD000022801D0FEF7F8F9FF34FF3402342946EA
:104AE000206F10F05DF9206F10F014F970BD000018
:104AF00010B50446A069002806D0074801690622BF
:104B0000914301610FF0BEF8FF34FF340234206F8F
:104B100010F02EF910BD000000ED00E010B5FF30E0
:104B2000FF300230006F10F02AF910BD10B51122CD
:104B300052018418227A012A09D0012222722422E9
:104B40001154006811F08BF80020207210BD022073
:104B500010BD10B5272109010A5823210901411868
:104B6000104610F02AF910BD70B50446112040011E
:104B70002518287A01280AD001202872206810F010
:104B8000CBFE206811F040F80020287270BD022092
:104B900070BD70B50546112040012C18207A0128FF
:104BA0000DD001202072286810F0D2FE286811F084
:104BB0005DF80021002804D02172012070BD022080
:104BC00070BD2172002070BD10B504462720000181
:104BD000005910F03EF9A069002804D0024801698C
:104BE00006221143016110BD00ED00E0024801689A
:104BF00002151143016070470070004002480168CF
:104C0000421511430160704700700040024801687E
:104C1000102291430160704700700040F8B50146D2
:104C20000020844B0125ED03814C824A403310293A
:104C300075D016DC012973D0022972D0042971D0F5
:104C400008290DD1D96803231B03194000296AD014
:104C500001235B03994267D11268520764D520464D
:104C6000F8BD012703267F04360420290FD04029F0
:104C700037D0FF390139F3D1D9683140002972D0DA
:104C8000B94271D1126852076ED52046F8BD196934
:104C90001B69334001242404A34203D18C0501D5B0
:104CA0002846F8BDBB4203D1890701D56248F8BD4B
:104CB000B342FCD111688903F9D5106803210905B5
:104CC000084001210905401A09D0401A05D0884240
:104CD00001D15A48F8BD5A48F8BD5A48F8BD5A485B
:104CE000F8BDD96801239B061940002924D1156815
:104CF000AD0121D5D1680F2080040140D068032385
:104D00009B051840514B890C5B5C810D491CD06898
:104D1000C0030CD41068C00607D5494808E076E007
:104D200011E02EE049E068E06AE0204600E04848F3
:104D30005843FBF7DDF9F8BD9942FCD1916889072A
:104D4000F9D54448F8BDD9688907890F002902D0F0
:104D5000022903D009E000F02BFAF8BD12685207CF
:104D600003D52046F8BD58E05AE0012906D00329B2
:104D7000F8D119698905F5D52846F3E700F028FA36
:104D8000F0E7D9680C263140002902D0082903D069
:104D900007E000F0FDF9E5E71268520701D520466B
:104DA000E0E7042906D00C29DCD119698905D9D599
:104DB0002846D7E700F00CFAD4E7D9680326B602F4
:104DC0003140002908D00127FF02B94207D11268FB
:104DD000520704D52046C5E700F0DAF9C2E7012200
:104DE0009202914202D100F0F3F9BBE7B142B9D18E
:104DF00019698905B6D52846B4E700F0C9F9B1E7C5
:104E0000012212039142ADD100F0E2F9AAE7916BC1
:104E10004902A7D500F0BCF9A4E700F0B9F9A1E771
:104E20000122120491429DD100F0D2F99AE70000CC
:104E30000024F400001002408890000020A1070028
:104E400000093D0040420F0080841E0050C401084C
:104E500000127A00006CDC02F8B504462078644D3C
:104E600080067FD5002662484038806BC00006D49B
:104E70005F484038826B01040A43826301265D4823
:104E80000168C90512D40168821511430160FFF75A
:104E900005F9074606E0FFF701F9C01B642801D9B0
:104EA0000320F8BD53480068C005F4D55048403889
:104EB00000680321090508406268114081420AD058
:104EC0009003800F032806D14948403800688003CA
:104ED00001D50120F8BD28690321090408400028F4
:104EE00021D00A4082421ED0207880061BD5286936
:104EF00088432A690121C9040A432A612A698A432D
:104F00002A612861C0050ED5FFF7C8F8074607E0FB
:104F1000FFF7C4F8C11B3848814201D90320F8BD0E
:104F200028698005F4D560688103890F032908D1B9
:104F30002F4B403B19680322120591431040014357
:104F4000196028690322616812041140084328612E
:104F5000012E07D126484038826B01048A4300E0C5
:104F600000E082632078C00705D0E868A168800867
:104F700080000843E8602078800705D5E8680C21A8
:104F80008843E1680843E8602078400706D5E86870
:104F900003218902884321690843E86020780007DB
:104FA00006D5E86803210903884361690843E8607E
:104FB0002088C00506D5E868032109048843A16953
:104FC0000843E8602078400606D5E8680121890694
:104FD0008843216A0843E8602078000606D5E8681F
:104FE000032189048843E1690843E8600020F8BD93
:104FF000401002400070004088130000F8B50446DD
:105000000E465B480068C007C00FB0420CD258483B
:10501000016849084900314301600068C007C00FBA
:10502000B04201D00120F8BD2078524F800705D54D
:10503000F868F0218843A1680843F8602078C00729
:1050400060D06068022808D003280BD001280ED059
:105050003968890510D40120F8BD396889030BD45B
:105060000120F8BD3968890106D40120F8BD3968EE
:10507000490701D40120F8BDF96889088900014376
:10508000F960FFF70BF80546606802280CD003288A
:1050900018D0012824D031E0FFF700F8411B364832
:1050A000814201D90320F8BDF8680007800F02286B
:1050B000F2D127E0FEF7F2FF411B2F48814201D9D0
:1050C0000320F8BDF8680007800F0328F2D119E02B
:1050D000FEF7E4FF411B2848814201D90320F8BDB7
:1050E000F8680007800F0128F2D10BE0FEF7D6FF29
:1050F000411B2148814201D90320F8BDF86800070F
:10510000800FF3D11A480168C907C90FB1420BD902
:10511000016849084900314301600068C007C00FB9
:10512000B04201D00120F8BD2078400706D5F868CC
:10513000072109028843E1680843F86020780007E6
:1051400007D5F8680721C90288432169C9000843C7
:10515000F86000F03DF8F968084A0906090F515C4B
:10516000C840074908600320FFF7B6F90020F8BDE2
:1051700000200240001002408813000040C40108D3
:10518000A80200200148006870470000A802002023
:1051900000B5FFF7F7FF0449C968044A4905490FFC
:1051A000515CC84000BD00000010024059C4010815
:1051B00000B5FFF7E7FF0449C968044A8904490FAD
:1051C000515CC84000BD00000010024059C40108F5
:1051D00010B51C4AD1680C230846184004280BD08F
:1051E000082810D00C2810D050680004410F491C2A
:1051F0000120C003884010BD1068C00601D51248C8
:1052000010BD124810BD124810BD8802114B000F8E
:10521000185C0902890F491CD368DB0304D50C4ACA
:105220005043FAF765FF10BD1268D20604D5064A4E
:105230005043FAF75DFF10BD044A5043FAF758FF98
:1052400010BD00000010024000093D000024F400E1
:1052500000127A0050C40108F8B504462078FC4ECC
:10526000C00755D0F0680007800F022807D0F0680B
:105270000007800F03280AD1F068C00307D5306803
:10528000800345D56068002842D10120F8BD012186
:1052900060680904884203D130680843306015E033
:1052A000052301221B049204984206D13068104362
:1052B000306030680843306008E030688843306010
:1052C0003068084000903068904330606068002883
:1052D0000FD0FEF7E3FE0546DE4F06E0FEF7DEFEEA
:1052E000401BB84201D90320F8BD30688003F5D5D2
:1052F0000EE0FEF7D3FE0546D64F06E0FEF7CEFEE3
:10530000401BB84201D90320F8BD30688003F5D4B2
:10531000207880074CD5F0681F270007800F3F02D8
:10532000012807D0F0680007800F032811D1F0682A
:10533000C0030ED43068400704D5E068012801D0CE
:105340000120F8BD70682169B84309020843706004
:105350002EE0E068002819D031680922914301430A
:105360003160FEF79BFE054606E0FEF797FE401B08
:10537000022801D90320F8BD30684007F5D57068D0
:105380002169B84309020843706011E030684008A1
:1053900040003060FEF782FE054606E0FEF77EFE26
:1053A000401B022801D90320F8BD30684007F5D41E
:1053B0002078C0067ED5F068A74F0007800F0BD07D
:1053C000E069002863D03068FF2101310843306074
:1053D000FEF764FE05464AE03068800502D5E069C4
:1053E00000280AD0606A71683940884214D90AF0EE
:1053F00077F8002803D00120F8BD0120F8BD7068BF
:10540000616AB843084370607068218C0002000A2A
:1054100009060843706011E07168B9430143716087
:105420007068218C0002000A090608437060606AF7
:105430000AF056F8002801D00120F8BD606A410B3F
:10544000491C0120C0038840F16809060A0F8349FE
:10545000895CC840824908600320FFF73DF829E0D5
:10546000FEF71CFE401B022801D90320F8BD30685E
:105470008005F5D57068616AB8430843706070684C
:10548000218C0002000A09060843706012E03068AF
:10549000FF21013188433060FEF700FE054606E03B
:1054A000FEF7FCFD401B022801D90320F8BD30683F
:1054B0008005F5D420786B4D000727D5606900285A
:1054C00012D02869012108432861FEF7E7FD07464D
:1054D00006E0FEF7E3FDC01B022801D90320F8BD5A
:1054E00028698007F5D511E0286940084000286147
:1054F000FEF7D4FD074606E0FEF7D0FDC01B0228EC
:1055000001D90320F8BD28698007F5D42078400729
:1055100071D500200090B06BC00006D4B06B0121A3
:1055200009070843B063012000904F480168C9058E
:1055300012D40168821511430160FEF7AFFD0746E2
:1055400006E0FEF7ABFDC01B642801D90320F8BDBF
:1055500045480068C005F4D5FF20A16801308142AC
:1055600003D12969014329611BE00122920200292C
:105570000AD005231B0299420DD1296911432961E3
:105580002969014329610CE029698143296128695E
:105590009043286105E02969814329612869904386
:1055A0002861A06800280FD0FEF778FD074607E0C5
:1055B000FEF774FDC11B2748814201D90320F8BDC5
:1055C00028698005F4D50EE0FEF768FD074607E080
:1055D000FEF764FDC11B1F48814201D90320F8BDBD
:1055E00028698005F4D40098012804D1B06B01210A
:1055F00009078843B0632078800643D51B48A26919
:105600004114002A18D0B26801231A43B260726BA9
:105610001A437263026A0A430262FEF73FFD0546BF
:1056200006E0FEF73BFD401B022801D90320F8BD30
:10563000B0688007F5D525E0B26852085200B26024
:10564000026A8A430262FEF729FD054617E0000060
:10565000001002408813000000E0000040C4010870
:10566000A8020020401002400070004000000140ED
:10567000FEF714FD401B022801D90320F8BDB068D5
:105680008007F5D4A06A002847D0F1680907890F80
:10569000032944D001273F06022806D03068B843CA
:1056A0003060FEF7FBFC044634E03068B8433060FD
:1056B000FEF7F4FC054606E0FEF7F0FC401B02286E
:1056C00001D90320F8BD30688001F5D4216BE06A70
:1056D000F2680843616BFD231B049A43114308439E
:1056E000F060306838433060FEF7D8FC044606E0CE
:1056F000FEF7D4FC001B022801D90320F8BD306856
:105700008001F5D509E0FEF7C9FC001B022801D98C
:105710000320F8BD30688001F5D40020F8BD0120D9
:10572000F8BD0068503089000818006870470068AC
:105730005030890008180260704730B501462031AA
:105740000A78012A15D001240C7002224A700368DD
:10575000CA225A62036853225A620268936820255B
:105760002B4393600068FF2242624C700020087057
:1057700030BD022030BD10B50EF074FB10BDF8B581
:10578000044625462035287801281BD001202870A2
:10579000022068702268CA2050622268532050623A
:1057A000FF2201320027914221D120688168914374
:1057B000816020688168120191438160FEF76EFC70
:1057C00006460FE00220F8BDFEF768FC811B7D2035
:1057D000C000814206D92168FF204862032068701A
:1057E0002F70F8BD2068C068C007EDD020E02068A9
:1057F0008168012252029143816020688168120110
:1058000091438160FEF74AFC06460DE0FEF746FC38
:10581000811B7D20C000814206D92168FF2048629B
:10582000032068702F70F8BD2068C0688007EDD530
:105830002168FF204862012068702F700020F8BDA9
:1058400010B50B46006841680D480140080CD8703F
:10585000CC04E40E5C708C06A40E9C700904490F05
:105860001970002A0AD109F073FED870587809F02F
:105870006FFE5870987809F06BFE9870002010BD8C
:105880003FFFFF0010B50B460168896A5960016847
:1058900009694904490C9960006801680E48014093
:1058A0008802800E18704C04640E5C704C06640E06
:1058B0009C70090C40242140D970002A0AD109F0BB
:1058C00047FE1870587809F043FE5870987809F030
:1058D0003FFE9870002010BD7F7F7F0070B50446AA
:1058E000002C05D0254620356878002802D006E037
:1058F000012070BD00202870204600F045F80220ED
:1059000068702168CA204862216853204862204696
:1059100009F031FEFF21002805D0206841620420F3
:105920006870012070BD20688268164B1A40826042
:10593000206882686368A6691A43236933431A435F
:1059400082602268E06810612068026923891B0474
:105950001A4302612068C26880239A43C2602068AB
:10596000C26C92089200C264E269606902432068D6
:10597000C36C1A43C2642068416201206870002031
:1059800070BD0000BFFF8FFF00B597B004200990E5
:1059900000201390FF2001300B9009A8FFF75CFC5A
:1059A000002801D0FDF790FA20200090C00201905D
:1059B0006846FFF751FA002801D0FDF785FA08483C
:1059C0000169012292041143016100220121022098
:1059D000FEF7BCFD0220FEF7ADFD17B000BD0000D4
:1059E00040100240FEB504460B4625462035287877
:1059F000012810D001202870022068701E46002760
:105A00002036002A09D020688068400625D51878FD
:105A100009F09EFD22E00220FEBD2068806840065D
:105A200000D4DF70187809F09BFD0204587809F063
:105A300097FD00020243987809F092FD0243D8785E
:105A400000040243307809F08BFD00060243D86958
:105A5000024358690243164618E0DF70D8690028EF
:105A600032D0307809F074FD197898780904084329
:105A70005978DA780902120411430843317809068B
:105A80000843D96908435969084306469969586823
:105A9000084300902168CA20486221685320486268
:105AA000FF22586A01328023904235D120688168F4
:105AB000914381602068C1681940FF398239C16013
:105AC000FEF7ECFA019012E0307809F041FDCBE7E7
:105AD000FEF7E4FA0199411A7D20C000814206D9FF
