:020000040800F2
:1000000078470020D500000871D40008D1640008AA
:1000100000000000000000000000000000000000E0
:100020000000000000000000000000008105010841
:10003000000000000000000039DC0008112F01085A
:10004000E7000008E70000082BEB0008E7000008C5
:10005000E7000008FD2F00080D3000081D300008E3
:10006000E7000008E7000008FF2E0008E70000088E
:10007000E7000008E7000008E7000008E7000008C4
:10008000E7000008E7000008E700000800000000A3
:10009000E7000008E7000008E7000008E7000008A4
:1000A000E7000008E7000008E7000008A7330108A0
:1000B000E7000008E700000800000000B14901085F
:1000C0000348854600F03AFF00480047E9FE010872
:1000D000784700200448804704480047FEE7FEE7D1
:1000E000FEE7FEE7FEE7FEE7CD300108C1000008AD
:1000F00030B50B46014600202022012409E00D46C0
:10010000D5409D4205D31D469540491B2546954047
:1001100040191546521E002DF1DC30BD70B500248B
:100120002546002801DA01244042002901DA012590
:100130004942FFF7DDFFAC4200D04042002C00D026
:10014000494270BDF0B51FB40646002082B0054696
:100150004024019100901BE0019922460F46304651
:1001600000F0B0FC049A059B801A994110D3104608
:100170001946224600F096FC361A8F410197224616
:1001800001200021009F00F08DFC38184D410090A7
:100190002046641E0028DFDC019B00982946324679
:1001A00007B0F0BDF8B500242546002904DA0E4654
:1001B000012400214042B141002B04DA1E460023F5
:1001C00052420125B341FFF7BDFF8C4617461E463C
:1001D000AC4203D0002540428D41AC46002C02D0F9
:1001E000002657429E4161463A46334601B0F0BD73
:1001F000F0B51FB486B000200090019002900698E0
:10020000069980B204900798090C02040014114367
:1002100007900027089D099806913E463C460390AA
:100220000398A9B20204000C039004982D0C154306
:1002300048430021224600F035FCC71971411034B3
:100240000E46402CECDB3846029A00F02BFC009A5C
:10025000019B801800905941029801911030029042
:100260004028CCDB00980BB0F0BD03460B439B0746
:1002700003D009E008C9121F08C0042AFAD203E01B
:100280000B780370401C491C521EF9D27047D2B241
:1002900001E00270401C491EFBD270470022F6E7C5
:1002A00010B513460A4604461946FFF7F0FF2046EC
:1002B00010BD70B5064614F0EDFD046805460A222F
:1002C0000021304600F074FC2C6070BDF8B5024689
:1002D0004A40D40F42004B0052085B089A4202D2B7
:1002E0000246084611464A0023D0C30D4A00DDB23B
:1002F000120EAD1A202D35DA49020126490AF605FB
:100300008A19002C00D0524220214F1B1146B940BF
:100310002A411018C20D9A4221D0002C17D0012D6D
:1003200008DCDA05801AD20F8019D207DBB200F0A0
:100330007FFCF8BDDA05801A012340001B06C018B7
:1003400080185A428018CA0F1043490007E0490834
:10035000C2071143DA05801A80194008801800F09E
:100360005FFCF8BD61000122511A001BF7E7012272
:10037000D2075140AAE70122D2075040A6E7024621
:1003800070B54A40D30FDB0740002DD04A002AD079
:10039000010E140E000212020919400A520A8418B2
:1003A000E50104465443000A120A2E045043A419DE
:1003B0004219200CC543AA18120C0125AD03521C8A
:1003C000521912047F39240400D0521C104301D466
:1003D0004000491EC2B20C06C0092018401C40084B
:1003E000802A02D003E0002070BD400840000029B0
:1003F00000DA0020184370BD70B502464A40D50FA0
:1004000040004A00ED0740085208002814D0002A96
:1004100012D0C40DD30D41020120C0055202490A79
:10042000520AE41A091812187D34914201D3641C4F
:1004300000E04900002C01DA002070BD0023914249
:1004400001D3891A0343400849000028F7D1002945
:100450000AD0914202D10121C90705E0914201D29F
:10046000012101E00121C943E005C018401900F055
:10047000D7FB70BD420005D04200120E52428A42A4
:1004800001DB00207047C90508187047F0B5074622
:100490000846584087B0C00F049048000E465900E7
:1004A00040084908BC1A884105D2384631461E46E4
:1004B00017460B4602465800400810434CD0300DFA
:1004C000039040055900400D490D0590401A0290D7
:1004D000402872DA18030121000B09050843019036
:1004E00004980092002805D00199524200208841CA
:1004F00000920190029840210A1A0199009800F098
:10050000D1FA05460C466B4607CB00F0ECFAC01951
:100510007141039A0E0D0023D71756401A467A40B0
:10052000164344D0049A002A2DD0029A012A039A35
:1005300015DC1205C01A914101263605001C7141D7
:10054000D20F059ED2070093019202962A462346B7
:1005500000F0FFFB07B0F0BD38463146FAE716055C
:10056000224A0F46B218C01AB74101210905001CE2
:100570004F4100187F41114618187941E20F10438E
:100580006D19644113E0E2076D0815436408C20762
:100590001443039A01261205C01A91413605001C26
:1005A0007141CE07400830434908C01851412A46DE
:1005B000234600F0C1FBCDE7FFE70498012240008D
:1005C000C117121A00238B4104983146C417381AF8
:1005D000A141EEE730B40124E407634030BC55E7A5
:1005E00030B40124E407614030BC4FE70000E0FF75
:1005F000F0B51FB488B00B990998002448400999B8
:10060000C00F490049080991C0070B9900904900A3
:1006100049080B9109990898A64608431CD00B99E4
:100620000A98084318D0099801244000420D480058
:10063000410D099824050003000B204309900B98F5
:100640000003000B20430B9050181C494018002257
:1006500001901446104605E0002001460DB0F0BDA3
:10066000032801DA034600E003239C46C11A0AAEC0
:100670000AE05F0008ADED5B4F00F75B7D430027AC
:10068000AA187C41491C5B1E6145F2DD410004ABA8
:100690005A522104120C0A43240C401C0828DFDBA8
:1006A000019802900099704601910090059B049A70
:1006B0000799069800F04DFBD0E700000DFCFFFF06
:1006C000F0B50C465C4085B0E40FE40703944C00A1
:1006D00000266408590094464908024602962243BF
:1006E00021D062460A431ED06200570D4A000E0315
:1006F0002303550D012402462C492405781B1B0BAE
:10070000360B401823432643614600901C46501A7E
:10071000B44103D30098401C009002E09218009866
:100720005B41002803DA0020014605B0F0BD00203F
:10073000012109050746864611E064461D46141B43
:10074000B54106D36546521BB341744607430C437B
:10075000A646CD0740084908284392185B41054644
:100760000D43EAD11046184313D060461946504055
:100770007140084306D06046101AB34106D20122E8
:10078000002306E000220123DB0702E00122D2431E
:100790005310009874460105381C6141029C039D6A
:1007A0000019694100F0C8FABFE70000FD0300002E
:1007B00070B54B005B0803430BD04B005C0D00266B
:1007C00033466542B341D417AD1AA34102DB002082
:1007D000014670BD12053018514170BDC217C10FDE
:1007E000504010B54018CA079623002100F020FAA7
:1007F00010BD10B500229623114600F019FA10BD65
:100800000A4670B5C917D30F4A4048400025C118A1
:1008100014466C41DA0796232046002C03D0B623F9
:1008200000F006FA70BD08460021F9E70EB5C217C0
:10083000C10F5040CA0740180021054B0293019296
:1008400000910A460B4600F084FA03B000BD000098
:10085000330400000EB505490291002100910A46BB
:100860000B46019100F075FA03B000BD330400009F
:100870003EB5CA17CB0F002450405140C01861410B
:10088000DA07054B0293019200942246234600F0BA
:1008900060FA03B030BD000033040000C20F410015
:1008A00040020123400ADB05D207090EC0187F2948
:1008B00001DA00207047962903DC9623591AC840B4
:1008C00001E096398840002AF4D040427047410048
:1008D00040020122400AD205090E80187F2901DA60
:1008E00000207047962903DC9622511AC8407047B1
:1008F000963988407047000070B5CD0F4A00090353
:100900000123090B1B0519430B4BED070024520D66
:100910009A4201DA002070BD074B34339A4203DC5F
:100920009A1A00F0CFF802E00449511888402C438D
:10093000F1D0404270BD0000FF030000CDFBFFFF7F
:100940004A0009030123090B1B051943094B10B584
:10095000520D9A4201DA002010BD064B34339A4200
:1009600003DC9A1A00F0AEF810BD03495118884014
:1009700010BD0000FF030000CDFBFFFF70B5CD0FE1
:100980004A0009030123090B1B0519430D4BED0711
:100990000024520D9A4202DA0020014670BD094B34
:1009A00034339A4203DC9A1A00F08CF803E0064BC9
:1009B000D21800F077F82C43F0D0002240428A4150
:1009C000114670BDFF030000CDFBFFFFC20FD20731
:1009D000400040080BD0C10D0723DB01C9184002BD
:1009E0000905400A1143C20840071143704700201F
:1009F0000146704710B5002904DB0124E40740429A
:100A00008C412146002B04DB1C460123DB075242AC
:100A1000A3418B4200D1824210BD000010B50029D5
:100A200004DB0124E40740428C412146002B04DB17
:100A30001C460123DB075242A341994200D1904258
:100A400010BD0000CB0FDB07490010B54908024676
:100A50000A4307D00A0D07240903E401090B121BFE
:100A6000002A01DC002010BDC900440F0C43C10066
:100A7000E018D205801800F0D3F810BD0122D2078B
:100A8000002800DB101A002900DB511A8142704750
:100A90000122D207002800DB101A002900DB511ABE
:100AA0008842704710B5202A04DB0146203A914065
:100AB000002010BD914020239C1A0346E3401943B7
:100AC000904010BD10B5202A04DB0846203AD040E3
:100AD000002110BD0B46D340D0402024A21A9140E3
:100AE0000843194610BD10B5202A06DBCB1708466F
:100AF000203A1041C1170B4306E00B461341D0408A
:100B00002024A21A91400843194610BD0FB400B525
:100B100089B00CA900910B990023CB60204B214A8E
:100B200006930792042201921F4A02921F4A0892DA
:100B300002466B46002000F0B0FA09B008BC04B0D1
:100B4000184770B586B006460020C04301900020CB
:100B500015460C460091029104903246694604A85D
:100B6000FFF7D4FF024604982118002D05D0002875
:100B700001D0084600E020462860049800280DD0E7
:100B8000002A02DD0098884208D0081B01900094DA
:100B900032466946029404A8FFF7B8FF06B070BD5C
:100BA000F112000811130008FFFFFF7F690F000812
:100BB000F7B5009C0F4600262578641C002D05D053
:100BC00000F0CEF90068405DC007F5D12B2D02D0B2
:100BD0002D2D18D0641E39462046029A00F0AAFB3B
:100BE000002F04D03968A14201D100993960710504
:100BF000022400290BDA4042002803DD14F04AF9F0
:100C00000460A007FEBD012080020643E3E7002840
:100C1000F8DA14F03FF904600048FEBDFFFFFF7FE3
:100C2000002904DA401C490001D140084000704707
:100C300070B40024050C05D11024000402D1002951
:100C400021D01124050E01D100020834050F01D175
:100C50000001241D850F01D18000A41C002801DBA8
:100C60004000641C002908D020252E1B0D46F540AD
:100C7000A14000D001212943084301061B1B000AA3
:100C8000DB1D02D5002070BC7047DB0518188018EA
:100C90000029F8DA401C4900F5D170BC400840003A
:100CA000704770B5002801DC002070BD4100400293
:100CB0000126400AF605090E8019CA0701D1400035
:100CC000491E4D10002211463F353346CB409B183C
:100CD000D418844201D8001B1A464000491C172929
:100CE000F3DD5100814202D20021C94300E000211E
:100CF000E8058018FFF794FF70BD10B541000DD0D6
:100D00004100090E962909DC7E290ADC07DB410235
:100D100005D0C00F7F21C007C905401810BD0020B5
:100D200010BD9622541A20210A1B01469140E04032
:100D3000FFF776FFA04010BD10B5002B08DA0024A5
:100D4000401C614192185B411A4301D140084000A8
:100D500010BDF0B51FB482B005460C0003D00846A4
:100D600014F010F802E014F00DF820300246009064
:100D700021462846FFF796FE049B059A04460F4637
:100D800018431143084314D0184610431BD0009851
:100D900040210A1A18460599FFF794FE05460E46AB
:100DA000009A05990498FFF77DFE084305D00120BD
:100DB00004E02046394607B0F0BD0020C1170543C6
:100DC0000E432C43374300990E986305401A79056A
:100DD000E40A00220C43FD0A0A3002D50020014635
:100DE000E9E70105101969410C9C0D9D0019694145
:100DF000FFF7A2FFDFE70000F8B50546480040080E
:100E00000C46284304D06000184A400D904201DD92
:100E10002846F8BD15493539884210DC88420BDB7D
:100E2000290D200308432903014305D0E00F104991
:100E3000C00741180020F8BD00200146F8BD161A71
:100E40004020821B28462146FFF72CFE07460091D2
:100E5000284621463246FFF735FE3A46009BFFF70B
:100E60006BFF3246FFF71EFEF8BD000033040000A2
:100E70000000F03F4A0009030123090B1B05194339
:100E80000A4B10B5520D9A4202DA0020014610BDFD
:100E9000064B34339A4203DC9A1AFFF713FE10BD57
:100EA000034BD218FFF7FEFD10BD0000FF0300004A
:100EB000CDFBFFFF10B54100C40F0A0E4002012117
:100EC000400AC905E40740187F2A07DA7D2A00DABC
:100ED0007D22763A90400146002008E0962A09DCFF
:100EE0001346763B0146994096239A1AD040FFF765
:100EF00097FE01E0963A9040002C00D0404210BD91
:100F000002000B4800D4821A002900DB411A9142EA
:100F100004D301204007914200D10648EFF300813D
:100F20000902090A020E1206114381F30088704774
:100F3000000000800000006000207047064C012582
:100F4000064E05E0E36807CC2B430C3C9847103471
:100F5000B442F7D3FFF7B8F80026020820260208AB
:100F6000004870476C25020810B50446FFF7F8FFEB
:100F70000068005DC007C00F10BD0000FFB5087815
:100F800089B01546FF2805D0491C2D2804D0002221
:100F9000002407E000240BE00122F9E70A235C4368
:100FA0000419491C0878FF28F8D1002A00D06442AF
:100FB000002004902A7801462D2A01D02B2A0FD137
:100FC0006D1C2D2A02D00022049209E00122FBE7C9
:100FD00000260A2233466D1CFFF70AF938187141C2
:100FE0002F78FF2FF4D10C9AA218069202460A43DA
:100FF00004D0FF23069A9133DA4205DA00210998DA
:101000000A4606C00DB0F0BD0024B74AB54D2646CD
:10101000079200F0F1F9029006980391002801DA96
:10102000474200E0074639050020AF4A001C514105
:101030000191009012E0F80707D022462B46304677
:101040000799FFF7D5FA0646079122462B46104628
:101050001946FFF7CDFA04460D467F10002FEAD15E
:101060000698019B0028009A0399029806DAFFF778
:1010700027FB3246079BFFF723FB05E0FFF7B8FA93
:101080003246079BFFF7B4FA049A002A02D00122E5
:10109000D2075140099A03C2B4E7FFB591B00020CE
:1010A00009900025ED432E209E685C681F46019044
:1010B000B9696D1C129888470090396A88470028E2
:1010C000F6D10098401C0AD00D20C0018443002EA8
:1010D00012DD00982B2809D02D280DD103E0002027
:1010E000C04315B0F0BD012080020443B9696D1CF6
:1010F00012988847761E009003A9600501D52D201F
:1011000000E02B206A461073491C0CA80F91029036
:101110000AE0B9696D1C12988847009001204002CE
:1011200004431398761E0560002E02DD00983028D7
:10113000EFD001990098884246D18020044308E00E
:101140000998401E09900120400204431399681C2D
:101150000860B9696D1C761E129888470090302887
:10116000EED031E00199884205D1200603D48020D9
:101170000443761E1EE0009814F04AF8002826D09A
:1011800001204002044307A90F980331761E8842CC
:101190000BD200980F99303808700F98401C0F90B0
:1011A000200607D50998401E03E0200602D40998BE
:1011B000401C0990A00502D51399681C0860B96904
:1011C0006D1C129888470090002ECBDC59E0002E51
:1011D00057DD0098652801D0452852D1A00550D58B
:1011E000032000028443B9696D1C761E129888475B
:1011F0000090002E0CDD2B2804D02D2808D1FF20D4
:1012000001300443B9696D1C12988847761E00901E
:10121000E00501D52D2100E02B21029801700298F4
:10122000401C0290019025E00120400204430EA9D9
:1012300002980131761E88420ED200980299303809
:101240000006000E087003D10299019881420AD964
:101250000298401C029006E0E00501D5234801E019
:10126000224840420990B9696D1C12988847009045
:1012700013980560002E04DD009813F0C9FF0028C4
:10128000D2D1F969129888470F99FF200870029906
:1012900003AA087000200A900B900CA90AA8099BC9
:1012A000FFF76CFEA00502D40120C04319E72420FB
:1012B000044209D0E00713D138680B9A0A99031D3C
:1012C0003B60006806C00BE00B990A98FFF7BAFB79
:1012D0000146E00704D13868021D3A6000680160E9
:1012E0002846FEE6000014400000F03FF1D8FFFF62
:1012F0004268002A08D001680B78491C002B03D0F3
:10130000521E06C0184670470121C160881E7047F2
:101310004268002A0BD0C3680168002B07D183689C
:101320008B4204D0491E521C06C00020704700208A
:10133000C0437047F7B582B0029C00272078641C38
:1013400015460197302802D0002D15D015E02078E1
:101350000127641C782804D0582802D0002D09D019
:101360000BE0002D01D0102D07D10027102520788B
:10137000641C02E0082500E00A250026009610E023
:101380000099012769430818020C294680B271436D
:1013900000908E183804864201D3012001902078F5
:1013A000641C294600F019F80028E9DA039800289F
:1013B00005D0002F01D0641E00E0029C046001985B
:1013C000002806D013F066FD02210160C81E05B09A
:1013D000F0BD009930040843F9E73A2800D23038CC
:1013E000202302469A43412A01D3104637388842C7
:1013F00001D30020C04370470EB5054A0292002277
:10140000009213460192FFF7A4FC03B000BD000058
:101410003304000070B58C180578401C6B075B0F17
:1014200001D10378401C2A1106D10278401C03E048
:1014300006780E70401C491C5B1EF9D12B0705D4A1
:101440000023521E0DD40B70491CFAE70378401C90
:10145000CB1A921C03E01D780D70491C5B1C521EB8
:10146000F9D5A142D8D3002070BD10B505200022C7
:101470001021000702F0CDFB10BD10B505200122A0
:101480001021000702F0C5FB10BD000038B504466E
:10149000084807490068FEF72BFE6043009002E011
:1014A0000098401E009000980028F9D138BD000037
:1014B00040420F00A8020020F8B504462068816869
:1014C0008907890F012902D10168C9072AD18168DA
:1014D000154A102611400125002907D0A06D304380
:1014E000A065E06D2843E0650120F8BD81682943CF
:1014F00081600120FFF7CAFF04F0B2FD07460CE04F
:1015000004F0AEFDC01B0A2807D9A06D3043A065CA
:10151000E06D2843E0650120F8BD20680068C04305
:10152000C007EDD10020F8BD17000080F0B589B0EC
:1015300007460C461022002105A81EF01CFE22467C
:1015400005A905A814F011FA6846007D8726000653
:1015500005AA002810DA0020115C13185B784900F6
:10156000DB0919431154401C0F28F5DB08A9C87882
:1015700040007040C8700EE00020115C13185B78CA
:101580004900DB0919431154401C0F28F5DB08A959
:10159000C8784000C870E11DF9314869102814D09E
:1015A0006846007D00061CD50020135C15186D7878
:1015B0005B00ED092B431354401C0F28F5DB08ABEF
:1015C000D87840007040D8701AE000202118FF3110
:1015D00001314B78155C6B404B70401C1028F5DBDB
:1015E00026E00020135C15186D785B00ED092B4395
:1015F0001354401C0F28F5DB08ABD8784000D87096
:101600008020E51D4B69FA355855002300E043550D
:101610004869401C48611028F9D300202118FF3187
:1016200001314B78155C6B404B70401C1028F5DB8A
:10163000002021180B46E031FF330A460133497C74
:101640005B7859405174401C1028F2DB214610226F
:10165000F13101A81EF077FD2246394601A814F0A9
:1016600084F91022002105A81EF085FD09B0F0BD07
:1016700010B50446204610220021F1301EF07BFDFB
:101680000021FF2015300151F02220461EF073FD8D
:1016900010BD10B502460846102114F091F910BD96
:1016A000F0B587B006460D461446F01DF930069099
:1016B000F11D4069FA31059110390491002843D099
:1016C00010210F1AA74200D327460599BAB2401835
:1016D00029461EF038FD069806994069C0194861F0
:1016E00010283AD3BC4238D0002031180A46E032E4
:1016F000FF310131537C49784B405374401C102812
:10170000F3DB04993246084614F02FF9ED19E41B77
:101710001AE00022B018E030417CAB5C59404174C3
:10172000521C102AF6DB1022684604991EF00BFDAD
:1017300032466946684614F018F910226946049842
:101740001EF001FD1035103C102CE2D8A2B2294643
:1017500005981EF0F8FC0698446107B0F0BD000043
:1017600070B5174C207A00281AD0012000F020F91B
:10177000FFF77BFEE06D04F0CFFD0546FFF77DFE31
:1017800001F08DFD04F06CFCA16E401AA84204D952
:1017900011F074F904F064FCA066012000F0F8F880
:1017A000FFF76BFE01F07BFD04F06FFF642002F099
:1017B000E1F8A08D09F0ACFB04F08CFE70BD0000D8
:1017C000A80500207CB50C4C20782546403D00281B
:1017D0000ED10120694608710848806800902046B3
:1017E0004030406800780EF01FF900202875207006
:1017F000A87C60707CBD0000541300207815002088
:101800001CB50F48817C427C914218D2491C8174DE
:10181000C80714D022206A461071094CFF21803479
:1018200060682D31095C9171F921095C5171007872
:1018300001A90EF0EFF800906168E03148761CBD18
:101840001413002070B505462C68002C0ED0E068FB
:10185000416800290CD02046884701280AD014216D
:101860002046FEF71BFD0020286070BD012070BDE2
:10187000012070BD012070BD10B500280AD0C268DB
:10188000002909D09269002A08D09047012807D082
:10189000002010BD012010BD012010BD012010BD91
:1018A000012010BD10B50C460022226000280CD08B
:1018B000012810D0204600F053F9012810D120460D
:1018C00000F0CEF801280BD110BD204600F048F9F9
:1018D000012805D110BD204600F0C2F8012801D032
:1018E000002010BD012010BD10B5002808D0C1682F
:1018F0008968002906D08847012805D0002010BD3E
:10190000012010BD012010BD012010BD10B586B012
:1019100002221C490123002806D001280BD00228EE
:1019200011D003281CD115E0CC6A1443CC62C96ADB
:101930001140009114E0CA6A1A43CA62C96AC90711
:10194000C90F00910CE0CC6A1443CC62C96A114003
:10195000009105E0CC6A1443CC62C96A1140009141
:10196000094A4100515A0191029300210391032138
:10197000049106498000085801A902F091F806B0C8
:1019800010BD0000001002408819020898020020D3
:1019900010B5054A4100515A044A800010580022EF
:1019A00002F037F910BD00008819020898020020E3
:1019B00010B5054A4100515A044A800010580122CE
:1019C00002F027F910BD00008819020898020020D3
:1019D00070B505461D4CE078012825D011F0EAF8D5
:1019E000012823D0B1202070B82060700026A67096
:1019F000E6702671012060711548A0601549E1600C
:101A000015492161154A011F0A60016046602046A0
:101A10002C60E168096800290AD0884701280DD0A8
:101A200005F0ACFE002070BD012070BD012070BD2E
:101A30001421FEF733FC2E60012070BD14212868AC
:101A4000FEF72CFC2E60012070BD0000A0080020D5
:101A50005C02002000000020340000207000002004
:101A600070B505461C4CE07D012823D011F0A2F88A
:101A7000012821D033202075322060750120A07507
:101A80000026E6752676607620463030E061134801
:101A9000206266622046124928308160C660143890
:101AA0002860C1680968002908D0884701280BD040
:101AB000002070BD012070BD012070BD1421FEF713
:101AC000EDFB2E60012070BD14212868FEF7E6FBB7
:101AD0002E60012070BD0000B40800209800002096
:101AE0006402002070B505461A4CE078012820D029
:101AF00011F060F801281ED0402020703C2060705A
:101B00000026A670E6702671012060711248A06060
:101B10001249E1602661011F0160466020462C6089
:101B2000E1680968002908D0884701280BD0002007
:101B300070BD012070BD012070BD1421FEF7AEFB09
:101B40002E60012070BD14212868FEF7A7FB2E60CF
:101B5000012070BDEC08002074020020E800002085
:101B600070B505461D4CE078012826D011F022F80A
:101B7000012824D06A202070D62060700026A6702C
:101B8000E67026710120607120462830A06014495B
:101B9000E160144921611549134A0A6001604660F9
:101BA00020462C60E168096800290AD0884701288E
:101BB0000DD008F07BF9002070BD012070BD012020
:101BC00070BD1421FEF76AFB2E60012070BD142148
:101BD0002868FEF763FB2E60012070BDB40800206A
:101BE0000002002030010020500200206802002086
:101BF00070B505462C68002C0ED0E06841680029BD
:101C00000CD02046884701280AD014212046FEF730
:101C100045FB0020286070BD012070BD012070BD13
:101C2000012070BD10B500280AD0C268002909D073
:101C30009269002A08D09047012807D0002010BDE3
:101C4000012010BD012010BD012010BD012010BDDC
:101C500010B50246084600210160002A04D0FFF7B3
:101C600041FF012804D110BDFFF73CFF012801D03E
:101C7000002010BD012010BD70B505462C68002C59
:101C80000ED0E068416800290CD020468847012822
:101C90000AD014212046FEF701FB0020286070BD09
:101CA000012070BD012070BD012070BD10B500285D
:101CB0000AD0C268002909D09269002A08D090474A
:101CC000012807D0002010BD012010BD012010BD4B
:101CD000012010BD012010BD10B5024608460021AC
:101CE0000160002A04D0FFF773FE012804D110BD63
:101CF000FFF76EFE012801D0002010BD012010BDAD
:101D000010B5002808D0C1688968002906D0884726
:101D1000012805D0002010BD012010BD012010BDFC
:101D2000012010BD10B50648FFF78CFD0448001DCA
:101D3000FFF75EFF0248001FFFF79EFF10BD000087
:101D4000B402002010B507490020FFF781FF0549C4
:101D50000120091FFFF7A6FD024900200839FFF7FF
:101D6000BBFF10BDB8020020F0B587B004460020CC
:101D7000069000272D4EB068FFF7B6FD002802D070
:101D8000002007B0F0BD322001F0F4FD03A9B068D7
:101D9000FFF748FF002801D00020F2E70398A06178
:101DA0000498E061059820627068FFF79DFD0028A7
:101DB00001D00020E5E7322001F0DCFD69467068C3
:101DC000FFF75AFD002801D00020DAE70098606292
:101DD0000198A0620298E0620A2001F0CBFD306811
:101DE000FFF78EFF002801D00020CAE70A2001F08B
:101DF000C1FD002506A93068FFF758FF002801D073
:101E00000020BEE70A2001F0B5FD38460699FEF72E
:101E10005DFA07466D1C0F2DECDB05493846FEF7D1
:101E2000EBFA069020600120ABE70000B002002032
:101E30000000704110B5144C206F401C20672146F3
:101E40005031084620301EF007FF3421615E206DBE
:101E500041182165206F401C20671FF053FC216F43
:101E6000206DFEF745F90146084818F0B3FC01461D
:101E7000074A206F5043FEF73BF90549081A60678F
:101E8000044811F009FA10BDA8050020242C0020F8
:101E900010270000A02A002010B512490846203063
:101EA0001EF0DAFE0F4C503C216F206DFEF720F93A
:101EB00001460D4818F08EFC01460C4A206F504335
:101EC000FEF716F90949081A60670949094811F02F
:101ED0004BF90949074811F0CEF9064811F0DCF931
:101EE00010BD0000F8050020242C00201027000061
:101EF000351E0008A02A0020005C26050FB4F0B5AE
:101F0000E5B010A81CF0D4FCFAA110A812F026FF2E
:101F100068A8007B10AC002804D0F7A1E01C12F0E8
:101F20001DFF03E0F5A1E01C12F018FF68A8027D78
:101F3000C17C837C407C029003930592049168A845
:101F4000017CC07B0191009068A8837B427BECA15F
:101F5000A01D12F003FF68A8027FC37E817E407E31
:101F600002AC0BC4059268A8017EC07D019100906F
:101F700068A8837D427D15A8E1A1023012F0EEFE33
:101F800070A8037BC27A817A407A0AAC0FC470A829
:101F9000017AC27983794079069007930892099172
:101FA00070A80279C17883784078029003930592F3
:101FB000049170A8017868A8C07F0191009068A87A
:101FC000837F427F19A8D749023012F0C7FE70A85C
:101FD000017CC07B0191009070A8837B427B21A88B
:101FE000CBA1023012F0BAFE78A8037870A8C27FA5
:101FF000817F407F0AAC0FC470A8017FC27E837EC0
:10200000407E069007930892099170A8017EC37DD7
:10201000827D407D02AC0DC4059170A8017DC07C1D
:102020000191009070A8837C427C23A8BD490230B6
:1020300012F094FE78A8027CC17B837B407B0A90DF
:102040000B930D920C9178A8017BC37A827A407A27
:1020500006AC0DC4099178A8027AC37981794079D8
:1020600002AC0BC4059278A80179C0780191009068
:1020700078A8837842782BA8AA49023012F06EFE25
:1020800078A8417C30A83031817378A8817C30A851
:102090003031C17378A8C17C30A83031017478A880
:1020A000027D34A8A0A1013012F058FE78A8427D2C
:1020B0009DA135A812F052FE78A8817D30A830315C
:1020C000C1757D26F60031467E98FEF711F80F9017
:1020D000E1252D0129460F98FEF70AF80446084627
:1020E0003C21FEF705F807463C210F98FEF700F863
:1020F00000913B4622468DA136A812F02FFE3146B4
:102100007F98FDF7F5FF0F9029460F98FDF7F0FF38
:10211000044608463C21FDF7EBFF07463C210F989B
:10212000FDF7E6FF00913B46224680A138A812F059
:1021300015FE31468098FDF7DBFF064629463046FE
:10214000FDF7D6FF044608463C21FDF7D1FF0746C0
:102150003C213046FDF7CCFF00913B46224673A15F
:102160003AA812F0FBFD80A801793CA8002903D011
:1021700072A112F0F3FD02E071A112F0EFFD80A850
:1021800041793CA80330002903D06CA112F0E6FD90
:1021900002E06BA112F0E2FD542038A9887580A9F5
:1021A00088793C263E27002802D038A8C67501E071
:1021B00038A8C77580A80722825610AC02343EA802
:1021C00059A112F0CBFD80A8017AFE38002903D076
:1021D0005AA112F0C3FD02E059A112F0BFFD80A880
:1021E000417AFB38002903D054A112F0B7FD02E078
:1021F00053A112F0B3FD482040A9087280A9887A43
:10220000002802D040A8467201E040A8477280A88A
:1022100082892046C83044A112F0A0FD80A8817BAD
:1022200045A8002903D045A112F098FD02E044A181
:1022300012F094FD80A8C17BE938002903D03FA1AA
:1022400012F08CFD02E03EA112F088FD4C2040A966
:10225000887680A9087C002802D040A8C67601E0D4
:1022600040A8C77680A8428A2046DA302EA112F014
:1022700075FD80A8017DDA38002903D02FA112F066
:102280006DFD02E02EA112F069FD80A8417DD738D6
:10229000002903D029A112F061FD02E028A112F06B
:1022A0005DFD412048A9087380A9887D002802D0DF
:1022B00048A8467301E048A8477380A8028B2046CF
:1022C000EC3019A112F04AFD80A8817E4EA80029A9
:1022D00003D01AA112F042FD02E019A112F03EFD56
:1022E00080A8C17EC53800292CD014A112F036FD7B
:1022F0002BE000006E6F2A004F5441004142500015
:102300002530325825303258253032582530325851
:102310002530325825303258253032582530325841
:1023200000000000BC25020825642A002530326424
:102330003A253032643A2530326400005945530062
:102340004E4F2A00544912F009FD4D2050A98872C1
:1023500080A9087F002802D050A8C67201E050A8CA
:10236000C77280A8C28B20464B49FF300B3018390A
:1023700012F0F4FC88A80178CA38002904D0464934
:10238000091F12F0EBFC02E0434912F0E7FC88A8B9
:102390004178C738002904D03F49091F12F0DEFCFC
:1023A00002E03D4912F0DAFC7D21C9008998FDF771
:1023B0009FFE0F9029460F98FDF79AFE05460846A6
:1023C0003C21FDF795FE0E903C210F98FDF790FE05
:1023D000009131492A4614395AA80E9B12F0BEFCCE
:1023E00088A8017A5CA8002904D02B49091F12F0A3
:1023F000B5FC02E0284912F0B1FC88A8417AAD385A
:10240000002904D02449091F12F0A8FC02E0224947
:1024100012F0A4FC88A8817AAA38002904D01E49A9
:10242000091F12F09BFC02E01B4912F097FC4E20A2
:1024300058A9487688A9C87A002802D058A8867674
:1024400001E058A8877680A8828D20461249FF3087
:102450003A30183912F082FC88A8817B9B38002919
:1024600004D00D49091F12F079FC02E00A4912F06C
:1024700075FC80A83022825E08A162A812F06EFC72
:10248000FF22523210A96A98FDF7EFFE65B0F0BC4A
:1024900008BC04B01847000040230008256900006C
:1024A000FFB585B00446002710256557112020563A
:1024B00004900898A16801606079012843D1022046
:1024C00069460873A07C8873E07C03A90DF0A2FA2A
:1024D000029046B2B54200DC3546B54203D10898B9
:1024E000002101602FE0A189A068884200D3012764
:1024F000E2898918814226D8082069460873E07C61
:1025000003A90DF087FA029040B20490E189A06817
:10251000FDF7EEFD012916D12220694608734D739F
:10252000A07C8873E07C03A90DF074FA029045B298
:10253000B54208D100272079012804D169460871E5
:10254000E07C0DF071FA0698057007990498087000
:10255000384609B0F0BD0000FEB51D4CFF22616891
:10256000D532525C00250126002A2DD06A4616700D
:10257000FF223E32535C6A469370D070FF31813146
:10258000C86C10F0E1FD0190114F803FB8690290D6
:102590006A4655706078400706D5002008F086FF2F
:1025A000002801D0684646706068694600780CF0E3
:1025B00007FBFF226068C332B969125AFF304A43F1
:1025C000511A81308164FEBD6A461570D0E7000063
:1025D000941300200449896C002903D089680029DC
:1025E00000D00847704700001412002038B50C4690
:1025F00000220092694600F035FF002801D000203B
:1026000038BD0098844203D8401C01D0002038BD5A
:10261000012038BD0A48817C407C814201D30120E1
:102620007047074880304078800704D50448403020
:102630000078012801D00020704701207047000079
:10264000141300200E48FF220146037C80314868A5
:102650001932125C934201D30120704749788907EF
:1026600008D5E030007C002806D005482030407BAB
:10267000002803D0002070470120704701207047D8
:1026800014130020FFB587B0109D06460F461C4668
:10269000002F0DD0002D0BD018480690FEF7E8FF54
:1026A00001A9204600F0C0FE0446002C03D023E020
:1026B00002200BB0F0BD01990698491CFEF7E9FF16
:1026C000002E04D0102231460698FEF7E9FF394665
:1026D000099A0698FEF7E4FF02A80699FEF726FF7E
:1026E0006A46D17A107A09060843917A527A090427
:1026F00012021143084328602046DAE760190020DF
:10270000FFB587B00D461A46129F139C109B119976
:102710000646002E08D0002C06D0FF20013085424E
:1027200004D90E200BB0F0BD0A20FBE703A80091EE
:1027300002900197284609990BF0C6FA00942A46A0
:10274000314603A8099B0FF001FC002801D00F209F
:10275000E8E70020E6E70000F3B5A3B00C46E37815
:102760004F2B11D00022207954280FD000210A408D
:10277000617941290CD000252A4001260027002A32
:1027800008D06846067013E00122ECE70121EEE76D
:102790000125F1E7412B44D00022422843D00020FC
:1027A0000240502941D00020024201D06846077003
:1027B00000A81022A11D01301EF07BFE214602A8B8
:1027C0001022163101301EF074FE214604A820228A
:1027D000263101301EF06DFE214608A80822463140
:1027E00001301EF066FE214609A820224E3101303C
:1027F0001EF05FFE21460DA820226E3101301EF032
:1028000058FE20468030817B10AA30395171C17B3F
:1028100030399171017C3039D171002117725772B2
:1028200011E00122B9E70120BAE70120BCE710ADB1
:102830002A7A0A256A4310AD2A725B7CD218303A94
:102840002A72491CC9B2631880335A7C2A2AEED1F5
:1028500000210BE010AD6A7A0A256A4310AD6A7256
:102860001B7DD218303A6A72491CC9B26318803392
:102870001A7D2A2AEED1C17D10AA30399172017ECB
:102880000A233039427E594330395118E12212016E
:102890005143C27F037F8A18C17E0A2530396943BC
:1028A0003039807F59183C23303859436843081821
:1028B00010187D213038C900484313902046A030BD
:1028C00001780A2330394278594330395118E122CE
:1028D00012015143C27903798A18C17830396943AA
:1028E00030395B183C214B438179303969435918A1
:1028F00051187D223039D20051431491017A0A23B4
:102900003039427A594330395118E122120151438A
:10291000C27B037B8A18C17A3039694330395B182E
:102920003C214B43817B30396943591851187D2232
:102930003039D20051431591017C592901D07929B0
:1029400009D1417C452901D0652904D1817C5329D5
:1029500009D0732907D010A90F76C17C592905D059
:10296000792903D00CE010A90E76F6E7027D452AFE
:1029700001D0652A04D1427D532A06D0732A04D09F
:102980004E2905D06E2903D009E010A94E7606E045
:10299000017D4F2901D06F2901D110A94F76C17D4A
:1029A0003C2909D010A98F76022110AAD776B82227
:1029B000125D2D2A03D010E010A98E76F4E70321D2
:1029C0000BE010ADEA7E0A256A4310ADEA769B7DE6
:1029D000D218303AEA76491CC9B26318A0339A7DFE
:1029E0002A2AEED1007E2D280AD010A9C87EC876EA
:1029F0002046C0308178592907D0792905D00EE0CA
:102A000010A9C87E4042C876F2E7C178452901D0B6
:102A1000652904D10179532909D0732907D010A958
:102A20000F774179592905D0792903D00CE010A9F5
:102A30000E77F6E78279452A01D0652A04D1C2795A
:102A4000532A06D0732A04D04E2905D06E2903D00C
:102A500009E010A94E7706E081794F2901D06F294E
:102A600001D110A94F77417A3C2904D010A98F7762
:102A70000221002209E010A98E77F9E70A256A43AE
:102A8000303A9A1812B2491CC9B26318C0331B7A83
:102A90002A2BF3D110A90A84017D592901D0792963
:102AA00009D1417D452901D0652904D1817D532972
:102AB00009D0732907D018A98F70C17D592905D075
:102AC000792903D00CE018A98E70F6E7027E452A1A
:102AD00001D0652A04D1427E532A06D0732A04D03D
:102AE0004E2905D06E2903D009E018A9CE7006E062
:102AF000017E4F2901D06F2901D118A9CF70C07E66
:102B00003C2804D018A807710220002109E018A869
:102B10000671F9E70A2359433039511809B2401CAC
:102B2000C0B22218C032927E2A2AF3D110A8C184E2
:102B30002046E0308179592901D0792909D1C1791C
:102B4000452901D0652904D1017A532909D0732977
:102B500007D018A90F72417A592905D0792903D0D5
:102B60000CE018A90E72F6E7827A452A01D0652A90
:102B700004D1C27A532A06D0732A04D04E2905D034
:102B80006E2903D009E018A94E7206E0817A4F2918
:102B900001D06F2901D118A94F72417B3C2904D083
:102BA00018A98F720221002209E018A98E72F9E794
:102BB0000A256A43303A9A1812B2491CC9B26318FE
:102BC000E0331B7B2A2BF3D110A98A85017E59297A
:102BD00001D0792909D1417E452901D0652904D147
:102BE000817E532909D0732907D018A98F73C17E1C
:102BF000592905D0792903D00CE018A98E73F6E77E
:102C0000027F452A01D0652A04D1427F532A06D08B
:102C1000732A04D04E2905D06E2903D009E018A8E4
:102C2000C67306E0007F4F2801D06F2801D118A895
:102C3000C773E01DF930C17A3C2904D018A90F747C
:102C40000221002209E018A90E74F9E70A256A4357
:102C5000303A9A1812B2491CC9B26318FF330133D3
:102C60009B7A2A2BF2D110A94A86817D592901D05D
:102C7000792909D1C17D452901D0652904D1017E79
:102C8000532909D0732907D018A90F75417E5929F6
:102C900005D0792903D00CE018A90E75F6E7827EDD
:102CA000452A01D0652A04D1C27E532A06D0732A50
:102CB00004D04E2905D06E2903D009E018A8467526
:102CC00006E0807E4F2801D06F2801D118A84775F3
:102CD0002546FF352135287A0A223038697A504353
:102CE00030380818E12109014843E97B0A234118DB
:102CF000E87A2A7B30385843303812183C20424357
:102D0000A87B30385843101808187D213038C90086
:102D100048431E90287C592801D0792809D1687C25
:102D2000452801D0652804D1A87C532817D07328E2
:102D300015D018A807772046FF304930229012F0AE
:102D4000B1FE00223C4BFDF753FCFDF7D5FD20A959
:102D50008880E87C592805D0792803D00CE018A891
:102D60000677E8E7287D452801D0652804D1687DED
:102D7000532809D0732807D018A84777A87D592869
:102D800005D0792803D00CE018A84677F6E7E97D4E
:102D9000452901D0652904D1297E532906D07329FC
:102DA00004D04E2805D06E2803D009E018A88677F5
:102DB00006E0E87D4F2801D06F2801D118A8877759
:102DC000A87E3C2804D018A8C7770220002109E07B
:102DD00018A8C677F9E70A2359433039511809B2C0
:102DE000401CC0B22218FF322132527E2A2AF2D170
:102DF00020A80180FF3441346079592801D0792816
:102E000009D1A079452801D0652804D1E07953285B
:102E10000FD073280DD020A887702298FDF749FAAB
:102E200020A98880882269462398FDF71EFA25B0DC
:102E3000F0BD20A88670F0E70000244030B50446BD
:102E400000200022012507E02B469340A34301D137
:102E5000401CC0B2521CD2B28A42F5D330BDFFB57D
:102E600085B00025002700260020019040E00024C6
:102E700001984000049007990498095A0120A04045
:102E800001422BD031190C2203915143089A525818
:102E9000002A23D0059A002A01D140071ED00898A5
:102EA0000918082002910856021100070117069818
:102EB00040B20CF087F8002810D00298407A010147
:102EC0000E980818C068002802D07F1CFFB205E0E9
:102ED00029460F9A6D1C0398EDB25054641CE4B25D
:102EE000102CC8D31036F6B20198401CC0B2019025
:102EF000102EBCD310980770284609B0F0BD70475B
:102F0000F0B5044685B0084615461E46002813D085
:102F1000002D11D0002E0FD00021009101910291BF
:102F20000391052C0AD0062C08D0072C06D0082CBB
:102F300008D00B2005B0F0BD0A20FBE701216A464E
:102F4000117002E002216A46117001466F460322A9
:102F5000781C1DF0F8F803222946381D1DF0F3F8FF
:102F600002223146F81D1DF0EEF80C482346406859
:102F70000222044625786946284665782D022843B2
:102F8000A578E4782D042843240620430EF0E8FFBA
:102F9000002801D00F20CDE70020CBE7C01500208E
:102FA00000280CD000290AD0027B20301307002B08
:102FB00007D00378002B04D00020087018E003200D
:102FC0007047037A002B02D0130703D005E00120DD
:102FD00008700DE00378002B02D0120703D009E03F
:102FE0000220087004E00078002803D00320087055
:102FF00000207047172070477047704710B50120B8
:1030000000F042FD022000F03FFD10BD10B504208D
:1030100000F03AFD082000F037FD10BD10B510207B
:1030200000F032FD202000F02FFD402000F02CFDAC
:10303000802000F029FDFF20013000F025FD012057
:10304000400200F021FD0120800200F01DFD012062
:10305000C00200F019FD0120000300F015FD012061
:10306000400300F011FD0120800300F00DFD012060
:10307000C00300F009FD10BDFEE710B50520FFF705
:10308000A9FA10BD10B50420FFF7A4FA10BD10B5C1
:103090000620FFF79FFA10BD10B50220FFF79AFA3D
:1030A00010BD10B50020FFF795FA10BD10B5012036
:1030B000FFF790FA10BD10B50320FFF78BFA10BD93
:1030C00000B5002200F002F800BD000030B5054652
:1030D00001200D4B5C7A012C15D8587A00241C5421
:1030E000587A8000C01845605D7A184608302A5426
:1030F000587A421C5A72303008703A2048702F209B
:103100008870CC70002030BD1C2A002000B5002142
:1031100000F002F800BD000010B5014601200A4B86
:103120005A7A002A0FD009783039C9B28A00D218E9
:103130005468002C07D00020506059180872587A43
:10314000401E5872002010BD1C2A002010B50849EE
:1031500000234B6107494A684C1522434A604A687C
:10316000082422434A60C009C001036010BD00006A
:10317000000900200020024010B50020204A91697B
:10318000CB05204904D548690223184348619015AE
:1031900093699B0505D54B69012423434B61630269
:1031A000184393695B0505D54B69082423434B619C
:1031B000E301184393691B0505D54B690424234398
:1031C0004B616302184393699B0405D54B69102436
:1031D00023434B616302184393699B0304D54C69F5
:1031E00020231C434C6118439369DB0305D54B69CD
:1031F000402423434B61A1020843906110BD0000AD
:10320000002002400009002070B5044600F008FDCF
:103210000546184E0AE0601C08D0002C04D000F0CF
:10322000FFFC401BA04201D9032070BDB069C0075C
:10323000F1D1B069800701D50220B061B069C00545
:1032400011D4B06980050ED4B06940050BD4B069C3
:10325000000508D4B069800405D4B069800302D4A5
:10326000B069C00303D5FFF787FF012070BD0020C0
:1032700070BD00000020024010B5002805D01022CB
:1032800000211CF078FF012010BD002010BD10B5FA
:10329000052000220421000700F0BBFC10BD10B582
:1032A0000524240701220421204600F0B2FC01225B
:1032B0001102204600F0ADFC10BD00000649800060
:1032C00008580649401803D0C84203D00020704770
:1032D0000120704702207047EC190208702FFCFF94
:1032E00038B5174C15482060FF20DD30606020465F
:1032F000143008F0E7F92061002000900F4869467B
:103300000838406800780CF07CFBA0600098E06012
:1033100020461C300EF056FEA0612046243007F0F7
:103320008DFF206220462C3007F033FFA06220463C
:10333000343008F063F82063204638BD9C13002029
:103340007815002070B504460846154604E001785B
:10335000A14204D003F0EAFAA842F8D1002070BDDF
:103360007FB5089E0A9D099C002A0AD0002C08D02F
:10337000002D06D0030011F04CFD05181B1E21077F
:103380002A000A2004B070BD6846807B012802D064
:103390000320207014E0002904D0032902D001206A
:1033A00020700DE0022020700AE00420207007E069
:1033B0000520207004E00620207001E00720207026
:1033C000D28920782B46314608F032F9DAE7052019
:1033D000D8E700000021094ACB00D358834208D81F
:1033E0004B1CDB00D358834203D9C80080180079F6
:1033F0007047491CC9B21529EED3FEE70018020830
:1034000010B50022074B94001C5D844204D190004B
:10341000C0180860002010BD521CD2B2052AF2D399
:103420000C2010BDD403002030B500220C4B112419
:10343000640115015519ED182D192D7B854208D110
:10344000100110188B22C01892008018086000200C
:1034500030BD521CD2B2182AEBD3032030BD00007D
:103460004C18002000B5002909D0164A0300526804
:1034700011F0CFFC0826070D13191C1F22260A2065
:1034800000BD1069086010461030106316E05069E6
:10349000086010461430106310E090690860104610
:1034A000183010630AE0D069086007E0106A08600D
:1034B00004E0506A086001E0906A0860002000BDE6
:1034C000052000BDC015002038B50B496C46496881
:1034D0000A46FF3121310B7BA37060700D202070F4
:1034E000C87F012802D10E2069460870107869460D
:1034F0000CF090FAC0B238BD94130020884201D17C
:10350000C8B201E0401EC0B240B2704710B50948D1
:103510000169446980690818002809D00822064911
:1035200003F010FA044904221031204603F00AFA8D
:1035300010BD00004000F81FA2040020F8B50446AA
:10354000002625464035287D012808D00120287511
:10355000206881688907890F01290ED101E00220C6
:10356000F8BD0168C90708D0A06D20210843A065F7
:103570000126002028753046F8BDA16DFF220132DA
:10358000914302221143A165C1688907890F009107
:10359000C16889088900C160206881689207114369
:1035A000816002F05DFD07460EE002F059FDC01B90
:1035B0000A2809D9A06D0221884310210843A0657B
:1035C000002028750120F8BD206880680028ECDB09
:1035D0002068C168009A1143C160A06D8008800016
:1035E000401CA065C5E70000F8B50C46054640350F
:1035F000297D01290DD00121297501688A685207AA
:1036000009D5816D20221143816500202875012094
:10361000F8BD0220F8BD194B6268D8054710184E56
:103620009A4215D08A6A23685B035B0B1A438A624D
:103630002168490305D5B1680143B1600A20FDF74F
:1036400025FF2068800315D5B0683843B06011E0CD
:103650008A6A23685B035B0B9A438A622168490389
:1036600002D5B1688143B1602068800302D5B0689B
:10367000B843B06000202875F8BD000001100000BC
:10368000002701400068006C7047000070B50446D8
:10369000002C06D0A06D254600264035002802D01B
:1036A00006E0012070BDE6652E75204600F0D2F8D8
:1036B000A06DC00603D420688168490706D5A06DB7
:1036C00010210843A0652E75012070BDA16DFF2259
:1036D0000132914302221143A16581685B4A890747
:1036E000890F012902D10168C9072BD10323616821
:1036F0009B07994205D05B42994202D05B009942F8
:1037000009D101698900890801612068016963683C
:10371000194301610CE00169890089080161906821
:103720000F21890488439060906861680843906025
:103730002068C16818239943C1602068C168A368E4
:103740001943C160906801214906884390609068E0
:10375000218F49060843906020688168C90004D41D
:10376000816801221207114381602068C168384ACC
:103770001140C1602069E168022823D00020014384
:10378000206A226B4003520010430143606B0143E7
:10379000A06980030143E069C00301432068C26857
:1037A0001143C160A06A0146FF39C23905D0E16A00
:1037B00008432168CA681043C860606A0121012873
:1037C00002D00BE00420DAE7206A002823D0A06DA5
:1037D00020221043A065E06D0843E065206C0128BD
:1037E00020D020680169C90703D001694908490050
:1037F000016120684169C908C900416120684169C7
:10380000E26B11434161E665A06D80088000401CB9
:10381000A065002070BD2068C26801231B041A4304
:10382000C260DBE720680269FF239B009A430261C4
:1038300020680269636CE56C1A43A36C2B431A433E
:103840000261206802690A430261D2E70027014051
:103850001902FEFF7047F8B504460D462746606919
:10386000403708280BD02068C068C00709D0A06D79
:1038700020210843A065002038750120F8BD0826E6
:1038800000E00C2602F0ECFB009011E0681C0FD069
:10389000002D05D002F0E4FB0099401AA84207D998
:1038A000A06D04210843A065002038750320F8BDF1
:1038B000206800683042E9D0A06D01214902084328
:1038C000A0652068C1680C220905890F00291AD15A
:1038D000216A002917D10168090714D581680123DD
:1038E0004907002908DB416891434160A06D190236
:1038F00088431843A06506E0A06D20210843A06519
:10390000E06D1843E065A069002801D120680260DD
:103910000020F8BD70B50446002021688968490779
:1039200023D425464035297D01291CD00121297544
:10393000E169012902D02046FDF7BEFD002811D122
:10394000A16D0B4A1140FF2201321143A1650021F4
:10395000E165297522681C21116021688A680423A9
:103960001A438A6070BD022070BD022070BD000045
:10397000FEF1FFFF01B5009802F0E8FA08BD000073
:10398000F8B505460E46184F387C012807D00120AF
:1039900038741648FFF738FC002802D020E00220D7
:1039A000F8BD0021C94331606C6813E02046FFF781
:1039B000CDFB0E48FFF728FC0D494A6808239A43BF
:1039C0004A604A684B159A434A60002801D0346027
:1039D00006E08034A9686A68C9018918A142E5D85F
:1039E00000213974F8BD00000009002050C3000018
:1039F0000020024003484168022211434160002038
:103A00007047000000200240F8B50E4617460B4CE8
:103A1000207C012808D0012020740948FFF7F4FB1E
:103A20000025002802D006E00220F8BD656137605D
:103A30000348FFF7E9FB2574F8BD000000090020EA
:103A400050C300000948416889070CD54168C9077F
:103A500003D00749C1600749C160074901610749AF
:103A600001610020704701207047000000200240E3
:103A7000EFCDAB8905040302BFAE9D8C1615141360
:103A800010B502F0DFF810BD10B504494A690242D2
:103A900002D04861FFF7F4FF10BD000000040140B0
:103AA000F0B5002298E001249440A4462340002B66
:103AB0007ED04C68022C01D0122C0CD1D408A4006A
:103AC00027183D6A5407E40E0F26A640B5430E6939
:103AD000A6402E433E624C68012C05D0022C03D038
:103AE000112C01D0122C11D1856854000326A64058
:103AF000B543CE68A6402E43866044686546AC4315
:103B00000D79ED06ED0F954025434560076854009B
:103B10000325A540AF430E79B607B60FA6403E4336
:103B20000660C668AE438D68A5403543C5604C68E5
:103B3000E40050D52B4C666B01252E436663950837
:103B4000294CAD002D19AF689407240F0F26A6400D
:103B5000B74305263607B04201D1002619E0234EAF
:103B6000B04201D1012614E0214EB04201D102261B
:103B70000FE0204EB04201D103260AE01E4EB042B3
:103B800001D1042605E01D4EB04201D1052600E01A
:103B90000626A6403E43AE60194D2C689C434E68F5
:103BA000F60300D51C432C606C689C434E6800E013
:103BB00011E0B60300D51C436C60AC689C434E68B2
:103BC000F60200D51C43AC60EC689C434E68B6021C
:103BD00000D51C43EC60521C0B681C46D44000D03E
:103BE00061E7F0BD001002400000014000040050F9
:103BF00000080050000C005000100050001C005045
:103C0000000401400069084201D0012070470020F3
:103C10007047002A01D081617047816270470000BF
:103C20000148006870470000AC02002070B50446EF
:103C3000002C12D024202546403568702068016889
:103C4000490849000160204600F0EEF90020606458
:103C500068702063A870287070BD012070BD40306E
:103C60004078704770B50446002C06D02546403594
:103C700068780026002802D005E0012070BD2E7073
:103C8000204600F0D2F924206870206801684908B5
:103C9000490001600F2160680906884321680861B6
:103CA000206882680121C9038A438260E068012894
:103CB00009D02122A0689202104322689060E06837
:103CC000022805D008E0A068226808439060F6E763
:103CD00001202268C0025060206842680F4B1A43DE
:103CE00042602068C2688A43C260616920690843F3
:103CF000A169090208432168C860216AE069084394
:103D0000216808602068016801221143016066642F
:103D1000202068702663AE70002070BD0080000215
:103D2000FFB583B00446254640356878202802D088
:103D3000022007B0F0BD0C98002815D00D9800287F
:103D400012D02878012811D00120287002F088F9BB
:103D5000064601221923D1032046009602F072FD87
:103D6000002805D00320E4E70120E2E70220E0E795
:103D7000222068704020A870002767640C98606259
:103D80000D98608567630E980090019604A90EC98E
:103D9000204602F0BBFC002808D0606C042802D04A
:103DA0002F700320C5E72F700120C2E7618D3B48CB
:103DB000FF2909D9FF222285012300901B062046F6
:103DC000049902F02BFD0AE0618D21850090208D81
:103DD0000123C2B25B062046049902F01FFD009643
:103DE0000022042120460E9B02F02CFD002801D069
:103DF00003209EE72068416A606A421C626201708B
:103E0000208D401E80B22085618D491E618500286D
:103E100025D1608D002822D00096002280212046E6
:103E20000E9B02F00FFD002801D0032081E7608D7A
:103E3000FF2809D9FF22228501231B06009720466F
:103E4000049902F0EBFC0AE0608D20850097208D3C
:103E50000123C2B25B062046049902F0DFFC608DAC
:103E60000028BCD1324620460E9902F00FFD0028F2
:103E700006D0606C042801D003205AE7012058E7DF
:103E800020682022C26120684168054B19404160CA
:103E90006A70AF702F7000204BE700000024008094
:103EA00000E800FEFFB583B004462546403568783B
:103EB000202802D0022007B0F0BD0C98002815D0B1
:103EC0000D98002812D02878012811D001202870E0
:103ED00002F0C6F8074601221923D10320460097B5
:103EE00002F0B0FC002805D00320E4E70120E2E75F
:103EF0000220E0E7212068704020A8700026666458
:103F00000C9860620D98608566630E98009001972A
:103F100004A90EC9204602F03DFC002808D0606CC0
:103F2000042802D02E700320C5E72E700120C2E7BE
:103F3000608DFF2809D9FF22228501231B060096E8
:103F40002046049902F06AFC0AE0608D2085009604
:103F5000208D0123C2B25B062046049902F05EFC6C
:103F60003A4620460E9902F0B8FC002806D0606C54
:103F7000042801D003209EE701209CE7606A411CD1
:103F80006162216800788862608D401E6085208DA6
:103F9000401E80B22085002825D1608D002822D0C7
:103FA00000970022802120460E9B02F04BFC002847
:103FB00001D003207FE7608DFF2809D9FF222285E9
:103FC00001231B0600962046049902F027FC0AE014
:103FD000608D20850096208D0123C2B25B062046AD
:103FE000049902F01BFC608D0028B9D13A462046A6
:103FF0000E9902F04BFC002806D0606C042801D01A
:10400000032058E7012056E720682021C16120687D
:104010004268044B1A4042606970AE702E700020F6
:1040200049E7000000E800FE704770470248016859
:10403000491C016070470000AC02002010B5064822
:104040000168022211430160032000F007F800F02C
:1040500007F8002010BD000000200240002070473B
:1040600010B50948816B02041143816300F08CFB99
:1040700000F082FB0548016808221143016000F04E
:1040800073FB01F097FE10BD0010024000200240BB
:10409000002809DBC106C90E0120884003490860D9
:1040A000BFF34F8FBFF36F8F7047000080E100E0D8
:1040B000002805DBC106C90E0120884001490860BF
:1040C0007047000000E100E010B510F0C1FE10BD27
:1040D000BFF34F8F04490348C860BFF34F8F00BF41
:1040E000FDE700000400FA0500ED00E00168FF3084
:1040F000FF3002300122C2664031088B1043088332
:10410000088B0222104308830020704710B5016815
:1041100001224D23DB001A501324002364010019EF
:1041200003704031888A10438882888A02221043B3
:104130008882002010BD704710B50C0604D54907D1
:10414000090E0818283003E049010818FF3029300B
:1041500099B2002A06D0012202730181190C418113
:10416000002010BD00220273C180F9E710B54A019A
:104170001218FF30FF300230D26B006F0FF056FB89
:1041800010BD10B54A011218FF30FF32FF30013266
:104190000230D26B006F0FF0BFFB10BD70B504464C
:1041A000002C0DD0112003214001251869722046F2
:1041B00000F0ADFA204600F019FA0020687270BDD8
:1041C000012070BD10B5112149014418217A01293F
:1041D00007D001212172006810F070FA00202072CF
:1041E00010BD022010BD70B54A07CD09520F510114
:1041F000091801230024002D02D028314B7002E061
:10420000FF3129314C700A701122520185182A7A27
:10421000012A06D02B72006810F0BCF92C72002025
:1042200070BD022070BD70B50A074368120F9A4234
:1042300001D9012070BD4A07CD09520F510109185B
:1042400001230024002D02D028314B7002E0FF3101
:1042500029314C708C700A701122520185182A7A0B
:10426000012A06D02B72006810F048FA2C72002048
:1042700070BD022070BD002070474907090E081864
:10428000FF300130406C7047F8B54F07CC097F0F05
:104290007901091801260025002C02D028314E7022
:1042A00002E0FF3129314D700F700A61CB704A78FE
:1042B000002A00D0CF81022B00D10D7111225201B2
:1042C0008418227A012A06D02672006810F022F89B
:1042D00028462572F8BD0220F8BD70B50D466C0762
:1042E000640F61010918FF3129314A618B61002295
:1042F000CA614A700C706A0704D0006810F05AFA5C
:10430000002070BD006810F055FAF9E7F8B50446D2
:104310000D4668076168400F884201D90120F8BD49
:10432000E90900270122002904D041010919283197
:104330004A7004E069010919FF3129314F708A7010
:104340000870112040012618307A012806D03272F8
:10435000206810F00FFA680702D007E00220F8BDCD
:10436000232109016118206810F0C6F93772002076
:10437000F8BD70B50D466C07640F6101091828314E
:104380004A618B610022CA6101224A700C706A077F
:1043900004D0006810F00EFA002070BD006810F024
:1043A00009FAF9E7F8B50446206810F009FB0004A3
:1043B00002D5204609F080FA206810F001FB400584
:1043C0000DD520684030818801229202914381807E
:1043D000204600F037F90021204600F065F92068FA
:1043E00010F0EEFA400406D52068403081880122A2
:1043F000920391438180206810F0E2FA800406D590
:1044000020684030818801225203914381802068D6
:1044100010F0D6FAC10413204001042608272518FD
:1044200000291CDA206840300188B14301802068EF
:1044300040300188B94301802878012805D1002047
:10444000287000212046FFF776FE204600F00EF986
:1044500020684030818801221203914381802068C6
:1044600010F0AEFA000519D52068403001883943B4
:1044700001802068403081880122D20291438180EE
:1044800020684030018831430180206810F098FA9C
:10449000C043C00402D5204600F054F9206810F053
:1044A0008FFA00060BD52068403081888022914326
:1044B0008180287800281ED0204600F043F920682B
:1044C00010F07EFA800509D52068403081880122ED
:1044D000520291438180204600F0DEF8206810F0FF
:1044E0006FFAC00506D5206840308188FF2201326E
:1044F00091438180F8BD20684030018831430180BC
:1045000020684030018839430180012028702068EC
:104510004030808AF02108408108992080000151B4
:1045200001212046FFF707FEC9E7F0B585B0044634
:10453000002C07D0112040012618707A0025002891
:1045400003D006E0012005B0F0BD3572204600F032
:1045500061F803207072206810F0C4F80020012771
:104560000CE0410109190A46203257721072C886C0
:10457000D5728D63CD630D64401CC0B26168814209
:10458000EFD800200EE0410109190A46FF31213120
:104590004D720872CD72D11DF9318D63CD630D64FA
:1045A000401CC0B261688142EDD82146142210310E
:1045B0006846FBF75AFE20460FC810F086F8002820
:1045C00003D0022070720120BDE7242005557772C8
:1045D000E069012802D12046FFF798FD206A0128F2
:1045E00002D12046FFF782FD0020ACE710B500683D
:1045F0000649884208D10648816B0122D2059143C1
:1046000081631F20FFF744FD10BD0000005C0040E7
:104610000010024010B50068084988420DD10848D2
:10462000816B0122D20511438163002211461F20B4
:10463000FFF74AFD1F20FFF73BFD10BD005C004067
:104640000010024070B504460125A068022801D080
:10465000FEF712FDFF34FF3402342946206F0FF0BD
:1046600069FA206F0FF020FA70BD000010B5044603
:10467000A069002806D0074801690622914301611C
:104680000EF0C6FCFF34FF340234206F0FF03AFA0C
:1046900010BD000000ED00E010B5FF30FF3002302B
:1046A000006F0FF036FA10BD10B5112252018418B8
:1046B000227A012A09D00122227224221154006890
:1046C00010F097F90020207210BD022010BD10B527
:1046D000272109010A5823210901411810460FF02A
:1046E00036FA10BD70B50446112040012518287A0D
:1046F00001280AD00120287220680FF0D7FF206817
:1047000010F04CF90020287270BD022070BD70B509
:104710000546112040012C18207A01280DD00120D7
:10472000207228680FF0DEFF286810F069F9002178
:10473000002804D02172012070BD022070BD2172BA
:10474000002070BD10B504462720000100590FF06D
:104750004AFAA069002804D00248016906221143E0
:10476000016110BD00ED00E002480168021511432F
:104770000160704700700040024801684215114313
:1047800001607047007000400248016810229143A8
:104790000160704700700040094B1A68920892004F
:1047A00002431A600748026904239A4302610129FF
:1047B00003D040BF20BF20BF704730BF704700000C
:1047C0000070004000ED00E00A4B1A689208920069
:1047D00002431A600848026904231A43026101294E
:1047E00006D040BF20BF20BF0169994301617047D7
:1047F00030BFF9E70070004000ED00E0F8B5044676
:104800002078644D80067FD5002662484038806B52
:10481000C00006D45F484038826B01040A438263BB
:1048200001265D480168C90512D40168821511434B
:104830000160FFF7F5F9074606E0FFF7F1F9C01B45
:10484000642801D90320F8BD53480068C005F4D599
:10485000504840380068032109050840626811404B
:1048600081420AD09003800F032806D1494840387E
:104870000068800301D50120F8BD286903210904DF
:104880000840002821D00A4082421ED020788006AD
:104890001BD5286988432A690121C9040A432A6172
:1048A0002A698A432A612861C0050ED5FFF7B8F945
:1048B000074607E0FFF7B4F9C11B3848814201D928
:1048C0000320F8BD28698005F4D560688103890F4D
:1048D000032908D12F4B403B19680322120591434D
:1048E00010400143196028690322616812041140D5
:1048F00008432861012E07D126484038826B010405
:104900008A4300E000E082632078C00705D0E868B1
:10491000A168800880000843E8602078800705D5FA
:10492000E8680C218843E1680843E8602078400784
:1049300006D5E86803218902884321690843E860B5
:104940002078000706D5E8680321090388436169D8
:104950000843E8602088C00506D5E86803210904FB
:104960008843A1690843E8602078400606D5E868D6
:10497000012189068843216A0843E86020780006FF
:1049800006D5E868032189048843E1690843E860A3
:104990000020F8BD40100240007000408813000065
:1049A000F8B504460E465B480068C007C00FB04229
:1049B0000CD2584801684908490031430160006839
:1049C000C007C00FB04201D00120F8BD2078524F7F
:1049D000800705D5F868F0218843A1680843F8608E
:1049E0002078C00760D06068022808D003280BD068
:1049F00001280ED03968890510D40120F8BD396826
:104A000089030BD40120F8BD3968890106D401203F
:104A1000F8BD3968490701D40120F8BDF968890853
:104A200089000143F960FFF7FBF80546606802283A
:104A30000CD0032818D0012824D031E0FFF7F0F87B
:104A4000411B3648814201D90320F8BDF8680007B0
:104A5000800F0228F2D127E0FFF7E2F8411B2F4830
:104A6000814201D90320F8BDF8680007800F0328B0
:104A7000F2D119E0FFF7D4F8411B2848814201D94F
:104A80000320F8BDF8680007800F0128F2D10BE081
:104A9000FFF7C6F8411B2148814201D90320F8BD28
:104AA000F8680007800FF3D11A480168C907C90FD9
:104AB000B1420BD9016849084900314301600068DF
:104AC000C007C00FB04201D00120F8BD20784007D8
:104AD00006D5F868072109028843E1680843F860B1
:104AE0002078000707D5F8680721C90288432169A3
:104AF000C9000843F86000F017F8F968084A090689
:104B0000090F515CC840074908600320FFF7A6FA67
:104B10000020F8BD00200240001002408813000071
:104B200090190208A802002010B51C4AD1680C2375
:104B30000846184004280BD0082810D00C2810D0A4
:104B400050680004410F491C0120C003884010BD7B
:104B50001068C00601D5124810BD124810BD124899
:104B600010BD8802114B000F185C0902890F491C07
:104B7000D368DB0304D50C4A5043FBF7B9FA10BDE8
:104B80001268D20604D5064A5043FBF7B1FA10BDAD
:104B9000044A5043FBF7ACFA10BD0000001002407D
:104BA00000093D000024F40000127A00A019020858
:104BB000F8B504462078FC4EC00755D0F0680007D1
:104BC000800F022807D0F0680007800F03280AD161
:104BD000F068C00307D53068800345D560680028B9
:104BE00042D10120F8BD012160680904884203D147
:104BF00030680843306015E0052301221B0492044D
:104C0000984206D130681043306030680843306005
:104C100008E03068884330603068084000903068B1
:104C200090433060606800280FD0FEF7F9FF05461A
:104C3000DE4F06E0FEF7F4FF401BB84201D9032027
:104C4000F8BD30688003F5D50EE0FEF7E9FF0546B4
:104C5000D64F06E0FEF7E4FF401BB84201D903201F
:104C6000F8BD30688003F5D4207880074CD5F06813
:104C70001F270007800F3F02012807D0F0680007B8
:104C8000800F032811D1F068C0030ED430684007AC
:104C900004D5E068012801D00120F8BD70682169C1
:104CA000B8430902084370602EE0E068002819D07C
:104CB00031680922914301433160FEF7B1FF054697
:104CC00006E0FEF7ADFF401B022801D90320F8BD26
:104CD00030684007F5D570682169B8430902084378
:104CE000706011E03068400840003060FEF798FFC7
:104CF000054606E0FEF794FF401B022801D9032079
:104D0000F8BD30684007F5D42078C0067ED5F0683D
:104D1000A74F0007800F0BD0E069002863D03068F0
:104D2000FF21013108433060FEF77AFF05464AE073
:104D30003068800502D5E06900280AD0606A716891
:104D40003940884214D909F089FE002803D0012097
:104D5000F8BD0120F8BD7068616AB843084370600F
:104D60007068218C0002000A09060843706011E097
:104D70007168B943014371607068218C0002000AB8
:104D8000090608437060606A09F068FE002801D0D7
:104D90000120F8BD606A410B491C0120C003884016
:104DA000F16809060A0F8349895CC8408249086096
:104DB0000320FFF753F929E0FEF732FF401B0228DA
:104DC00001D90320F8BD30688005F5D57068616AA7
:104DD000B843084370607068218C0002000A09061D
:104DE0000843706012E03068FF2101318843306071
:104DF000FEF716FF054606E0FEF712FF401B0228ED
:104E000001D90320F8BD30688005F5D420786B4DBA
:104E1000000727D56069002812D0286901210843BE
:104E20002861FEF7FDFE074606E0FEF7F9FEC01B0F
:104E3000022801D90320F8BD28698007F5D511E0C3
:104E40002869400840002861FEF7EAFE074606E0B0
:104E5000FEF7E6FEC01B022801D90320F8BD286931
:104E60008007F5D42078400771D500200090B06B02
:104E7000C00006D4B06B012109070843B0630120CC
:104E800000904F480168C90512D40168821511438A
:104E90000160FEF7C5FE074606E0FEF7C1FEC01B37
:104EA000642801D90320F8BD45480068C005F4D541
:104EB000FF20A1680130814203D1296901432961A2
:104EC0001BE00122920200290AD005231B0299420D
:104ED0000DD12969114329612969014329610CE038
:104EE00029698143296128699043286105E029697E
:104EF00081432961286990432861A06800280FD068
:104F0000FEF78EFE074607E0FEF78AFEC11B274824
:104F1000814201D90320F8BD28698005F4D50EE04F
:104F2000FEF77EFE074607E0FEF77AFEC11B1F482C
:104F3000814201D90320F8BD28698005F4D4009886
:104F4000012804D1B06B012109078843B0632078A0
:104F5000800643D51B48A2694114002A18D0B268C4
:104F600001231A43B260726B1A437263026A0A43E6
:104F70000262FEF755FE054606E0FEF751FE401BB5
:104F8000022801D90320F8BDB0688007F5D525E0D7
:104F9000B26852085200B260026A8A430262FEF7A7
:104FA0003FFE054617E00000001002408813000095
:104FB00000E0000090190208A80200204010024002
:104FC0000070004000000140FEF72AFE401B02284E
:104FD00001D90320F8BDB0688007F5D4A06A002885
:104FE00047D0F1680907890F032944D001273F06FC
:104FF000022806D03068B8433060FEF711FE044640
:1050000034E03068B8433060FEF70AFE054606E03B
:10501000FEF706FE401B022801D90320F8BD3068C8
:105020008001F5D4216BE06AF2680843616BFD23CF
:105030001B049A4311430843F060306838433060E2
:10504000FEF7EEFD044606E0FEF7EAFD001B02282F
:1050500001D90320F8BD30688001F5D509E0FEF7DD
:10506000DFFD001B022801D90320F8BD3068800154
:10507000F5D40020F8BD0120F8BD0068503089004B
:1050800008180068704700685030890008180260EE
:10509000704730B5014620310A78012A15D0012425
:1050A0000C7002224A700368CA225A6203685322B3
:1050B0005A620268936820252B4393600068FF22A0
:1050C00042624C700020087030BD022030BD10B527
:1050D0000EF07AF810BDF8B504462546203528783C
:1050E00001281BD001202870022068702268CA2085
:1050F0005062226853205062FF2201320027914201
:1051000021D1206881689143816020688168120103
:1051100091438160FEF784FD06460FE00220F8BD52
:10512000FEF77EFD811B7D20C000814206D92168EB
:10513000FF204862032068702F70F8BD2068C068A7
:10514000C007EDD020E0206881680122520291431F
:10515000816020688168120191438160FEF760FDE3
:1051600006460DE0FEF75CFD811B7D20C0008142FC
:1051700006D92168FF204862032068702F70F8BDAF
:105180002068C0688007EDD52168FF2048620120B3
:1051900068702F700020F8BD10B50B46006841689C
:1051A0000D480140080CD870CC04E40E5C708C06ED
:1051B000A40E9C700904490F1970002A0AD109F045
:1051C00085FCD870587809F081FC5870987809F0FF
:1051D0007DFC9870002010BD3FFFFF0010B50B460E
:1051E0000168896A5960016809694904490C996034
:1051F000006801680E4801408802800E18704C0457
:10520000640E5C704C06640E9C70090C40242140B6
:10521000D970002A0AD109F059FC1870587809F0A1
:1052200055FC5870987809F051FC9870002010BD1A
:105230007F7F7F0070B50446002C05D025462035C1
:105240006878002802D006E0012070BD0020287098
:10525000204600F045F8022068702168CA204862A4
:10526000216853204862204609F043FCFF210028B2
:1052700005D02068416204206870012070BD20685C
:105280008268164B1A408260206882686368A6694B
:105290001A43236933431A4382602268E06810612D
:1052A0002068026923891B041A4302612068C268CE
:1052B00080239A43C2602068C26C92089200C26444
:1052C000E269606902432068C36C1A43C2642068C3
:1052D000416201206870002070BD0000BFFF8FFF99
:1052E00000B597B00420099000201390FF200130F2
:1052F0000B9009A8FFF75CFC002801D0FDF7BCFE6D
:1053000020200090C00201906846FFF777FA00283D
:1053100001D0FDF7B1FE0848016901229204114352
:105320000161002211460220FEF7CEFE0220FEF7A8
:10533000BFFE17B000BD000040100240FEB504469D
:105340000B46254620352878012810D001202870EA
:10535000022068701E4600272036002A09D02068E7
:105360008068400625D5187809F0B0FB22E00220BD
:10537000FEBD20688068400600D4DF70187809F010
:10538000ADFB0204587809F0A9FB000202439878AB
:1053900009F0A4FB0243D87800040243307809F0F6
:1053A0009DFB00060243D869024358690243164632
:1053B00018E0DF70D869002832D0307809F086FB19
:1053C00019789878090408435978DA7809021204A0
:1053D00011430843317809060843D96908435969DC
:1053E0000843064699695868084300902168CA2016
:1053F0004862216853204862FF22586A01328023A4
:10540000904235D120688168914381602068C168ED
:105410001940FF398239C160FEF702FC019012E0A9
:10542000307809F053FBCBE7FEF7FAFB0199411AFC
:105430007D20C000814206D92168FF2048620320F8
:1054400068702F70FEBD2068C068C007ECD020686F
:10545000C66121680098486420688168FF22013293
:10546000114381602068816812011143816032E03C
:105470002068816801225202914381602068C168DE
:105480001D4A19408918C160FEF7CAFB01900EE061
:10549000FEF7C6FB0199411A7D20C000814206D962
:1054A0002168FF204862032068702F70FEBD2068CD
:1054B000C0688007ECD5206806622168009888647F
:1054C000206881680122520211438160206881684E
:1054D00012011143816009480268012149040A430D
:1054E000026082680A4382602168FF2048620120CE
:1054F00068702F700020FEBD7FFDFFFF000401409B
:10550000F8B504460B46254620352878012806D0F4
:105510000120287002206870002A02D008E00220D2
:10552000F8BD5878C10603D5EF2108400A305870FD
:10553000002A23D0587809F0C9FA987809F0C6FAF9
:10554000D8789E78000406435878197800024903F9
:10555000084306432168CA204862216853204862F4
:10556000204609F0C6FA0027002818D02168FF203D
:105570004862042068702F700120F8BDD87809F0C7
:10558000ADFA0604587809F0A9FA000206439878A3
:1055900009F0A4FA0643187840030643DAE71148F5
:1055A0000640206846602068C16880229143C1603F
:1055B0002068806880060CD4204600F097F8002808
:1055C00007D02168FF204862042068702F700120F6
:1055D000F8BD2168FF204862012068702F7000200C
:1055E000F8BD00003FFFFF00F8B504460D46264613
:1055F0002036307801280ED00120307002207070E3
:105600000027002A09D02068806840061CD5287829
:1056100009F05CFA19E00220F8BD206880684006B5
:1056200000D4EF70287809F059FA0204687809F07C
:1056300055FA00020243A87809F050FA0243E878CC
:105640000004024300920BE0EF702978A878090467
:1056500008436978EA78090212041143084300906C
:105660002168CA204862216853204862204609F018
:1056700040FA002807D02168FF204862042070709B
:1056800037700120F8BD184900980840216808606B
:10569000206881680122920491438160E968286949
:1056A000014320688268114381602068C1688022BC
:1056B0009143C1602068806880060CD4204600F0C9
:1056C00015F8002807D02168FF2048620420707078
:1056D00037700120F8BD2168FF20486201207070FA
:1056E00037700020F8BD00007F7F7F0070B5054651
:1056F0002868C168A0229143C160FEF791FA044670
:105700007D26F60006E0FEF78BFA001BB04201D9B9
:10571000032070BD2868C0688006F4D5002070BDE5
:1057200070B50446002C06D025464035687C00261E
:10573000002802D005E0012070BD2E74204600F044
:1057400032F80220687420680168402291430160A9
:10575000A168606822690843E168114308436169F0
:1057600001220843A169520211400843E16908433C
:10577000216A0843A16A084321680860A0690421DE
:10578000000C0840616A0843216848602168E06AAB
:1057900008612068C16992009143C161666501207A
:1057A0006874002070BD7047F8B504460020009072
:1057B000254640356E7C012E04D06E7C222E01D011
:1057C0000220F8BD00290CD0002A0AD0002B08D0F6
:1057D0002E7C012E07D001262E746E7C012E04D063
:1057E00005E00120F8BD0220F8BD32266E740020CD
:1057F0006065A263A387E3872163A386E386A06431
:10580000E0640126A06A7603B04207D120680168EF
:10581000B14301602068016831430160206801687C
:10582000490603D401684022114301600122D202DB
:10583000FF21E0680531570090427ED16068002862
:1058400004D088420CD1E08E012809D1206B216858
:105850000088C860206B801C2063E08E401EE086BC
:10586000E08E00284DD1A06AB04203D120680168C3
:1058700039430160002201212046069B0AF0C6FD43
:10588000002801D00320F8BD2068C068A16B088003
:10589000A06B801CA063E08F401EE087C3E0002265
:1058A00002212046069B0AF0B1FD002801D003200A
:1058B000F8BD206B21680088C860206B801C2063C5
:1058C000E08E401EE086E08E002806D1A06AB0423D
:1058D00003D120680168394301600022012120467C
:1058E000069B0AF093FD002801D00320F8BD206834
:1058F000C068A16B0880A06B801CA063E08F401E75
:10590000E087E08E0028CAD16068002814D1002208
:1059100001212046069B0AF079FD002802D00320D1
:10592000F8BD0AE02068C068A16B0880A06B801CED
:10593000A063E08F401EE08775E06068002804D017
:1059400088420BD1E08E012808D1206B411C2163D5
:1059500021680078C860E08E401EE086E08E002856
:1059600048D1A06AB04203D1206801683943016080
:10597000002201212046069B0AF048FD002801D0A4
:105980000320CDE72068C068A16B0870E08F401E3F
:10599000E08748E0002202212046069B0AF036FDFF
:1059A000002801D00320BBE7206B411C2163216844
:1059B0000078C860E08E401EE086E08E002806D1A8
:1059C000A06AB04203D12068016839430160002217
:1059D00001212046069B0AF019FD002801D0032072
:1059E0009EE72068C168A06B421CA2630170E08F33
:1059F000401EE087E08E0028CCD16068002812D1DC
:105A0000002201212046069B0AF000FD002801D05B
:105A1000032085E72068C168A06B421CA263017067
:105A2000E08F401EE087A06A0227B04211D1002219
:105A300001212046069B0AF0E9FC002804D0606D95
:105A40003843606503206BE72068C06800906946B2
:105A50000888012280212046069B0AF0D7FC0028F6
:105A600005D0606D202108436065032058E70120C0
:105A70006874A06AB04212D120688168C943C9061F
:105A80000DD4616D394361650168B14301602068DF
:105A900001683143016000202874012040E70020A4
:105AA00028743DE710B51248017800291ED1012263
:105AB000027011480F49016000210164D30743605F
:105AC000C1618263816181600723C3630261C16038
:105AD00001624162C1620422426101630748416B75
