:020000040800F2
:10000000E8370020D5000008917C0008654F000803
:1000100000000000000000000000000000000000E0
:10002000000000000000000000000000EDAB000830
:10003000000000000000000039830008B1CF000874
:10004000E7000008E70000089F910008E7000008AB
:10005000E7000008A11A0008B11A0008C11A000838
:10006000E7000008E7000008A1190008E700000801
:10007000E7000008E7000008E7000008E7000008C4
:10008000E7000008E7000008E700000800000000A3
:10009000E7000008E7000008E7000008E7000008A4
:1000A000E7000008E7000008E700000863D4000844
:1000B000E7000008E7000008000000006DEA000803
:1000C0000348854600F006FD00480047D53001088A
:1000D000E83700200448804704480047FEE7FEE771
:1000E000FEE7FEE7FEE7FEE789D10008C100000851
:1000F00030B50B46014600202022012409E00D46C0
:10010000D5409D4205D31D469540491B2546954047
:1001100040191546521E002DF1DC30BD70B500248B
:100120002546002801DA01244042002901DA012590
:100130004942FFF7DDFFAC4200D04042002C00D026
:10014000494270BDF0B51FB40646002082B0054696
:100150004024019100901BE0019922460F46304651
:1001600000F096FB049A059B801A994110D3104623
:100170001946224600F07CFB361A8F410197224631
:1001800001200021009F00F073FB38184D410090C2
:100190002046641E0028DFDC019B00982946324679
:1001A00007B0F0BD03460B439B0703D009E008C925
:1001B000121F08C0042AFAD203E00B780370401C17
:1001C000491C521EF9D27047D2B201E00270401CA5
:1001D000491EFBD270470022F6E710B513460A46C7
:1001E00004461946FFF7F0FF204610BDF8B5024659
:1001F0004A40D40F42004B0052085B089A4202D298
:100200000246084611464A0023D0C30D4A00DDB21B
:10021000120EAD1A202D35DA49020126490AF605DB
:100220008A19002C00D0524220214F1B1146B940A0
:100230002A411018C20D9A4221D0002C17D0012D4E
:1002400008DCDA05801AD20F8019D207DBB200F081
:100250004BFBF8BDDA05801A012340001B06C018CD
:1002600080185A428018CA0F1043490007E0490815
:10027000C2071143DA05801A80194008801800F07F
:100280002BFBF8BD61000122511A001BF7E7012288
:10029000D2075140AAE70122D2075040A6E7024602
:1002A00070B54A40D30FDB0740002DD04A002AD05A
:1002B000010E140E000212020919400A520A841893
:1002C000E50104465443000A120A2E045043A419BF
:1002D0004219200CC543AA18120C0125AD03521C6B
:1002E000521912047F39240400D0521C104301D447
:1002F0004000491EC2B20C06C0092018401C40082C
:10030000802A02D003E0002070BD40084000002990
:1003100000DA0020184370BD70B502464A40D50F80
:1003200040004A00ED0740085208002814D0002A77
:1003300012D0C40DD30D41020120C0055202490A5A
:10034000520AE41A091812187D34914201D3641C30
:1003500000E04900002C01DA002070BD002391422A
:1003600001D3891A0343400849000028F7D1002926
:100370000AD0914202D10121C90705E0914201D280
:10038000012101E00121C943E005C018401900F036
:10039000A3FA70BDF0B507460846584087B0C00FB5
:1003A000049048000E46590040084908BC1A88418C
:1003B00005D2384631461E4617460B4602465800BF
:1003C000400810434CD0300D039040055900400DBB
:1003D000490D0590401A0290402872DA1803012155
:1003E000000B09050843019004980092002805D0ED
:1003F00001995242002088410092019002984021C8
:100400000A1A0199009800F033FA05460C466B462B
:1004100007CB00F04EFAC0197141039A0E0D00236C
:10042000D71756401A467A40164344D0049A002AF9
:100430002DD0029A012A039A15DC1205C01A9141A7
:1004400001263605001C7141D20F059ED20700938C
:10045000019202962A46234600F08CFA07B0F0BDBE
:1004600038463146FAE71605224A0F46B218C01A36
:10047000B74101210905001C4F4100187F41114679
:1004800018187941E20F10436D19644113E0E20737
:100490006D0815436408C2071443039A0126120528
:1004A000C01A91413605001C7141CE074008304307
:1004B0004908C01851412A46234600F04EFACDE7BC
:1004C000FFE7049801224000C117121A00238B4154
:1004D00004983146C417381AA141EEE730B401241C
:1004E000E407634030BC55E730B40124E4076140C1
:1004F00030BC4FE70000E0FFF0B51FB488B00B99A7
:100500000998002448400999C00F490049080991F9
:10051000C0070B990090490049080B910999089868
:10052000A64608431CD00B990A98084318D009988E
:1005300001244000420D4800410D099824050003A4
:10054000000B204309900B980003000B20430B90F5
:1005500050181C494018002201901446104605E02E
:10056000002001460DB0F0BD032801DA034600E08B
:1005700003239C46C11A0AAE0AE05F0008ADED5B9A
:100580004F00F75B7D430027AA187C41491C5B1E86
:100590006145F2DD410004AB5A522104120C0A43BA
:1005A000240C401C0828DFDB01980290009970465B
:1005B00001910090059B049A0799069800F0DAF9DA
:1005C000D0E700000DFCFFFFF0B50C465C4085B0A5
:1005D000E40FE40703944C00002664085900944695
:1005E000490802460296224321D062460A431ED0A1
:1005F0006200570D4A000E032303550D01240246E5
:100600002C492405781B1B0B360B4018234326432B
:10061000614600901C46501AB44103D30098401C18
:10062000009002E0921800985B41002803DA002055
:10063000014605B0F0BD00200121090507468646A8
:1006400011E064461D46141BB54106D36546521B96
:10065000B341744607430C43A646CD0740084908FA
:10066000284392185B4105460D43EAD110461843D2
:1006700013D06046194650407140084306D060468A
:10068000101AB34106D20122002306E00022012302
:10069000DB0702E00122D2435310009874460105A3
:1006A000381C6141029C039D0019694100F055F915
:1006B000BFE70000FD03000070B54B005B0803437B
:1006C0000BD04B005C0D002633466542B341D41776
:1006D000AD1AA34102DB0020014670BD120530189F
:1006E000514170BDC217C10F504010B54018CA0724
:1006F0009623002100F0F8F810BD10B500229623D3
:10070000114600F0F1F810BD0EB5C217C10F5040F0
:10071000CA0740180021054B0293019200910A4636
:100720000B4600F027F903B000BD000033040000C1
:100730000EB505490291002100910A460B46019130
:1007400000F018F903B000BD3304000070B5CD0F00
:100750004A0009030123090B1B0519430B4BED0745
:100760000024520D9A4201DA002070BD074B343349
:100770009A4203DC9A1A00F08BF802E004495118FF
:1007800088402C43F1D0404270BD0000FF030000C0
:10079000CDFBFFFF4A0009030123090B1B05194389
:1007A000094B10B5520D9A4201DA002010BD064BDC
:1007B00034339A4203DC9A1A00F06AF810BD0349F8
:1007C0005118884010BD0000FF030000CDFBFFFF63
:1007D000C20FD207400040080BD0C10D0723DB0138
:1007E000C91840020905400A1143C20840071143D5
:1007F000704700200146704710B5002904DB012432
:10080000E40740428C412146002B04DB1C460123B7
:10081000DB075242A3418B4200D1824210BD00004F
:1008200010B5002904DB0124E40740428C41214635
:10083000002B04DB1C460123DB075242A3419942F3
:1008400000D1904210BD00000122D207002800DB39
:10085000101A002900DB511A814270470122D20789
:10086000002800DB101A002900DB511A884270476B
:1008700010B5202A04DB0146203A9140002010BD2B
:10088000914020239C1A0346E3401943904010BD39
:1008900010B5202A04DB0846203AD040002110BDC4
:1008A0000B46D340D0402024A21A91400843194659
:1008B00010BD10B5202A06DBCB170846203A1041A0
:1008C000C1170B4306E00B461341D0402024A21A67
:1008D00091400843194610BD002904DA401C490024
:1008E00001D140084000704770B40024050C05D1C8
:1008F0001024000402D1002921D01124050E01D1B9
:1009000000020834050F01D10001241D850F01D11B
:100910008000A41C002801DB4000641C002908D0D2
:1009200020252E1B0D46F540A14000D00121294372
:10093000084301061B1B000ADB1D02D5002070BC0A
:100940007047DB05181880180029F8DA401C4900A8
:10095000F5D170BC40084000704710B5002B08DA94
:100960000024401C614192185B411A4301D14008A8
:10097000400010BDF0B51FB482B005460C0003D096
:1009800008460EF015FB02E00EF012FB2030024686
:10099000009021462846FFF76BFF049B059A04460A
:1009A0000F4618431143084314D0184610431BD078
:1009B000009840210A1A18460599FFF769FF054675
:1009C0000E46009A05990498FFF752FF084305D098
:1009D000012004E02046394607B0F0BD0020C117D1
:1009E00005430E432C43374300990E986305401A84
:1009F0007905E40A00220C43FD0A0A3002D50020E2
:100A00000146E9E70105101969410C9C0D9D00198B
:100A10006941FFF7A2FFDFE7F8B505464800400847
:100A20000C46284304D06000184A400D904201DD76
:100A30002846F8BD15493539884210DC88420BDB61
:100A4000290D200308432903014305D0E00F104975
:100A5000C00741180020F8BD00200146F8BD161A55
:100A60004020821B28462146FFF702FF07460091DF
:100A7000284621463246FFF70BFF3A46009BFFF718
:100A80006CFF3246FFF7F4FEF8BD000033040000AF
:100A90000000F03F4A0009030123090B1B0519431D
:100AA0000A4B10B5520D9A4202DA0020014610BDE1
:100AB000064B34339A4203DC9A1AFFF7E9FE10BD65
:100AC000034BD218FFF7D4FE10BD0000FF03000057
:100AD000CDFBFFFF064C0125064E05E0E36807CC81
:100AE0002B430C3C98471034B442F7D3FFF7ECFA91
:100AF000304301085043010870B58C180578401C3C
:100B00006B075B0F01D10378401C2A1106D10278D4
:100B1000401C03E006780E70401C491C5B1EF9D196
:100B20002B0705D40023521E0DD40B70491CFAE785
:100B30000378401CCB1A921C03E01D780D70491CF1
:100B40005B1C521EF9D5A142D8D3002070BD000015
:100B500038B50446084807490068FFF7C9FA6043FA
:100B6000009002E00098401E009000980028F9D103
:100B700038BD000040420F004C000020F8B504468C
:100B8000206881688907890F012902D10168C90796
:100B90002AD18168154A102611400125002907D065
:100BA000A06D3043A065E06D2843E0650120F8BDED
:100BB0008168294381600120FFF7CAFF03F090FF9D
:100BC00007460CE003F08CFFC01B0A2807D9A06D74
:100BD0003043A065E06D2843E0650120F8BD206842
:100BE0000068C043C007EDD10020F8BD17000080A9
:100BF0003EB5114D00F026F87D20000102210F4C7A
:100C00000191029001230022009491210C4801F0EF
:100C1000C3FD20786178217060700002084300B243
:100C2000FFF760FD2946FFF73AFB014620462830D2
:100C300011F074FE3EBD00006F1203392801002040
:100C4000C0070020F0B585B0074600250495194C73
:100C500004221749E068FFF7A5FAE068002801D1EF
:100C60001548E06003957D242401022504AE01238C
:100C70001A469121114800960195029401F08CFDCD
:100C800003907F1F38018321084369460874802040
:100C9000487401231A469021084800960195029451
:100CA00001F03CFE03900A2001F0A0FB05B0F0BD6E
:100CB000000F080824010020204E0000C00700207B
:100CC000F0B589B007460C461022002105A812F0A5
:100CD000C8FA224605A905A80EF01FFE6846007D49
:100CE0008726000605AA002810DA0020115C1318D8
:100CF0005B784900DB0919431154401C0F28F5DBD0
:100D000008A9C87840007040C8700EE00020115C4F
:100D100013185B784900DB0919431154401C0F2854
:100D2000F5DB08A9C8784000C870E11DF9314869B1
:100D3000102814D06846007D00061CD50020135CE6
:100D400015186D785B00ED092B431354401C0F28D8
:100D5000F5DB08ABD87840007040D8701AE000206E
:100D60002118FF3101314B78155C6B404B70401CF2
:100D70001028F5DB26E00020135C15186D785B0069
:100D8000ED092B431354401C0F28F5DB08ABD87832
:100D90004000D8708020E51D4B69FA355855002376
:100DA00000E043554869401C48611028F9D30020F1
:100DB0002118FF3101314B78155C6B404B70401CA2
:100DC0001028F5DB002021180B46E031FF330A46DE
:100DD0000133497C5B7859405174401C1028F2DB88
:100DE00021461022F13101A812F023FA2246394699
:100DF00001A80EF092FD1022002105A812F031FA90
:100E000009B0F0BD10B50446204610220021F13093
:100E100012F027FA0021FF2015300151F022204660
:100E200012F01FFA10BD10B50246084610210EF050
:100E30009FFD10BDF0B587B006460D461446F01D67
:100E4000F9300690F11D4069FA310591103904918D
:100E5000002843D010210F1AA74200D32746059936
:100E6000BAB24018294612F0E4F90698069940698A
:100E7000C019486110283AD3BC4238D0002031183C
:100E80000A46E032FF310131537C49784B405374BC
:100E9000401C1028F3DB0499324608460EF03DFD55
:100EA000ED19E41B1AE00022B018E030417CAB5C85
:100EB00059404174521C102AF6DB102268460499EE
:100EC00012F0B7F93246694668460EF026FD102248
:100ED0006946049812F0ADF91035103C102CE2D898
:100EE000A2B22946059812F0A4F90698446107B009
:100EF000F0BD00007CB50C4C20782546403D002814
:100F00000ED101206946087108488068009020468B
:100F100040304068007809F09DF800202875207066
:100F2000A87C60707CBD00003C0F00206411002094
:100F30001CB50F48817C427C914218D2491C8174B7
:100F4000C80714D022206A461071094CFF21803452
:100F500060682D31095C9171F921095C517100784B
:100F600001A909F06DF800906168E03148761CBD78
:100F7000FC0E002010B586B002221C490123002877
:100F800006D001280BD0022811D003281CD115E06F
:100F9000CC6A1443CC62C96A1140009114E0CA6A59
:100FA0001A43CA62C96AC907C90F00910CE0CC6A2A
:100FB0001443CC62C96A1140009105E0CC6A144325
:100FC000CC62C96A11400091094A4100515A01910D
:100FD00002930021039103210491064980000858DF
:100FE00001A901F099FA06B010BD000000100240FE
:100FF0009C3D01083C00002010B5054A4100515AB3
:10100000044A80001058002201F03FFB10BD000090
:101010009C3D01083C00002010B5054A4100515A92
:10102000044A80001058012201F02FFB10BD00007F
:101030009C3D01083C00002010B5164CC820E084FF
:10104000A06C401CA06421462C3108461C3012F0D4
:101050003BFB2621615EE06A4118E162A06C401C06
:10106000A06412F089FDA16CE06AFFF741F86064AA
:10107000014609480EF020FD0146084AA06C504385
:10108000FFF736F80549081AE0640348CC380CF03D
:1010900061F910BDF0030020F826002010270000A1
:1010A00010B5144CC820E08421462C3108461C3071
:1010B00012F00AFBA16CE06AFFF71AF801460E482D
:1010C0000EF0FAFC01460D4AA06C5043FFF710F8F1
:1010D0000A49081AE06408480949CC380CF0A2F81B
:1010E00005480849CC380CF024F90348CC380CF0FA
:1010F00031F910BDF0030020F82600201027000071
:1011000039100008005C26050FB4F0B5BDB010A87A
:1011100011F0CCFB9BA110A80DF036FF40A8007B7E
:1011200010AC002804D098A1E01C0DF02DFF03E0C6
:1011300096A1E01C0DF028FF40A8017DC27C837CB5
:10114000407C029003930492059140A8017CC07BEF
:101150000191009040A8837B427B8DA1A01D0DF0E2
:1011600013FF40A8027FC17E837E407E02900393DE
:101170000592049140A8017EC07D0191009040A895
:10118000837D427D82A1AA380DF0FEFE48A8017B36
:10119000C27A837A407A0A900B930C920D9148A8F8
:1011A000017AC27983794079069007930892099170
:1011B00048A80179C278837840780290039304921A
:1011C000059148A8017840A8C07F0191009040A8EF
:1011D000837F427F77499A380DF0D6FE48A8017C7C
:1011E000C07B0191009048A8837B427B6CA19A3818
:1011F0000DF0CAFE50A8027848A8C17F837F407FC7
:101200000A900B930D920C9148A8017FC27E837EB9
:10121000407E069007930892099148A8027EC37DFC
:10122000817D407D02AC0BC4059248A8017DC07C45
:101230000191009048A8837C427C5E4992380DF071
:10124000A3FE50A8027CC17B837B407B0A900B935A
:101250000D920C9150A8017BC27A837A407A069055
:1012600007930892099150A8037AC279817940794D
:1012700002AC0FC450A80179C0780191009050A829
:10128000837842784B4992380DF07EFE50A8417C1D
:1012900030A83031817350A8817C30A83031C173BF
:1012A00050A8C17C30A83031017450A8027D42A101
:1012B0006F380DF069FE50A8427D3FA135A80DF0B2
:1012C00063FE50A8817D30A83031C1757D25ED00C9
:1012D00029465698FEF70CFF0F90E126360131465D
:1012E0000F98FEF705FF044608463C21FEF700FF75
:1012F00007463C210F98FEF7FBFE00913B46224635
:101300002EA136A80DF040FE29465798FEF7F0FEB4
:101310000F9031460F98FEF7EBFE044608463C213D
:10132000FEF7E6FE07463C210F98FEF7E1FE00912E
:101330003B46224621A138A80DF026FE29465898A2
:10134000FEF7D6FE074631463846FEF7D1FE044684
:1013500008463C21FEF7CCFE05463C213846FEF708
:10136000C7FE00912B46224614A13AA80DF00CFEB0
:10137000B42210A94298FEF715FF3DB0F0BC08BC9E
:1013800004B018476E6F2A004F544100414250008C
:1013900025303258253032582530325825303258D1
:1013A00025303258253032582530325825303258C1
:1013B00000000000EC42010825642A002530326458
:1013C0003A253032643A253032640000FFB585B0EA
:1013D00004460027102565571120205604900898D0
:1013E000A16801606079012843D102206946087331
:1013F000A07C8873E07C03A908F022FE029046B22C
:10140000B54200DC3546B54203D1089800210160A1
:101410002FE0A189A068884200D30127E2898918BA
:10142000814226D8082069460873E07C03A908F0A9
:1014300007FE029040B20490E189A068FEF758FED2
:10144000012916D12220694608734D73A07C887348
:10145000E07C03A908F0F4FD029045B2B54208D142
:1014600000272079012804D169460871E07C08F042
:10147000F1FD06980570079904980870384609B080
:10148000F0BD0000F0B589B0284CFF226168D93268
:10149000525C00250126002A44D06A461675FF31A9
:1014A00021314A7F69468A75C87503A80BF0C3FDD0
:1014B0006068049AFF30CD304168009101780B4696
:1014C000417809020B438178C07809040B43000678
:1014D000034301A803990BF0D8FD029901980791E5
:1014E0000690124F803FB869089069464D75607844
:1014F000400706D5002004F06FFC002801D06846A4
:101500004675606805A9007807F06BFEFF226068E9
:10151000C332B969125AFF304A43511A813081648B
:1015200009B0F0BD6A461575B9E700007C0F0020D0
:101530000449896C002903D08968002900D0084734
:1015400070470000FC0D002038B50C4600220092C8
:10155000694600F0C3FC002801D0002038BD009887
:10156000844203D8401C01D0002038BD012038BD82
:1015700010B504F0A0FA002801D00E2010BD0A48D2
:101580004068E030007C01280BD104F09AFA002872
:1015900001D00F2010BD04F092FA002801D00F20D6
:1015A00010BD002010BD00007C0F00200A48817C87
:1015B000407C814201D30120704707488030407849
:1015C000800704D5044840300078012801D000206D
:1015D0007047012070470000FC0E00200E48FF22DB
:1015E0000146037C803148681932125C934201D372
:1015F000012070474978890708D5E030007C002831
:1016000006D005482030407B002803D000207047DA
:101610000120704701207047FC0E0020FFB587B005
:10162000109D06460F461C46002F0DD0002D0BD0F6
:1016300018480690FFF7E6FB01A9204600F030FCB1
:101640000446002C03D023E002200BB0F0BD01992A
:101650000698491CFFF7E7FB002E04D01022314604
:101660000698FFF7E7FB3946099A0698FFF7E2FB71
:1016700002A80699FFF724FB6A46D17A107A090678
:101680000843917A527A09041202114308432860F0
:101690002046DAE74C150020FFB587B00D461A4604
:1016A000129F139C109B11990646002E08D0002C07
:1016B00006D0FF200130854204D90E200BB0F0BDCA
:1016C0000A20FBE703A80091029001972846099998
:1016D00006F034FE00942A46314603A8099B0AF01E
:1016E0006FFF002801D00F20E8E70020E6E770B583
:1016F00096B005460C46E3784F2B11D00020217997
:1017000054290FD0002210406279412A0CD00026C3
:1017100030400026002809D001206946087013E0F7
:101720000120ECE70122EEE70126F1E7412B44D04E
:101730000020422943D000210840502A41D00021F6
:10174000084201D06846067000A81022A11D013091
:1017500012F014F9214602A810221631013012F0BD
:101760000DF9214604A820222631013012F006F995
:10177000214608A808224631013012F0FFF8214620
:1017800009A820224E31013012F0F8F821460DA8A8
:1017900020226E31013012F0F1F821468031887B31
:1017A00010AA30385071C87B30389071087C3038BE
:1017B000D07100201672567211E00120B9E70121A4
:1017C000BAE70121BCE710AE327A0A26724310AEA6
:1017D00032725B7CD218303A3272401CC0B223188D
:1017E00080335A7C2A2AEED100200BE010AE727AA8
:1017F0000A26724310AE72721B7DD218303A727292
:10180000401CC0B2231880331A7D2A2AEED1C87D2D
:1018100010AA30389072087E0A2330384A7E584326
:1018200030381018E12212015043CA7F0A2683186B
:10183000C87E0A7F30387043303812183C2042434B
:10184000887F7D2130387043101818183038C9004F
:1018500048431390A03420780A22303861785043EE
:1018600030380818E12109014843E1790A23411879
:10187000E078227930385843303812183C204243FF
:10188000A07930385843101808187D213038C90025
:1018900048431490207A0A223038617A5043303815
:1018A0000818E12109014843E17B227B4118E07AD5
:1018B00030385843303812183C204243A07B30382F
:1018C0005843101808187D213038C9004843159036
:1018D000582269462846FEF765FC16B070BD30B543
:1018E000044600200022012507E02B469340A34335
:1018F00001D1401CC0B2521CD2B28A42F5D330BDD5
:10190000FFB585B00025002700260020019040E0AB
:10191000002401984000049007990498095A012076
:10192000A04001422BD031190C2203915143089A57
:101930005258002A23D0059A002A01D140071ED010
:10194000089809180820029108560211000701178B
:10195000069840B207F04AFE002810D00298407A5C
:1019600001010E980818C068002802D07F1CFFB241
:1019700005E029460F9A6D1C0398EDB25054641C83
:10198000E4B2102CC8D31036F6B20198401CC0B295
:101990000190102EBCD310980770284609B0F0BDF6
:1019A00070470000F0B5044685B0084615461E464F
:1019B000002813D0002D11D0002E0FD0002100914F
:1019C000019102910391052C0AD0062C08D0072C16
:1019D00006D0082C08D00B2005B0F0BD0A20FBE78C
:1019E00001216A46117002E002216A461170014627
:1019F0006F460322781C11F01CFC03222946381D77
:101A000011F017FC02223146F81D11F012FC0C48AF
:101A100023464068022204462578694628466578B0
:101A20002D022843A578E4782D042843240620437A
:101A30000AF0D0FD002801D00F20CDE70020CBE731
:101A4000AC11002000280CD000290AD0027B2030E5
:101A50001307002B07D00378002B04D00020087058
:101A600018E003207047037A002B02D0130703D03D
:101A700005E0012008700DE00378002B02D012076A
:101A800003D009E00220087004E00078002803D0A9
:101A90000320087000207047172070477047704778
:101AA00010B5012000F02CFD022000F029FD10BD32
:101AB00010B5042000F024FD082000F021FD10BD29
:101AC00010B5102000F01CFD202000F019FD402072
:101AD00000F016FD802000F013FDFF20013000F023
:101AE0000FFD0120400200F00BFD0120800200F0FC
:101AF00007FD0120C00200F003FD0120000300F0FB
:101B0000FFFC0120400300F0FBFC0120800300F0FB
:101B1000F7FC0120C00300F0F3FC10BDFEE710B598
:101B20000520FFF705FD10BD10B50420FFF700FDEF
:101B300010BD10B50620FFF7FBFC10BD10B502204C
:101B4000FFF7F6FC10BD10B50020FFF7F1FC10BD4B
:101B500010B50120FFF7ECFC10BD10B50320FFF716
:101B6000E7FC10BD00B5002200F002F800BD000047
:101B700030B5054601200D4B5C7A012C15D8587AFA
:101B800000241C54587A8000C01845605D7A1846BD
:101B900008302A54587A421C5A72303008703A2061
:101BA00048702F208870CC70002030BD082600209F
:101BB00000B5002100F002F800BD000010B501469C
:101BC00001200A4B5A7A002A0FD009783039C9B25D
:101BD0008A00D2185468002C07D000205060591891
:101BE0000872587A401E5872002010BD0826002046
:101BF00010B5084900234B6107494A684C15224338
:101C00004A604A68082422434A60C009C001036050
:101C100010BD0000240600200020024010B5002066
:101C2000204A9169CB05204904D54869022318430D
:101C30004861901593699B0505D54B6901242343A1
:101C40004B616302184393695B0505D54B69082412
:101C500023434B61E301184393691B0505D54B6989
:101C6000042423434B616302184393699B0405D505
:101C70004B69102423434B616302184393699B0310
:101C800004D54C6920231C434C6118439369DB0342
:101C900005D54B69402423434B61A1020843906161
:101CA00010BD0000002002402406002070B504464C
:101CB00000F0F2FC0546184E0AE0601C08D0002C2B
:101CC00004D000F0E9FC401BA04201D9032070BD04
:101CD000B069C007F1D1B069800701D50220B061B9
:101CE000B069C00511D4B06980050ED4B069400553
:101CF0000BD4B069000508D4B069800405D4B0697C
:101D0000800302D4B069C00303D5FFF787FF012029
:101D100070BD002070BD00000020024010B50028FA
:101D200005D01022002111F09CFA012010BD0020E6
:101D300010BD00000649800008580649401803D02D
:101D4000C84203D00020704701207047022070472E
:101D5000003E0108702FFCFF38B5174C1548206075
:101D6000FF20E13060602046143004F041F920612A
:101D7000002000900F48694608384068007808F055
:101D800056F9A0600098E06020461C300AF054FC30
:101D9000A0612046243003F0DBFE206220462C3078
:101DA00003F081FEA0622046343003F0BDFF2063C3
:101DB000204638BD840F00206411002070B5044611
:101DC0000846154604E00178A14204D003F064FA05
:101DD000A842F8D1002070BD7FB5089E0A9D099CDD
:101DE000002A0AD0002C08D0002D06D003000DF0E8
:101DF000F6F805181B1E21072A000A2004B070BD42
:101E00006846807B012802D00320207014E000295E
:101E100004D0032902D0012020700DE002202070A0
:101E20000AE00420207007E00520207004E006206E
:101E3000207001E007202070D28920782B4631469F
:101E400004F08CF8DAE70520D8E700000021094A01
:101E5000CB00D358834208D84B1CDB00D3588342B5
:101E600003D9C800801800797047491CC9B21529E8
:101E7000EED3FEE7743C010810B50022074B940036
:101E80001C5D844204D19000C0180860002010BD81
:101E9000521CD2B2052AF2D30C2010BD2002002021
:101EA00030B500220C4B1124640115015519ED18B1
:101EB0002D192D7B854208D1100110188B22C018D6
:101EC000920080180860002030BD521CD2B2182A3F
:101ED000EBD3032030BD00003814002000B50029EA
:101EE00009D0164A030052680DF079F80826070D4C
:101EF00013191C1F22260A2000BD10690860104615
:101F00001030106316E050690860104614301063FA
:101F100010E0906908601046183010630AE0D0693C
:101F2000086007E0106A086004E0506A086001E099
:101F3000906A0860002000BD052000BDAC110020A3
:101F400038B50B496C4649680A46FF3121310B7B95
:101F5000A37060700D202070C87F012802D10E2070
:101F6000694608701078694608F06AF8C0B238BD52
:101F70007C0F0020884201D1C8B201E0401EC0B2EF
:101F800040B2704710B50948016944698069081872
:101F9000002809D00822064903F08AF904490422DE
:101FA0001031204603F084F910BD00004000F81FF6
:101FB000EE020020F8B50446002625464035287D6F
:101FC000012808D001202875206881688907890FB9
:101FD00001290ED101E00220F8BD0168C90708D02F
:101FE000A06D20210843A0650126002028753046F9
:101FF000F8BDA16DFF220132914302221143A16578
:10200000C1688907890F0091C16889088900C1608A
:102010002068816892071143816002F061FD0746E4
:102020000EE002F05DFDC01B0A2809D9A06D022157
:10203000884310210843A065002028750120F8BDC1
:10204000206880680028ECDB2068C168009A114392
:10205000C160A06D80088000401CA065C5E700003D
:10206000F8B50C4605464035297D01290DD00121E2
:10207000297501688A68520709D5816D20221143AC
:102080008165002028750120F8BD0220F8BD194B9C
:102090006268D8054710184E9A4215D08A6A23689C
:1020A0005B035B0B1A438A622168490305D5B1685B
:1020B0000143B1600A20FEF74BFD2068800315D56F
:1020C000B0683843B06011E08A6A23685B035B0B39
:1020D0009A438A622168490302D5B1688143B1609D
:1020E0002068800302D5B068B843B060002028752E
:1020F000F8BD000001100000002701400068006CDE
:102100007047000070B50446002C06D0A06D25462F
:1021100000264035002802D006E0012070BDE665AB
:102120002E75204600F0D2F8A06DC00603D42068BA
:102130008168490706D5A06D10210843A0652E755A
:10214000012070BDA16DFF22013291430222114393
:10215000A16581685B4A8907890F012902D101685D
:10216000C9072BD1032361689B07994205D05B42C5
:10217000994202D05B00994209D10169890089081E
:102180000161206801696368194301610CE001691C
:1021900089008908016190680F2189048843906053
:1021A00090686168084390602068C168182399436B
:1021B000C1602068C168A3681943C16090680121AB
:1021C0004906884390609068218F490608439060D3
:1021D00020688168C90004D4816801221207114374
:1021E00081602068C168384A1140C1602069E16897
:1021F000022823D000200143206A226B40035200B2
:1022000010430143606B0143A06980030143E0690F
:10221000C00301432068C2681143C160A06A01463F
:10222000FF39C23905D0E16A08432168CA68104302
:10223000C860606A0121012802D00BE00420DAE7BF
:10224000206A002823D0A06D20221043A065E06DF5
:102250000843E065206C012820D020680169C90787
:1022600003D0016949084900016120684169C90832
:10227000C900416120684169E26B11434161E66533
:10228000A06D80088000401CA065002070BD206803
:10229000C26801231B041A43C260DBE7206802699D
:1022A000FF239B009A43026120680269636CE56C1E
:1022B0001A43A36C2B431A430261206802690A4344
:1022C0000261D2E7002701401902FEFF7047F8B50E
:1022D00004460D4627466069403708280BD0206821
:1022E000C068C00709D0A06D20210843A065002068
:1022F00038750120F8BD082600E00C2602F0F0FB3E
:10230000009011E0681C0FD0002D05D002F0E8FB12
:102310000099401AA84207D9A06D04210843A0657E
:10232000002038750320F8BD206800683042E9D0ED
:10233000A06D012149020843A0652068C1680C22F4
:102340000905890F00291AD1216A002917D10168CE
:10235000090714D5816801234907002908DB416872
:1023600091434160A06D190288431843A06506E0BF
:10237000A06D20210843A065E06D1843E065A069C9
:10238000002801D1206802600020F8BD70B5044625
:10239000002021688968490723D425464035297DD6
:1023A00001291CD001212975E169012902D02046AB
:1023B000FEF7E4FB002811D1A16D0B4A1140FF226A
:1023C00001321143A1650021E165297522681C21B4
:1023D000116021688A6804231A438A6070BD022054
:1023E00070BD022070BD0000FEF1FFFF01B5009836
:1023F00002F0ECFA08BD0000F8B505460E46184F8D
:10240000387C012807D0012038741648FFF74EFCAD
:10241000002802D020E00220F8BD0021C94331602D
:102420006C6813E02046FFF7E3FB0E48FFF73EFC25
:102430000D494A6808239A434A604A684B159A43F3
:102440004A60002801D0346006E08034A9686A68D8
:10245000C9018918A142E5D800213974F8BD0000EE
:102460002406002050C300000020024003484168B9
:10247000022211434160002070470000002002400A
:10248000F8B50E4617460B4C207C012808D00120D9
:1024900020740948FFF70AFC0025002802D006E056
:1024A0000220F8BD656137600348FFF7FFFB257424
:1024B000F8BD00002406002050C300000948416810
:1024C00089070CD54168C90703D00749C16007498E
:1024D000C16007490161074901610020704701207F
:1024E0007047000000200240EFCDAB8905040302D5
:1024F000BFAE9D8C1615141310B502F0E3F810BD95
:1025000010B504494A69024202D04861FFF7F4FF5E
:1025100010BD000000040140F0B5002298E0012445
:102520009440A4462340002B7ED04C68022C01D05E
:10253000122C0CD1D408A40027183D6A5407E40ECD
:102540000F26A640B5430E69A6402E433E624C6856
:10255000012C05D0022C03D0112C01D0122C11D14A
:10256000856854000326A640B543CE68A6402E4396
:10257000866044686546AC430D79ED06ED0F9540E5
:1025800025434560076854000325A540AF430E79F5
:10259000B607B60FA6403E430660C668AE438D68D8
:1025A000A5403543C5604C68E40050D52B4C666BA4
:1025B00001252E4366639508294CAD002D19AF689F
:1025C0009407240F0F26A640B74305263607B042CE
:1025D00001D1002619E0234EB04201D1012614E0BA
:1025E000214EB04201D102260FE0204EB04201D16F
:1025F00003260AE01E4EB04201D1042605E01D4E1E
:10260000B04201D1052600E00626A6403E43AE605A
:10261000194D2C689C434E68F60300D51C432C6072
:102620006C689C434E6800E011E0B60300D51C4383
:102630006C60AC689C434E68F60200D51C43AC60ED
:10264000EC689C434E68B60200D51C43EC60521CFB
:102650000B681C46D44000D061E7F0BD001002407A
:10266000000001400004005000080050000C005021
:1026700000100050001C0050000401400069084296
:1026800001D00120704700207047002A01D08161ED
:102690007047816270470000014800687047000081
:1026A0005000002070B50446002C12D0242025468E
:1026B000403568702068016849084900016020467B
:1026C00000F0EEF90020606468702063A870287044
:1026D00070BD012070BD40304078704770B5044631
:1026E000002C06D02546403568780026002802D008
:1026F00005E0012070BD2E70204600F0D2F92420A4
:102700006870206801684908490001600F2160680D
:102710000906884321680861206882680121C9038D
:102720008A438260E068012809D02122A0689202D1
:10273000104322689060E068022805D008E0A06895
:10274000226808439060F6E701202268C0025060CA
:10275000206842680F4B1A4342602068C2688A436F
:10276000C260616920690843A169090208432168C0
:10277000C860216AE0690843216808602068016830
:102780000122114301606664202068702663AE70E8
:10279000002070BD00800002FFB583B004462546CE
:1027A00040356878202802D0022007B0F0BD0C9890
:1027B000002815D00D98002812D02878012811D0B3
:1027C0000120287002F08CF9064601221923D1035A
:1027D0002046009602F0ECFC002805D00320E4E738
:1027E0000120E2E70220E0E7222068704020A87084
:1027F000002767640C9860620D98608567630E9887
:102800000090019604A90EC9204602F035FC00286C
:1028100008D0606C042802D02F700320C5E72F7009
:102820000120C2E7618D3B48FF2909D9FF2222859B
:10283000012300901B062046049902F0A5FC0AE043
:10284000618D21850090208D0123C2B25B06204658
:10285000049902F099FC00960022042120460E9B68
:1028600002F0A6FC002801D003209EE72068416A00
:10287000606A421C62620170208D401E80B2208519
:10288000618D491E6185002825D1608D002822D0E8
:1028900000960022802120460E9B02F089FC002831
:1028A00001D0032081E7608DFF2809D9FF2222850E
:1028B00001231B0600972046049902F065FC0AE0FC
:1028C000608D20850097208D0123C2B25B062046D3
:1028D000049902F059FC608D0028BCD13246204694
:1028E0000E9902F089FC002806D0606C042801D003
:1028F00003205AE7012058E720682022C26120689F
:102900004168054B194041606A70AF702F7000201C
:102910004BE700000024008000E800FEFFB583B014
:102920000446254640356878202802D0022007B0AA
:10293000F0BD0C98002815D00D98002812D02878EA
:10294000012811D00120287002F0CAF807460122A0
:102950001923D1032046009702F02AFC002805D055
:102960000320E4E70120E2E70220E0E7212068708D
:102970004020A870002666640C9860620D986085FF
:1029800066630E980090019704A90EC9204602F0D4
:10299000B7FB002808D0606C042802D02E700320FA
:1029A000C5E72E700120C2E7608DFF2809D9FF22FC
:1029B000228501231B0600962046049902F0E4FBC1
:1029C0000AE0608D20850096208D0123C2B25B064F
:1029D0002046049902F0D8FB3A4620460E9902F0B0
:1029E00032FC002806D0606C042801D003209EE74A
:1029F00001209CE7606A411C61622168007888625E
:102A0000608D401E6085208D401E80B2208500288C
:102A100025D1608D002822D00097002280212046F9
:102A20000E9B02F0C5FB002801D003207FE7608DDC
:102A3000FF2809D9FF22228501231B060096204684
:102A4000049902F0A1FB0AE0608D20850096208D9C
:102A50000123C2B25B062046049902F095FB608D0B
:102A60000028B9D13A4620460E9902F0C5FB00284D
:102A700006D0606C042801D0032058E7012056E7F7
:102A800020682021C16120684268044B1A404260DE
:102A90006970AE702E70002049E7000000E800FE6B
:102AA0007047704702480168491C01607047000088
:102AB0005000002010B50648016802221143016051
:102AC000032000F007F800F007F8002010BD000018
:102AD000002002400020704710B50B48816B0204B3
:102AE0001143816300F090FB00F086FB0748026809
:102AF00008210A43026002688A43026000F074FB06
:102B000001F098FE10BD00000010024000200240BD
:102B1000002809DBC106C90E01208840034908606E
:102B2000BFF34F8FBFF36F8F7047000080E100E06D
:102B3000002805DBC106C90E012088400149086054
:102B40007047000000E100E010B50CF055FA10BD30
:102B5000BFF34F8F04490348C860BFF34F8F00BFD6
:102B6000FDE700000400FA0500ED00E00168FF3019
:102B7000FF3002300122C2664031088B10430883C7
:102B8000088B0222104308830020704710B50168AB
:102B900001224D23DB001A50132400236401001985
:102BA00003704031888A10438882888A0222104349
:102BB0008882002010BD704710B50C0604D5490767
:102BC000090E0818283003E049010818FF302930A1
:102BD00099B2002A06D0012202730181190C4181A9
:102BE000002010BD00220273C180F9E710B54A0130
:102BF0001218FF30FF300230D26B006F0AF074FE03
:102C000010BD10B54A011218FF30FF32FF300132FB
:102C10000230D26B006F0AF0DDFE10BD70B50446C5
:102C2000002C0DD011200321400125186972204687
:102C300000F0ADFA204600F019FA0020687270BD6D
:102C4000012070BD10B5112149014418217A0129D4
:102C500007D00121217200680BF08EFD0020207248
:102C600010BD022010BD70B54A07CD09520F5101A9
:102C7000091801230024002D02D028314B7002E0F6
:102C8000FF3129314C700A701122520185182A7ABD
:102C9000012A06D02B7200680BF0DAFC2C7200209F
:102CA00070BD022070BD70B50A074368120F9A42CA
:102CB00001D9012070BD4A07CD09520F51010918F1
:102CC00001230024002D02D028314B7002E0FF3197
:102CD00029314C708C700A701122520185182A7AA1
:102CE000012A06D02B7200680BF066FD2C720020C2
:102CF00070BD022070BD002070474907090E0818FA
:102D0000FF300130406C7047F8B54F07CC097F0F9A
:102D10007901091801260025002C02D028314E70B7
:102D200002E0FF3129314D700F700A61CB704A7893
:102D3000002A00D0CF81022B00D10D711122520147
:102D40008418227A012A06D0267200680BF040FB14
:102D500028462572F8BD0220F8BD70B50D466C07F7
:102D6000640F61010918FF3129314A618B6100222A
:102D7000CA614A700C706A0704D000680BF078FDD5
:102D8000002070BD00680BF073FDF9E7F8B504464C
:102D90000D4668076168400F884201D90120F8BDDF
:102DA000E90900270122002904D04101091928312D
:102DB0004A7004E069010919FF3129314F708A70A6
:102DC0000870112040012618307A012806D032728E
:102DD00020680BF02DFD680702D007E00220F8BD47
:102DE00023210901611820680BF0E4FC37720020F0
:102DF000F8BD70B50D466C07640F610109182831E4
:102E00004A618B610022CA6101224A700C706A0714
:102E100004D000680BF02CFD002070BD00680BF0A2
:102E200027FDF9E7F8B5044620680BF027FE0004FB
:102E300002D5204605F0CAF820680BF01FFE4005B9
:102E40000DD5206840308188012292029143818013
:102E5000204600F037F90021204600F065F920688F
:102E60000BF00CFE400406D520684030818801221A
:102E700092039143818020680BF000FE800406D508
:102E8000206840308188012252039143818020686C
:102E90000BF0F4FDC1041320400104260827251877
:102EA00000291CDA206840300188B1430180206885
:102EB00040300188B94301802878012805D10020DD
:102EC000287000212046FFF776FE204600F00EF91C
:102ED000206840308188012212039143818020685C
:102EE0000BF0CCFD000519D520684030018839432E
:102EF00001802068403081880122D2029143818084
:102F00002068403001883143018020680BF0B6FD15
:102F1000C043C00402D5204600F054F920680BF0ED
:102F2000ADFD00060BD5206840308188802291439A
:102F30008180287800281ED0204600F043F92068C0
:102F40000BF09CFD800509D5206840308188012266
:102F5000520291438180204600F0DEF820680BF099
:102F60008DFDC00506D5206840308188FF220132E2
:102F700091438180F8BD2068403001883143018051
:102F80002068403001883943018001202870206882
:102F90004030808AF021084081089920800001514A
:102FA00001212046FFF707FEC9E7F0B585B00446CA
:102FB000002C07D0112040012618707A0025002827
:102FC00003D006E0012005B0F0BD3572204600F0C8
:102FD00061F80320707220680BF0E2FB00200127EB
:102FE0000CE0410109190A46203257721072C88656
:102FF000D5728D63CD630D64401CC0B2616881429F
:10300000EFD800200EE0410109190A46FF312131B5
:103010004D720872CD72D11DF9318D63CD630D648F
:10302000401CC0B261688142EDD8214614221031A3
:103030006846FDF7B7F820460FC80BF0A4FB002840
:1030400003D0022070720120BDE72420055577725D
:10305000E069012802D12046FFF798FD206A012887
:1030600002D12046FFF782FD0020ACE710B50068D2
:103070000649884208D10648816B0122D205914356
:1030800081631F20FFF744FD10BD0000005C00407D
:103090000010024010B50068084988420DD1084868
:1030A000816B0122D20511438163002211461F204A
:1030B000FFF74AFD1F20FFF73BFD10BD005C0040FD
:1030C0000010024070B504460125A068022801D016
:1030D000FEF724FDFF34FF3402342946206F0AF046
:1030E00087FD206F0AF03EFD70BD000010B504465C
:1030F000A069002806D007480169062291430161B2
:1031000009F0E3FFFF34FF340234206F0AF058FD6A
:1031100010BD000000ED00E010B5FF30FF300230C0
:10312000006F0AF054FD10BD10B511225201841831
:10313000227A012A09D00122227224221154006825
:103140000BF0B5FC0020207210BD022010BD10B5A0
:10315000272109010A5823210901411810460AF0C4
:1031600054FD10BD70B50446112040012518287A81
:1031700001280AD00120287220680BF0F5FA206897
:103180000BF06AFC0020287270BD022070BD70B583
:103190000546112040012C18207A01280DD001206D
:1031A000207228680BF0FCFA28680BF087FC0021DD
:1031B000002804D02172012070BD022070BD217250
:1031C000002070BD10B504462720000100590AF008
:1031D00068FDA069002804D0024801690622114355
:1031E000016110BD00ED00E00248016802151143C5
:1031F00001607047007000400248016842151143A9
:10320000016070470070004002480168102291433D
:103210000160704700700040094B1A6892089200E4
:1032200002431A600748026904239A430261012994
:1032300003D040BF20BF20BF704730BF70470000A1
:103240000070004000ED00E00A4B1A6892089200FE
:1032500002431A600848026904231A4302610129E3
:1032600006D040BF20BF20BF01699943016170476C
:1032700030BFF9E70070004000ED00E0F8B504460B
:103280002078644D80067FD5002662484038806BE8
:10329000C00006D45F484038826B01040A43826351
:1032A00001265D480168C90512D4016882151143E1
:1032B0000160FFF7F1F9074606E0FFF7EDF9C01BE3
:1032C000642801D90320F8BD53480068C005F4D52F
:1032D00050484038006803210905084062681140E1
:1032E00081420AD09003800F032806D14948403814
:1032F0000068800301D50120F8BD28690321090475
:103300000840002821D00A4082421ED02078800642
:103310001BD5286988432A690121C9040A432A6107
:103320002A698A432A612861C0050ED5FFF7B4F9DE
:10333000074607E0FFF7B0F9C11B3848814201D9C1
:103340000320F8BD28698005F4D560688103890FE2
:10335000032908D12F4B403B1968032212059143E2
:10336000104001431960286903226168120411406A
:1033700008432861012E07D126484038826B01049A
:103380008A4300E000E082632078C00705D0E86847
:10339000A168800880000843E8602078800705D590
:1033A000E8680C218843E1680843E860207840071A
:1033B00006D5E86803218902884321690843E8604B
:1033C0002078000706D5E86803210903884361696E
:1033D0000843E8602088C00506D5E8680321090491
:1033E0008843A1690843E8602078400606D5E8686C
:1033F000012189068843216A0843E8602078000695
:1034000006D5E868032189048843E1690843E86038
:103410000020F8BD401002400070004088130000FA
:10342000F8B504460E465B480068C007C00FB042BE
:103430000CD25848016849084900314301600068CE
:10344000C007C00FB04201D00120F8BD2078524F14
:10345000800705D5F868F0218843A1680843F86023
:103460002078C00760D06068022808D003280BD0FD
:1034700001280ED03968890510D40120F8BD3968BB
:1034800089030BD40120F8BD3968890106D40120D5
:10349000F8BD3968490701D40120F8BDF9688908E9
:1034A00089000143F960FFF7F7F8054660680228D4
:1034B0000CD0032818D0012824D031E0FFF7ECF815
:1034C000411B3648814201D90320F8BDF868000746
:1034D000800F0228F2D127E0FFF7DEF8411B2F48CA
:1034E000814201D90320F8BDF8680007800F032846
:1034F000F2D119E0FFF7D0F8411B2848814201D9E9
:103500000320F8BDF8680007800F0128F2D10BE016
:10351000FFF7C2F8411B2148814201D90320F8BDC1
:10352000F8680007800FF3D11A480168C907C90F6E
:10353000B1420BD901684908490031430160006874
:10354000C007C00FB04201D00120F8BD207840076D
:1035500006D5F868072109028843E1680843F86046
:103560002078000707D5F8680721C9028843216938
:10357000C9000843F86000F017F8F968084A09061E
:10358000090F515CC840074908600320FFF7A2FA01
:103590000020F8BD00200240001002408813000007
:1035A000A43D01084C00002010B51C4AD1680C2332
:1035B0000846184004280BD0082810D00C2810D03A
:1035C00050680004410F491C0120C003884010BD11
:1035D0001068C00601D5124810BD124810BD12482F
:1035E00010BD8802114B000F185C0902890F491C9D
:1035F000D368DB0304D50C4A5043FCF779FD10BDBA
:103600001268D20604D5064A5043FCF771FD10BD7E
:10361000044A5043FCF76CFD10BD0000001002404E
:1036200000093D000024F40000127A00B43D0108B6
:10363000F8B504462078FC4EC00755D0F068000766
:10364000800F022807D0F0680007800F03280AD1F6
:10365000F068C00307D53068800345D5606800284E
:1036600042D10120F8BD012160680904884203D1DC
:1036700030680843306015E0052301221B049204E2
:10368000984206D13068104330603068084330609B
:1036900008E0306888433060306808400090306847
:1036A00090433060606800280FD0FEF7F5FF0546B4
:1036B000DE4F06E0FEF7F0FF401BB84201D90320C1
:1036C000F8BD30688003F5D50EE0FEF7E5FF05464E
:1036D000D64F06E0FEF7E0FF401BB84201D90320B9
:1036E000F8BD30688003F5D4207880074CD5F068A9
:1036F0001F270007800F3F02012807D0F06800074E
:10370000800F032811D1F068C0030ED43068400741
:1037100004D5E068012801D00120F8BD7068216956
:10372000B8430902084370602EE0E068002819D011
:1037300031680922914301433160FEF7ADFF054630
:1037400006E0FEF7A9FF401B022801D90320F8BDBF
:1037500030684007F5D570682169B843090208430D
:10376000706011E03068400840003060FEF794FF60
:10377000054606E0FEF790FF401B022801D9032012
:10378000F8BD30684007F5D42078C0067ED5F068D3
:10379000A74F0007800F0BD0E069002863D0306886
:1037A000FF21013108433060FEF776FF05464AE00D
:1037B0003068800502D5E06900280AD0606A716827
:1037C0003940884214D905F083FC002803D0012039
:1037D000F8BD0120F8BD7068616AB84308437060A5
:1037E0007068218C0002000A09060843706011E02D
:1037F0007168B943014371607068218C0002000A4E
:10380000090608437060606A05F062FC002801D078
:103810000120F8BD606A410B491C0120C0038840AB
:10382000F16809060A0F8349895CC840824908602B
:103830000320FFF74FF929E0FEF72EFF401B022877
:1038400001D90320F8BD30688005F5D57068616A3C
:10385000B843084370607068218C0002000A0906B2
:103860000843706012E03068FF2101318843306006
:10387000FEF712FF054606E0FEF70EFF401B02288A
:1038800001D90320F8BD30688005F5D420786B4D50
:10389000000727D56069002812D028690121084354
:1038A0002861FEF7F9FE074606E0FEF7F5FEC01BAD
:1038B000022801D90320F8BD28698007F5D511E059
:1038C0002869400840002861FEF7E6FE074606E04A
:1038D000FEF7E2FEC01B022801D90320F8BD2869CB
:1038E0008007F5D42078400771D500200090B06B98
:1038F000C00006D4B06B012109070843B063012062
:1039000000904F480168C90512D40168821511431F
:103910000160FEF7C1FE074606E0FEF7BDFEC01BD4
:10392000642801D90320F8BD45480068C005F4D5D6
:10393000FF20A1680130814203D129690143296137
:103940001BE00122920200290AD005231B029942A2
:103950000DD12969114329612969014329610CE0CD
:1039600029698143296128699043286105E0296913
:1039700081432961286990432861A06800280FD0FD
:10398000FEF78AFE074607E0FEF786FEC11B2748C2
:10399000814201D90320F8BD28698005F4D50EE0E5
:1039A000FEF77AFE074607E0FEF776FEC11B1F48CA
:1039B000814201D90320F8BD28698005F4D400981C
:1039C000012804D1B06B012109078843B063207836
:1039D000800643D51B48A2694114002A18D0B2685A
:1039E00001231A43B260726B1A437263026A0A437C
:1039F0000262FEF751FE054606E0FEF74DFE401B53
:103A0000022801D90320F8BDB0688007F5D525E06C
:103A1000B26852085200B260026A8A430262FEF73C
:103A20003BFE054617E0000000100240881300002E
:103A300000E00000A43D01084C00002040100240BE
:103A40000070004000000140FEF726FE401B0228E7
:103A500001D90320F8BDB0688007F5D4A06A00281A
:103A600047D0F1680907890F032944D001273F0691
:103A7000022806D03068B8433060FEF70DFE0446D9
:103A800034E03068B8433060FEF706FE054606E0D5
:103A9000FEF702FE401B022801D90320F8BD306862
:103AA0008001F5D4216BE06AF2680843616BFD2365
:103AB0001B049A4311430843F06030683843306078
:103AC000FEF7EAFD044606E0FEF7E6FD001B0228CD
:103AD00001D90320F8BD30688001F5D509E0FEF773
:103AE000DBFD001B022801D90320F8BD30688001EE
:103AF000F5D40020F8BD0120F8BD006850308900E1
:103B00000818006870470068503089000818026083
:103B1000704730B5014620310A78012A15D00124BA
:103B20000C7002224A700368CA225A620368532248
:103B30005A620268936820252B4393600068FF2235
:103B400042624C700020087030BD022030BD10B5BC
:103B500009F098FB10BDF8B50446254620352878B5
:103B600001281BD001202870022068702268CA201A
:103B70005062226853205062FF2201320027914296
:103B800021D1206881689143816020688168120199
:103B900091438160FEF780FD06460FE00220F8BDEC
:103BA000FEF77AFD811B7D20C000814206D9216885
:103BB000FF204862032068702F70F8BD2068C0683D
:103BC000C007EDD020E020688168012252029143B5
:103BD000816020688168120191438160FEF75CFD7D
:103BE00006460DE0FEF758FD811B7D20C000814296
:103BF00006D92168FF204862032068702F70F8BD45
:103C00002068C0688007EDD52168FF204862012048
:103C100068702F700020F8BD10B50B460068416831
:103C20000D480140080CD870CC04E40E5C708C0682
:103C3000A40E9C700904490F1970002A0AD105F0DE
:103C40007FFAD870587805F07BFA5870987805F0AC
:103C500077FA9870002010BD3FFFFF0010B50B46AB
:103C60000168896A5960016809694904490C9960C9
:103C7000006801680E4801408802800E18704C04EC
:103C8000640E5C704C06640E9C70090C402421404C
:103C9000D970002A0AD105F053FA1870587805F047
:103CA0004FFA5870987805F04BFA9870002010BDC4
:103CB0007F7F7F0070B50446002C05D02546203557
:103CC0006878002802D006E0012070BD002028702E
:103CD000204600F045F8022068702168CA2048623A
:103CE000216853204862204605F03DFAFF21002854
:103CF00005D02068416204206870012070BD2068F2
:103D00008268164B1A408260206882686368A669E0
:103D10001A43236933431A4382602268E0681061C2
:103D20002068026923891B041A4302612068C26863
:103D300080239A43C2602068C26C92089200C264D9
:103D4000E269606902432068C36C1A43C264206858
:103D5000416201206870002070BD0000BFFF8FFF2E
:103D600000B597B00420099000201390FF20013087
:103D70000B9009A8FFF75CFC002801D0FDF7CEFEF0
:103D800020200090C00201906846FFF777FA0028D3
:103D900001D0FDF7C3FE08480169012292041143D6
:103DA0000161002211460220FEF7CEFE0220FEF73E
:103DB000BFFE17B000BD000040100240FEB5044633
:103DC0000B46254620352878012810D00120287080
:103DD000022068701E4600272036002A09D020687D
:103DE0008068400625D5187805F0AAF922E002205F
:103DF000FEBD20688068400600D4DF70187805F0AA
:103E0000A7F90204587805F0A3F900020243987854
:103E100005F09EF90243D87800040243307805F09B
:103E200097F900060243D8690243586902431646CF
:103E300018E0DF70D869002832D0307805F080F9BA
:103E400019789878090408435978DA780902120435
:103E500011430843317809060843D9690843596971
:103E60000843064699695868084300902168CA20AB
:103E70004862216853204862FF22586A0132802339
:103E8000904235D120688168914381602068C16883
:103E90001940FF398239C160FEF7FEFB019012E044
:103EA000307805F04DF9CBE7FEF7F6FB0199411AA2
:103EB0007D20C000814206D92168FF20486203208E
:103EC00068702F70FEBD2068C068C007ECD0206805
:103ED000C66121680098486420688168FF22013229
:103EE000114381602068816812011143816032E0D2
:103EF0002068816801225202914381602068C16874
:103F00001D4A19408918C160FEF7C6FB01900EE0FA
:103F1000FEF7C2FB0199411A7D20C000814206D9FB
:103F20002168FF204862032068702F70FEBD206862
:103F3000C0688007ECD52068066221680098886414
:103F400020688168012252021143816020688168E3
:103F500012011143816009480268012149040A43A2
:103F6000026082680A4382602168FF204862012063
:103F700068702F700020FEBD7FFDFFFF0004014030
:103F8000F8B504460B46254620352878012806D08A
:103F90000120287002206870002A02D008E0022068
:103FA000F8BD5878C10603D5EF2108400A30587093
:103FB000002A23D0587805F0C3F8987805F0C0F8A7
:103FC000D8789E780004064358781978000249038F
:103FD000084306432168CA2048622168532048628A
:103FE000204605F0C0F80027002818D02168FF20DF
:103FF0004862042068702F700120F8BDD87805F061
:10400000A7F80604587805F0A3F80002064398784C
:1040100005F09EF80643187840030643DAE7114896
:104020000640206846602068C16880229143C160D4
:104030002068806880060CD4204600F097F800289D
:1040400007D02168FF204862042068702F7001208B
:10405000F8BD2168FF204862012068702F700020A1
:10406000F8BD00003FFFFF00F8B504460D462646A8
:104070002036307801280ED0012030700220707078
:104080000027002A09D02068806840061CD52878BF
:1040900005F056F819E00220F8BD20688068400657
:1040A00000D4EF70287805F053F80204687805F022
:1040B0004FF800020243A87805F04AF80243E87876
:1040C0000004024300920BE0EF702978A8780904FD
:1040D00008436978EA780902120411430843009002
:1040E0002168CA204862216853204862204605F0B2
:1040F0003AF8002807D02168FF2048620420707039
:1041000037700120F8BD1849009808402168086000
:10411000206881680122920491438160E9682869DE
:10412000014320688268114381602068C168802251
:104130009143C1602068806880060CD4204600F05E
:1041400015F8002807D02168FF204862042070700D
:1041500037700120F8BD2168FF204862012070708F
:1041600037700020F8BD00007F7F7F0070B50546E6
:104170002868C168A0229143C160FEF78DFA044609
:104180007D26F60006E0FEF787FA001BB04201D953
:10419000032070BD2868C0688006F4D5002070BD7B
:1041A00070B50446002C06D025464035687C0026B4
:1041B000002802D005E0012070BD2E74204600F0DA
:1041C00032F802206874206801684022914301603F
:1041D000A168606822690843E16811430843616986
:1041E00001220843A169520211400843E1690843D2
:1041F000216A0843A16A084321680860A069042174
:10420000000C0840616A0843216848602168E06A40
:1042100008612068C16992009143C161666501200F
:104220006874002070BD7047F8B504460020009007
:10423000254640356E7C012E04D06E7C222E01D0A6
:104240000220F8BD00290CD0002A0AD0002B08D08B
:104250002E7C012E07D001262E746E7C012E04D0F8
:1042600005E00120F8BD0220F8BD32266E74002062
:104270006065A263A387E3872163A386E386A064C6
:10428000E0640126A06A7603B04207D12068016885
:10429000B143016020680168314301602068016812
:1042A000490603D401684022114301600122D20271
:1042B000FF21E0680531570090427ED160680028F8
:1042C00004D088420CD1E08E012809D1206B2168EE
:1042D0000088C860206B801C2063E08E401EE08652
:1042E000E08E00284DD1A06AB04203D12068016859
:1042F00039430160002201212046069B06F0BCFBE9
:10430000002801D00320F8BD2068C068A16B088098
:10431000A06B801CA063E08F401EE087C3E00022FA
:1043200002212046069B06F0A7FB002801D00320AF
:10433000F8BD206B21680088C860206B801C20635A
:10434000E08E401EE086E08E002806D1A06AB042D2
:1043500003D1206801683943016000220121204611
:10436000069B06F089FB002801D00320F8BD2068D9
:10437000C068A16B0880A06B801CA063E08F401E0A
:10438000E087E08E0028CAD16068002814D100229E
:1043900001212046069B06F06FFB002802D0032077
:1043A000F8BD0AE02068C068A16B0880A06B801C83
:1043B000A063E08F401EE08775E06068002804D0AD
:1043C00088420BD1E08E012808D1206B411C21636B
:1043D00021680078C860E08E401EE086E08E0028EC
:1043E00048D1A06AB04203D1206801683943016016
:1043F000002201212046069B06F03EFB002801D04A
:104400000320CDE72068C068A16B0870E08F401ED4
:10441000E08748E0002202212046069B06F02CFBA4
:10442000002801D00320BBE7206B411C21632168D9
:104430000078C860E08E401EE086E08E002806D13D
:10444000A06AB04203D120680168394301600022AC
:1044500001212046069B06F00FFB002801D0032017
:104460009EE72068C168A06B421CA2630170E08FC8
:10447000401EE087E08E0028CCD16068002812D171
:10448000002201212046069B06F0F6FA002801D002
:10449000032085E72068C168A06B421CA2630170FD
:1044A000E08F401EE087A06A0227B04211D10022AF
:1044B00001212046069B06F0DFFA002804D0606D3B
:1044C0003843606503206BE72068C0680090694648
:1044D0000888012280212046069B06F0CDFA00289C
:1044E00005D0606D202108436065032058E7012056
:1044F0006874A06AB04212D120688168C943C906B5
:104500000DD4616D394361650168B1430160206874
:1045100001683143016000202874012040E7002039
:1045200028743DE710B51248017800291ED10122F8
:10453000027011480F49016000210164D3074360F4
:10454000C1618263816181600723C3630261C160CD
:1045500001624162C1620422426101630748416B0A
:104560004215114341630448FDF7CCFD10BD000026
:1045700058000020002401403C07002000100240A9
:104580007CB5044600201D490978002934D01C4917
:104590004A68D2431007FBD41A4D686B6E1530433E
:1045A000686300211848FDF705FD18480090184879
:1045B000019069461448FDF753FD0094A81401903A
:1045C00069461148FDF74CFD0F48FDF7DFFE7D21E0
:1045D000C9000D48FDF77BFE0B48FDF78FFD80B24B
:1045E000094B19688A68022422438A601A680321E9
:1045F0001160696BB14369637CBD00005800002005
:1046000000700040001002403C070020FFFF070040
:1046100001100000014600200A0A00D00820084AC4
:10462000114201D004221043064A114201D0022255
:104630001043054A114201D0012108437047000090
:10464000F0F00000CCCC0000AAAA000038B50C465F
:104650000B21090743181A491AD00D155B1B1FD0EF
:104660005B1B25D0AB4207D1CB6A08252B43CB621D
:10467000C96A2940009106E0CD6A80231D43CD62BE
:10468000C96A1940009114601146FDF745FF38BD15
:10469000CB6A01252B43CB62C96A29400091F2E71E
:1046A000CD6A02231D43CD62C96A19400091EAE731
:1046B000CD6A04231D43CD62C96A19400091E2E727
:1046C0000010024010B5FFF7A5FF810003484158D4
:1046D000002901D00020884710BD00003C060020C2
:1046E00070B50D4616461C462846FFF793FF0B494A
:1046F000002C0ED080000C50284603F0ECF9044644
:10470000002231462046FEF71FFA2046FEF710FA37
:1047100070BD002280000A5070BD00003C060020E1
:1047200010B5D2B2FDF7B1FF10BD000010B50024E6
:104730001048FFF725FF014608000AD00E480F4A2F
:10474000008B5043FBF7D4FC0C49884203D9FE246C
:104750000DE00020F8E7E121C900884207D3401AA4
:10476000FE2148434B210901FBF7C2FCC4B220469D
:1047700010BD0000000002446000F81FB80B0000EC
:1047800003494A690869496A504048407047000037
:104790004000F81F70B51248FFF7F2FE0146114DB8
:1047A00000291AD0288B104A5043FBF7A1FC04467D
:1047B0000E48FFF7E5FE60430B49FBF799FC698B58
:1047C0000522401A12035043EA8B511AFBF7A6FC4C
:1047D0000F214902401880B270BD0024E8E70000B4
:1047E000000002446000F81FB80B000000000448FD
:1047F0000F494B6A0A69D218120EC2714B6A0A69D4
:10480000D218120C82710A8A8B8CD218120A427149
:104810000A7C8B8CD21802714A69120EC2704A69E6
:10482000120C82708A8A120A4270097D01707047E8
:104830004000F81FF0B587B0142102A8FBF7CBFCAD
:10484000224CE06A01210843E062E06A08400190DE
:10485000E06A02252843E062E06A28400190E06AAD
:1048600004263043E062E06A30400190E06A80272D
:104870003843E062E06A3840019003200390002052
:10488000049013480290052002A90007FDF744FE9A
:104890001048029002A91048FDF73EFE02A90F48F9
:1048A000FDF73AFE02A90E48FDF736FEE06A400821
:1048B0004000E062E06AA843E062E06AB043E06280
:1048C000E06AB843E06207B0F0BD000000100240AB
:1048D000FF9F0000FFFF0000000400500008005090
:1048E000001C005010B50C4C6078002812D1FFF766
:1048F00019FE0A480068804700F062FA00F0F8F8F4
:1049000008F0EEF90020FCF735FB0120FCF732FB44
:104910000120607010BD000058000020243D0108F7
:1049200010B586B0142101A8FBF755FC03200290B6
:10493000002003900524240701AA80212046FFF7C8
:1049400085FE01AA40212046FFF780FE01AA08212A
:104950000748FFF77BFE012101AAC9032046FFF7A4
:1049600075FE0448406880470EF09CFD06B010BDFF
:1049700000040050243D010810B500F04FFA024831
:104980000068804710BD0000243D010870B5044652
:104990000D4600210448FFF7B0F8206001210248CD
:1049A000FFF7ABF8286070BD7C06002010B50C4600
:1049B000024600210448FFF7A6F8224601210248DA
:1049C000FFF7A1F810BD00007C06002070B500F0D4
:1049D000DBF9044600F084F8054600E000BF00F073
:1049E0007FF8401BA042F9D370BD10B586B00446D5
:1049F00001A9684600F00AF8830A8005800D00F0DE
:104A0000B9F92080184606B010BD000070B5064602
:104A10000C46002221462148FFF720F96568002254
:104A200031461E48FFF7F8F8002221461B48FFF7E1
:104A300015F96068A842F1D1F07819494143C91CC1
:104A40008A08800728D0174970783D25401E034604
:104A50006843401CC50F281840105B00D9408907E7
:104A6000890F401A8018B178401E08180E49484333
:104A700061783C2251432278E1231B015A43891873
:104A8000A27810180818810D83026068074C002274
:104A9000201A1818514170BD0549D5E77C06002041
:104AA000B5050000A0AA990080510100FF03000095
:104AB00050554400032070470148006870470000CB
:104AC000C806002000B587B002A901A8FFF79EFF25
:104AD0000249096807B0401A00BD0000C80600205E
:104AE00000B587B002A901A8FFF790FF07B000BD8D
:104AF00010B5064C2078002807D100F055F800F0DA
:104B000049F800F07FF80120207010BD540000200B
:104B100010B50D4C0021042000F02AFF01200B49A4
:104B20004004486121688868C0040BD5C868C00586
:104B300008D5C86880221040FF388238C8602046F7
:104B4000FFF705F810BD00007C06002000040140BE
:104B500070B50446FFF7B6FF211A0D4D0220285EFE
:104B6000C01C814204D90021042000F001FF03E0B1
:104B70000121042000F0FCFE00F0D2FE012802D149
:104B80000220285E241A204600F048F870BD00007C
:104B90005400002010B5FF2101310248FEF7DBFF71
:104BA00010BD00007C06002010B586B013481249E5
:104BB0000160002444601F2181601149C1600461CB
:104BC0008461C461FFF776F86946CC7001204870B3
:104BD0008870087000220948FFF7D2F90194029406
:104BE00005940494002201A90448FFF73DFA034804
:104BF000FEF78FFF06B010BD002800407C060020A5
:104C0000FF03000010B5044C2046211D1830FFF7AB
:104C1000FDFE206010BD0000C8060020F0B587B082
:104C200004461422434902A8FBF7BCFA4148503815
:104C3000406E019000F088F83F480399401AA105A2
:104C4000890D081886B2A20A684680793B4B594202
:104C500002E0D218401C80B28A42FAD269460D7A2C
:104C6000E121090102E0521A6D1CADB28A42FAD26A
:104C700069464C7A02E03C3A641CA4B23C2AFAD25F
:104C80006946897A89188FB20121890203E0721A74
:104C900096B27F1CBFB28E42F9D203E03C3FBFB256
:104CA000641CA4B23C2FF9D203E03C3CA4B26D1CBE
:104CB000ADB23C2CF9D203E0183DADB2401C80B23D
:104CC000182DF9D26946C979890728D069464A79E9
:104CD0001B49515C814202D2FBF70AFA0846164989
:104CE0008A1B14492C394A60052252068A618F704A
:104CF0004C700D700A46203210706846C07AC87039
:104D00000020C8614861FF2201324A62C860086120
:104D1000084600222438FFF751F807B0F0BD694675
:104D20004A790849515C8142D9D2FBF7E1F908463A
:104D3000D5E70000CC060020FF03000080AEFEFF98
:104D4000BC3D0108C83D010810B5FF2101310748ED
:104D5000FEF701FF05480068C16880221140FF3955
:104D60008239C16002499002486110BD7C06002072
:104D700000040140810A8005800D7D22D20050434D
:104D80005143800A0818704710B5410EC0017D22BA
:104D90000023FBF7D7F910BD01B582B00020C04356
:104DA0000090012301AA02A90448FFF73DFA002858
:104DB00001D0FDF7CDFE684680880EBDE4060020D8
:104DC00010B5134C11482060124808F035F8E06126
:104DD0000020A060FF210531616020616061E0601A
:104DE000A062206201214902A16160620A48416B10
:104DF0008214114341632046FFF7D2F9002801D005
:104E0000FCF78CFE00F00AF810BD000000300140F5
:104E1000E4060020809698000010024030B585B06E
:104E200014216846FBF7D7F9022001900024029470
:104E30000320039004946A4608210F48FFF706FCFC
:104E400005252D076A4640212846FFF7FFFB6A46E5
:104E500080212846FFF7FAFB012101910294CC033F
:104E60006A4621462846FFF7F1FB012221462846E3
:104E7000FFF756FC05B030BD00040050F8B50746FA
:104E80000E460025334C6068E030007C022802D0DA
:104E90003148406B804700F00EFE002806D002200B
:104EA00000F020FE002000F0FBFD01256068E030EE
:104EB000007C012815D100F004FE002806D0002057
:104EC00000F013FE002000F006FE012500F0F7FDC3
:104ED000002806D0002000F006FE002000F0F7FDBC
:104EE0000125002D33D101201C4980022123227885
:104EF00008185B01C9182025002A03D0007D01286D
:104F000019D019E0007D012800D14F77384600F014
:104F1000B3FF6068FF308130406C08F073F91049CE
:104F2000496B884213D30E48183008F047FA60786E
:104F3000284360700BE04E77304600F09DFF6068BC
:104F4000E030007C022802D060782843607009F0CD
:104F500051FEF8BD7C0F0020243D0108FC0A002012
:104F60007C0E002000BFFDE710B50248FDF79AFB5C
:104F700010BD0000C007002010B586B0134CE16AD8
:104F800002200143E162E16A01400091032109022C
:104F900001911221029104900020039004200590B9
:104FA00001A90B48FDF7B8FAA16B012040050143A8
:104FB000A163A16A0143A162A16A8143A1620022A7
:104FC00011461720FDF7C0FD06B010BD00100240CD
:104FD0000004005001688A69D243920701D400227C
:104FE0008A6200688169C943C90703D081690122C7
:104FF00011438161704710B507F04EFE10BD0000EF
:10500000F8B504460E46174620688069C043C006BE
:105010002DD4254640350FE0701C0DD0002E04D055
:10502000FFF75EFDC01BB04206D92020687000204B
:10503000A87028700320F8BD20688069C0438006EE
:10504000EAD421681020C86120682026C661204665
:10505000FFF7C0FF20684168064A11404160042004
:1050600060646E700020A87028700120F8BD0020D8
:10507000F8BD000000E800FEF8B5079F044616469C
:105080001D461E480090EAB20023204600F07CF83E
:105090003A462046069900F0D6F8002806D0606C03
:1050A000042801D00320F8BD0120F8BD2846F5B240
:1050B00001280ED02168300A88623A4620460699B7
:1050C00000F0C1F8002809D0606C042804D0032047
:1050D000F8BD2068856203E00120F8BD2068856284
:1050E0000097002240212046069B00F061F800282E
:1050F00001D00320F8BD0020F8BD00000020008092
:10510000F8B5079F044616461D461E480090C30288
:10511000EAB2204600F038F83A462046069900F0F8
:1051200092F8002806D0606C042801D00320F8BD56
:105130000120F8BD2846F5B201280ED02168300ABA
:1051400088623A462046069900F07DF8002809D08A
:10515000606C042804D00320F8BD2068856203E059
:105160000120F8BD2068856200970022802120463A
:10517000069B00F01DF8002801D00320F8BD002098
:10518000F8BD000000200080F0B5059C006845686F
:10519000660D8905890D054F120411433E431943DD
:1051A000B54321430D434560F0BD0000FF63FF039D
:1051B000F8B505460E4617461C4611E0601C0FD098
:1051C000002C05D0FFF78CFC0699401AA04207D9A5
:1051D0002020403568700020A87028700320F8BD9A
:1051E000286881693046884304D00020B842E5D061
:1051F0000020F8BD0120F9E770B504460D461646BB
:105200001AE0324629462046FFF7FAFE002801D070
:10521000012070BD002D04D0FFF762FC801BA84266
:105220000AD9616C20200143616440346070002021
:10523000A0702070032070BD20688069C043800684
:10524000DFD4002070BD70B505460C4616461CE044
:10525000324621462846FFF7D3FE002801D0012020
:1052600070BD601C11D0002C04D0FFF739FC801BEE
:10527000A0420AD9696C20200143696440356870F6
:105280000020A8702870032070BD28688069C04382
:105290008007DDD4002070BD044909690A46103238
:1052A000824201D108467047001D7047001300205C
:1052B00070B5002300250FE0040F0A2C03D2303410
:1052C0005E008C5502E037345E008C5500015C00B6
:1052D000641865705B1CDBB29342EDD370BD0000B7
:1052E00004484078410701D4C00701D0012070472D
:1052F000002070477C0F00200021425C002A01D072
:1053000000207047491C89B21029F6D3012070474C
:10531000052805D0082803D00A2801D000207047AE
:105320000120704710B50648002101710549497AEE
:1053300041715038417F503000F052FA10BD0000EA
:10534000400400203827002010B5002000F042F96A
:1053500010BD0000F0B5ADB004460E4668460EF034
:10536000A1F9B42269465B48FAF71CFF594917A80E
:10537000FCF7BDF95748582217A9B430FAF712FFC5
:1053800054491022891D54480EF0F8FA51495248E8
:105390001022163108300EF0F1FA4E492022263143
:1053A00008460D46E6300EF0E9FA202229464B4821
:1053B0000EF0E4FA494A484D483A51781079090606
:1053C00040189178D2780904120289184018103DCB
:1053D0006860404920224E3108460F46DE300EF00C
:1053E000CDFA3E482022394620300EF0C7FA3B481D
:1053F0002022394630300EF0C1FA364920226E3173
:105400000846EE300EF0BAFAAE60EC60A1683248A1
:105410008847E868C06880470EF08CFA2F4830490A
:10542000503001602F4941602F4981602F49C16090
:10543000E8682A49026860310A6042684A60006A86
:10544000C86008460522103801F0F6F8234C022007
:105450007034207020486060204601F059FC032021
:105460002070284618306060204601F051FC04206E
:105470002070A86800782071204601F049FC1D20AA
:105480002070A86880782071204601F041FC082037
:105490002070204680386060803001F039FC09209F
:1054A00020700E486060703001F032FC00202070E7
:1054B0002071204601F02CFC012002F079F9302007
:1054C000207014206060204601F022FC02F06AF98E
:1054D0002DB0F0BD3C080020040200205809002037
:1054E000D17B0008E17B00083D7C00087D7C000842
:1054F000F0B585B0002569460D712B4EB068407837
:105500000872307029480078002804D001A801F002
:10551000A9FE05B0F0BD254C0520D834207065608B
:10552000204601F0F5FB0620207070686060204680
:1055300001F0EEFB0C202070204660386060603087
:1055400001F0E6FB0D20207020465038606050309E
:1055500001F0DEFB0E2020702046403860604030B5
:1055600001F0D6FB0F2020702046303860603030CC
:1055700001F0CEFB012727702771204601F0C8FB00
:105580006946CF708D70032048700D7035202070F3
:1055900020460C38009901610C3001F0B9FBF0682D
:1055A00040698047B5E70000F4010020F0080020C2
:1055B00000B589B001206946087101A801F0F0FA30
:1055C0006946087A002802D0012009B000BD0020F9
:1055D000FBE70000F0B589B00546002400266846C8
:1055E000067101A801F0DCFA6846017AA94222D0CE
:1055F0002800154F154D04D001281CD002281AD1BF
:105600000DE06846067201A801F082FB002801D077
:105610002C4610E0F8688169002088470BE00029DB
:1056200000D02C4602206946087201A801F070FBE8
:10563000002803D02C46204609B0F0BDF8688169E7
:1056400002208847F7E70000F4010020FFFFFFFF7A
:1056500030B5D7B004466079032837D05249497A2B
:10566000884231D120680078012845D005282BD107
:105670000020FBF7D1FC20684C4D427801791206DE
:1056800089188278C078120400021018081828605F
:105690006420FCF7ABFEFCF711FF00205490444C53
:1056A00055940220569053A954A8FCF7A5FE0A2051
:1056B000FCF79CFE214602202A68FCF7E1FEFCF77D
:1056C000D5FE0020FBF798FC57B030BD20790128AB
:1056D000FAD120680078002806D0012808D00228D6
:1056E000F2D1FFF777FFEFE70020FFF773FFEBE75B
:1056F0000120FFF76FFFE7E70120FBF78DFC00209B
:10570000FBF78AFC206840780AF0A4F90546E121FD
:10571000206809014D4380780AF09CF93C214843F8
:105720002D182068C0780AF095F97D212818C90045
:10573000484320490863204A904200D20A631A482D
:10574000096B4038C164683007F0F3FD1648283013
:1057500007F000FE14494C2234396846FAF722FD5E
:105760001148A43864300EC82AA8FBF7CDFC0E48B7
:10577000B4222AA9F438FAF715FD0B49A422E4391A
:105780006846FAF70FFD0849B422F4392AA8FAF757
:1057900009FD2AA80FC80EF0BDF90120FBF72CFC6B
:1057A0000020FBF729FC8FE738270020300100207C
:1057B000000F0808F0030020983A000010B50648D2
:1057C000002101710549497A41715038417F5030BB
:1057D00000F006F810BD000040040020382700202B
:1057E00030B585B004460D460AF0F8FA002802D01C
:1057F000002005B030BD2079694601F0D3FE014696
:105800000020184A002907D06946087103900882D1
:105810009068407888740FE0002D14D0012069460C
:105820000871607908722079088220680390082046
:10583000C87490684078887401A801F001F90028C4
:105840000DD00120D5E7694608716079087220798A
:10585000088220680390906840788874ECE7002004
:10586000C7E70000F401002010B50B4801680029CB
:1058700004D000F014F800F02EF810BD40680028A5
:1058800004D000F013F800F027F810BD00F006F87F
:1058900000F020F810BD000038020020704710B55D
:1058A00001210020FDF7B8FC10BD000010B5EFF39A
:1058B000108472B6FFF734F80549086804221043D3
:1058C000086084F3108801210846FDF7BDFC10BD77
:1058D000007000407047704710B5EFF3108472B647
:1058E0000E48016801221143016001684907FCD597
:1058F0000168012212061143016001688901FCD58B
:10590000C16803221143C160C1680907890F0329D7
:10591000FAD1FFF731F884F3108810BD001002406F
:10592000EFF3108172B607480268002A01D0002008
:1059300005E04068002801D0012000E0022081F34A
:10594000108870473802002010B5EFF3108472B64B
:10595000064B00295A6804D0012904D102435A6039
:1059600001E082435A6084F3108810BD38020020A1
:1059700010B5EFF3108472B6064B00291A6804D0F4
:10598000012904D102431A6001E082431A6084F3C2
:10599000108810BD38020020884200DC084670479D
:1059A000002805D0002903D00268002A02D002E0B6
:1059B0000020704701604268002A00D01160002278
:1059C0000A60416001207047002805D0002903D0FB
:1059D0000068814203D108E000207047104600288B
:1059E000FBD002688A42F9D1704700207047002836
:1059F00004D0002101604160012070470020704701
:105A000070B505460C46002D16D0002C14D021464A
:105A10002846FFF7D9FF2968A14201D121682960F2
:105A20006968A14200D16860002801D02168016046
:105A300000202060012070BD002070BD10B584786A
:105A4000002C01D0002010BDFBF7C0FC10BD0000F1
:105A500010B50B2000F0C0F900280CD007484078A2
:105A6000C10708D1400706D505480222016C9143C1
:105A70000164012010BD002010BD00007C0F00203B
:105A8000FC0D00200448016C0A0604D580229143D5
:105A90000222914301647047FC0D002000207047F2
:105AA00070477047704700210160002070477047C1
:105AB000704700207047002070470020704700208A
:105AC00070470020704700207047022070477047E1
:105AD000002070477047704770470120704770473B
