:020000040800F2
:1000000088480020D5000008BDE7000839740008C2
:1000100000000000000000000000000000000000E0
:10002000000000000000000000000000851C010826
:10003000000000000000000065F1000855470108BD
:10004000E7000008E7000008DF000108E7000008FB
:10005000E700000839320008493200085932000828
:10006000E7000008E700000825310008E700000865
:10007000E7000008E7000008E7000008E7000008C4
:10008000E7000008E7000008E700000800000000A3
:10009000E7000008E7000008E7000008E7000008A4
:1000A000E7000008E7000008E700000831520108F7
:1000B000E7000008E7000008000000006D68010884
:1000C0000348854600F03AFF00480047911D0208AA
:1000D000884800200448804704480047FEE7FEE7C0
:1000E000FEE7FEE7FEE7FEE73D490108C100000824
:1000F00030B50B46014600202022012409E00D46C0
:10010000D5409D4205D31D469540491B2546954047
:1001100040191546521E002DF1DC30BD70B500248B
:100120002546002801DA01244042002901DA012590
:100130004942FFF7DDFFAC4200D04042002C00D026
:10014000494270BDF0B51FB40646002082B0054696
:100150004024019100901BE0019922460F46304651
:1001600000F0B0FC049A059B801A994110D3104608
:100170001946224600F096FC361A8F410197224616
:1001800001200021009F00F08DFC38184D410090A7
:100190002046641E0028DFDC019B00982946324679
:1001A00007B0F0BDF8B500242546002904DA0E4654
:1001B000012400214042B141002B04DA1E460023F5
:1001C00052420125B341FFF7BDFF8C4617461E463C
:1001D000AC4203D0002540428D41AC46002C02D0F9
:1001E000002657429E4161463A46334601B0F0BD73
:1001F000F0B51FB486B000200090019002900698E0
:10020000069980B204900798090C02040014114367
:1002100007900027089D099806913E463C460390AA
:100220000398A9B20204000C039004982D0C154306
:1002300048430021224600F035FCC71971411034B3
:100240000E46402CECDB3846029A00F02BFC009A5C
:10025000019B801800905941029801911030029042
:100260004028CCDB00980BB0F0BD03460B439B0746
:1002700003D009E008C9121F08C0042AFAD203E01B
:100280000B780370401C491C521EF9D27047D2B241
:1002900001E00270401C491EFBD270470022F6E7C5
:1002A00010B513460A4604461946FFF7F0FF2046EC
:1002B00010BD70B5064616F035FD046805460A22E5
:1002C0000021304600F074FC2C6070BDF8B5024689
:1002D0004A40D40F42004B0052085B089A4202D2B7
:1002E0000246084611464A0023D0C30D4A00DDB23B
:1002F000120EAD1A202D35DA49020126490AF605FB
:100300008A19002C00D0524220214F1B1146B940BF
:100310002A411018C20D9A4221D0002C17D0012D6D
:1003200008DCDA05801AD20F8019D207DBB200F0A0
:100330007FFCF8BDDA05801A012340001B06C018B7
:1003400080185A428018CA0F1043490007E0490834
:10035000C2071143DA05801A80194008801800F09E
:100360005FFCF8BD61000122511A001BF7E7012272
:10037000D2075140AAE70122D2075040A6E7024621
:1003800070B54A40D30FDB0740002DD04A002AD079
:10039000010E140E000212020919400A520A8418B2
:1003A000E50104465443000A120A2E045043A419DE
:1003B0004219200CC543AA18120C0125AD03521C8A
:1003C000521912047F39240400D0521C104301D466
:1003D0004000491EC2B20C06C0092018401C40084B
:1003E000802A02D003E0002070BD400840000029B0
:1003F00000DA0020184370BD70B502464A40D50FA0
:1004000040004A00ED0740085208002814D0002A96
:1004100012D0C40DD30D41020120C0055202490A79
:10042000520AE41A091812187D34914201D3641C4F
:1004300000E04900002C01DA002070BD0023914249
:1004400001D3891A0343400849000028F7D1002945
:100450000AD0914202D10121C90705E0914201D29F
:10046000012101E00121C943E005C018401900F055
:10047000D7FB70BD420005D04200120E52428A42A4
:1004800001DB00207047C90508187047F0B5074622
:100490000846584087B0C00F049048000E465900E7
:1004A00040084908BC1A884105D2384631461E46E4
:1004B00017460B4602465800400810434CD0300DFA
:1004C000039040055900400D490D0590401A0290D7
:1004D000402872DA18030121000B09050843019036
:1004E00004980092002805D00199524200208841CA
:1004F00000920190029840210A1A0199009800F098
:10050000D1FA05460C466B4607CB00F0ECFAC01951
:100510007141039A0E0D0023D71756401A467A40B0
:10052000164344D0049A002A2DD0029A012A039A35
:1005300015DC1205C01A914101263605001C7141D7
:10054000D20F059ED2070093019202962A462346B7
:1005500000F0FFFB07B0F0BD38463146FAE716055C
:10056000224A0F46B218C01AB74101210905001CE2
:100570004F4100187F41114618187941E20F10438E
:100580006D19644113E0E2076D0815436408C20762
:100590001443039A01261205C01A91413605001C26
:1005A0007141CE07400830434908C01851412A46DE
:1005B000234600F0C1FBCDE7FFE70498012240008D
:1005C000C117121A00238B4104983146C417381AF8
:1005D000A141EEE730B40124E407634030BC55E7A5
:1005E00030B40124E407614030BC4FE70000E0FF75
:1005F000F0B51FB488B00B990998002448400999B8
:10060000C00F490049080991C0070B9900904900A3
:1006100049080B9109990898A64608431CD00B99E4
:100620000A98084318D0099801244000420D480058
:10063000410D099824050003000B204309900B98F5
:100640000003000B20430B9050181C494018002257
:1006500001901446104605E0002001460DB0F0BDA3
:10066000032801DA034600E003239C46C11A0AAEC0
:100670000AE05F0008ADED5B4F00F75B7D430027AC
:10068000AA187C41491C5B1E6145F2DD410004ABA8
:100690005A522104120C0A43240C401C0828DFDBA8
:1006A000019802900099704601910090059B049A70
:1006B0000799069800F04DFBD0E700000DFCFFFF06
:1006C000F0B50C465C4085B0E40FE40703944C00A1
:1006D00000266408590094464908024602962243BF
:1006E00021D062460A431ED06200570D4A000E0315
:1006F0002303550D012402462C492405781B1B0BAE
:10070000360B401823432643614600901C46501A7E
:10071000B44103D30098401C009002E09218009866
:100720005B41002803DA0020014605B0F0BD00203F
:10073000012109050746864611E064461D46141B43
:10074000B54106D36546521BB341744607430C437B
:10075000A646CD0740084908284392185B41054644
:100760000D43EAD11046184313D060461946504055
:100770007140084306D06046101AB34106D20122E8
:10078000002306E000220123DB0702E00122D2431E
:100790005310009874460105381C6141029C039D6A
:1007A0000019694100F0C8FABFE70000FD0300002E
:1007B00070B54B005B0803430BD04B005C0D00266B
:1007C00033466542B341D417AD1AA34102DB002082
:1007D000014670BD12053018514170BDC217C10FDE
:1007E000504010B54018CA079623002100F020FAA7
:1007F00010BD10B500229623114600F019FA10BD65
:100800000A4670B5C917D30F4A4048400025C118A1
:1008100014466C41DA0796232046002C03D0B623F9
:1008200000F006FA70BD08460021F9E70EB5C217C0
:10083000C10F5040CA0740180021054B0293019296
:1008400000910A460B4600F084FA03B000BD000098
:10085000330400000EB505490291002100910A46BB
:100860000B46019100F075FA03B000BD330400009F
:100870003EB5CA17CB0F002450405140C01861410B
:10088000DA07054B0293019200942246234600F0BA
:1008900060FA03B030BD000033040000C20F410015
:1008A00040020123400ADB05D207090EC0187F2948
:1008B00001DA00207047962903DC9623591AC840B4
:1008C00001E096398840002AF4D040427047410048
:1008D00040020122400AD205090E80187F2901DA60
:1008E00000207047962903DC9622511AC8407047B1
:1008F000963988407047000070B5CD0F4A00090353
:100900000123090B1B0519430B4BED070024520D66
:100910009A4201DA002070BD074B34339A4203DC5F
:100920009A1A00F0CFF802E00449511888402C438D
:10093000F1D0404270BD0000FF030000CDFBFFFF7F
:100940004A0009030123090B1B051943094B10B584
:10095000520D9A4201DA002010BD064B34339A4200
:1009600003DC9A1A00F0AEF810BD03495118884014
:1009700010BD0000FF030000CDFBFFFF70B5CD0FE1
:100980004A0009030123090B1B0519430D4BED0711
:100990000024520D9A4202DA0020014670BD094B34
:1009A00034339A4203DC9A1A00F08CF803E0064BC9
:1009B000D21800F077F82C43F0D0002240428A4150
:1009C000114670BDFF030000CDFBFFFFC20FD20731
:1009D000400040080BD0C10D0723DB01C9184002BD
:1009E0000905400A1143C20840071143704700201F
:1009F0000146704710B5002904DB0124E40740429A
:100A00008C412146002B04DB1C460123DB075242AC
:100A1000A3418B4200D1824210BD000010B50029D5
:100A200004DB0124E40740428C412146002B04DB17
:100A30001C460123DB075242A341994200D1904258
:100A400010BD0000CB0FDB07490010B54908024676
:100A50000A4307D00A0D07240903E401090B121BFE
:100A6000002A01DC002010BDC900440F0C43C10066
:100A7000E018D205801800F0D3F810BD0122D2078B
:100A8000002800DB101A002900DB511A8142704750
:100A90000122D207002800DB101A002900DB511ABE
:100AA0008842704710B5202A04DB0146203A914065
:100AB000002010BD914020239C1A0346E3401943B7
:100AC000904010BD10B5202A04DB0846203AD040E3
:100AD000002110BD0B46D340D0402024A21A9140E3
:100AE0000843194610BD10B5202A06DBCB1708466F
:100AF000203A1041C1170B4306E00B461341D0408A
:100B00002024A21A91400843194610BD0FB400B525
:100B100089B00CA900910B990023CB60204B214A8E
:100B200006930792042201921F4A02921F4A0892DA
:100B300002466B46002000F0B0FA09B008BC04B0D1
:100B4000184770B586B006460020C04301900020CB
:100B500015460C460091029104903246694604A85D
:100B6000FFF7D4FF024604982118002D05D0002875
:100B700001D0084600E020462860049800280DD0E7
:100B8000002A02DD0098884208D0081B01900094DA
:100B900032466946029404A8FFF7B8FF06B070BD5C
:100BA000F112000811130008FFFFFF7F690F000812
:100BB000F7B5009C0F4600262578641C002D05D053
:100BC00000F0CEF90068405DC007F5D12B2D02D0B2
:100BD0002D2D18D0641E39462046029A00F0AAFB3B
:100BE000002F04D03968A14201D100993960710504
:100BF000022400290BDA4042002803DD16F092F8A7
:100C00000460A007FEBD012080020643E3E7002840
:100C1000F8DA16F087F804600048FEBDFFFFFF7F9A
:100C2000002904DA401C490001D140084000704707
:100C300070B40024050C05D11024000402D1002951
:100C400021D01124050E01D100020834050F01D175
:100C50000001241D850F01D18000A41C002801DBA8
:100C60004000641C002908D020252E1B0D46F540AD
:100C7000A14000D001212943084301061B1B000AA3
:100C8000DB1D02D5002070BC7047DB0518188018EA
:100C90000029F8DA401C4900F5D170BC400840003A
:100CA000704770B5002801DC002070BD4100400293
:100CB0000126400AF605090E8019CA0701D1400035
:100CC000491E4D10002211463F353346CB409B183C
:100CD000D418844201D8001B1A464000491C172929
:100CE000F3DD5100814202D20021C94300E000211E
:100CF000E8058018FFF794FF70BD10B541000DD0D6
:100D00004100090E962909DC7E290ADC07DB410235
:100D100005D0C00F7F21C007C905401810BD0020B5
:100D200010BD9622541A20210A1B01469140E04032
:100D3000FFF776FFA04010BD10B5002B08DA0024A5
:100D4000401C614192185B411A4301D140084000A8
:100D500010BDF0B51FB482B005460C0003D00846A4
:100D600015F07AFF02E015F077FF20300246009080
:100D700021462846FFF796FE049B059A04460F4637
:100D800018431143084314D0184610431BD0009851
:100D900040210A1A18460599FFF794FE05460E46AB
:100DA000009A05990498FFF77DFE084305D00120BD
:100DB00004E02046394607B0F0BD0020C1170543C6
:100DC0000E432C43374300990E986305401A79056A
:100DD000E40A00220C43FD0A0A3002D50020014635
:100DE000E9E70105101969410C9C0D9D0019694145
:100DF000FFF7A2FFDFE70000F8B50546480040080E
:100E00000C46284304D06000184A400D904201DD92
:100E10002846F8BD15493539884210DC88420BDB7D
:100E2000290D200308432903014305D0E00F104991
:100E3000C00741180020F8BD00200146F8BD161A71
:100E40004020821B28462146FFF72CFE07460091D2
:100E5000284621463246FFF735FE3A46009BFFF70B
:100E60006BFF3246FFF71EFEF8BD000033040000A2
:100E70000000F03F4A0009030123090B1B05194339
:100E80000A4B10B5520D9A4202DA0020014610BDFD
:100E9000064B34339A4203DC9A1AFFF713FE10BD57
:100EA000034BD218FFF7FEFD10BD0000FF0300004A
:100EB000CDFBFFFF10B54100C40F0A0E4002012117
:100EC000400AC905E40740187F2A07DA7D2A00DABC
:100ED0007D22763A90400146002008E0962A09DCFF
:100EE0001346763B0146994096239A1AD040FFF765
:100EF00097FE01E0963A9040002C00D0404210BD91
:100F000002000B4800D4821A002900DB411A9142EA
:100F100004D301204007914200D10648EFF300813D
:100F20000902090A020E1206114381F30088704774
:100F3000000000800000006000207047064C012582
:100F4000064E05E0E36807CC2B430C3C9847103471
:100F5000B442F7D3FFF7B8F898440208B84402083F
:100F6000004870470444020810B50446FFF7F8FF34
:100F70000068005DC007C00F10BD0000FFB5087815
:100F800089B01546FF2805D0491C2D2804D0002221
:100F9000002407E000240BE00122F9E70A235C4368
:100FA0000419491C0878FF28F8D1002A00D06442AF
:100FB000002004902A7801462D2A01D02B2A0FD137
:100FC0006D1C2D2A02D00022049209E00122FBE7C9
:100FD00000260A2233466D1CFFF70AF938187141C2
:100FE0002F78FF2FF4D10C9AA218069202460A43DA
:100FF00004D0FF23069A9133DA4205DA00210998DA
:101000000A4606C00DB0F0BD0024B74AB54D2646CD
:10101000079200F0F1F9029006980391002801DA96
:10102000474200E0074639050020AF4A001C514105
:101030000191009012E0F80707D022462B46304677
:101040000799FFF7D5FA0646079122462B46104628
:101050001946FFF7CDFA04460D467F10002FEAD15E
:101060000698019B0028009A0399029806DAFFF778
:1010700027FB3246079BFFF723FB05E0FFF7B8FA93
:101080003246079BFFF7B4FA049A002A02D00122E5
:10109000D2075140099A03C2B4E7FFB591B00020CE
:1010A00009900025ED432E209E685C681F46019044
:1010B000B9696D1C129888470090396A88470028E2
:1010C000F6D10098401C0AD00D20C0018443002EA8
:1010D00012DD00982B2809D02D280DD103E0002027
:1010E000C04315B0F0BD012080020443B9696D1CF6
:1010F00012988847761E009003A9600501D52D201F
:1011000000E02B206A461073491C0CA80F91029036
:101110000AE0B9696D1C12988847009001204002CE
:1011200004431398761E0560002E02DD00983028D7
:10113000EFD001990098884246D18020044308E00E
:101140000998401E09900120400204431399681C2D
:101150000860B9696D1C761E129888470090302887
:10116000EED031E00199884205D1200603D48020D9
:101170000443761E1EE0009815F092FF002826D04A
:1011800001204002044307A90F980331761E8842CC
:101190000BD200980F99303808700F98401C0F90B0
:1011A000200607D50998401E03E0200602D40998BE
:1011B000401C0990A00502D51399681C0860B96904
:1011C0006D1C129888470090002ECBDC59E0002E51
:1011D00057DD0098652801D0452852D1A00550D58B
:1011E000032000028443B9696D1C761E129888475B
:1011F0000090002E0CDD2B2804D02D2808D1FF20D4
:1012000001300443B9696D1C12988847761E00901E
:10121000E00501D52D2100E02B21029801700298F4
:10122000401C0290019025E00120400204430EA9D9
:1012300002980131761E88420ED200980299303809
:101240000006000E087003D10299019881420AD964
:101250000298401C029006E0E00501D5234801E019
:10126000224840420990B9696D1C12988847009045
:1012700013980560002E04DD009815F011FF00287A
:10128000D2D1F969129888470F99FF200870029906
:1012900003AA087000200A900B900CA90AA8099BC9
:1012A000FFF76CFEA00502D40120C04319E72420FB
:1012B000044209D0E00713D138680B9A0A99031D3C
:1012C0003B60006806C00BE00B990A98FFF7BAFB79
:1012D0000146E00704D13868021D3A6000680160E9
:1012E0002846FEE6000014400000F03FF1D8FFFF62
:1012F0004268002A08D001680B78491C002B03D0F3
:10130000521E06C0184670470121C160881E7047F2
:101310004268002A0BD0C3680168002B07D183689C
:101320008B4204D0491E521C06C00020704700208A
:10133000C0437047F7B582B0029C00272078641C38
:1013400015460197302802D0002D15D015E02078E1
:101350000127641C782804D0582802D0002D09D019
:101360000BE0002D01D0102D07D10027102520788B
:10137000641C02E0082500E00A250026009610E023
:101380000099012769430818020C294680B271436D
:1013900000908E183804864201D3012001902078F5
:1013A000641C294600F019F80028E9DA039800289F
:1013B00005D0002F01D0641E00E0029C046001985B
:1013C000002806D015F0AEFC02210160C81E05B051
:1013D000F0BD009930040843F9E73A2800D23038CC
:1013E000202302469A43412A01D3104637388842C7
:1013F00001D30020C04370470EB5054A0292002277
:10140000009213460192FFF7A4FC03B000BD000058
:101410003304000070B58C180578401C6B075B0F17
:1014200001D10378401C2A1106D10278401C03E048
:1014300006780E70401C491C5B1EF9D12B0705D4A1
:101440000023521E0DD40B70491CFAE70378401C90
:10145000CB1A921C03E01D780D70491C5B1C521EB8
:10146000F9D5A142D8D3002070BD10B505200022C7
:101470001021000702F033FF10BD10B50520012236
:101480001021000702F02BFF10BD000038B5044604
:10149000094808490068FEF72BFE60430090009859
:1014A000002805D00098401E009000980028F9D12F
:1014B00038BD000040420F00A8020020F8B50446E5
:1014C000206881688907890F012902D10168C9074D
:1014D0002ED18168174A102611400125002907D016
:1014E000A06D3043A065E06D2843E0650120F8BDA4
:1014F0008168294381600120FFF7C8FF05F046FDA0
:10150000074620680068C043C00711D005F03EFDC3
:10151000C01B0A2807D9A06D3043A065E06D2843A1
:10152000E0650120F8BD20680068C043C007EDD128
:101530000020F8BD17000080F0B589B007460D46C1
:101540001022002104A820F0B9FD2A4604A904A80D
:1015500016F053F96846007C8726000604AB002885
:1015600010DA0020195C1A1852784900D209114388
:101570001954401C0F28F5DB6946C87F40007040B5
:10158000C8770EE00020195C1A1852784900D20979
:1015900011431954401C0F28F5DB6946C87F4000F1
:1015A000C877EC1DF9346069102814D06846007CB7
:1015B00000061CD50020195C1A1852784900D2097F
:1015C00011431954401C0F28F5DB6946C87F4000C1
:1015D0007040C8771AE000202918FF3101314A789D
:1015E0001C5C62404A70401C1028F5DB2BE0002098
:1015F000195C1A1852784900D20911431954401C39
:101600000F28F5DB6946C87F4000C8778020E91DB8
:101610006269FA3150546069401C6061102807D239
:101620000022606942546069401C60611028F8D350
:1016300000202918FF3101314A781C5C62404A7051
:10164000401C1028F5DB002029180B46E031FF3341
:101650000A460133497C5B7859405174401C10287C
:10166000F2DB29461022F131684620F009FD2A46B6
:101670003946684616F0C1F81022002104A820F06F
:101680001DFD09B0F0BD10B5044620461022002112
:10169000F13020F013FD0021FF2015300151F02220
:1016A000204620F00BFD10BD10B502460846102163
:1016B00016F0D2F810BDF0B587B006460D461446B8
:1016C000F01DF9300690F11D4069FA31059110398D
:1016D0000491002827D010210F1AA74200D32746D3
:1016E0000599BAB24018294620F0CAFC0698069916
:1016F0004069C019486110283BD3BC4239D0002052
:1017000032181146E031FF3201324B7C527853409F
:101710004B74401C1028F3DB04993246084616F03F
:101720006CF8ED19E41B102C1CD90022B018E03025
:10173000417CAB5C59404174521C102AF6DB1022EC
:101740006846049920F09CFC32466946684616F0CB
:1017500054F810226946049820F092FC1035103C91
:10176000102CE2D8A2B22946059820F089FC0698F0
:10177000446107B0F0BD000070B5174C207A002816
:101780001AD0012000F02AF9FFF76FFEE06D05F096
:1017900063FD0546FFF771FE01F0ACFE05F0F6FBB8
:1017A000E16E401AA84204D912F082FD05F0EEFB6A
:1017B000E066012000F002F9FFF75FFE01F09AFEFB
:1017C00005F033FF642002F031FCA08D0AF0D0FB5D
:1017D00005F048FE70BD00008005002030B583B0E4
:1017E0000B4C0C4D207800280DD101206946087162
:1017F0000948806800900948406800780FF038FC7C
:10180000002028752070A87C607003B030BD0000F7
:101810004C1300200C130020741500208C130020A2
:1018200010B582B00F48817C427C914217D2491C8E
:101830008174C80713D022206A4610710A4CFF2118
:1018400060682D31095C9171F921095C5171007852
:1018500001A90FF003FC00906168E031487602B006
:1018600010BD00000C1300208C13002070B505463D
:101870002C68002C10D0E068416800290ED020466A
:10188000884701280CD0002121606160A160E160DF
:1018900021612960002070BD012070BD012070BD54
:1018A000012070BD10B500280AD0C268002909D0F7
:1018B0009269002A08D09047012807D0002010BD67
:1018C000012010BD012010BD012010BD012010BD60
:1018D00010B50C460022226000280CD0012810D040
:1018E000204600F05DF9012810D1204600F0D0F824
:1018F00001280BD110BD204600F052F9012805D176
:1019000010BD204600F0C4F8012801D0002010BD11
:10191000012010BD10B5002808D0C16889680029D1
:1019200006D08847012805D0002010BD012010BD39
:10193000012010BD012010BD10B586B002221C4947
:101940000123002806D001280BD0022811D003283B
:101950001CD115E0CC6A1443CC62C96A11400091D5
:1019600014E0CA6A1A43CA62C96AC907C90F00915A
:101970000CE0CC6A1443CC62C96A1140009105E0C6
:10198000CC6A1443CC62C96A11400091094A4100F3
:10199000515A0191029300210391032104910649B8
:1019A0008000085801A902F0DDFB06B010BD000060
:1019B00000100240183802089802002010B5054AAD
:1019C0004100515A044A80001058002202F087FC5E
:1019D00010BD0000183802089802002010B5054A12
:1019E0004100515A044A80001058012202F077FC4D
:1019F00010BD0000183802089802002070B5044697
:101A00001D4DE878012825D012F0F6FC012823D0DE
:101A1000B1202870B82068700026AE70EE702E716C
:101A2000012068711548A8601549E96015492961C8
:101A30001649154A0A60016046602560E868016839
:101A400000290BD02846884701280ED006F056FE04
:101A5000002070BD012070BD012070BD14212846FA
:101A6000FEF71CFC2660012070BD14212068FEF7E3
:101A700015FC2660012070BD800800205C0200205B
:101A800000000020340000207000002058020020D8
:101A900070B504461B4DE87D012821D012F0ACFC46
:101AA00001281FD033202875322068750120A875C1
:101AB0000026EE752E7668761348E8611348286292
:101AC0006E62144812498160C66013482060C16884
:101AD0000968002908D0884701280BD0002070BD74
:101AE000012070BD012070BD1421FEF7D7FB2660D8
:101AF000012070BD14212068FEF7D0FB2660012074
:101B000070BD000094080020C40800209800002048
:101B100064020020BC080020A808002070B504461C
:101B20001B4DE878012820D012F066FC01281ED059
:101B3000402028703C2068700026AE70EE702E7138
:101B4000012068711348A8601349E9602E611349A8
:101B5000016046602560E8680168002909D02846D0
:101B6000884701280CD0002070BD012070BD0120E5
:101B700070BD14212846FEF791FB2660012070BD40
:101B800014212068FEF78AFB2660012070BD00004A
:101B9000CC08002074020020E80000207002002021
:101BA00070B504461D4DE878012825D012F024FCBC
:101BB000012823D06A202870D62068700026AE70D5
:101BC000EE702E71012068711548A8601549E96012
:101BD000154929611649154A0A6001604660256069
:101BE000E868016800290BD02846884701280ED0F4
:101BF00009F078F9002070BD012070BD012070BD92
:101C000014212846FEF74AFB2660012070BD1421EE
:101C10002068FEF743FB2660012070BD9408002079
:101C2000BC080020000200203001002050020020EB
:101C30006802002070B505462C68002C10D0E068C2
:101C4000416800290ED02046884701280CD0002189
:101C500021606160A160E16021612960002070BDA8
:101C6000012070BD012070BD012070BD10B500289D
:101C70000AD0C268002909D09269002A08D090478A
:101C8000012807D0002010BD012010BD012010BD8B
:101C9000012010BD012010BD10B5024608460023EA
:101CA0000360002A04D0FFF739FF012804D110BDDA
:101CB000FFF734FF012801D0002010BD012010BD26
:101CC00070B505462C68002C10D0E06841680029EA
:101CD0000ED02046884701280CD000212160616089
:101CE000A160E16021612960002070BD012070BD0C
:101CF000012070BD012070BD10B500280AD0C26857
:101D0000002909D09269002A08D09047012807D0FD
:101D1000002010BD012010BD012010BD012010BD0C
:101D2000012010BD10B50246084600230360002ABA
:101D300004D0FFF763FE012804D110BDFFF75EFE5B
:101D4000012801D0002010BD012010BD10B50028D1
:101D500008D0C1688968002906D08847012805D0C5
:101D6000002010BD012010BD012010BD012010BDBC
:101D700010B50548FFF77AFD0448FFF75BFF0448FC
:101D8000FFF79EFF10BD0000B4020020B802002043
:101D9000B002002010B506490020FFF77DFF05497D
:101DA0000120FFF795FD04490020FFF7BBFF10BDA0
:101DB000B8020020B4020020B0020020F0B587B0C5
:101DC0000446002006900027304EB068FFF7A2FDC1
:101DD000002802D0002007B0F0BD322002F026F922
:101DE00003A9B068FFF742FF002802D0002007B027
:101DF000F0BD0398A0610498E061059820627068C6
:101E0000FFF788FD002802D0002007B0F0BD322087
:101E100002F00CF969467068FFF744FD002802D013
:101E2000002007B0F0BD009860620198A06202989F
:101E3000E0620A2002F0FAF83068FFF787FF002816
:101E400002D0002007B0F0BD0A2002F0EFF8002514
:101E500006A93068FFF750FF002802D0002007B025
:101E6000F0BD0A2002F0E2F838460699FEF72EFA95
:101E700007466D1C0F2DEBDB05493846FEF7BCFA13
:101E800006902060012007B0F0BD0000B0020020E5
:101E9000000070410FB4F0B5E9B010A81EF084FB4B
:101EA00068A8007F002804D0FCA110A814F0C0FE90
:101EB00003E0FBA110A814F0BBFE70A80179C27862
:101EC00083784078029003930492059170A801787A
:101ED00068A8C07F0191009068A8837F427F10A806
:101EE000F0A1033014F0A4FE70A8017BC27A837ABB
:101EF000407A029003930492059170A8017AC07908
:101F00000191009070A88379427914A8E5A103306B
:101F100014F08EFE70A8027FC17E837E407E0A9000
:101F20000B930D920C9170A8017EC37D827D407D44
:101F3000069008930792099170A8027DC37C817C6A
:101F4000407C029004930592039170A8017CC07BB1
:101F50000191009070A8837B427B18A8DA49033076
:101F600014F066FE78A8017870A8C07F01910090F7
:101F700070A8837F427F20A8CEA1033014F058FEC2
:101F800078A8017CC37B827B407B0A900C930B92E8
:101F90000D9178A8037BC27A817A407A06AC0FC48F
:101FA00078A8017AC27983794079029003930492E8
:101FB000059178A80179C0780191009078A883787C
:101FC000427822A8C049033014F032FE80A802787B
:101FD00078A8C17F837F407F0A900B930D920C916C
:101FE00078A8017FC27E837E407E06900793089288
:101FF000099178A8027EC37D817D407D0290049383
:102000000592039178A8017DC07C0191009078A889
:10201000837C427C2AA8AC49033014F009FE80A8D6
:10202000417830A83031C17280A8817830A8303131
:10203000017380A8C17830A83031417380A802793B
:1020400033A8A2A1023014F0F3FD80A8427934A88D
:102050009EA1013014F0ECFD80A8817930A83031C8
:1020600001757D26F60031468298FEF741F80F9003
:10207000E124240121460F98FEF73AF80546084668
:102080003C21FEF735F807463C210F98FEF730F863
:10209000009135A83B462A468DA1013014F0C8FDB9
:1020A00031468398FEF724F80F9021460F98FEF7EB
:1020B0001FF8054608463C21FEF71AF807463C2162
:1020C0000F98FEF715F8009137A83B462A4680A1E5
:1020D000013014F0ADFD31468498FEF709F805464D
:1020E00021462846FEF704F8064608463C21FDF73F
:1020F000FFFF07463C212846FDF7FAFF009139A86B
:102100003B46324672A1013014F092FD80A8017D59
:102110003BA80130002903D071A114F089FD02E031
:1021200070A114F085FD80A8417D3CA8002903D052
:102130006BA114F07DFD02E06AA114F079FD54203A
:1021400038A9C87480A9887D3C263E27002802D083
:1021500038A8067501E038A8077580A817228256AE
:1021600010AD3DA80235013058A114F061FD80A8E2
:10217000017E3FA80330002903D059A114F058FD77
:1021800002E058A114F054FD80A8417EFE380029D9
:1021900003D053A114F04CFD02E052A114F048FD0D
:1021A000482040A9487180A9887E002802D040A814
:1021B000867101E040A8877180A8828B2846C530CF
:1021C00042A114F035FD80A8817FEF38002903D0AB
:1021D00043A114F02DFD02E042A114F029FD80A8D6
:1021E000C17F45A8002903D03DA114F021FD02E0E4
:1021F0003CA114F01DFD4C2040A9C87588A90878A1
:10220000002802D040A8067601E040A8077680A802
:10221000428C2846D7302DA114F00AFD88A80179F8
:10222000FD38002903D02EA114F002FD02E02DA1FB
:1022300014F0FEFC88A84179FA38002903D028A1BF
:1022400014F0F6FC02E027A114F0F2FC412048A9AA
:10225000487288A98879002802D048A8867201E0CF
:1022600048A8877280A8028D2846E93017A114F08B
:10227000DFFC88A8817AEB38002903D018A114F07C
:10228000D7FC02E017A114F0D3FC88A8C17A4EA8AD
:10229000002929D012A114F0CBFC28E04F544100B2
:1022A00041425000253032582530325825303258BE
:1022B00025303258253032582530325825303258A2
:1022C00025303258000000005444020825642A00DA
:1022D000253032643A253032643A253032640000C9
:1022E000594553004E4F2A0071A114F0A1FC4D2016
:1022F00050A9C87188A9087B002802D050A806728E
:1023000001E050A8077280A8C28D2846FF3008302F
:1023100068A114F08DFC88A8017CCD38002903D079
:1023200065A114F085FC02E061A114F081FC88A88D
:10233000417CCA38002903D05FA114F079FC02E087
:102340005BA114F075FC7D21C9008D98FDF7D0FECE
:102350000F9021460F98FDF7CBFE0E9008463C21CA
:10236000FDF7C6FE04463C210F98FDF7C1FE009123
:1023700059A82346514901300E9A14F059FC88A8F7
:10238000017EB338002903D04BA114F051FC02E0C8
:1023900047A114F04DFC88A8417E5CA8002903D019
:1023A00045A114F045FC02E041A114F041FC88A8CD
:1023B000817EAD38002903D03FA114F039FC02E042
:1023C0003BA114F035FC4E2058A9887588A9C87E19
:1023D000002802D058A8C67501E058A8C77580A883
:1023E000828F2846FF30373032A114F021FC80A8BC
:1023F000C18F7E38002903D02FA114F019FC02E010
:102400002BA114F015FC90A80178BB38002903D04B
:1024100029A114F00DFC02E025A114F009FC90A8FC
:10242000417862A8002903D023A114F001FC02E046
:102430001FA114F0FDFB90A88178B538002903D0C6
:102440001DA114F0F5FB02E019A114F0F1FB90A816
:102450008188B238002903D017A114F0E9FB02E00B
:1024600013A114F0E5FB90A88179AF38002903D0BF
:1024700011A114F0DDFB02E00DA114F0D9FB90A82E
:102480000822825E0EA165A814F0D2FB90A80A2251
:10249000825E0BA1A73814F0CBFBFF22633210A998
:1024A0006E98FDF7E2FE69B0F0BC08BC04B01847B6
:1024B0004E4F2A0025642A0059455300D0220008B7
:1024C00025690000FFB585B0044600271025655733
:1024D0001120205604900898A168016060790128B5
:1024E00043D1022069460873A07C8873E07C03A96D
:1024F0000EF0B4FD029046B2B54200DC3546B5425E
:1025000003D10898002101602FE0A189A0688842CA
:1025100000D30127E2898918814226D8082069461C
:102520000873E07C03A90EF099FD029040B204907C
:10253000E189A068FDF7DCFD012916D1222069465A
:1025400008734D73A07C8873E07C03A90EF086FDB0
:10255000029045B2B54208D100272079012804D164
:1025600069460871E07C0EF083FD069805700799B6
:1025700004980870384609B0F0BD0000F0B58BB083
:10258000274CFF226168D932525C00250126002ABF
:1025900043D06A461676FF3121314A7F69468A76F2
:1025A000C87604A812F019F96068FF30CD30416890
:1025B00000910178059A0B46417809020B43817816
:1025C000C07809040B430006034302A8049912F0E3
:1025D00031F90399029808910790124FB869099050
:1025E00069464D766078400706D5002009F0B6FFB1
:1025F000002801D068464676606806A900780DF08C
:10260000B9FDFF226068C332B969125AFF304A43EC
:10261000511A813081640BB0F0BD6A461576BAE775
:102620008C1300200C1300200449896C002903D06E
:102630008968002900D00847704700000C1200206C
:1026400038B50C4600220092694601F043F8002894
:1026500001D0002038BD0098844203D8401C01D02E
:10266000002038BD012038BD10B509F0D8FD002884
:1026700001D00E2010BD0A484068E030007C0128DF
:102680000BD109F0D2FD002801D00F2010BD09F0B8
:10269000CAFD002801D00F2010BD002010BD000091
:1026A0008C1300200948817C407C814201D30120A9
:1026B000704707484078800703D50648007801280E
:1026C00001D0002070470120704700000C1300204B
:1026D0008C1300204C1300200D480E49037CFF2270
:1026E00048681932125C934201D30120704749783F
:1026F000890707D5E030007C002805D00648407BDC
:10270000002803D000207047012070470120704747
:102710000C1300208C1300202C130020FFB587B071
:10272000109C05460E461F46002E0DD0002C0BD0E7
:1027300019480690FEF7A7FF01A9384600F0AAFF46
:102740000746380003D023E002200BB0F0BD01990A
:102750000698491CFEF7A8FF002D04D01022294638
:102760000698FEF7A8FF3146099A0698FEF7A3FFE0
:1027700002A80699FEF7E0FE6A46D17A107A0906A9
:102780000843917A527A09041202114308432060E7
:1027900038460BB0F0BD00005C190020F0B589B0E0
:1027A00006460D469C46119C0E9B10990F981746A5
:1027B000002E08D0002C06D0FF220132954205D908
:1027C0000E2009B0F0BD0A2009B0F0BD04AA0292A3
:1027D000019100906246394628460CF00DFD3B46BB
:1027E0002A46314604A8009410F074FF002802D055
:1027F0000F2009B0F0BD002009B0F0BDF3B5A7B0BF
:102800000C4623784F2B11D000206278542A0FD029
:1028100000210840A17841290CD00025284001263C
:102820000027002808D06846067013E00120ECE776
:102830000121EEE70125F1E7412B7DD00020422A5E
:102840007BD000221040502978D00021084201D0CE
:102850006846077000A81022E11C013020F08DFDB1
:10286000214602A810221331013020F086FD2146B6
:1028700004A820222331013020F07FFD214608A842
:1028800008224331013020F078FD214609A820229A
:102890004B31013020F071FD21460DA820226B3113
:1028A000013020F06AFD20468030C17A10AA30390C
:1028B0005171017B30399171417B3039D1710021E7
:1028C00017725772827B2A2A13D010AB1A7A0A2306
:1028D0005A4310AB1A72631880339B7BD218303A7C
:1028E00010AB1A72491CC9B262188032927B2A2A34
:1028F000EBD10021427C2A2A13D010AB5A7A0A234A
:102900005A4310AB5A72631880335B7CD218303A4A
:1029100010AB5A72491CC9B262188032527C2A2A02
:10292000EBD1017D10AA30399172417D0A233039F3
:102930005943827D303902E05EE05FE060E051188B
:10294000E12212015143027F0A258A18017E437E4B
:102950003039694330395B183C214B43C17E3039F3
:102960006943591851187D223039D20051431391CF
:10297000817F407F0A223038504330380918E120E7
:10298000000141432046A030027943788A1801783B
:102990003039694330395B183C214B43C1783039B9
:1029A0006943591851187D223039D200514314918E
:1029B00041790A2330398279594330395118E1225B
:1029C00012015143027B437A8A18017A30396943F4
:1029D00030395B183C214B43C17A3039694359186F
:1029E00051187D223039D20051431591417B59292C
:1029F00008D0792906D00FE0012020E7012221E745
:102A0000012123E7817B452901D0652904D1C17BC0
:102A1000532909D0732907D010A90F76017C5929B1
:102A200005D0792903D00CE010A90E76F6E7427C98
:102A3000452A01D0652A04D1827C532A06D0732A04
:102A400004D04E2905D06E2903D009E010A94E7696
:102A500006E0417C4F2901D06F2901D110A94F76A2
:102A6000017D3C290BD010A98F76022110AAD776C0
:102A7000A21C2692B522125D2D2A03D003E010A9D4
:102A80008E76F2E703216218A032D27C2A2A13D074
:102A900010ABDA7E0A235A4310ABDA766318A03300
:102AA000DB7CD218303A10ABDA76491CC9B2621816
:102AB000A032D27C2A2AEBD1417D2D290AD010AA3E
:102AC000D17ED176C17F2046C030592907D07929DF
:102AD00005D00EE010AAD17E4942D176F2E7017806
:102AE000452901D0652904D14178532909D073299A
:102AF00007D010A90F778178592905D0792903D0FB
:102B00000CE010A90E77F6E7C278452A01D0652AB5
:102B100004D10279532A06D0732A04D04E2905D055
:102B20006E2903D009E010A94E7706E0C1784F293D
:102B300001D06F2901D110A94F7781793C291FD08D
:102B400010A98F7702210022269BC0335D792A2DA0
:102B50000ED00A256A436518C0356D79303AAA1837
:102B600012B2491CC9B26518C0356D792A2DF0D151
:102B700010A90A84417C592905D0792903D00CE099
:102B800010A98E77DEE7817C452901D0652904D123
:102B9000C17C532909D0732907D018A98F70017DF2
:102BA000592905D0792903D00CE018A98E70F6E7D1
:102BB000427D452A01D0652A04D1827D532A06D060
:102BC000732A04D04E2905D06E2903D009E018A934
:102BD000CE7006E0417D4F2901D06F2901D118A99F
:102BE000CF70007E3C281FD018A80771022000215A
:102BF000DA7D2A2A0ED00A2251432218C032D27D11
:102C00003039511809B2401CC0B22218C032D27DEE
:102C10002A2AF0D110A8C1842046E030C178592971
:102C200005D0792903D00CE018A80671DEE70179F8
:102C3000452901D0652904D14179532909D0732947
:102C400007D018A90F728179592905D0792903D0A5
:102C50000CE018A90E72F6E7C279452A01D0652A60
:102C600004D1027A532A06D0732A04D04E2905D003
:102C70006E2903D009E018A94E7206E0C1794F29E8
:102C800001D06F2901D118A94F72817A3C291FD038
:102C900018A98F7202210022269BE0335B7A2A2B2F
:102CA0000ED00A235A436318E0335B7A303A9A18FD
:102CB00012B2491CC9B26318E0335B7A2A2BF0D1F7
:102CC00010A98A85417D592905D0792903D00CE0C6
:102CD00018A98E72DEE7817D452901D0652904D1CE
:102CE000C17D532909D0732907D018A98F73017E9C
:102CF000592905D0792903D00CE018A98E73F6E77D
:102D0000427E452A01D0652A04D1827E532A06D00C
:102D1000732A04D04E2905D06E2903D009E018A8E3
:102D2000C67306E0407E4F2801D06F2801D118A855
:102D3000C773E11DF931087A3C2822D018A807741E
:102D400002200022269BFF330133DB792A2B10D08F
:102D50000A235A432318FF330133DB79303A9A1898
:102D600012B2401CC0B22318FF330133DB792A2B87
:102D7000EED110A84286C87C592805D0792803D006
:102D80000CE018A80674DBE7087D452801D065280B
:102D900004D1487D532809D0732807D018A8077597
:102DA000887D592805D0792803D00CE018A806752D
:102DB000F6E7CA7D452A01D0652A04D10A7E532A46
:102DC00006D0732A04D04E2805D06E2803D009E01F
:102DD00018A8467506E0C87D4F2801D06F2801D19C
:102DE00018A847752546FF35213568790A223038FD
:102DF000A979504330380818E12109014843297B5B
:102E00000A234118287A6A7A303858433038121821
:102E10003C204243E87A30385843101808187D2186
:102E20003038C90048431E90687B592801D0792862
:102E300009D1A87B452801D0652804D1E87B532817
:102E400025D0732823D018A807772046FF305530A7
:102E5000259014F077FD00227F4BFDF7C9FBFDF7AD
:102E60004BFD20A988812046FF305A30249014F071
:102E700069FD0022784BFDF7BBFBFDF73DFD20A966
:102E8000C881287C592805D0792803D00CE018A8DF
:102E90000677DAE7687C452801D0652804D1A87C4C
:102EA000532809D0732807D018A84777E87C5928F9
:102EB00005D0792803D00CE018A84677F6E7297DDD
:102EC000452901D0652904D1697D532906D073298C
:102ED00004D04E2805D06E2803D009E018A88677C4
:102EE00006E0287D4F2801D06F2801D118A88777E8
:102EF000E87D3C2824D018A8C77702200021269A14
:102F0000FF322132927D2A2A10D00A225143221800
:102F1000FF322132927D3039511809B2401CC0B2C3
:102F20002218FF322132927D2A2AEED120A8018078
:102F3000FF344134A078592805D0792803D00CE01B
:102F400018A8C677D9E7E078452801D0652804D1CC
:102F50002079532809D0732807D020A847806079AA
:102F6000592805D0792803D00CE020A84680F6E740
:102F7000A079452801D0652804D1E079532809D0EB
:102F8000732807D020A80771207A592805D07928FE
:102F900003D00CE020A80671F6E7607A452801D03E
:102FA000652804D1A07A532809D0732807D020A817
:102FB0004771E07A592805D0792803D00CE020A881
:102FC0004671F6E7207B452801D0652804D1607B57
:102FD000532809D0732807D020A88771A07B5928CF
:102FE00005D0792803D00CE020A88671F6E7E07BB5
:102FF000452801D0652804D1207C532809D07328A6
:1030000007D020A80781607C592805D0792803D0F3
:103010000CE020A80681F6E7A07C452801D06528B1
:1030200004D1E07C532814D0732812D020A88772D2
:103030002598FDF73EF920A988812498FDF739F9F4
:1030400020A9C881902269462798FDF70EF929B07A
:10305000F0BD20A88672EBE70000244030B404469F
:103060000020002200290AD901252B469340A343C2
:1030700001D1401CC0B2521CD2B28A42F5D330BC3E
:103080007047FFB585B0002500270026002000907E
:1030900048B20490002400984000039007990398D8
:1030A000095A0120A04001422AD031190C22029174
:1030B0005143089A5258002A22D0059A002A01D179
:1030C00040071DD0089809180820019108560211E0
:1030D0000007011704980DF063FA002810D001983A
:1030E000407A01010E980818C068002802D07F1CA1
:1030F000FFB205E029460F9A6D1C0298EDB25054BC
:10310000641CE4B2102CC9D31036F6B20098401CEF
:10311000C0B20090102EBDD310980770284609B099
:10312000F0BD000010B5024800F0B6FD10BD000073
:10313000A42D0020F0B5044685B0084615461E466D
:10314000002813D0002D11D0002E0FD000210091A7
:10315000019102910391052C0BD0062C09D0072C6C
:1031600007D0082C09D00B2005B0F0BD0A2005B00F
:10317000F0BD01216A46117002E002216A46117019
:1031800001466F460322781C1EF07AFF032229466F
:10319000381D1EF075FF02223146F81D1EF070FF2B
:1031A0000D48234640680222044625786946284691
:1031B00065782D022843A578E4782D042843240659
:1031C000204310F091FA002802D00F2005B0F0BD86
:1031D000002005B0F0BD0000BC15002000280CD078
:1031E00000290AD0027B20301307002B07D0037878
:1031F000002B04D00020087018E003207047037AE9
:10320000002B02D0130703D005E0012008700DE069
:103210000378002B02D0120703D009E002200870C7
:1032200004E00078002803D00320087000207047D5
:10323000172070477047704710B5012000F086FFD7
:10324000022000F083FF10BD10B5042000F07EFFC7
:10325000082000F07BFF10BD10B5102000F076FFB5
:10326000202000F073FF402000F070FF802000F06D
:103270006DFFFF20013000F069FF0120400200F0E7
:1032800065FF0120800200F061FF0120C00200F014
:103290005DFF0120000300F059FF0120400300F012
:1032A00055FF0120800300F051FF0120C00300F012
:1032B0004DFF10BDFEE710B50520FFF7B5F910BDB5
:1032C00010B50420FFF7B0F910BD10B50620FFF7C8
:1032D000ABF910BD10B50220FFF7A6F910BD10B56F
:1032E0000020FFF7A1F910BD10B50120FFF79CF9F0
:1032F00010BD10B50320FFF797F910BD00B50022EF
:1033000000F002F800BD000030B4054601200D4B6E
:103310005C7A012C14D8587A00241C54587A800006
:10332000C01845605D7A08482A54587A421C5A727F
:10333000303008703A2048702F208870CC70002000
:1033400030BC7047182A0020202A002000B5002138
:1033500000F002F800BD000010B4014601200B4B44
:103360005A7A002A0FD009783039C9B28A00D218A7
:103370005468002C07D00020506059180872587A01
:10338000401E5872002010BC70470000182A002010
:1033900010B4084900234B6107494A684C15224381
:1033A0004A604A68082422434A60C009C001036099
:1033B00010BC7047E00800200020024010B400203C
:1033C000204A9169CB05204904D548690223184356
:1033D0004861901593699B0505D54B6901242343EA
:1033E0004B616302184393695B0505D54B6908245B
:1033F00023434B61E301184393691B0505D54B69D2
:10340000042423434B616302184393699B0405D54D
:103410004B69102423434B616302184393699B0358
:1034200004D54C6920231C434C6118439369DB038A
:1034300005D54B69402423434B61A10208439061A9
:1034400010BC704700200240E008002070B5044620
:1034500000F04CFF0546194EB069C0070DD0601C46
:1034600008D0002C04D000F041FF401BA04201D93D
:10347000032070BDB069C007F1D1B069800701D5E4
:103480000220B061B069C00511D4B06980050ED4C6
:10349000B06940050BD4B069000508D4B069800458
:1034A00005D4B069800302D4B069C00303D5FFF727
:1034B00085FF012070BD002070BD0000002002408B
:1034C00010B5002805D0102200211EF0F7FD0120C4
:1034D00010BD002010BD10B50524240700220421D2
:1034E000204600F0FCFEFF2100220131204600F0C2
:1034F000F6FE10BD10B50524240701220421204644
:1035000000F0EDFE01221102204600F0E8FE10BDA1
:103510000649800008580649401803D0C84203D025
:10352000002070470120704702207047843802084D
:10353000702FFCFF38B5144C12482060FF20E1309A
:103540006060124809F01CF92061002000901048CA
:103550006946406800780DF078FDA0600098E06052
:103560000C4810F0F5F8A0610B4808F0A7FE2062A7
:103570000A4808F04CFEA062094808F093FF206357
:10358000204638BD941300207415002088150020B3
:103590008C1300209015002098150020A015002005
:1035A000A815002070B5054608461446A04206D06E
:1035B0000178A94204D004F09FF9A042F8D100207C
:1035C00070BD7FB5089D099C0A9B002A0DD0002C78
:1035D0000BD0002B09D005282DD206007E44367969
:1035E000B619B74416191C1F05000A2004B070BD97
:1035F0006846807B012802D00320207014E0002957
:1036000004D0032902D0012020700DE00220207098
:103610000AE00420207007E00520207004E0062066
:10362000207001E007202070D2892078294609F017
:103630005DF804B070BD052004B070BD0021094ADA
:10364000CB00D358834208D84B1CDB00D3588342AD
:1036500003D9C800801800797047491CC9B21529E0
:10366000EED3FEE79036020810B40022084B940017
:103670001C5D844205D19000C018086010BC002079
:103680007047521CD2B2052AF1D310BC0C207047EF
:10369000D803002030B400220D4B11246401150121
:1036A0005519ED182D192D7B854209D110011018DF
:1036B0008B22C01892008018086030BC0020704730
:1036C000521CD2B2182AEAD330BC03207047000043
:1036D0004818002000290CD0174A0828526829D21F
:1036E00003007B441B79DB189F4424050B11171A38
:1036F0001D200A20704710690860104610301063C2
:1037000016E05069086010461430106310E09069AC
:1037100008601046183010630AE0D069086007E0BE
:10372000106A086004E0506A086001E0906A08606E
:103730000020704705207047BC15002038B50B49A4
:103740006C4649680A46FF3121310B7BA3706070DB
:103750000D202070C87F012802D10E206946087014
:10376000107869460DF07AFCC0B238BD8C13002089
:10377000884201D1C8B201E0401EC0B240B27047D9
:1037800010B508480169446980690818002808D004
:103790000822054904F0BCF804220449204604F03C
:1037A000B7F810BD4000F81F7A0400208A040020FA
:1037B000F8B50446002625464035287D012808D066
:1037C00001202875206881688907890F01290ED199
:1037D00001E00220F8BD0168C90708D0A06D2021D2
:1037E0000843A0650126002028753046F8BDA16D6C
:1037F000FF220132914302221143A165C16889076A
:10380000890F0091C16889088900C16020688168BA
:1038100092071143816003F0B9FB07462068806876
:10382000002812DA03F0B2FBC01B0A2809D9A06DE8
:103830000221884310210843A0650020287501203B
:10384000F8BD206880680028ECDB2068C168009A19
:103850001143C160A06D80088000401CA065C2E7D4
:10386000F8B50C4605464035297D01290DD00121CA
:10387000297501688A68520709D5816D2022114394
:103880008165002028750120F8BD0220F8BD194B84
:103890006268D8054710184E9A4215D08A6A236884
:1038A0005B035B0B1A438A622168490305D5B16843
:1038B0000143B1600A20FDF7E9FD2068800315D5BA
:1038C000B0683843B06011E08A6A23685B035B0B21
:1038D0009A438A622168490302D5B1688143B16085
:1038E0002068800302D5B068B843B0600020287516
:1038F000F8BD000001100000002701400068006CC6
:103900007047000070B50446002C06D0A06D254617
:1039100000264035002802D006E0012070BDE66593
:103920002E75204600F0D2F8A06DC00603D42068A2
:103930008168490706D5A06D10210843A0652E7542
:10394000012070BDA16DFF2201329143022211437B
:10395000A16581685B4A8907890F012902D1016845
:10396000C9072BD1032361689B07994205D05B42AD
:10397000994202D05B00994209D101698900890806
:103980000161206801696368194301610CE0016904
:1039900089008908016190680F218904884390603B
:1039A00090686168084390602068C1681823994353
:1039B000C1602068C168A3681943C1609068012193
:1039C0004906884390609068218F490608439060BB
:1039D00020688168C90004D481680122120711435C
:1039E00081602068C168384A1140C1602069E1687F
:1039F000022823D000200143206A226B400352009A
:103A000010430143606B0143A06980030143E069F7
:103A1000C00301432068C2681143C160A06A014627
:103A2000FF39C23905D0E16A08432168CA681043EA
:103A3000C860606A0121012802D00BE00420DAE7A7
:103A4000206A002823D0A06D20221043A065E06DDD
:103A50000843E065206C012820D020680169C9076F
:103A600003D0016949084900016120684169C9081A
:103A7000C900416120684169E26B11434161E6651B
:103A8000A06D80088000401CA065002070BD2068EB
:103A9000C26801231B041A43C260DBE72068026985
:103AA000FF239B009A43026120680269636CE56C06
:103AB0001A43A36C2B431A430261206802690A432C
:103AC0000261D2E7002701401902FEFF7047F8B5F6
:103AD00004460D4627466069403708280BD0206809
:103AE000C068C00709D0A06D20210843A065002050
:103AF00038750120F8BD082600E00C2603F046FAD0
:103B0000009020680068304215D1681C0FD0002D4D
:103B100005D003F03BFA0099401AA84207D9A06DDE
:103B200004210843A065002038750320F8BD2068F3
:103B300000683042E9D0A06D012149020843A06528
:103B40002068C16809058A0F0C21002A1AD1226A4F
:103B5000002A17D10268120714D582680123520780
:103B6000002A08DB42688A434260A06D1A02904333
:103B70001843A06506E0A06D20221043A065E06D0B
:103B80001843E065A069002801D120680160002089
:103B9000F8BD000070B50446002021688968490717
:103BA00023D425464035297D01291CD001212975C2
:103BB000E169012902D02046FDF780FC002811D1DF
:103BC000A16D0B4A1140FF2201321143A165002172
:103BD000E165297522681C21116021688A68042327
:103BE0001A438A6070BD022070BD022070BD0000C3
:103BF000FEF1FFFF70B50024024620325179022900
:103C000003D00421C163012436E001680B680E254E
:103C1000AB430B6001680B685B085B000B60174BE4
:103C20000168994201D101211CE0154B994201D153
:103C3000102117E0134B994201D1891512E0124B64
:103C4000994201D189140DE0104B994202D1012112
:103C5000090407E00E4B994202D10121090501E058
:103C6000012109060B4B596001215171002111718D
:103C7000816B002900D08847204670BD08000240B3
:103C80001C00024030000240440002405800024044
:103C90006C00024000000240F8B5044690480268FB
:103CA000904920680B04904E904F884201D1082122
:103CB0001BE0B04201D1802117E0B84202D10121BE
:103CC000C90212E08A49884202D10121C9030CE0ED
:103CD0008849884201D1194607E08749884202D1C4
:103CE0000121C90501E00121C90625460A40203508
:103CF000002A37D00168090734D5016808229143AA
:103D0000016078492068884201D108201BE0B04258
:103D100001D1802017E0B84202D10120C00212E098
:103D20007349884202D10120C0030CE071498842E6
:103D300001D1184607E07049884202D10120C00530
:103D400001E00120C00666494860E06B012108439C
:103D5000E0630420687100202871616B002901D0A4
:103D6000204688475E4802685E4920680B158842F5
:103D700001D104211BE0B04201D1402117E0B8423B
:103D800001D1194613E05A49884202D10121890321
:103D90000DE05849884202D10121890407E05649C3
:103DA000884202D10121890501E0012189060A42E8
:103DB00034D00168490731D50168890603D4026807
:103DC00004218A43026047492068884201D10420C7
:103DD0001BE0B04201D1402017E0B84201D11846A3
:103DE00013E04349884202D1012080030DE041499C
:103DF000884202D10120800407E03F49884202D175
:103E00000120800501E00120800635494860052039
:103E10006871216B002901D020468847304802682C
:103E2000304920684B15884201D102211BE0B04285
:103E300001D1202117E0B84201D1194613E02C49E5
:103E4000884202D1012149030DE02A49884202D16A
:103E50000121490407E02849884202D1012149058E
:103E600001E0012149060A4238D00168890735D5A9
:103E70000168890603D4016802229143016019494F
:103E80002068884201D102201BE0B04201D12020ED
:103E900017E0B84201D1184613E01549884202D113
:103EA000012040030DE01349884202D10120400463
:103EB00007E01149884202D10120400501E00120BC
:103EC000400607494860E06BE0630120687100200C
:103ED0002871E16A002901D020468847F8BD00001A
:103EE00000000240080002401C0002403000024076
:103EF00044000240580002406C00024070B40028A8
:103F000005D0024620325179002903D004E070BC6C
:103F100001207047002111710221517101680C6864
:103F20003A4B1C40C568836846692B430569354395
:103F30002B4385692B43C5692B43056A2B432343D8
:103F40000B60334C0168334BA14208D1996A0909CF
:103F500009019962996A40680143996250E02E4CC8
:103F6000A14209D1996AF024A1439962996A4068F3
:103F700000010143996243E0284CA1420AD1996AA9
:103F80000F242402A1439962996A40680002014308
:103F9000996235E0224CA1420AD1996A0F24240388
:103FA000A1439962996A406800030143996227E03E
:103FB0001C4CA1420AD1996A0F242404A14399629E
:103FC000996A808800040143996219E0164CA14265
:103FD0000AD1996A0F242405A1439962996A8088BD
:103FE0000005014399620BE0994209D1996A0F24B7
:103FF0002406A1439962996A0079000601439962F7
:104000000120507170BC0020704700000FC0FFFFFE
:1040100008000240800002401C00024030000240C4
:1040200044000240580002406C00024001B5009874
:1040300002F01EFF08BD0000F8B505460E461B4FF6
:10404000387C012808D0012038741948FFF7FEF9A0
:104050000146080002D025E00220F8BD0020C04340
:1040600030606C68A868C0010019A0421AD92046C7
:10407000FFF78EF90E48FFF7E9F901460D4842684F
:1040800008239A434260426843159A4342600029DC
:1040900001D0346006E08034A8686A68C0018018E6
:1040A000A042E4D8002038740846F8BDE00800209B
:1040B00050C300000020024003484168022211431F
:1040C000416000207047000000200240F8B50E4615
:1040D00017460B4C207C012808D001202074094889
:1040E000FFF7B4F90025002802D006E00220F8BD51
:1040F000656137600348FFF7A9F92574F8BD000032
:10410000E008002050C300000948416889070CD529
:104110004168C90703D00749C1600749C160074921
:1041200001610749016100207047012070470000CC
:1041300000200240EFCDAB8905040302BFAE9D8C89
:104140001615141310B502F047FD10BD10B5044943
:104150004A69024202D04861FFF7F4FF10BD000037
:1041600000040140F0B400220B68002B70D0012441
:1041700094400B68A4462340002B6AD04C68022C64
:1041800001D0122C0CD1D408A40027183D6A540782
:10419000E40E0F26A640B5430E69A6402E433E62AC
:1041A0004C68012C05D0022C03D0112C01D0122C0C
:1041B00011D1856854000326A640B543CE68A640B9
:1041C0002E43866044686546AC430D79ED06ED0FDD
:1041D000954025434560076854000325A540AF433B
:1041E0000E79B607B60FA6403E430660C668AE43DA
:1041F0008D68A5403543C5604C68E40050D52C4C13
:10420000656B01263543656395082A4CAD002F196F
:10421000BD689407240F0F26A640B5430526360730
:10422000B04201D100261BE0234EB04201D101264D
:1042300016E0224EB04201D1022611E0204EB042DB
:1042400001D103260CE01F4EB04203D1042607E043
:104250002BE025E01C4EB04201D1052600E00626E9
:10426000A6402E43BE60194D2C689C434E68F60351
:1042700000D51C432C606C689C434E68B60300D587
:104280001C436C60AC689C434E68F60200D51C432E
:10429000AC60EC689C434E68B60200D51C43EC60F1
:1042A000521C0B68D34000D061E7F0BC704700009F
:1042B00000100240000001400004005000080050BF
:1042C000000C005000100050001C00500004014081
:1042D0000069084201D00120704700207047002A81
:1042E00001D0816170478162704700000148006819
:1042F00070470000AC02002070B50446002C12D0BC
:104300002420254640356870206801684908490026
:104310000160204600F00CFA0020606468702063A1
:10432000A870287070BD012070BD40304078704783
:1043300070B50446002C06D0254640356878002626
:10434000002802D005E0012070BD2E70204600F04C
:10435000F0F924206870206801684908490001606C
:104360000F21606809068843216808612068826817
:104370000121C9038A438260E068012809D0212213
:10438000A0689202104322689060E068022805D07D
:1043900008E0A068226808439060F6E701202268E0
:1043A000C0025060206842680F4B1A434260206888
:1043B000C2688A43C260616920690843A169090231
:1043C00008432168C860216AE069084321680860E1
:1043D0002068016801221143016066642020687032
:1043E0002663AE70002070BD00800002FFB583B070
:1043F0000C9F0446254640356878202802D00220CC
:1044000007B0F0BD002F16D00D98002813D02878E3
:10441000012813D00120287002F0B8FD06460122C1
:104420001923D1032046009603F0E0F9002808D0B4
:10443000032007B0F0BD012007B0F0BD022007B097
:10444000F0BD222068704020A87000206064676280
:104450000D99618560630E98009001962046069B39
:10446000059A049903F026F900280CD0606C042802
:1044700004D000202870032007B0F0BD0020287071
:10448000012007B0F0BD618D3E48FF27FF2909D903
:104490003A462785012300901B062046049903F025
:1044A00091F90AE0618D21850090208D0123C2B22F
:1044B0005B062046049903F085F900270096002248
:1044C000042120460E9B03F091F9002802D003201E
:1044D00007B0F0BD2068416A606A421C62620170E8
:1044E000208D401E80B22085618D491E6185002887
:1044F00026D1608D002823D00096002280212046FE
:104500000E9B03F073F9002802D0032007B0F0BD22
:10451000608DFF2809D9FF22228501231B06009701
:104520002046049903F04EF90AE0608D208500973B
:10453000208D0123C2B25B062046049903F042F9A4
:10454000608D0028BAD1324620460E9903F07BF9DF
:10455000002808D0606C042802D0032007B0F0BD0A
:10456000012007B0F0BD20682021C16120684268A9
:10457000054B1A4042606970AF702F70002007B081
:10458000F0BD00000024008000E800FEFFB583B00D
:104590000C9F0446254640356878202802D002202A
:1045A00007B0F0BD002F16D00D98002813D0287842
:1045B000012813D00120287002F0E8FC06460122F1
:1045C0001923D1032046009603F010F9002808D0E3
:1045D000032007B0F0BD012007B0F0BD022007B0F6
:1045E000F0BD212068704020A870002060646762E0
:1045F0000D99618560630E98009001962046069B98
:10460000059A049903F09AF800280CD0606C0428ED
:1046100004D000202870032007B0F0BD00202870CF
:10462000012007B0F0BD608DFF27FF280AD93A4668
:1046300027850020012300901B062046049903F0E3
:10464000C1F80BE0608D208500200090208D0123B3
:10465000C2B25B062046049903F0B4F80027324644
:1046600020460E9903F01AF9002808D0606C04283F
:1046700002D0032007B0F0BD012007B0F0BD606A92
:10468000411C6162216800788862608D401E6085EF
:10469000208D401E80B22085002826D1608D002804
:1046A00023D000960022802120460E9B03F09EF826
:1046B000002802D0032007B0F0BD608DFF2809D983
:1046C000FF22228501231B0600972046049903F050
:1046D00079F80AE0608D20850097208D0123C2B211
:1046E0005B062046049903F06DF8608D0028B6D172
:1046F000324620460E9903F0A6F8002808D0606CD8
:10470000042802D0032007B0F0BD012007B0F0BD9F
:1047100020682022C26120684168044B1940416032
:104720006A70AF702F70002007B0F0BD00E800FE87
:104730007047704702480168491C016070470000DB
:10474000AC02002010B50648016802221143016046
:10475000032000F007F800F007F8002010BD00006B
:10476000002002400020704710B50948816B020408
:104770001143816300F0B6FB00F0ACFB0548016813
:1047800008221143016000F09DFB02F0DDFA10BD2C
:104790000010024000200240002809DBC106C90EBB
:1047A0000120884003490860BFF34F8FBFF36F8F2C
:1047B0007047000080E100E0002805DBC106C90E5B
:1047C00001208840014908607047000000E100E0D6
:1047D0008207D30EFF229A408907090E99400028CC
:1047E00008DB830809489B001818036893430B43B0
:1047F000036070470007000F0838830804489B00D7
:104800001818C36993430B43C361704700E400E089
:1048100000ED00E0BFF34F8F04490348C860BFF3C9
:104820004F8F00BFFDE700000400FA0500ED00E037
:104830000168FF300122FF300230C2664031088B30
:1048400010430883088B022210430883002070471E
:1048500010B4016801224D23DB001A5013240023F9
:104860006401001903704031888A10438882888A65
:10487000022210438882002010BC7047704710B499
:104880000C0604D54907090E0818283003E0490131
:104890000818FF30293099B2002A07D0012202738C
:1048A0000181190C418110BC002070470022027365
:1048B000C180F8E710B54A011218FF30FF3002300E
:1048C000D26B006F10F008FF10BD10B54A0112182E
:1048D000FF30FF32FF3001320230D26B006F10F038
:1048E00074FF10BD70B50546002D0DD011200321B9
:1048F00040012C186172284600F0B7FA284600F0F3
:1049000023FA0020607270BD012070BD10B5112126
:1049100049014418217A012907D001212172006838
:1049200011F024FE0020207210BD022010BD70B5D1
:104930004A07CD09520F5101091801230024002D07
:1049400002D028314B7002E0FF3129314C700A70DF
:104950001122520185182A7A012A06D02B7200688A
:1049600011F074FD2C72002070BD022070BD70B576
:104970000A074368120F9A4201D9012070BD4A0705
:10498000CD09520F5101091801230024002D02D036
:1049900028314B7002E0FF3129314C708C700A7065
:1049A0001122520185182A7A012A06D02B7200683A
:1049B00011F0FCFD2C72002070BD022070BD0020A3
:1049C00070474907090E0818FF300130406C7047E6
:1049D000F8B54F07CC097F0F79010918012600258A
:1049E000002C02D028314E7002E0FF3129314D7089
:1049F0000F700A61CB704A78002A00D0CF81022B59
:104A000000D10D71112252018418227A012A06D098
:104A10002672006811F0DCFB28462572F8BD0220E2
:104A2000F8BD70B50D466C07640F61010918FF31C0
:104A300029314A618B610022CA614A700C706A0791
:104A400004D0006811F012FE002070BD006811F063
:104A50000DFEF9E7F8B504460D4668076168400F9A
:104A6000884201D90120F8BDE90900270122002967
:104A700004D04101091928314A7004E0690109197B
:104A8000FF3129314F708A700870112040012618BB
:104A9000307A012806D03272206811F0C7FD68070D
:104AA00002D007E00220F8BD232109016118206827
:104AB00011F07AFD37720020F8BD70B50D466C0715
:104AC000640F6101091828314A618B610022CA61B3
:104AD00001224A700C706A0704D0006811F0C6FD0C
:104AE000002070BD006811F0C1FDF9E7F8B504467B
:104AF000206811F0C3FE000402D520460AF008F930
:104B0000206811F0BBFE40050DD52068403081883B
:104B10000122920291438180204600F041F9002158
:104B2000204600F06FF9206811F0A8FE400406D579
:104B3000206840308188012292039143818020685F
:104B400011F09CFE800406D5206840308188012247
:104B5000520391438180206811F090FEC10413201C
:104B6000400104260827251800291CDA2068403057
:104B70000188B1430180206840300188B943018039
:104B80002878012805D10020287000212046FFF751
:104B900075FE204600F018F9206840308188012217
:104BA000120391438180206811F068FE000519D539
:104BB0002068403001883943018020684030818876
:104BC0000122D20291438180206840300188314324
:104BD0000180206811F052FEC043C00402D5204677
:104BE00000F05EF9206811F049FE00060BD5206840
:104BF00040308188802291438180287800281ED00F
:104C0000204600F04DF9206811F038FE800509D5E6
:104C100020684030818801225202914381802046E1
:104C200000F0E8F8206811F029FEC00506D52068DC
:104C300040308188FF22013291438180F8BD206895
:104C40004030018831430180206840300188394379
:104C500001800120287020684030808AF0210840BF
:104C6000810899208000015101212046FFF706FEAE
:104C7000C9E7F0B585B00446002C07D011204001EB
:104C80002518687A0027002803D006E0012005B027
:104C9000F0BD2F72204600F06BF803206872206888
:104CA00011F078FC00206168012600290FD941012C
:104CB00009190A46203256721072C886D7728F635D
:104CC000CF630F64401CC0B261688142EFD80020FE
:104CD0006168002911D9410109190A46FF312131C2
:104CE0004F720872CF72D11DF9318F63CF630F6499
:104CF000401CC0B261688142EDD8204610300FC818
:104D00000393029201910090206A049020460FC8FC
:104D100011F033FC002804D002206872012005B095
:104D2000F0BD242007556E72E069012802D12046AB
:104D3000FFF78EFD206A012802D12046FFF778FD9B
:104D4000002005B0F0BD000010B50068064988429B
:104D500008D10648816B0122D205914381631F204F
:104D6000FFF71AFD10BD0000005C0040001002407B
:104D700010B50068084988420DD10848816B0122AE
:104D8000D20511438163002211461F20FFF720FD49
:104D90001F20FFF711FD10BD005C00400010024015
:104DA00070B504460125A068022801D0FEF782FAFA
:104DB000FF34FF3402342946206F10F014FE206FB8
:104DC00010F0CBFD70BD000010B50446A0690028AE
:104DD00006D0074801690622914301610FF049FDA1
:104DE000FF34FF340234206F10F0E5FD10BD0000E9
:104DF00000ED00E010B5FF30FF300230006F10F022
:104E0000E1FD10BD10B5112252018418227A012A49
:104E100009D00122227224221154006811F049FDA8
:104E20000020207210BD022010BD10B527210901FD
:104E30000A58232109014118104610F0E1FD10BD68
:104E400070B50446112040012518287A01280AD09F
:104E500001202872206811F081FB206811F0FCFC11
:104E60000020287270BD022070BD70B5054611206B
:104E700040012C18207A01280DD0012020722868CA
:104E800011F088FB286811F01BFD0021002804D0D8
:104E90002172012070BD022070BD2172002070BD02
:104EA00010B5044627200001005910F0F5FDA06957
:104EB000002804D00248016906221143016110BD97
:104EC00000ED00E0024801680215114301607047DF
:104ED00000700040024801684215114301607047AC
:104EE0000070004002480168102291430160704741
:104EF00000700040F8B5014600200125ED03834C09
:104F0000834A844B102978D016DC012976D00229F7
:104F100075D0042974D008290DD1D96803231B0347
:104F2000194000296DD001235B0399426AD11268B0
:104F3000520767D52046F8BD0327774E3F04202946
:104F400011D040293BD0FF390139F4D1D96839401B
:104F500000296ED001235B0499426BD1126852077D
:104F600068D52046F8BD19691B693B40012424041B
:104F7000A34203D18C0501D52846F8BD0124640461
:104F8000A34203D1890701D56448F8BDBB42FCD1D7
:104F900011688903F9D5106803210905084001212A
:104FA0000905401A09D0401A05D0884201D15C4851
:104FB000F8BD3046F8BD5B48F8BD5B48F8BDD96820
:104FC0000125AD062940002924D113689B0121D574
:104FD000D1680F2080040140D06803239B0518404E
:104FE000524B890C5B5C810D491CD068C0030CD40A
:104FF0001068C00607D5304608E076E011E02EE0E4
:1050000049E068E06AE0204600E049485843FBF781
:105010006FF8F8BDA942FCD191688907F9D54548D8
:10502000F8BDD9688907890F002904D0022905D065
:1050300009E060E062E000F03BFAF8BD1268520758
:1050400001D52046F8BD012906D00329FAD11969F6
:105050008905F7D52846F8BD00F03AFAF8BDD968B9
:105060000C263140002902D0082903D007E000F0C7
:105070000FFAF8BD1268520701D52046F8BD042981
:1050800006D00C29FAD119698905F7D52846F8BD4B
:1050900000F01EFAF8BDD9680326B6023140002997
:1050A00008D00127FF02B94207D11268520704D580
:1050B0002046F8BD00F0ECF9F8BD012292029142C1
:1050C00002D100F005FAF8BDB142FCD11969890599
:1050D000F9D52846F8BD00F0DBF9F8BD012212032E
:1050E0009142FAD100F0F4F9F8BD916B4902FBD579
:1050F00000F0CEF9F8BD00F0CBF9F8BD01221204A2
:105100009142FAD100F0E4F9F8BD00000024F40067
:10511000001002404010024000093D00889000004D
:1051200020A1070040420F0080841E003038020892
:1051300000127A00006CDC02F8B504462078624D5B
:1051400080067BD500266148806BC00005D45F488F
:10515000816B02041143816301265D480168C90522
:1051600017D40068FF210131084359490860FFF74F
:10517000BDF8074656480068C0050AD4FFF7B6F8E0
:10518000C01B642801D90320F8BD51480068C00540
:10519000F4D54E4F38680321090508406268114074
:1051A000814208D09003800F032804D1386880031F
:1051B00001D50120F8BD2869032109040840002811
:1051C00024D00A40824221D0207880061ED528694A
:1051D00088432A690121C9040A432A612A698A434A
:1051E0002A612861C00511D5FFF780F80090286971
:1051F00080050BD4FFF77AF80099411A35488142AF
:1052000001D90320F8BD28698005F3D560688103C2
:10521000890F032905D13A6809058A4308400243EA
:105220003A6028690322616812041140084328612A
:10523000012E03D1B86B31078843B8632078C007CB
:1052400005D0E868A168800880000843E8602078FD
:10525000800705D5E8680C218843E1680843E860C9
:105260002078400706D5E868032189028843216930
:105270000843E8602078000706D5E86803210903A1
:10528000884361690843E8602088C00506D5E8685E
:10529000032109048843A1690843E8602078400697
:1052A00006D5E868012189068843216A0843E86039
:1052B0002078000606D5E868032189048843E1695F
:1052C0000843E8600020F8BD401002400010024092
:1052D0000070004088130000F8B504460E4664488C
:1052E0000068C007C00FB0420CD26148016849088D
:1052F0004900314301600068C007C00FB04201D0CF
:105300000120F8BD20785B4F800705D5F868F021B3
:105310008843A1680843F8602078C00772D06068AD
:10532000022808D003280BD001280ED0396889053F
:1053300010D40120F8BD396889030BD40120F8BDD1
:105340003968890106D40120F8BD3968490701D4BC
:105350000120F8BDF968890889000143F960FEF76A
:10536000C5FF0546616802290FD0032920D0012915
:1053700031D0F9680907890F44D0FEF7B7FF411B08
:105380003D4881423AD90320F8BDF9680907890FE1
:10539000022937D0FEF7AAFF411B3748814201D9C5
:1053A0000320F8BDF8680007800F0228F2D129E039
:1053B000F9680907890F032924D0FEF797FF411BDD
:1053C0002D48814201D90320F8BDF8680007800FFD
:1053D0000328F2D116E0F9680907890F012911D0D5
:1053E000FEF784FF411B2448814201D90320F8BD08
:1053F000F8680007800F0128F2D103E0F868000781
:10540000800FBAD11A480168C907C90FB1420BD938
:10541000016849084900314301600068C007C00FB6
:10542000B04201D00120F8BD2078400706D5F868C9
:10543000072109028843E1680843F86020780007E3
:1054400007D5F8680721C90288432169C9000843C4
:10545000F86000F03DF8F968084A0906090F515C48
:10546000C840074908600320FFF77CF90020F8BD19
:10547000002002400010024088130000203802087B
:10548000A80200200148006870470000A802002020
:1054900000B5FFF7F7FF0449C968044A4905490FF9
:1054A000515CC84000BD00000010024039380208BD
:1054B00000B5FFF7E7FF0449C968044A8904490FAA
:1054C000515CC84000BD000000100240393802089D
:1054D00010B51C4AD1680C230846184004280BD08C
:1054E000082810D00C2810D050680004410F491C27
:1054F0000120C003884010BD1068C00601D51248C5
:1055000010BD124810BD124810BD8802114B000F8B
:10551000185C0902890F491CD368DB0304D50C4AC7
:105520005043FAF7E5FD10BD1268D20604D5064ACD
:105530005043FAF7DDFD10BD044A5043FAF7D8FD99
:1055400010BD00000010024000093D000024F400DE
:1055500000127A0030380208F0B583B00446207893
:10556000FE4EC0075CD0F0680007800F022807D00D
:10557000F0680007800F03280BD1F068C00308D53E
:10558000306880034CD56068002849D1012003B001
:10559000F0BD012160680904884203D130680843E6
:1055A000306015E0052301221B049204984206D1C5
:1055B00030681043306030680843306008E030687D
:1055C0008843306030680840019030689043306014
:1055D0006068002812D0FEF789FE05463068800317
:1055E0001ED4DF4FFEF782FE401BB84202D90320D3
:1055F00003B0F0BD30688003F4D511E0FEF776FE0D
:105600000546306880030BD5D54FFEF76FFE401B73
:10561000B84202D9032003B0F0BD30688003F4D44F
:105620002078800753D5F0681F270007800F3F02BE
:10563000012807D0F0680007800F032812D1F06816
:10564000C0030FD43068400705D5E068012802D0B8
:10565000012003B0F0BD70682169B8430902084316
:10566000706034E0E06800281CD031680922914362
:1056700001433160FEF73AFE0546306840070AD420
:10568000FEF734FE401B022802D9032003B0F0BD10
:1056900030684007F4D570682169B84309020843AF
:1056A000706014E03068400840003060FEF71EFE75
:1056B0000546306840070AD5FEF718FE401B022851
:1056C00002D9032003B0F0BD30684007F4D420783D
:1056D000C00660D5F068A34F0007800F15D0E069C1
:1056E000002869D03068FF21013108433060FEF79F
:1056F000FDFD05463068800551D4FEF7F7FD401BDF
:10570000022849D9032003B0F0BD3068800502D5D6
:10571000E06900280BD0606A71683940884216D968
:105720000AF070FC002805D0012003B0F0BD012074
:1057300003B0F0BD7068616AB84308437060706878
:10574000218C0002000A09060843706012E07168AB
:10575000B943014371607068218C0002000A090698
:1057600008437060606A0AF04DFC002802D00120F6
:1057700003B0F0BD606A410B491C0120C0038840A2
:10578000F168794A0906090F515CC84077490860F9
:105790000320FEF7E7FF25E030688005ADD570688F
:1057A000616AB843084370607068218C0002000A87
:1057B00009060843706015E03168FF20013081431D
:1057C0003160FEF793FD0546306880050AD5FEF787
:1057D0008DFD401B022802D9032003B0F0BD3068C4
:1057E0008005F4D42078624D00072DD5606900282B
:1057F00015D02969012001432961FEF777FD07468D
:105800002869800720D4FEF771FDC01B022802D949
:10581000032003B0F0BD28698007F4D514E028699F
:10582000400840002861FEF761FD074628698007AF
:105830000AD5FEF75BFDC01B022802D9032003B086
:10584000F0BD28698007F4D4207840077CD5002774
:10585000B06BC00005D4B06B012109070843B063E9
:10586000012744480168C90518D40168801501431F
:1058700040480160FEF73AFD02903E480068C005CE
:105880000CD4FEF733FD0299401A642802D9032094
:1058900003B0F0BD37480068C005F2D5FF20A2680C
:1058A0000130824203D12969014329611BE00121B2
:1058B0008902002A0AD005231B029A420DD12A69C7
:1058C0000A432A612969014329610CE02A6982435C
:1058D0002A6128698843286105E02A6982432A6190
:1058E000286988432861A068002813D0FEF7FEFCD1
:1058F00002902869800521D4FEF7F8FC0299411A2C
:105900001748814202D9032003B0F0BD2869800501
:10591000F2D513E0FEF7EAFC0290286980050DD568
:10592000FEF7E4FC0299411A0D48814203D9032095
:1059300003B0F0BD08E028698005F1D4012F03D140
:10594000B16B38078143B1632078800649D50A4896
:10595000A2694114002A2CD0B3680FE00010024065
:105960008813000000E0000020380208A802002090
:10597000401002400070004000000140012213432B
:10598000B360736B13437363026A0A430262FEF7E8
:10599000ADFC0546B068800723D4FEF7A7FC401B8A
:1059A000022802D9032003B0F0BDB0688007F4D507
:1059B00017E0B26852085200B260026A8A4302627B
:1059C000FEF794FC0546B06880070AD5FEF78EFC0A
:1059D000401B022802D9032003B0F0BDB068800745
:1059E000F4D4A06A002850D0F1680907890F032970
:1059F0004ED001252D06022810D03068A843306013
:105A0000FEF774FC0446306880013ED5FEF76EFC5C
:105A1000001B022836D9032003B0F0BD3068A8432C
:105A20003060FEF763FC0746306880010AD5FEF758
:105A30005DFCC01B022802D9032003B0F0BD306812
:105A40008001F4D4216BE06AF2680843616BFD23A6
:105A50001B049A4311430843F060306828433060C8
:105A6000FEF744FC0446306880010ED4FEF73EFC8D
:105A7000001B022802D9032003B0F0BD306880016A
:105A8000F4D502E030688001C0D4002003B0F0BD3E
:105A9000012003B0F0BD006850308900081800688C
:105AA000704700685030890008180260704730B4B1
:105AB000014620310A78012A16D001240C700222F6
:105AC0004A700368CA225A62036853225A62026803
:105AD000936820252B4393600068FF2242624C703C
