:020000040800F2
:10000000E8370020D900000851740008894A000828
:1000100000000000000000000000000000000000E0
:100020000000000000000000000000009DA000088B
:100030000000000000000000CF7A00085DC2000848
:10004000EB000008EB00000843880008EB00000804
:10005000EB0000088918000899180008A918000882
:10006000EB000008EB000008A9170008EB000008EF
:10007000EB000008EB000008EB000008EB000008B4
:10008000EB000008EB000008EB0000080000000097
:10009000EB000008EB000008EB000008EB00000894
:1000A000EB000008EB000008EB00000879C6000830
:1000B000EB000008EB0000080000000045D9000834
:1000C0000448854600F00AFD00480047D11C01089D
:1000D000C046C046E837002004488047044800472F
:1000E000FEE7FEE7FEE7FEE7FEE7FEE725C40008C1
:1000F000C100000830B50B46014600202022012433
:1001000009E00D46D5409D4205D31D469540491B4B
:100110002546954040191546521E002DF1DC30BD94
:1001200070B500242546002801DA01244042002948
:1001300001DA01254942FFF7DDFFAC4200D0404221
:10014000002C00D0494270BDF0B51FB40646002017
:1001500082B005464024019100901BE0019922469F
:100160000F46304600F098FB049A059B801A99418F
:1001700010D310461946224600F07EFB361A8F41F6
:100180000197224601200021009F00F075FB3818DE
:100190004D4100902046641E0028DFDC019B009842
:1001A0002946324607B0F0BD03460B439B0703D0F8
:1001B00009E008C9121F08C0042AFAD203E00B782C
:1001C0000370401C491C521EF9D27047D2B201E0A4
:1001D0000270401C491EFBD270470022F6E710B5A2
:1001E00013460A4604461946FFF7F0FF204610BDA5
:1001F000F8B502464A40D40F42004B0052085B0853
:100200009A4202D20246084611464A0023D0C30D44
:100210004A00DDB2120EAD1A202D35DA4902012650
:10022000490AF6058A19002C00D0524220214F1BA2
:100230001146B9402A411018C20D9A4221D0002C13
:1002400017D0012D08DCDA05801AD20F8019D207E9
:10025000DBB200F04DFBF8BDDA05801A0123400047
:100260001B06C01880185A428018CA0F1043490054
:1002700007E04908C2071143DA05801A80194008CF
:10028000801800F02DFBF8BD61000122511A001BFF
:10029000F7E70122D2075140AAE70122D2075040D6
:1002A000A6E7024670B54A40D30FDB0740002DD0C9
:1002B0004A002AD0010E140E000212020919400A47
:1002C000520A8418E50104465443000A120A2E0417
:1002D0005043A4194219200CC543AA18120C012539
:1002E000AD03521C521912047F39240400D0521C51
:1002F000104301D44000491EC2B20C06C0092018A8
:10030000401C4008802A02D003E0002070BD400855
:100310004000002900DA0020184370BD70B5024685
:100320004A40D50F40004A00ED0740085208002817
:1003300014D0002A12D0C40DD30D41020120C005F3
:100340005202490A520AE41A091812187D349142DD
:1003500001D3641C00E04900002C01DA002070BDCC
:100360000023914201D3891A034340084900002821
:10037000F7D100290AD0914202D10121C90705E035
:10038000914201D2012101E00121C943E005C018D9
:10039000401900F0A5FA70BDF0B507460846584070
:1003A00087B0C00F049048000E4659004008490825
:1003B000BC1A884105D2384631461E4617460B46C0
:1003C00002465800400810434DD0300D03904005C0
:1003D0005900400D490D0590401A0290402873DAEB
:1003E00018030121000B09050843019004980092AD
:1003F000002806D01146019A494200209041009100
:100400000190029840210A1A0199009800F034FAEC
:1004100005460C466B4607CB00F04FFAC0197141F8
:10042000039A0E0D0023D71756401A467A401643FA
:1004300044D0049A002A2DD0029A012A039A15DC8E
:100440001205C01A914101263605001C7141D20FD8
:10045000059ED2070093019202962A46234600F099
:100460008DFA07B0F0BD38463146FAE71605234A43
:100470000F46B218C01AB74101210905001C4F41AF
:1004800000187F41114618187941E20F10436D1989
:10049000644113E0E2076D0815436408C207144382
:1004A000039A01261205C01A91413605001C7141BC
:1004B000CE07400830434908C01851412A46234618
:1004C00000F04FFACDE7FFE7049801224000C11782
:1004D000121A00238B4104983146C417381AA141DF
:1004E000EEE730B40124E407634030BC54E730B495
:1004F0000124E407614030BC4EE700000000E0FF4B
:10050000F0B51FB488B00B990998002448400999A8
:10051000C00F490049080991C0070B990090490094
:1005200049080B9109990898A64608431CD00B99D5
:100530000A98084318D0099801244000420D480049
:10054000410D099824050003000B204309900B98E6
:100550000003000B20430B9050181C494018002248
:1005600001901446104605E0002001460DB0F0BD94
:10057000032801DA034600E003239C46C11A0AAEB1
:100580000AE05F0008ADED5B4F00F75B7D4300279D
:10059000AA187C41491C5B1E6145F2DD410004AB99
:1005A0005A522104120C0A43240C401C0828DFDB99
:1005B000019802900099704601910090059B049A61
:1005C0000799069800F0DAF9D0E700000DFCFFFF6C
:1005D000F0B50C465C4085B0E40FE40703944C0092
:1005E00000266408590094464908024602962243B0
:1005F00021D062460A431ED06200570D4A000E0306
:100600002303550D012402462C492405781B1B0B9E
:10061000360B401823432643614600901C46501A6F
:10062000B44103D30098401C009002E09218009857
:100630005B41002803DA0020014605B0F0BD002030
:10064000012109050746864611E064461D46141B34
:10065000B54106D36546521BB341744607430C436C
:10066000A646CD0740084908284392185B41054635
:100670000D43EAD11046184313D060461946504046
:100680007140084306D06046101AB34106D20122D9
:10069000002306E000220123DB0702E00122D2430F
:1006A0005310009874460105381C6141029C039D5B
:1006B0000019694100F055F9BFE70000FD03000093
:1006C00070B54B005B0803430BD04B005C0D00265C
:1006D00033466542B341D417AD1AA34102DB002073
:1006E000014670BD12053018514170BDC217C10FCF
:1006F000504010B54018CA079623002100F0F8F8C2
:1007000010BD10B500229623114600F0F1F810BD7F
:100710000EB5C217C10F5040CA0740180021054B43
:100720000293019200910A460B4600F027F903B0AC
:1007300000BD0000330400000EB505490291002100
:1007400000910A460B46019100F018F903B000BD74
:100750003304000070B5CD0F4A0009030123090BD3
:100760001B0519430B4BED070024520D9A4201DA89
:10077000002070BD074B34339A4203DC9A1A00F014
:100780008BF802E00449511888402C43F1D04042D4
:1007900070BD0000FF030000CDFBFFFF4A0009030E
:1007A0000123090B1B051943094B10B5520D9A4241
:1007B00001DA002010BD064B34339A4203DC9A1A4A
:1007C00000F06AF810BD03495118884010BD0000C0
:1007D000FF030000CDFBFFFFC20FD207400040081F
:1007E0000BD0C10D0723DB01C91840020905400ADF
:1007F0001143C2084007114370470020014670476B
:1008000010B5002904DB0124E40740428C41214655
:10081000002B04DB1C460123DB075242A3418B4221
:1008200000D1824210BD000010B5002904DB012474
:10083000E40740428C412146002B04DB1C46012387
:10084000DB075242A341994200D1904210BD000003
:100850000122D207002800DB101A002900DB511A00
:10086000814270470122D207002800DB101A0029BC
:1008700000DB511A8842704710B5202A04DB01467C
:10088000203A9140002010BD914020239C1A03463D
:10089000E3401943904010BD10B5202A04DB084600
:1008A000203AD040002110BD0B46D340D040202438
:1008B000A21A91400843194610BD10B5202A06DB44
:1008C000CB170846203A1041C1170B4306E00B46F0
:1008D0001341D0402024A21A91400843194610BD6C
:1008E000002904DA401C490001D14008400070474B
:1008F00070B40024050C05D11024000402D1002995
:1009000021D01124050E01D100020834050F01D1B8
:100910000001241D850F01D18000A41C002801DBEB
:100920004000641C002908D020252E1B0D46F540F0
:10093000A14000D001212943084301061B1B000AE6
:10094000DB1D02D5002070BC7047DB05181880182D
:100950000029F8DA401C4900F5D170BC400840007D
:10096000704710B5002B08DA0024401C6141921832
:100970005B411A4301D14008400010BDF0B51FB4DF
:1009800082B005460C0003D008460DF059FA02E08B
:100990000DF056FA20300246009021462846FFF717
:1009A0006BFF049B059A04460F4618431143084306
:1009B00014D0184610431BD0009840210A1A18463C
:1009C0000599FFF769FF05460E46009A05990498B8
:1009D000FFF752FF084305D0012004E020463946C6
:1009E00007B0F0BD0020C11705430E432C43374329
:1009F00000990E986305401A7905E40A00220C4319
:100A0000FD0A0A3002D500200146E9E70105101968
:100A100069410C9C0D9D00196941FFF7A2FFDFE7BA
:100A2000F8B50546480040080C46284304D060004D
:100A3000184A400D904201DD2846F8BD1549353968
:100A4000884210DC88420BDB290D20030843290370
:100A5000014305D0E00F1049C00741180020F8BD40
:100A600000200146F8BD161A4020821B2846214668
:100A7000FFF702FF07460091284621463246FFF75E
:100A80000BFF3A46009BFFF76CFF3246FFF7F4FE80
:100A9000F8BD0000330400000000F03F4A000903E5
:100AA0000123090B1B0519430A4B10B5520D9A423D
:100AB00002DA0020014610BD064B34339A4203DCB3
:100AC0009A1AFFF7E9FE10BD034BD218FFF7D4FEC8
:100AD00010BD0000FF030000CDFBFFFF064C012509
:100AE000064E05E0E36807CC2B430C3C98471034D6
:100AF000B442F7D3FFF7E8FA382F0108582F01085E
:100B000070B58C180578401C6B075B0F01D103781A
:100B1000401C2A1106D10278401C03E006780E70B2
:100B2000401C491C5B1EF9D12B0705D40023521E23
:100B30000DD40B70491CFAE70378401CCB1A921CA9
:100B400003E01D780D70491C5B1C521EF9D5A142B3
:100B5000D8D3002070BD000038B5044606480549CA
:100B60000068FFF7C7FA604300E0401E00900028CD
:100B7000FBD138BD40420F004C000020F8B50446C0
:100B8000006881688907890F012902D10168C907B6
:100B900022D18168114A10261140012500290ED169
:100BA0008168294381600120FFF7D6FF03F026FD0D
:100BB00007460CE003F022FDC01B0A2807D9A06DF0
:100BC0003043A065E06D2843E0650120F8BD206852
:100BD0000068C043C007EDD10020F8BD17000080B9
:100BE0003EB5104D00F024F87D20000102210E4C8E
:100BF0000191029001230022009491210B4801F001
:100C000085FC20786178217060700020205EFFF7FD
:100C10006DFD2946FFF745FB01462046283010F0C0
:100C20007AFC3EBD6F12033928010020C007002066
:100C3000F0B585B000261B4C0546039604221849E2
:100C4000E068FFF7B1FAE068002801D11648E060DB
:100C500069460E707D273F01022603AC01231A4628
:100C60009121124802970196009401F04FFC6946C9
:100C7000087028018321B03008436946087380203A
:100C800048736D46D0C501231A469021074801F0EC
:100C9000EBFC694608700A2001F054FA05B0F0BD7B
:100CA000000F080824010020204E0000C00700208B
:100CB000F0B589B00C46074610220021684611F0B5
:100CC000DCF86946224608460DF06DFD684600785E
:100CD00087260106684600290FDA00214318425C86
:100CE0005B785200DB091A434254491C0F29F5DB9B
:100CF000C17B0246490071400DE000214318425C6F
:100D00005B785200DB091A434254491C0F29F5DB7A
:100D1000C17B02464900D173E21DF93251691029A5
:100D200012D0017809061BD500214518435C6D7867
:100D30005B00ED092B434354491C0F29F5DBC17BB4
:100D400003464900714019E000216218FF32013268
:100D50005378455C491C6B4053701029F5DB26E045
:100D600000214518435C6D785B00ED092B4343542B
:100D7000491C0F29F5DBC17B03464900D973E11DEE
:100D800055698023FA316B54002500E05D545369A6
:100D90005B1C5361102BF9D300216218FF32013222
:100DA0005378455C491C6B4053701029F5DB0021DA
:100DB00062181046FF32E0300132437C5278491C01
:100DC000534043741029F3DB21461022F13104A86B
:100DD00011F03BF82246394604A80DF0E4FC10223D
:100DE0000021684611F049F809B0F0BD10B504467D
:100DF00010220021F13011F040F8FF2000211530C1
:100E00000151F022204611F038F810BD0B4610B504
:100E10000246102118460DF0F1FC10BDF0B5044655
:100E2000FF308BB00F4601300890E11D4069FA3168
:100E30000091103915460791002843D010210E1A51
:100E4000AE4200D316460099B2B24018394610F0AF
:100E5000FCFF0898089940698019486110283AD326
:100E6000B54238D0002162181046FF32E03001321E
:100E7000437C5278491C534043741029F3DB079993
:100E8000224608460DF08FFCBF19AD1B1AE000206A
:100E90002118E0314A7C3B5C401C5A404A741028BF
:100EA000F6DB102202A8079910F0CFFF02A9224614
:100EB00008460DF078FC102202A9079810F0C5FF33
:100EC000103D1037102DE2D8AAB23946009810F024
:100ED000BCFF089845610BB0F0BD000038B50F4964
:100EE000887C4A7C904218D2401C8874C00714D079
:100EF00022206946094C08708034FF2160682D313A
:100F00000A5C69468A70F9210A5C69464A70007871
:100F100008F066FB6168E031487638BDFC0E0020C1
:100F200010B502221449012386B000281ED00128E2
:100F300004D002281AD0032807D117E0CA6A1A433E
:100F4000CA62C96AC907C90F059141000B4A8000EE
:100F5000515A009100210291032103910849019304
:100F60000858694601F086F906B010BDCC6A1443F2
:100F7000CC62C96A1140E7E700100240A4290108C9
:100F80003C00002010B5054A4100515A044A800037
:100F90001058002201F035FA10BD0000A429010804
:100FA0003C00002010B5054A4100515A044A800017
:100FB0001058012201F025FA10BD0000A4290108F3
:100FC0003C00002010B5164CC820E084A06C2146DF
:100FD000401C2C31A06408461C3011F081F92621F8
:100FE000615EE06A4118E162A06C401CA06411F0EF
:100FF000C7FBA16CE06AFFF77DF801466064094811
:101000000DF0ACFC0146084AA06C5043FFF772F8A3
:101010000549081AE0640348CC380BF0C1FA10BD4A
:10102000F0030020F82600201027000010B5144C13
:10103000C8202146E0842C3108461C3011F050F9BC
:10104000A16CE06AFFF756F801460E480DF086FCE9
:1010500001460D4AA06C5043FFF74CF80A49081AA4
:10106000E06408480949CC380BF01BFA05480849E8
:10107000CC380BF083FA0348CC380BF091FA10BD52
:10108000F0030020F826002010270000C50F0008FC
:10109000005C26050FB4F0B5BBB00EA810F004FA42
:1010A00090A10EA80CF0B8FE40A800790EAC002864
:1010B00001D08DA100E08DA1E01C0CF0ADFE40A898
:1010C000037BC27A817A407A02AD0FC540A8017ACB
:1010D000C0790191009040A88379427984A1A01D34
:1010E0000CF09AFE40A8037DC27C817C407C02AD5E
:1010F0000FC540A8017CC07B0191009040A8837B74
:10110000427B7BA1B2380CF087FE48A80379C278F5
:10111000817840780AAD0FC548A8017840A8C37F00
:10112000827F407F06AD09910DC540A8037FC27E36
:10113000817E407E02AD0FC540A8017EC07D019139
:10114000009040A8837D427D7249A2380CF064FE75
:1011500048A8017AC0790191009048A88379427922
:1011600067A1A2380CF058FE48A8037EC27D817D9D
:10117000407D0AAD0FC548A8037DC27C817C407CC0
:1011800006AD0FC548A8037CC27B817B407B02ADC6
:101190000FC548A8017BC07A0191009048A8837AC6
:1011A000427A5C499A380CF037FE50A8037AC2792B
:1011B000817940790AAD0FC550A80379C27881784A
:1011C000407806AD0FC550A8037848A8C27F817F3C
:1011D000407F029003AD0EC548A8017FC07E0191FB
:1011E000009048A8837E427E4A497A380CF014FE6B
:1011F00050A8417A30A83031817150A8817A30A846
:101200003031C17150A8C17A30A83031017250A874
:10121000027B41A177380CF0FFFD50A8427B3EA134
:1012200033A80CF0F9FD50A8817B30A83031C17390
:101230007D27FF0039465498FEF75CFFE126360112
:1012400031460090FEF756FF044608463C21FEF763
:1012500051FF05463C210098FEF74CFF00912B46BC
:1012600022462EA134A80CF0D7FD39465598FEF73A
:1012700041FF31460090FEF73DFF044608463C2101
:10128000FEF738FF05463C210098FEF733FF00913A
:101290002B46224621A136A80CF0BEFD39465698B1
:1012A000FEF728FF05463146FEF724FF04460846B0
:1012B0003C21FEF71FFF06463C212846FEF71AFF99
:1012C00000913346224615A138A80CF0A5FDB422A2
:1012D0000EA94098FEF768FF3BB0F0BC08BC04B014
:1012E000184700006E6F2A004F54410041425000E1
:1012F0002530325825303258253032582530325872
:101300002530325825303258253032582530325861
:1013100000000000F42E010825642A002530326404
:101320003A253032643A253032640000FFB510258A
:1013300004464557112087B0205606900A98A168A8
:10134000016060790027012840D1022168460173BD
:10135000A17C8173E07C03A908F042F946B2B54252
:1013600000DC3546B54203D10A98002101602DE02A
:10137000A089A168814200D30127E28980188842B0
:1013800024D8082069460873E07C03A908F028F9EE
:1013900040B20690E189A068FEF7ACFE012915D1A4
:1013A0002221684601734573A17C8173E07C03A907
:1013B00008F016F945B2B54208D120790027012876
:1013C00004D169460871E07C08F014F908980570AA
:1013D00009990698087038460BB0F0BDF0B5284C56
:1013E000FF226168D932525C002501268BB0002AA9
:1013F0006A4643D01671FF3121314A7F69468A71AE
:10140000C87108A80AF069FF6068099AFF30CD30FA
:101410004168009101780B46417809020B438178BD
:10142000C07809040B430006034306A808990AF094
:101430007EFF0799124F06980391803F0290B8698A
:10144000694604904D716078400706D5002004F08D
:10145000F1F9002801D068464671606801A900785A
:1014600007F012FAFF226168C332B869525AFF319D
:101470004243101A813188640BB0F0BD1571BAE790
:101480007C0F00200449896C002903D08968002959
:1014900000D0084770470000FC0D0020FFB587B062
:1014A000109E1C460F0005460CD0002E0AD019488D
:1014B0000490FFF79BFC05A9204600F0C9FB04003F
:1014C00003D025E002200BB0F0BD05990498491C1B
:1014D000FFF79CFC002D04D0102229460498FFF74A
:1014E0009DFC3946099A0498FFF798FC68460499D0
:1014F000FFF7DEFB69460878C978090608436946A4
:1015000089780A046946497809020A431043306021
:101510002046D8E74C15002070B5CB7896B00C4625
:1015200005464F2B11D000202279542A0FD00021DC
:101530000840617941290CD000263040002600285F
:1015400009D001206946087013E00120ECE7012171
:10155000EEE70126F1E7412B44D00020422A43D098
:1015600000221040502941D00021084201D0684695
:10157000067000A81022A11D013011F009F82146C3
:1015800002A810221631013011F002F8214604A8F9
:1015900020222631013010F0FBFF214608A8082246
:1015A0004631013010F0F4FF214609A820224E31C7
:1015B000013010F0EDFF21460DA820226E310130E0
:1015C00010F0E6FF21468031887B10AA3038507138
:1015D000C87B30389071087C3038D071167200208A
:1015E000567211E00120B9E70122BAE70121BCE7F8
:1015F00010AE327A0A26724310AE32725B7CD21879
:10160000303A401C3272C0B2231880335A7C2A2AE6
:10161000EED100200BE010AE737A0A26734310AEB1
:101620007372127D9A18303A401C7272C0B222183E
:101630008032137D2A2BEED1C87D10AA30389072EB
:10164000087E0A2330384A7E584330381018E12289
:1016500012015043CA7FA0348318C87E0A22303852
:1016600050430A7F0A2682183C204243887F0A2181
:101670003038484310181918B72000017D22091A84
:10168000D2005143139121780A23303962785943AB
:1016900030395118E12212015143E2798A18E17878
:1016A000303959432379CB183C214B43A179303948
:1016B0007143591851187D22091AD20051431491CF
:1016C000227A617A303A7243303A8918E122120163
:1016D0005143E27B0A238A18E17A30395943237B4C
:1016E000CB183C214B43A17B0A2430396143591864
:1016F0005118081A7D21C90048431590582269469F
:101700002846FEF751FD16B070BDFFB5002085B02C
:1017100000900546064601900024770007980121B5
:10172000C05BA14008422FD028190C2203905043DF
:10173000089A1258002A27D0059A002A01D1490791
:1017400022D008994118082002910856021100077A
:101750000117069840B207F08AFA002814D00298C0
:10176000407A01010E980818C068002804D001983A
:10177000401CC0B2019007E0009A0F99039888546A
:101780000098401CC0B20090641CE4B2102CC5D379
:101790001035761CEDB2F6B2102DBDD3109901981C
:1017A0000870009809B0F0BD70470000F0B585B032
:1017B0001E4617460546002913D0002F11D0002ED3
:1017C0000FD000200090019002900390052D0AD0C8
:1017D000062D08D0072D06D0082D06D00B2005B009
:1017E000F0BD0A20FBE7012000E002206A461070ED
:1017F0006C460322601C10F028FB03223946201D92
:1018000010F023FB02223146E01D10F01EFB0B48B6
:101810002B464068022204462578694628466578AA
:101820002D022843A578E4782D042843240620437C
:101830000AF076F80028D2D00F20D0E7AC110020B3
:1018400000280BD0002909D0027B20301307002B81
:1018500006D00378002B03D000200EE00320704751
:10186000037A002B03D0120703D017207047012002
:1018700003E00078002803D00320087000207047A0
:101880000220FAE77047704710B5012000F0E6FC2F
:10189000022000F0E3FC10BD10B5042000F0DEFCD7
:1018A000082000F0DBFC10BD10B5102000F0D6FCC5
:1018B000202000F0D3FC402000F0D0FC802000F07D
:1018C000CDFCFF20013000F0C9FC0120400200F0F7
:1018D000C5FC0120800200F0C1FC0120C00200F024
:1018E000BDFC0120000300F0B9FC0120400300F022
:1018F000B5FC0120800300F0B1FC0120C00300F022
:10190000ADFC10BDFEE710B50520FFF7BBFD10BD17
:1019100010B50420FFF7B6FD10BD10B50620FFF787
:10192000B1FD10BD10B50220FFF7ACFD10BD10B524
:101930000320FFF7A7FD10BD00B5002200F002F85C
:1019400000BD000030B50E4B05465C7A0120012C2D
:1019500015D8587A00241C54587A8000C018456065
:101960005D7A184608302A54587A421C5A72303030
:1019700008703A2048702F208870CC70002030BD4D
:101980000826002000B5002100F002F800BD00008C
:1019900010B50B4902464B7A0120002B0FD012786C
:1019A000303AD2B293005B185C68002C07D000205C
:1019B0008A1858601072487A401E4872002010BD84
:1019C0000826002010B5084900224A6107494B68E3
:1019D0004C1523434B604B68082423434B60C009DC
:1019E000C001026010BD000024060020002002405B
:1019F00010B5214A00219069C305204804D54169EA
:101A0000022319434161911593699B0505D54369EB
:101A10000124234343616302194393695B0505D5A0
:101A20004369082423434361E301194393691B0578
:101A300005D5436904242343436163021943936931
:101A40009B0405D543691024234343616302194372
:101A500093699B0304D5446920231C4344611943C3
:101A60009369DB0305D54369402423434361A00206
:101A70000143916110BD00000020024024060020B7
:101A800070B5054600F0C4FC0646184C0AE0681C18
:101A900008D0002D04D000F0BBFC801BA84201D967
:101AA000032070BDA069C007F1D1A069800701D5EE
:101AB0000220A061A069C00511D4A06980050ED4E0
:101AC000A06940050BD4A069000508D4A069800472
:101AD00005D4A069800302D4A069C00303D5FFF731
:101AE00087FF012070BD002070BD00000020024073
:101AF0000649800009580648091803D0C14203D09E
:101B0000002070470120704702207047082A010812
:101B1000702FFCFF38B5174C15482060FF20E130CE
:101B200060602046143003F087FF206100200090A1
:101B30000F48694608384068007807F048FDA06003
:101B40000098E06020461C3009F018FFA061204694
:101B5000243003F019FD206220462C3003F0ACFC49
:101B6000A0622046343003F00DFE2063204638BDCD
:101B7000840F00206411002070B505461446084605
:101B800004E00178A94204D003F016F9A042F8D18C
:101B9000002070BD7FB50A9E089D099C002A0AD0CE
:101BA000002C08D0002E06D003000CF060F90515BB
:101BB00017191B0724000A2004B070BD6846807BFB
:101BC000012801D003200EE0002903D0032901D011
:101BD000012008E0022006E0042004E0052002E0E5
:101BE000062000E007202070D289C0B23346294683
:101BF00003F0DAFEE0E70520DEE7000010B5094A51
:101C00000021CB00D458844207D89B189B6883429C
:101C100003D9C8008018007910BD491CC9B2152924
:101C2000EFD3FEE77C28010810B5084B0022940092
:101C30001C5D844204D19000C0180860002010BDD3
:101C4000521CD2B2052AF2D30C2010BD2002002073
:101C500030B500220C4B1124640115015519ED1803
:101C60002D192D7B854208D1100110188B22C01828
:101C7000920080180860002030BD521CD2B2182A91
:101C8000EBD3032030BD00003814002000B500293C
:101C900009D0144A030052680CF0E9F80821070C37
:101CA0001217191D1F210A2000BD10690860104677
:101CB000103003E05069086010461430106308E0EB
:101CC0009069086010461830F8E7D06900E0106AA3
:101CD0000860002000BD506AFAE7906AF8E7052026
:101CE00000BD0000AC11002038B50B496B464A68B6
:101CF0001146FF3121310C7B9C7058700D201870FB
:101D0000C87F012801D10E2018701078194607F0FD
:101D100067FCC0B238BD00007C0F0020F8B5054656
:101D200004464035287D0026012808D0012028756A
:101D3000206881688907890F01290ED101E00220FE
:101D4000F8BD0168C90708D0A06D20210843A0652F
:101D50000126002028753046F8BDA16DFF22013212
:101D6000914302221143A165C1688907890F00913F
:101D7000C16889088900C1602068816892071143A1
:101D8000816002F03BFC07460EE002F037FCC01B0E
:101D90000A2809D9A06D0221884310210843A065B3
:101DA000002028750120F8BD206880680028ECDB41
:101DB0002068C168009A1143C160A06D800880004E
:101DC000401CA065C5E70000F8B506460D46403644
:101DD000317D01290DD00121317501688A685207D2
:101DE00009D5816D202211438165002030750120C5
:101DF000F8BD0220F8BD174B6A68D80547109A4213
:101E0000154C8A6A2B6812D05B035B0B1A438A62FB
:101E10002968490305D5A1680143A1600A20FEF79E
:101E20009BFE2868800312D5A06838430EE05B0350
:101E30005B0B9A438A622968490302D5A1688143F2
:101E4000A1602868800302D5A068B843A060002084
:101E50003075F8BD01100000002701400068006CDB
:101E60007047000070B5040006D0A06D264600251E
:101E70004036002802D006E0012070BDE5653575CA
:101E8000204600F0D1F8A06DC00603D42168886810
:101E9000400705D5A06D10210843A0653575EBE717
:101EA000A06DFF220132904302221043A065886892
:101EB0008207920F5A48012A02D10A68D2072BD111
:101EC000032362689B079A4205D05B429A4202D084
:101ED0005B009A4209D10A69920092080A6121685E
:101EE0000A6963681A430A610CE00A699200920861
:101EF0000A6181680F22920491438160816862685F
:101F0000114381602168CA6818239A43CA60216816
:101F1000CA68A3681A43CA608168012252069143C5
:101F200081608168228F5206114381602068816838
:101F3000C90004D48168012212071143816020681E
:101F4000C168384A1140C1602169E068022923D084
:101F500000210843216A226B4903520011430843C0
:101F6000616B0843A16989030843E169C903084318
:101F70002168CA681043C860A06A0146FF39C239A7
:101F800005D0E16A08432168CA681043C860606AE6
:101F90000121012802D00BE00421DAE7206A0028A1
:101FA00023D0A06D20221043A065E06D0843E065BA
:101FB000206C012820681FD00169C90703D001697E
:101FC00049084900016120684169C908C9004161A7
:101FD00020684169E26B11434161E565A06D8008AD
:101FE0008000401CA065002070BD2068C2680123ED
:101FF0001B041A43C260DBE70269FF239B009A437C
:10200000026120680269636CE66C1A43A36C334377
:102010001A430261206802690A430261D3E70000A3
:10202000002701401902FEFF7047F8B504464069D9
:10203000254640350E4608280BD02068C068C007EA
:1020400009D0A06D20210843A0650020287501203B
:10205000F8BD082700E00C2702F0D0FA009011E04C
:10206000701C0FD0002E05D002F0C8FA0099401A5B
:10207000B04207D9A06D04210843A065002028754F
:102080000320F8BD206800683842E9D0A06D012126
:1020900049020843A0652068C16809058A0F0C2120
:1020A000002A1AD1226A002A17D10268120714D511
:1020B000826853070122002B08DB43688B4343608F
:1020C000A06D130298431043A06506E0A06D202385
:1020D0001843A065E06D1043E065A069002801D1B8
:1020E000206801600020F8BD70B50446216800201A
:1020F0008968490721D425464035297D01291CD00E
:1021000001212975E169012904D02046FEF736FD39
:10211000002811D1A16D0A4A1140FF22013211435A
:10212000A1650021E165297522681C2111602168E3
:102130008A6804231A438A6070BD022070BD0000C3
:10214000FEF1FFFF01B5009802F0C8F908BD0000DC
:10215000F8B51A4E0546307C0F46012807D00120FD
:1021600030741748FFF78CFC010002D021E00220F8
:10217000F8BD0020C04338606C6814E02046FFF7CB
:1021800021FC0F48FFF77CFC01460E4842680823FB
:102190009A434260426843159A434260002901D045
:1021A0003C6006E08034A8686A68C0018018A042DC
:1021B000E4D8002030740846F8BD00002406002052
:1021C00050C300000020024003484168022211432E
:1021D000416000207047000000200240F8B50C4C20
:1021E0001646207C0F46012808D00120207409489B
:1021F000FFF746FC0025002802D006E00220F8BDCB
:1022000065613E600348FFF73BFC2574F8BD0000A4
:102210002406002050C300000948416889070CD5F6
:102220004168C90703D00749C1600749C160074930
:1022300001610749016100207047012070470000DB
:1022400000200240EFCDAB8905040302BFAE9D8C98
:102250001615141310B501F0F9FF10BD10B504499F
:102260004A69024202D04861FFF7F4FF10BD000046
:1022700000040140F8B500230124A7E027469F4051
:102280003A4070D04D68022D01D0122D14D1DD08D6
:10229000AD002D1800952D6A5E07AC46F50E0F2691
:1022A000AE46AE406546B543AC460E697546AE4097
:1022B00065462E43009D2E624D68012D05D0022DEE
:1022C00003D0112D01D0122D16D185680326AC46FE
:1022D0005D00AE46AE406546B543AC46CE68754639
:1022E000AE4065462E43866046680D79BE43ED06D6
:1022F000ED0F9D403543456006685F000325BD40F6
:10230000AE46AE430D79B446AE07B60FBE40654645
:102310002E430660C6687546AE438D68BD403543A2
:10232000C5604D68ED0050D52B4D6E6B26436E6336
:102330009E082A4DB6007519AC46AD689E07360F4B
:102340000F27B740BD4305273F07B84201D10027FB
:102350001AE0234FB84201D1012715E0214FB842BE
:1023600002D1022710E030E01F4FB84201D103270D
:102370000AE01E4FB84201D1042705E01C4FB842C5
:1023800001D1052700E00627B7402F436546AF601F
:10239000184D2E684F689643FF0300D516432E60F4
:1023A0006E684F689643BF0300D516436E60AE68F3
:1023B0004F689643FF0200D51643AE60EE684F6843
:1023C0009643BF0200D51643EE605B1C0A681546B3
:1023D000DD4000D052E7F8BD00100240000001408F
:1023E0000004005000080050000C00500010005085
:1023F000001C0050000401400069084000D001208A
:102400007047002A01D081617047816270470000E7
:1024100001480068704700005000002070B50400BB
:1024200014D02421204640300546417020680168C0
:10243000490849000160204600F0C0F900216164AC
:1024400069702163A9702970084670BD012070BDB4
:10245000403040787047000070B5040006D0254633
:10246000403568780026002802D005E0012070BDC4
:102470002E70204600F0A3F92420687020680168BF
:102480004908490001600F216068090688432168F6
:10249000086121688A680120C00382438A60E1687C
:1024A0000129A16808D0212292021143226891607B
:1024B000E168022902D005E00143F7E70121226823
:1024C000C902516021684A680F4B1A434A6021686B
:1024D000CA688243CA60616920690843A169090228
:1024E00008432168C860216AE069084321680860E0
:1024F0002068016801221143016066642020687031
:102500002663AE70002070BD00800002FFB5054656
:1025100004464035687883B0202872D10C98002892
:1025200070D00D9800286DD02878012869D001203E
:10253000287002F063F80746012200901923D103A6
:10254000204602F0C5FB002875D12220687040208B
:10255000A870002666640C9860620D9860856663BA
:102560000E980090019704A90EC9204602F030FB96
:10257000002804D0606C2E7004285FD05BE0618D71
:102580003748FF2905D9FF22228501231B06009029
:1025900006E0618D21850090208D0123C2B25B068B
:1025A0002046049902F080FB009700220421204677
:1025B0000E9B02F08DFB00283DD12068416A606AC5
:1025C000421C62620170208D401E81B22185608DA7
:1025D000401E6085002921D1608D00281ED0009703
:1025E0000022802120460E9B02F072FB002822D19F
:1025F000608DFF2807D9FF22228501231B06009644
:1026000008E02AE01AE0608D20850096208D0123E5
:10261000C2B25B062046049902F046FB608D00289A
:10262000C2D13A4620460E9902F076FB002807D028
:10263000606C042802D0032007B0F0BD0120FBE746
:1026400021682020C86121684A68064B1A404A6008
:102650006870AE702E700020EEE70220ECE70000FC
:102660000024008000E800FEFFB505460446403522
:10267000687883B0202876D10C98002874D00D9803
:10268000002871D0287801286DD00120287001F031
:10269000B5FF0746012200901923D103204602F01E
:1026A00017FB002853D1212068704020A870002615
:1026B00066640C9860620D98608566630E98009061
:1026C000019704A90EC9204602F0B8FA002804D0E8
:1026D000606C2E7004286AD039E0608DFF2805D91F
:1026E000FF22228501231B06009606E0608D2085CF
:1026F0000096208D0123C2B25B062046049902F0A9
:10270000D3FA3A4620460E9902F02DFB002803D05A
:10271000606C04284BD01AE0606A411C6162216839
:1027200000788862608D401E6085208D401E000408
:10273000000C208524D1608D002821D00097002234
:10274000802120460E9B02F0C3FA002802D003200D
:1027500007B0F0BD608DFF2807D9FF222285012335
:102760001B06009608E024E021E0608D208500969D
:10277000208D0123C2B25B062046049902F094FA30
:10278000608D0028BDD13A4620460E9902F0C4FA69
:102790000028BDD120682021C16120684268064B15
:1027A0001A4042606970AE702E700020D0E70120A0
:1027B000CEE70220CCE7000000E800FE704770473B
:1027C00002480168491C0160704700005000002069
:1027D00010B506480168022211430160032000F091
:1027E00007F800F007F8002010BD000000200240AC
:1027F0000020704710B50B48816B020411438163C0
:1028000000F086FB00F07CFB0748026808210A43C1
:10281000026002688A43026000F06AFB01F0C8FDB2
:1028200010BD00000010024000200240002809DB1B
:10283000C106C90E0120884003490860BFF34F8FCD
:10284000BFF36F8F7047000080E100E0002805DBD8
:10285000C106C90E01208840014908607047000088
:1028600000E100E010B50BF00FFB10BDBFF34F8F80
:1028700004490348C860BFF34F8F00BFFDE7000065
:102880000400FA0500ED00E00168FF30FF3001228E
:1028900002304031C266088B10430883088B022245
:1028A000104308830020704710B54D230122DB0040
:1028B00001681A5013246401002300190370403189
:1028C000888A10438882888A0222104388821846A8
:1028D00010BD704710B50C0604D54907090E08183D
:1028E000283003E049010818FF30293099B2002A46
:1028F00006D0012202730181190C4181002010BD14
:1029000000220273C180F9E74A01121810B5FF30A6
:10291000FF300230D26B006F0AF04FF810BD4A0151
:10292000121810B5FF30FF32FF3001320230D26B87
:10293000006F0AF0ACF810BD70B504000DD0112086
:102940000321400125186972204600F0A2FA2046B2
:1029500000F00EFA0020687270BD012070BD10B545
:10296000112149014418217A012907D0012121723E
:1029700000680AF09FFE0020207210BD022010BDEA
:1029800070B54B07CD095B0F5901091801220024CE
:10299000002D02D028314A7002E0FF3129314C70FD
:1029A0000B7011235B01C5182B7A012B06D02A72FC
:1029B00000680AF0FFFD2C72002070BD022070BD7F
:1029C00070B50A074368120F9A4201D9012070BD01
:1029D0004B07CD095B0F5901091801220024002D76
:1029E00002D028314A7002E0FF3129314C708C70DE
:1029F0000B7011235B01C5182B7A012B06D02A72AC
:102A000000680AF077FE2C72002070BD022070BDB5
:102A1000002070474907090E0818FF300130406C4C
:102A20007047F8B54F07CD097F0F790109180126C6
:102A30000024002D02D028314E7002E0FF312931F0
:102A40004C700F700A61CB704A78002A00D0CF8199
:102A5000022B00D10C711122520185182A7A012A09
:102A600006D02E7200680AF07DFC20462C72F8BD5C
:102A70000220F8BD70B54D070C466D0F69010918AD
:102A8000FF3129318B614A610022CA614A700D70A1
:102A9000620700680AF082FE002070BDF8B50446A7
:102AA0004A074068520F0D46824201D90120F8BD05
:102AB000E90900270120002904D051010919283112
:102AC000487004E069010919FF3129314F7088709D
:102AD0000A7011225201A618327A012A06D03072E9
:102AE00020680AF03FFE680702D007E00220F8BD28
:102AF00023210901611820680AF0FAFD37720020CD
:102B0000F8BD70B54D070C466D0F690109180B64CF
:102B1000CA6300224A64012228314A700D7062079C
:102B200000680AF03BFE002070BDF8B5044600685E
:102B30000AF010FF000402D5204604F029FE2068A8
:102B40000AF008FF40050DD5206840308188012239
:102B5000920291438180204600F036F90021204600
:102B600000F064F920680AF0F5FE400406D52068FC
:102B700040308188012292039143818020680AF0CD
:102B8000E9FE800406D52068403081880122520386
:102B90009143818020680AF0DDFEC10413204001CA
:102BA00004260827251800291CDA206840300188EF
:102BB000B1430180206840300188B9430180287802
:102BC000012805D10020287001462046FFF781FE2C
:102BD000204600F00DF92068403081880122120360
:102BE0009143818020680AF0B5FE000519D5206860
:102BF00040300188394301802068403081880122BB
:102C0000D2029143818020684030018831430180A5
:102C100020680AF09FFEC043C00402D5204600F0A1
:102C200053F920680AF096FE00060BD52068403064
:102C30008188802291438180287800281ED02046F8
:102C400000F042F920680AF085FE800509D5206869
:102C5000403081880122520291438180204600F059
:102C6000DDF820680AF076FEC00506D52068403001
:102C70008188FF22013291438180F8BD2068403075
:102C80000188314301802068403001883943018048
:102C90000120287020684030808A3C21800808404C
:102CA00099218900085101212046FFF712FEC9E74A
:102CB000F0B585B0040007D0112040012618707AC5
:102CC0000025002803D006E0012005B0F0BD3572D4
:102CD000204600F061F80320707220680AF0FEFCC4
:102CE000002101270CE048010019024620325772EA
:102CF0001172C186D5728563C563491CC9B205646A
:102D000060688842EFD800220EE0500100190146A9
:102D1000FF3121314D720A72FF300130CD7285636F
:102D2000C563521CD2B2056460689042EDD821465A
:102D3000142210316846FDF737FA0FCC103C0AF028
:102D4000C0FC002802D002207072BDE72420055587
:102D50007772E069012802D12046FFF7A5FD206ABD
:102D6000012802D12046FFF78FFD0020ADE70000CB
:102D700010B500680649884208D10648816B0122D7
:102D8000D205914381631F20FFF750FD10BD000065
:102D9000005C00400010024010B5006808498842FD
:102DA0000DD10848816B0122D205114381630022B5
:102DB00011461F20FFF756FD1F20FFF747FD10BDEE
:102DC000005C00400010024070B504468068012598
:102DD000022801D0FEF796FDFF34FF340234294665
:102DE000206F09F05DFF206F09F015FF70BD000036
:102DF00010B504468069002806D0074801690622FC
:102E00009143016109F0B4FAFF34FF340234206FBA
:102E100009F02EFF10BD000000ED00E0FF3010B5FE
:102E2000FF300230006F09F02AFF10BD10B51122EB
:102E300052018418227A012A09D001222272242206
:102E4000115400680AF09EFD0020207210BD02207F
:102E500010BD10B5272109010A5823210901411885
:102E6000104609F02AFF10BD70B50446112040013C
:102E70002518287A01280AD00120287220680AF033
:102E800011FC20680AF054FD0020287270BD022059
:102E900070BD70B50546112040012C18207A01281C
:102EA0000DD00120207228680AF018FC28680AF06A
:102EB00070FD00210028217203D0012070BD022086
:102EC00070BD002070BD000010B50446FF30FF301B
:102ED0000230006F09F03CFFA069002804D00348CD
:102EE000016906221143016110BD000000ED00E000
:102EF00002480168021511430160704700700040EC
:102F0000024801684215114301607047007000409B
:102F10000248016810229143016070470070004030
:102F2000094B1A689208920002431A600748026926
:102F300004239A430261012903D040BF20BF20BF70
:102F4000704730BF704700000070004000ED00E0A7
:102F50000A4B1A689208920002431A6008480369F3
:102F6000042213430361012906D040BF20BF20BFC4
:102F7000016991430161704730BFF9E7007000407B
:102F800000ED00E0F8B5044600785E4D800672D58D
:102F90005C4E0027403EB06BC00004D4B06BA90566
:102FA0000843B063012758480168C90511D4016876
:102FB000821511430160FFF72BFA009005E0FFF73F
:102FC00027FA0099401A642837D84F480068C0058E
:102FD000F5D532680321090560680A400140914235
:102FE00008D08103890F032904D13168890301D5F1
:102FF0000120F8BD2A69032109040A4022D00840B3
:1030000090421FD0207880061CD528692A69884301
:103010000121C9040A432A612A698A432A61286175
:10302000C0050FD5FFF7F4F9009008E0FFF7F0F9BD
:103030000099411A3548814201D90320F8BD286919
:103040008005F3D561688803800F032805D13268B5
:103050000005824301400A43326028690322616807
:103060001204114008432861002F04D0B06B0121E5
:1030700009078843B0632078C00705D0E868A168D5
:10308000800880000843E8602078800705D5E8685C
:103090000C218843E1680843E8602078400706D5A2
:1030A000E86803218902884321690843E8602078A1
:1030B000000706D5E86803210903884361690843CE
:1030C000E8602088C00506D5E86803210904884324
:1030D000A1690843E8602078400606D5E868012128
:1030E00089068843216A0843E8602078000606D5EF
:1030F000E868032189048843E1690843E860002007
:10310000F8BD00004010024000700040881300002D
:10311000F8B5054653480E460068C007C00FB042D8
:103120000AD25048016849084900314301600068EB
:10313000C007C00FB0426FD128784B4C800705D52F
:10314000E068F0218843A9680843E0602878C00758
:1031500052D06868022817D0032818D021680128A7
:1031600018D08905002957DAE168890889000143E8
:10317000E160FFF74DF969680746022912D003297B
:103180001CD0012926D033E021688903EAE72168B1
:103190008901E7E74907E5E7FFF73AF9C11B33483B
:1031A000814223D8E0680007800F0228F4D123E091
:1031B000FFF72EF9C11B2D48814217D8E0680007A0
:1031C000800F0328F4D117E0FFF722F9C11B27482D
:1031D00081420BD8E0680007800F0128F4D10BE092
:1031E000FFF716F9C11B2148814201D90320F8BD20
:1031F000E0680007800FF3D11A480168C907C90FBA
:10320000B1420BD9016849084900314301600068A7
:10321000C007C00FB04201D00120F8BD2878400798
:1032200006D5E068072109028843E9680843E060A1
:103230002878000707D5E0680721C9028843296973
:10324000C9000843E06000F017F8E168084A090681
:10325000090F515CC840074908600320FFF7C8FA0E
:103260000020F8BD0020024000100240881300003A
:10327000AC2901084C00002010B5184AD1680C2078
:10328000084004280BD0082810D00C2810D0506813
:103290000004410F0120C003491C884010BD106884
:1032A000C00601D50E4810BD0E4810BD0E4810BD19
:1032B00088020E4B000F185C0902D368890F491C65
:1032C000DB0301D5084A05E01268D20601D5044A9D
:1032D00000E0044A5043FCF70DFF10BD001002400F
:1032E00000093D000024F40000127A00BC29010806
:1032F000F8B504460078FF4DC0074CD0E8680007D9
:10330000800F022807D0E8680007800F032809D142
:10331000E868C00306D5286880033CD560680028AB
:1033200075D038E0012062680004824203D1296828
:103330000143296011E0052301211B0489049A42FD
:103340002A6802D10A432A60F1E782432A602A6888
:1033500002400092286888432860606800280DD0E9
:10336000FFF756F80646E44F04E0FFF751F8801BDC
:10337000B8427DD828688003F7D50CE0FFF748F8FD
:103380000646DD4F04E0FFF743F8801BB842F0D853
:1033900028688003F7D42078800741D5E8681F2784
:1033A0000007800F3F02012807D0E8680007800F60
:1033B000032809D1E868C00306D42868400717D558
:1033C000E068012823D113E0E068002817D02968BD
:1033D0000922914301432960FFF71AF8064604E0E9
:1033E000FFF716F8801B0228C3D828684007F7D5D6
:1033F00068682169B84309020843686010E02868DA
:10340000400840002860FFF703F8064605E090E01A
:10341000FEF7FEFF801B0228ABD828684007F7D4D0
:103420002078C00676D5E868B44E0007800F0BD030
:10343000E06900285DD02868FF2101310843286039
:10344000FEF7E6FF074644E02868800502D5E069FC
:1034500000286ED0606A69683140884212D905F050
:1034600089F90028AED16868616AB043084300E07A
:10347000E4E068606868218C0002000A09060843DD
:1034800068600FE06968B143014369606868218C36
:103490000002000A090608436860606A05F06AF9DC
:1034A00000288FD1606A410B0120C003491C88406D
:1034B000E968934A0906090F515CC84091490860C0
:1034C0000320FFF795F925E0FEF7A2FFC01B0228B5
:1034D0008AD828688005F7D56868616AB0430843D0
:1034E00068606868218C0002000A09060843686069
:1034F00010E02968FF20013081432960FEF788FF32
:10350000064604E0FEF784FF801B022884D8286862
:103510008005F7D420787C4E000723D56069002809
:10352000306910D0012108433061FEF771FF074672
:1035300005E009E1FEF76CFFC01B02287ED8306968
:103540008007F7D50EE0400840003061FEF760FFCD
:10355000074604E0FEF75CFFC01B02286ED8306906
:103560008007F7D42078400761D5A86B0027C000FA
:1035700005D4A86B012109070843A8630127634804
:103580000168C90511D40168821511430160FEF775
:103590003FFF009005E0FEF73BFF0099401A6428CA
:1035A0004CD85A480068C005F5D5FF20A268013004
:1035B000824203D131690143316111E00121890265
:1035C000002A07D005231B029A4203D132690A431D
:1035D0003261EFE73269824332613069884330619A
:1035E000A06800280ED0FEF713FF009006E0FEF75B
:1035F0000FFF0099411A404881421FD83069800569
:10360000F5D50DE0FEF704FF009006E0FEF700FFA1
:103610000099411A3848814210D830698005F5D4A4
:10362000002F04D0A96B012000078143A9632078F3
:10363000800630D53649A0694A1400E07DE00028B4
:1036400016D0AB6801200343AB606B6B03436B6325
:10365000086A10430862FEF7DBFE064604E0FEF748
:10366000D7FE801B022868D8A8688007F7D512E02B
:10367000A86840084000A860086A90430862FEF706
:10368000C7FE064604E0FEF7C3FE801B022854D89E
:10369000A8688007F7D4A06A002853D0E968090712
:1036A000890F032950D0012636060228286805D044
:1036B000B0432860FEF7ACFE044640E0B04328600B
:1036C000FEF7A6FE074604E0FEF7A2FEC01B022896
:1036D00033D828688001F7D4216BE06AEA68084390
:1036E000616BFD231B049A4311430843E86028687B
:1036F00030430FE0001002408813000000E000009B
:10370000AC2901084C00002040100240007000402D
:10371000000001402860FEF77BFE044604E0FEF74F
:1037200077FE001B022808D828688001F7D509E039
:10373000FEF76EFE001B022801D90320F8BD2868A1
:103740008001F5D40020F8BD0120F8BD0068890093
:103750005030081800687047006889005030081819
:103760000260704730B5014620310A78012A15D031
:1037700001220A7002234B700468CA236362046842
:103780005323636203689C6820252C439C60006877
:10379000FF2343624A700020087030BD022030BD14
:1037A00010B508F095FE10BDF8B505460446203565
:1037B000287801281DD00120287002206870226816
:1037C000CA205062226853205062FF200130002638
:1037D000FF2781421CD121688A6882438A60206861
:1037E00081680122120391438160FEF711FE00906F
:1037F00009E00220F8BDFEF70BFE0099411A7D207A
:10380000C00081421BD82068C068C007F3D020E008
:10381000206881680122520291438160206881689A
:10382000120191438160FEF7F3FD00900DE0FEF779
:10383000EFFD0099411A7D20C000814205D9206822
:103840004762032068702E70F8BD2068C06880074A
:10385000EDD520684762012068702E700020F8BD09
:1038600010B500680B464068C021C9430140000202
:10387000000ECC04D870E40E5C708C06A40E090413
:10388000490F9C701970002A0AD104F0ABFFD87060
:10389000587804F0A7FF5870987804F0A3FF987048
:1038A000002010BD30B50B460168896A5960016877
:1038B00009694904490C9960006804680F48214669
:1038C000014088024D04800E18706D0E49065D702F
:1038D000490E99706102490E40242140D970002A96
:1038E0000AD104F07FFF1870587804F07BFF5870FD
:1038F000987804F077FF9870002030BD7F7F7F00BC
:1039000070B5040005D0254620356878002802D01F
:1039100006E0012070BD00202870204600F042F82B
:10392000022068702168CA204862216853204862DA
:10393000204604F06AFFFF210028206803D041627E
:1039400004206870E5E78268154B1A40826022689F
:1039500090686368A66918432369334318439060ED
:103960002268E06810612068026923891B041A43F9
:1039700002612068C26880239A43C2602068C26CDA
:1039800092089200C264E269606902432068C36CD5
:103990001A43C2642068416201206870002070BD33
:1039A000BFFF8FFF00B597B00420009000200A9061
:1039B000FF20013002906846FFF79AFC002801D0F2
:1039C000FDF7A0FF20200E90C0020F900EA8FFF779
:1039D000D9FA002801D0FDF795FF084801690122B6
:1039E000920411430161002211460220FEF73AFFC2
:1039F0000220FEF72BFF17B000BD00004010024070
:103A0000FEB506460446203630780B46012842D0E3
:103A1000012030700220707020681D46002720357C
:103A20008068002A39D0400655D5187804F0DAFEAF
:103A3000287804F0D7FE1978987809040843597853
:103A4000DA78090212041143084329780906084369
:103A5000D969084359690843054699695868084374
:103A600000902168CA204862216853204862FF20E4
:103A70005A6A0130802182424AD122689368834386
:103A800093602268D0680840FF388238D060FEF723
:103A9000BFFC019029E00220FEBD400600D4DF708B
:103AA000187804F0A7FE0204587804F0A3FE000280
:103AB0000243987804F09EFE0243D8780004024343
:103AC000287804F097FE00060243D869024358693B
:103AD00002431546C1E7DF70AAE7FEF799FC01999A
:103AE000411A7D20C00081422AD82068C068C007E2
:103AF000F3D02068C5612168009848642068816817
:103B0000FF2201321143816020688168120130E098
:103B10002068826801235B029A4382602068C26841
:103B20000A401D495118C160FEF772FC01900EE079
:103B3000FEF76EFC0199411A7D20C000814206D932
:103B40002168FF204862032070703770FEBD206836
:103B5000C0688007ECD520680562216800988864F9
:103B600020688168012252021143816020688168C7
:103B700012011143816009480268012149040A4386
:103B8000026082680A4382602168FF204862012047
:103B9000707037700020FEBD7FFDFFFF0004014004
:103BA000F8B505460446203528780B46012815D07F
:103BB00001202870022068705878002A10D004F084
:103BC00011FE987804F00EFED8789E780004064323
:103BD0005878197800024903084316E00220F8BD1E
:103BE000C10603D5EF2108400A305870D87804F098
:103BF00001FE0604587804F0FDFD000206439878A3
:103C000004F0F8FD06431878400306432168CA20F3
:103C10004862216853204862204604F0F6FD0027E0
:103C2000002811D110480640206846602068C1680D
:103C300080229143C1602068806880060CD42046B1
:103C400000F08CF8002807D02168FF20486204208B
:103C500068702F700120F8BD2168FF2048620120A4
:103C600068702F700020F8BD3FFFFF00F8B50646D2
:103C70000446203630780D4601280ED001203070E1
:103C800002207070206800278068002A07D0400654
:103C90001AD5287804F0A6FD17E00220F8BD4006EA
:103CA00000D4EF70287804F0A5FD0204687804F0D1
:103CB000A1FD00020243A87804F09CFD0243E878CD
:103CC0000004024300920BE0EF702978A878090401
:103CD00008436978EA780902120411430843009006
:103CE0002168CA204862216853204862204604F0B7
:103CF0008CFD00281FD118490098084021680860F1
:103D00002068816801229204914381602969E868F2
:103D1000084321688A68104388602068C16880224F
:103D20009143C1602068806880060CD4204600F072
:103D300015F8002807D02168FF2048620420707021
:103D400037700120F8BD2168FF20486201207070A3
:103D500037700020F8BD00007F7F7F0070B50446FB
:103D60000068C168A0229143C160FEF751FB7D2627
:103D70000546F60006E0FEF74BFB401BB04201D9BA
:103D8000032070BD2068C0688006F4D5002070BD97
:103D900070B5040006D025464035687C0026002812
:103DA00002D005E0012070BD2E74204600F032F8EC
:103DB0000220687420680168402291430160A16874
:103DC000606822690843E168114308436169012280
:103DD0000843A169520211400843E1690843216A7E
:103DE0000843A16A084321680860A0690421000C07
:103DF0000840616A0843216848602168E06A0861F8
:103E00002068C16992009143C161666501206874B0
:103E1000002070BD7047F8B504460027684607804B
:103E200026464036707C012802D0707C22287ED144
:103E300000290CD0002A0AD0002B08D0307C0128A1
:103E400075D001203074707C012802D003E001207D
:103E5000F8BD322070746765A263A387E38721638E
:103E6000A386E386A764E7640125A06A6D03A842E0
:103E700007D120680168A9430160206801682943CF
:103E8000016020680168490603D40168402211439B
:103E900001600121FF20E268C90205308A426168A1
:103EA00066D1002904D081420CD1E08E012809D1CD
:103EB000206B21680088C860206B801C2063E08E26
:103EC000401EE086E08E002843D1A06AA84246D179
:103ED0002068016801221203114301603FE020685D
:103EE000C068A16B0880A06B801CA063B0E00022BA
:103EF00002212046069B06F025F800287DD1206B84
:103F000021680088C860206B801C2063E08E401E02
:103F1000E086E08E002808D1A06AA84205D120687A
:103F200001680122120311430160002200E0CCE08D
:103F300001212046069B06F005F800287FD1206865
:103F4000C068A16B0880A06B801CA063E08F401E3E
:103F5000E087E08E0028CAD1606800287BD100226B
:103F600001212046069B05F0EDFF002867D1B6E74A
:103F7000002904D081420BD1E08E012808D1206BAA
:103F8000411C216321680078C860E08E401EE086F5
:103F9000E08E002845D1A06AA84205D120680168BA
:103FA0000122120311430160002201212046069BD9
:103FB00005F0C8FF002842D12068C068A16B0870D6
:103FC00046E0002202212046069B05F0BBFF0028A8
:103FD00035D1206B411C216321680078C860E08ED8
:103FE000401EE086E08E00280AD1A06AA84207D1D0
:103FF000206802680121090300E020E00A43026012
:10400000002201212046069B05F09CFF002816D1C6
:104010002068C268A06B411CA1630270E08F401E43
:10402000E087E08E0028CCD16068002813D1002200
:1040300001212046069B05F085FF002802D00320C1
:10404000F8BD08E02068C168A06B421CA263017043
:10405000E08F401EE087A06AA8420FD10022012114
:104060002046069B05F06EFF002802D0606D0221FD
:104070000EE02068C0686946088008880122802117
:104080002046069B05F05EFF002804D0606D2021CD
:1040900008436065D3E701207074A06AA84211D17B
:1040A00020688168C943C9060CD4616D022211439E
:1040B00061650168A94301602068016829430160C6
:1040C0003774C4E637740020BAE70220B8E700006E
:1040D00010B51248017800291ED101220270114842
:1040E0000F49016000210164C161D3078161436010
:1040F00082638160C160016207234162C363026120
:10410000C1620422426101630748416B42151143B9
:1041100041630448FDF7A6FE10BD000058000020D2
:10412000002401403C070020001002407CB51E49DD
:10413000064609780020002934D01C484168C9434C
:104140000907FBD41A4C606B651528436063002196
:104150001848FDF7E3FD184800901848019069469B
:104160001448FDF731FEA0140190694600961148ED
:10417000FDF72AFE0F48FDF7B7FF7D21C9000D4866
:10418000FDF753FF0B48FDF769FE0A4980B20A6844
:104190009368022633439360096803220A60616BC7
:1041A000A94361637CBD00005800002000700040FE
:1041B000001002403C070020FFFF07000110000034
:1041C000014600200A0A00D00820084A114201D006
:1041D00004221043064A114201D002221043054A2C
:1041E000114201D00121084370470000F0F00000A7
:1041F000CCCC0000AAAA000038B50B231B07C518B9
:10420000114B0FD01C152D1B18D02D1B19D0A542FA
:10421000DD6A05D108242543DD62DB6A234007E01F
:104220008024F8E7DC6A01252C43DC62DB6A2B4042
:10423000009311601146FEF71DF838BDDD6A0224B7
:10424000E9E7DD6A0424E6E70010024010B5FFF755
:10425000B7FF810003484158002901D0002088475A
:1042600010BD00003C06002070B51C4615460E46E9
:104270000846FFF7A5FF0A49002C0DD080000C501E
:10428000304603F02BF8044600222946FEF7EAFAEE
:104290002046FEF7DBFA70BD002280000A5070BD98
:1042A0003C06002010B5D2B2FEF7ABF810BD0000FE
:1042B00070B500240E48FFF739FF0E4E0E4D010079
:1042C00013D00E483246008B5043FBF713FFB04229
:1042D00001D9FE2409E0A84207D3401BFE21484330
:1042E0004B210901FBF706FFC4B2204670BD000058
:1042F00000000244B80B0000080700006000F81F2F
:1043000003494A690869496A5040484070470000BB
:104310004000F81F70B51148FFF708FF104C01006E
:104320001AD0208B0F4A5043FBF7E4FE05460E4897
:10433000FFF7FCFE68430B49FBF7DCFE618B0522AF
:10434000401A12035043E28B511AFBF7E9FE0F218A
:104350004902401880B270BD0025E8E70000024421
:104360006000F81FB80B0000000004480F494B6ABA
:104370000A69D218120EC2714B6A0A69D218120C5D
:1043800082710A8A8B8CD218120A42710A7C8B8C39
:10439000D21802714A69120EC2704A69120C8270F8
:1043A0008A8A120A4270097D017070474000F81F26
:1043B000F0B587B014216846FBF70FFF224CE06A86
:1043C00001210843E062E06A08400590E06A0225A6
:1043D0002843E062E06A28400590E06A0426304302
:1043E000E062E06A30400590E06A80273843E0628E
:1043F000E06A694638400590032001900020029051
:104400001248009005200007FDF734FF1048009087
:1044100069461048FDF72EFF69460F48FDF72AFF51
:1044200069460E48FDF726FFE06A40084000E0625A
:10443000E06AA843E062E06AB043E062E06AB84341
:10444000E06207B0F0BD000000100240FF9F0000D6
:10445000FFFF00000004005000080050001C005046
:1044600010B50C4C6078002812D1FFF731FE0A48D5
:104470000068804700F022FA00F0C8F807F0AAFDB3
:104480000020FCF74DFD0120FCF74AFD0120607083
:1044900010BD0000580000202C29010870B50C4602
:1044A000054600210448FFF751F928600121024820
:1044B000FFF74CF9206070BD7C06002010B50C465B
:1044C000024600210448FFF747F92246012102482D
:1044D000FFF742F910BD00007C06002070B5410EC8
:1044E000C0017D220023FBF72FFE054600F086F871
:1044F000044600E000BF00F081F8001BA842F9D399
:1045000070BD10B586B00446694605A800F00AF8EB
:10451000830A8005800D00F0ABF92080184606B0B4
:1045200010BD000070B505460C4600222248FFF77A
:10453000B9F90022294620486668FFF791F9002260
:1045400021461D48FFF7AEF96068B042F1D1E87826
:104550001A4A01465043C01C8308880729D01848CE
:1045600069783D220E4651430A463C3A7100891E45
:10457000C840D10F80078918800F4910081AC01849
:10458000A978401E08180F493C2248436178E1236E
:10459000514322781B015A438918A2781018081831
:1045A000810D83026068084C0022201A18185141BE
:1045B00070BD0648D4E700007C060020B505000069
:1045C000A0AA990080510100FF030000505544004B
:1045D000032070470148006870470000C8060020AB
:1045E00000B587B0694605A8FFF79CFF0249096836
:1045F00007B0401A00BD0000C806002000B587B013
:10460000694605A8FFF78EFF07B000BD10B5084C3E
:10461000207800280AD100F04DF8FF21013105482B
:10462000FFF7C2F800F076F80120207010BD0000FE
:10463000540000207C06002010B50D4C0021042001
:1046400000F014FF01200B4940044861216888688C
:10465000C0040BD5C868C00508D5C86880221040C2
:10466000FF388238C8602046FFF79AF810BD000076
:104670007C0600200004014070B50446FFF7B0FF3F
:10468000211A0B4D0220285EC01C814201D9002155
:1046900000E00121042000F0E9FE00F0BFFE012847
:1046A00002D10220285E241A204600F03FF870BD97
:1046B0005400002010B51449144886B0002412C0DC
:1046C0001F21016084600461114944614160083820
:1046D000FFF716F96946CC7501204875887508758D
:1046E000002205A90948FFF75BFA0094019404949D
:1046F0000022694605480394FFF7B8FA0348FFF71C
:1047000031F806B010BD0000002800407C060020F3
:10471000FF03000010B5044C2046211D1830FFF7A0
:1047200001FF206010BD0000C8060020F0B587B072
:10473000044614223F4901A8FBF736FD3D48503896
:10474000406E009000F07EF83B4802993B4A401AC8
:10475000A105890D081887B2A10A684680785342DE
:1047600002E08918401C80B29942FAD26A46157953
:10477000E122120102E0891A6D1CADB29142FAD217
:104780006A46547902E0641CA4B23C393C29FAD24E
:10479000927951188EB20121890203E07A1A761CAF
:1047A00097B2B6B28F42F9D203E03C3E641CB6B277
:1047B000A4B23C2EF9D203E03C3C6D1CA4B2ADB2D5
:1047C0003C2CF9D203E0183D401CADB280B2182D4C
:1047D000F9D26946C978890769464A7827D01849C5
:1047E000491E515C814202D2FBF784FC0846124903
:1047F000CA1B10492C394A60052252068A618E7004
:104800004C700A460D70203210706846C079C8702E
:104810000020C861FF2248610132C8604A62086115
:10482000024608462438FFF7EBF807B0F0BD04490C
:104830000C31D5E7CC060020FF03000080AEFEFF60
:10484000C529010810B5FF2101310748FEF7ACFF6B
:1048500005480168C86880221040FF388238C86067
:1048600002499002486110BD7C060020000401400E
:10487000810A7D228005D200800D50435143800A79
:104880000818704710B5410EC0017D220023FBF7C8
:104890005BFC10BD01B582B00020C0430090012335
:1048A00001AA02A90448FFF7B6FA002801D0FDF7D3
:1048B000DDFF684680880EBDE406002010B51C4868
:1048C0001A4901601C4A1B4B0021126803E0520880
:1048D000491C072901D29A42F9D84A078B07D20FFF
:1048E000DB0F52011B011A43C90700D008210A43FC
:1048F000C2610021816001614161FF22C160053216
:1049000081624260012201625202826141620B486F
:10491000416B8214114341630548FFF739FA0028BF
:1049200001D0FCF7EFFF00F00BF810BD00300140A4
:10493000E4060020809698004C0000200010024001
:1049400030B585B014216846FBF747FC0220019082
:1049500000240320039002946A46082104940F481F
:10496000FFF74AFC05252D076A4640212846FFF738
:1049700043FC6A4680212846FFF73EFC0120029452
:10498000C40301906A4621462846FFF735FC012200
:1049900021462846FFF786FC05B030BD00040050D4
:1049A000F8B5354C074660680025E030007C0E46BF
:1049B000022802D03148406B804700F085FD002876
:1049C00006D0022000F097FD002000F072FD0125C6
:1049D0006068E030007C012819D100F07BFD0028E0
:1049E0000AD0002000F08AFD002000F07DFD00F0DC
:1049F0006FFD002804D13CE000F06AFD002806D0DD
:104A0000002000F079FD002000F06AFD31E0002D6B
:104A10002FD101211A4889024118212322785B01F4
:104A2000C0182025097D002A02D0012915D015E0E3
:104A3000012900D14777384600F046FF6068FF3013
:104A40008130406C07F01EFD0E49496B884210D33F
:104A50000C48183007F0DEFD08E04677304600F0DD
:104A600033FF6068E030007C022802D06078284381
:104A7000607009F027F8F8BD7C0F00202C29010890
:104A8000FC0A00207C0E002000BFFDE710B50248A4
:104A9000FDF7C4FC10BD0000C007002010B5144C89
:104AA00086B0E16A02200143E162E16A03900140BD
:104AB0000591032109020020009102901221042097
:104AC0000191049069460B48FDF7D4FBA16B0120CE
:104AD00040050143A163A16A0143A162A16A814328
:104AE000A162002211461720FDF7BCFE06B010BDE2
:104AF000001002400004005001688A69D243920706
:104B000001D400228A6200688169C943C90703D0C1
:104B100081690122114381617047000010B50C4882
:104B2000FDF796FC00280ED109480A494160002192
:104B300001228160C260016207490160FFF7AEFF98
:104B40000348FDF789FC0248FDF782FC10BD000018
:104B5000C0070020563EA11000540040F7B504469F
:104B600000680E468069C043C0062CD42027254625
:104B7000403520688069C04380060FD5701CF8D08E
:104B8000002E05D0FFF73AFD0299401AB042F0D945
:104B90006F700020A87028700320FEBD21681020CF
:104BA000C8612068C7612046FFF7A6FF20684168FA
:104BB000064A11404160042060646F700020A870B4
:104BC00028700120FEBD0020FEBD000000E800FEB0
:104BD000F8B50446164618481D46DAB20090079FFD
:104BE0000023204600F060F83A462046069900F07F
:104BF000BAF8002803D0606C04281BD018E02846BF
:104C0000F5B2012809D02168300A88623A46204668
:104C1000069900F0A8F80028EDD120688562009779
:104C2000002240212046069B00F052F8002800D0C8
:104C30000320F8BD0120F8BD00200080F8B504462F
:104C4000164618481D46DAB2C3020090079F204658
:104C500000F02AF83A462046069900F084F8002829
:104C600003D0606C04281BD018E02846F5B2012858
:104C700009D02168300A88623A462046069900F039
:104C800072F80028EDD1206885620097002280210B
:104C90002046069B00F01CF8002800D00320F8BD39
:104CA0000120F8BD00200080F0B50668059C7568FD
:104CB000064F600D384385438805800D1104084375
:104CC0001843204305437560F0BD0000FF63FF03F8
:104CD000F8B51C4617460E46054611E0601C0FD07D
:104CE000002C05D0FFF78AFC0699401AA04207D98C
:104CF0002020403568700020A87028700320F8BD7F
:104D0000286881693046884304D00020B842E5D045
:104D10000020F8BD0120F9E770B516460D4604469F
:104D20001AE0324629462046FFF718FF002801D036
:104D3000012070BD002D04D0FFF760FC801BA8424D
:104D40000AD9616C20200143616440346070002006
:104D5000A0702070032070BD20688069C043800669
:104D6000DFD4002070BD70B516460D4604461CE029
:104D7000324629462046FFF7F1FE002801D00120E7
:104D800070BD681C11D0002D04D0FFF737FC801BCC
:104D9000A8420AD9616C20200143616440346070EC
:104DA0000020A0702070032070BD20688069C0437F
:104DB0008007DDD4002070BD044909690A4610321D
:104DC000824201D108467047001D70470013002041
:104DD00070B500231D460EE0040F0A2C02D25E00BF
:104DE000303401E05E0037348C555C0064180001FB
:104DF0005B1C6570DBB29342EED370BD052805D015
:104E0000082803D00A2801D00020704701207047ED
:104E100010B50648002101710549497A41715038A1
:104E2000417F503000F030FA10BD000040040020F7
:104E30003827002010B5002000F03EF910BD00001A
:104E4000F0B5ADB004460E4668460DF037FAB42210
:104E500069465B48FBF7A8F959496846FCF75CFBD3
:104E6000574858226946B430FBF79EF9544910223E
:104E7000891D54480DF08CFB5149524810221631BF
:104E800008300DF085FB4E492022263108460D469C
:104E9000E6300DF07DFB202229464B480DF078FBD3
:104EA000494A484D483A5178107909064018917896
:104EB000D27809041202891840184149103D4E3138
:104EC0006860084620220F46DE300DF061FB3E4848
:104ED0002022394620300DF05BFB3B48202239462A
:104EE00030300DF055FB364920226E310846EE3049
:104EF0000DF04EFBAE60EC60A16832488847E86870
:104F0000C06880470DF020FB2F48304950300160C9
:104F10002F4941602F4981602F49C160E9681030F5
:104F20000A6802604A684260096AC1600146052257
:104F3000103801F0D7F8244C02207034207021483A
:104F40006060204601F0F4FB0320207028461830F2
:104F50006060204601F0ECFB04202070A868007817
:104F60002071204601F0E4FB1D202070A8688078A5
:104F70002071204601F0DCFB08202070204680389C
:104F80006060803001F0D4FB092020700E48606022
:104F9000703001F0CDFB002020702071204601F020
:104FA000C7FB012002F040F8302020701420606020
:104FB000204601F0BDFB02F031F82DB0F0BD00003D
:104FC0003C080020040200205809002081730008DA
:104FD000A9730008FD7300083D740008F0B585B0A2
:104FE000002669462B4D0E71A8684078087228701B
:104FF00029480078002804D001A801F075FD05B00B
:10500000F0BD254C0520D83420702046666001F0A4
:105010008FFB0620207068686060204601F088FBE6
:105020000C202070204660386060603001F080FB0A
:105030000D202070204650386060503001F078FB21
:105040000E202070204640386060403001F070FB38
:105050000F202070204630386060303001F068FB4F
:10506000012727702771204601F062FB6846C77050
:1050700086700321417006703520207020460C3860
:10508000009901610C3001F053FBE86840698047EA
:10509000B5E70000F4010020F008002000B589B059
:1050A00001216846017001F0B9FA684600790028CC
:1050B00000D0012009B000BDF0B589B0064600243B
:1050C00068462746047001F0A9FA68460079B042A4
:1050D00023D03100124E134D04D001291DD00229D6
:1050E0001BD10BE06846077101F022FB002803D1B9
:1050F000F068816900200FE02C460EE0002800D007
:105100002C46022069460871684601F011FB002810
:10511000F2D1F068816902208847204609B0F0BDCD
:10512000F4010020FFFFFFFF30B504464079C1B015
:10513000032837D04649497A884231D1206800781F
:1051400001283DD005282BD10020FBF72BFF20683C
:10515000404C42780179120689188278C07812048E
:1051600000021018081820606420FCF7EBFFFDF720
:1051700053F8002000900220374D0290019503A9BA
:105180006846FCF7E5FF0A20FCF7DCFF2946022011
:105190002268FDF723F8FDF717F80020FBF7F2FE71
:1051A00041B030BD20790128FAD12068007800286C
:1051B00003D0012801D00228F2D1FFF77DFFEFE7ED
:1051C0000120FBF7EFFE0020FBF7ECFE20684078A3
:1051D00009F092FB0546E121206809014D438078E2
:1051E00009F08AFB3C2148432D182068C07809F05B
:1051F00083FB29187D20C00041431848184A0163E9
:10520000914200D20263016B11484038C16468309A
:1052100007F0B4F90E48283007F0C2F90C494C22C7
:1052200034396846FAF7C0FF094840380EC813A859
:10523000FBF730FF0648B42213A9F438FAF7B4FF9D
:105240000348F4380DF06CFA0120FBF79BFEA4E74D
:105250003827002030010020000F0808F00300204C
:10526000983A000010B50648002101710549497AB5
:1052700041715038417F503000F006F810BD0000F9
:10528000400400203827002030B585B00D46044684
:1052900009F0E0FC002802D0002005B030BD2079E4
:1052A00004A901F0C7FD01460020164A002904D0D8
:1052B000694608700290888120E0002D16D00121F7
:1052C00068460170617901712179818120680290BD
:1052D00008216846C17390684178684681736846C2
:1052E00001F0F6F80028D8D00120D6E7694608700A
:1052F00060790871207988812068029090684078F0
:105300008873ECE7F401002010B50B480168002910
:1053100004D000F014F800F056F810BD40680028E2
:1053200004D000F013F800F04FF810BD00F006F8BC
:1053300000F048F810BD000038020020704710B59A
:1053400001210020FDF7ECFD10BD000030B585B057
:10535000EFF3108472B614216846FAF73EFF03207B
:105360000190002005252D0702906A4680212846DD
:10537000FEF742FF6A4640212846FEF73DFF6A4697
:1053800008210D48FEF738FF01216A46C903284667
:10539000FEF732FF0948406880470CF09DFE084840
:1053A000016804221143016084F31088012108463A
:1053B000FDF7CEFD05B030BD000400502C290108DA
:1053C000007000407047704710B5EFF3108472B65C
:1053D0001048016801221143016001684907FCD5AA
:1053E0000168012212061143016001688901FCD5A0
:1053F000C16803221143C160C1680907890F0329ED
:10540000FAD1FFF79DFA04480068804784F31088BA
:1054100010BD0000001002402C290108EFF310819C
:1054200072B607480268002A01D0002005E04068F3
:10543000002801D0012000E0022081F3108870478D
:105440003802002010B5EFF3108272B6064B002927
:105450005C6803D0012903D1044300E084435C600D
:1054600082F3108810BD00003802002010B5EFF361
:10547000108272B6064B00291C6803D0012903D1A3
:10548000044300E084431C6082F3108810BD0000D8
:1054900038020020884200DC0846704710B5847846
:1054A000002C01D0002010BDFBF740FF10BD0020F4
:1054B0007047704770477047002101600846704789
:1054C00070477047002070470020704700207047E9
:1054D000002070470020704700207047022070476E
:1054E0007047002070477047704770470120704731
:1054F000704700207047704770477047704770478B
:1055000002207047F8B51546064600290DD01D4CFF
:10551000002002011319002208339F5C002F06D0DF
:10552000401CC0B20F28F4D10EE00120F8BD521C7F
:1055300092B2102AF1D300010419083404D01148A2
:105540000268002A02D002E00220F8BD046042682E
:10555000002A00D014600022226044602671AAB2A2
:10556000601DA5600CF071FC3046FFF747FC20730E
:1055700004486D1C8030816F4919816701F06AFF12
:105580000020F8BDEC110020FC21016000487047AC
:10559000EC110020002804D00349896F016000202D
:1055A00070470120704700006C12002010B50446BF
:1055B000FC22002105480CF060FC04490020086032
:1055C000486003480460002010BD0000EC1100207A
:1055D0003402002070B5002805D0184A11680B4627
:1055E000884203D108E0012070BD2146002904D083
:1055F0000C688442F9D100E00021834201D10368A4
:1056000013605468844200D15160002901D00268BF
:105610000A60002101600949836880318A6FD21ACB
:10562000521E8A67002807D0102200210CF025FCAA
:1056300001F010FF002070BD052070BDEC110020AE
:1056400010B5084802E0017B002906D00068002858
:10565000F9D101F0FFFE002010BD0468FFF7BAFF8A
:105660002046F4E7EC11002070B50948046809E011
:1056700020792568FFF7C2FB002802D02046FFF7FB
:10568000A9FF2C46002CF3D101F0E4FE002070BDF0
:10569000EC11002010B5002806D00146FC2203487A
:1056A0000CF0D3FB002010BD012010BDEC11002038
:1056B000F7B517481546046800200E46002A01D0A9
:1056C000002E15D10120FEBD00990A1AA168491CBF
:1056D0008A4215D321792954401CC7B22089611D03
:1056E00082B2E8190CF0B1FB207A2468C019C0B26C
:1056F000002CE9D106E020462568FFF76BFF2C4619
:10570000002CF8D13046FFF745FF0020FEBD000019
:10571000EC110020002804D008490022096802701A
:1057200005E0012070470A7B012A04D0096800299E
:10573000F9D10020704701210170FAE7EC11002037
:1057400010B50C4C01462269107D052801D30020BC
:1057500010BDA0680B7803704B784370C978C17096
:1057600000218170117D491C1175FFF725FBA06098
:10577000012010BD0013002001480069007D704722
:10578000001300201621016000487047E812002035
:1057900010B507490A69127D002A07D08A6849684E
:1057A000FCF7EAF9002801D0407810BD012010BDB7
:1057B00000130020F8B5134D064628690024077D24
:1057C0001CE0686801783170417871708178002937
:1057D00006D0286881683046884700F043F80BE01F
:1057E000027869460A7042784A70C078C87000F042
:1057F00039F86846FFF7A4FF641CE4B2BC42E0D36A
:10580000F8BD00000013002070B5094C0D46206063
:105810002046183800212061017560601422FF21A4
:10582000A0600CF02AFB216901204875E56070BD7D
:105830000013002010B504498A684968FCF79CF9F8
:10584000002800D0012010BD00130020044800698A
:10585000007D052801D3012070470020704700001B
:105860000013002010B5064C2169087D002806D0E1
:10587000401E08756068FFF79FFA6060012010BD48
:105880000013002010B5002805D00146162202485A
:105890000CF0DBFA012010BDE812002010B5044620
:1058A00008480B460169097D002909D082684168D2
:1058B0001846FCF761F9002802D04470012181707C
:1058C00010BD00000013002070B50A4C0546216988
:1058D00060684D75097D00290AD001264570C178A0
:1058E000002900D18670FFF767FAA1688142F5D1DF
:1058F00070BD0000001300207FB5092802D00B20E6
:1059000004B070BD002100910191029103910B49F7
:1059100002464C687F2325786946284665782D0223
:105920002843A578E4782D0428432406204305F075
:10593000F7FF0028E4D00F20E2E70000AC110020C0
:105940007FB5184900284C6802D0012804D006E031
:10595000A17800290CD002E0A178012908D000210B
:105960000091019102910391A178012903D005E0F2
:105970000B2004B070BD20216A46117025780246C4
:105980002846657809232D022843A578E4782D045C
:10599000284324066946204305F0C2FF0028E8D0CA
:1059A0000F20E6E7AC110020F8B500241D4616468E
:1059B0000F460094002B0ED06946FCF767F90028CB
:1059C0000AD10098411C08D081B2711A00290BDD60
:1059D0004018286002E00A20F8BD2E600E4840689A
:1059E000807800280BD014E0002905D0000C0004BA
:1059F000801901210904EBE728600720F8BD2A6817
:105A000000992046511AA041C91BA04101DB082082
:105A1000F8BD0020F8BD0000AC110020002806D021
:105A200004494968C968491C0160002070470A2080
:105A300070470000AC11002034210160004870471D
:105A4000B8110020F7B5C4B01400074606D0459839
:105A5000002803D00026FF2F03D005E00A2047B01E
:105A6000F0BD02200C26009020790021821901A8A7
:105A70000CF003FA01A8831920791D46401E81B25B
:105A80002068009A401C05F00BFF002841D12079C6
:105A90002946401E82B22068401C0CF0D6F92046F0
:105AA00001F02BF9002801D01020D8E7207C404DD0
:105AB000C00921D0696801208870032000906946E0
:105AC00001A80F710130082245990CF0C9F96868E6
:105AD000694602794A738088761F000A8873607964
