:020000040800F2
:10000000884F0020D9000008510B0108F17B00083F
:1000100000000000000000000000000000000000E0
:10002000000000000000000000000000654F010813
:1000300000000000000000000B170108B98401084F
:10004000EB000008EB000008F3290108EB000008B2
:10005000EB0000082D3700083D3700084D37000839
:10006000EB000008EB00000809360008EB00000870
:10007000EB000008EB000008EB000008EB000008B4
:10008000EB000008EB000008EB0000080000000097
:10009000EB000008EB000008EB000008EB00000894
:1000A000EB000008EB000008EB0000089D8A010847
:1000B000EB000008EB0000080000000019AB01088D
:1000C0000448854600F038FE004800472116020823
:1000D000C046C046884F0020044880470448004777
:1000E000FEE7FEE7FEE7FEE7FEE7FEE7D186010852
:1000F000C100000830B50B46014600202022012433
:1001000009E00D46D5409D4205D31D469540491B4B
:100110002546954040191546521E002DF1DC30BD94
:1001200070B500242546002801DA01244042002948
:1001300001DA01254942FFF7DDFFAC4200D0404221
:10014000002C00D0494270BDF0B51FB40646002017
:1001500082B005464024019100901BE0019922469F
:100160000F46304600F03CFC049A059B801A9941EA
:1001700010D310461946224600F022FC361A8F4151
:100180000197224601200021009F00F019FC381839
:100190004D4100902046641E0028DFDC019B009842
:1001A0002946324607B0F0BDF8B50024254600299F
:1001B00004DA0E46012400214042B141002B04DA4A
:1001C0001E46002352420125B341FFF7BDFF8C4676
:1001D00017461E46AC4203D0002540428D41AC4636
:1001E000002C02D0002657429E4161463A463346D3
:1001F00001B0F0BDF0B51FB486B0002000900190B2
:1002000002900698069980B204900798090C02049F
:100210000014114307900027089D099806913E4657
:100220003C4603900398A9B20204000C0390049882
:100230002D0C154348430021224600F0C1FBC7198D
:10024000714110340E46402CECDB3846029A00F027
:10025000B7FB009A019B80180090594102980191C8
:10026000103002904028CCDB00980BB0F0BD034664
:100270000B439B0703D009E008C9121F08C0042ADA
:10028000FAD203E00B780370401C491C521EF9D2CD
:100290007047D2B201E00270401C491EFBD2704789
:1002A0000022F6E710B513460A4604461946FFF742
:1002B000F0FF204610BD70B506461AF06DFE0468CA
:1002C00005460A220021304600F000FC2C6070BD7B
:1002D000F8B502464A40D40F42004B0052085B0872
:1002E0009A4202D20246084611464A0023D0C30D64
:1002F0004A00DDB2120EAD1A202D35DA4902012670
:10030000490AF6058A19002C00D0524220214F1BC1
:100310001146B9402A411018C20D9A4221D0002C32
:1003200017D0012D08DCDA05801AD20F8019D20708
:10033000DBB200F00BFCF8BDDA05801A01234000A7
:100340001B06C01880185A428018CA0F1043490073
:1003500007E04908C2071143DA05801A80194008EE
:10036000801800F0EBFBF8BD61000122511A001B60
:10037000F7E70122D2075140AAE70122D2075040F5
:10038000A6E7024670B54A40D30FDB0740002DD0E8
:100390004A002AD0010E140E000212020919400A66
:1003A000520A8418E50104465443000A120A2E0436
:1003B0005043A4194219200CC543AA18120C012558
:1003C000AD03521C521912047F39240400D0521C70
:1003D000104301D44000491EC2B20C06C0092018C7
:1003E000401C4008802A02D003E0002070BD400875
:1003F0004000002900DA0020184370BD70B50246A5
:100400004A40D50F40004A00ED0740085208002836
:1004100014D0002A12D0C40DD30D41020120C00512
:100420005202490A520AE41A091812187D349142FC
:1004300001D3641C00E04900002C01DA002070BDEB
:100440000023914201D3891A034340084900002840
:10045000F7D100290AD0914202D10121C90705E054
:10046000914201D2012101E00121C943E005C018F8
:10047000401900F063FB70BDF0B5074608465840D0
:1004800087B0C00F049048000E4659004008490844
:10049000BC1A884105D2384631461E4617460B46DF
:1004A00002465800400810434DD0300D03904005DF
:1004B0005900400D490D0590401A0290402873DA0A
:1004C00018030121000B09050843019004980092CC
:1004D000002806D01146019A49420020904100911F
:1004E0000190029840210A1A0199009800F068FAD8
:1004F00005460C466B4607CB00F083FAC0197141E4
:10050000039A0E0D0023D71756401A467A40164319
:1005100044D0049A002A2DD0029A012A039A15DCAD
:100520001205C01A914101263605001C7141D20FF7
:10053000059ED2070093019202962A46234600F0B8
:100540004BFB07B0F0BD38463146FAE71605234AA3
:100550000F46B218C01AB74101210905001C4F41CE
:1005600000187F41114618187941E20F10436D19A8
:10057000644113E0E2076D0815436408C2071443A1
:10058000039A01261205C01A91413605001C7141DB
:10059000CE07400830434908C01851412A46234637
:1005A00000F00DFBCDE7FFE7049801224000C117E2
:1005B000121A00238B4104983146C417381AA141FE
:1005C000EEE730B40124E407634030BC54E730B4B4
:1005D0000124E407614030BC4EE700000000E0FF6A
:1005E000F0B51FB488B00B990998002448400999C8
:1005F000C00F490049080991C0070B9900904900B4
:1006000049080B9109990898A64608431CD00B99F4
:100610000A98084318D0099801244000420D480068
:10062000410D099824050003000B204309900B9805
:100630000003000B20430B9050181C494018002267
:1006400001901446104605E0002001460DB0F0BDB3
:10065000032801DA034600E003239C46C11A0AAED0
:100660000AE05F0008ADED5B4F00F75B7D430027BC
:10067000AA187C41491C5B1E6145F2DD410004ABB8
:100680005A522104120C0A43240C401C0828DFDBB8
:10069000019802900099704601910090059B049A80
:1006A0000799069800F098FAD0E700000DFCFFFFCC
:1006B000F0B50C465C4085B0E40FE40703944C00B1
:1006C00000266408590094464908024602962243CF
:1006D00021D062460A431ED06200570D4A000E0325
:1006E0002303550D012402462C492405781B1B0BBE
:1006F000360B401823432643614600901C46501A8F
:10070000B44103D30098401C009002E09218009876
:100710005B41002803DA0020014605B0F0BD00204F
:10072000012109050746864611E064461D46141B53
:10073000B54106D36546521BB341744607430C438B
:10074000A646CD0740084908284392185B41054654
:100750000D43EAD11046184313D060461946504065
:100760007140084306D06046101AB34106D20122F8
:10077000002306E000220123DB0702E00122D2432E
:100780005310009874460105381C6141029C039D7A
:100790000019694100F013FABFE70000FD030000F3
:1007A000C217C10F504010B54018CA079623002148
:1007B00000F0CCF910BD10B500229623114600F0D0
:1007C000C5F910BD0EB5C217C10F5040CA07401879
:1007D0000021054B0293019200910A460B4600F05E
:1007E000FBF903B000BD0000330400000EB505495D
:1007F0000291002100910A460B46019100F0ECF9AC
:1008000003B000BD33040000C20F410040020123C9
:10081000400ADB05D207090EC0187F2901DA002043
:100820007047962903DC9623591AC84001E096398F
:100830008840002AF4D04042704741004002012223
:10084000400AD205090E80187F2901DA002070477E
:10085000962903DC9622511AC84070479639884081
:100860007047000070B5CD0F4A0009030123090B42
:100870001B0519430B4BED070024520D9A4201DA78
:10088000002070BD074B34339A4203DC9A1A00F003
:10089000A7F802E00449511888402C43F1D04042A7
:1008A00070BD0000FF030000CDFBFFFF4A000903FD
:1008B0000123090B1B051943094B10B5520D9A4230
:1008C00001DA002010BD064B34339A4203DC9A1A39
:1008D00000F086F810BD03495118884010BD000093
:1008E000FF030000CDFBFFFFC20FD207400040080E
:1008F0000BD0C10D0723DB01C91840020905400ACE
:100900001143C20840071143704700200146704759
:1009100010B5002904DB0124E40740428C41214644
:10092000002B04DB1C460123DB075242A3418B4210
:1009300000D1824210BD000010B5002904DB012463
:10094000E40740428C412146002B04DB1C46012376
:10095000DB075242A341994200D1904210BD0000F2
:10096000CB0FDB07490010B5490802460A4307D000
:100970000A0D07240903E401090B121B002A01DCFC
:10098000002010BDC900440F0C43C100E018D2057F
:10099000801800F0D3F810BD0122D207002800DB38
:1009A000101A002900DB511A814270470122D20738
:1009B000002800DB101A002900DB511A884270471A
:1009C00010B5202A04DB0146203A9140002010BDDA
:1009D000914020239C1A0346E3401943904010BDE8
:1009E00010B5202A04DB0846203AD040002110BD73
:1009F0000B46D340D0402024A21A91400843194608
:100A000010BD10B5202A06DBCB170846203A10414E
:100A1000C1170B4306E00B461341D0402024A21A15
:100A200091400843194610BD0FB400B589B00CA918
:100A300000910B990023CB60204B214A069307922B
:100A4000042201921F4A02921F4A089202466B46F4
:100A5000002000F020FA09B008BC04B0184770B5B7
:100A600086B006460020C0430190002015460C4683
:100A70000091029104903246694604A8FFF7D4FF22
:100A8000024604982118002D05D0002801D0084600
:100A900000E020462860049800280DD0002A02DDDE
:100AA0000098884208D0081B01900094324669469D
:100AB000029404A8FFF7B8FF06B070BDED1000085F
:100AC0000D110008FFFFFF7F650D0008F7B5009CC2
:100AD0000F4600262578641C002D05D000F03EF955
:100AE0000068405DC007F5D12B2D02D02D2D18D008
:100AF000641E39462046029A00F01AFB002F04D0EB
:100B00003968A14201D10099396071050224002998
:100B10000BDA4042002803DD1AF03EFA0460A00719
:100B2000FEBD012080020643E3E70028F8DA1AF050
:100B300033FA04600048FEBDFFFFFF7F002904DA9E
:100B4000401C490001D140084000704770B40024A7
:100B5000050C05D11024000402D1002921D0112454
:100B6000050E01D100020834050F01D10001241D3A
:100B7000850F01D18000A41C002801DB4000641C0B
:100B8000002908D020252E1B0D46F540A14000D09D
:100B900001212943084301061B1B000ADB1D02D566
:100BA000002070BC7047DB05181880180029F8DA9F
:100BB000401C4900F5D170BC40084000704710B59A
:100BC000002B08DA0024401C614192185B411A4353
:100BD00001D14008400010BDF0B51FB482B00546F9
:100BE0000C0003D008461AF05FF902E01AF05CF935
:100BF00020300246009021462846FFF7E1FE049B84
:100C0000059A04460F4618431143084314D018466A
:100C100010431BD0009840210A1A18460599FFF787
:100C2000DFFE05460E46009A05990498FFF7C8FEB8
:100C3000084305D0012004E02046394607B0F0BD46
:100C40000020C11705430E432C43374300990E98EB
:100C50006305401A7905E40A00220C43FD0A0A30B4
:100C600002D500200146E9E70105101969410C9CF5
:100C70000D9D00196941FFF7A2FFDFE7F8B50546B2
:100C8000480040080C46284304D06000184A400D34
:100C9000904201DD2846F8BD15493539884210DCFF
:100CA00088420BDB290D200308432903014305D0AB
:100CB000E00F1049C00741180020F8BD0020014690
:100CC000F8BD161A4020821B28462146FFF778FE01
:100CD00007460091284621463246FFF781FE3A46F4
:100CE000009BFFF76CFF3246FFF76AFEF8BD00007D
:100CF000330400000000F03F4A0009030123090B00
:100D00001B0519430A4B10B5520D9A4202DA002016
:100D1000014610BD064B34339A4203DC9A1AFFF7A2
:100D20005FFE10BD034BD218FFF74AFE10BD000056
:100D3000FF030000CDFBFFFF064C0125064E05E03A
:100D4000E36807CC2B430C3C98471034B442F7D3EC
:100D5000FFF7BAF9403302086033020800487047D1
:100D6000E02E020810B50446FFF7F8FF0068005DAA
:100D7000C007C00F10BD0000FFB5087889B0154648
:100D8000FF2805D0491C2D2804D00022002407E0AC
:100D900000240BE00122F9E70A235C430419491CF3
:100DA0000878FF28F8D1002A00D06442002004907F
:100DB0002A7801462D2A01D02B2A0FD16D1C2D2A0D
:100DC00002D00022049209E00122FBE700260A2259
:100DD00033466D1CFFF70EFA381871412F78FF2F3C
:100DE000F4D10C9AA218069202460A4304D0FF23BB
:100DF000069A9133DA4205DA002109980A4606C0BC
:100E00000DB0F0BD0024B74AB54D2646079200F05C
:100E1000F1F9029006980391002801DA474200E0B8
:100E2000074639050020AF4A001C5141019100904E
:100E300012E0F80707D022462B4630460799FFF705
:100E4000CFFB0646079122462B4610461946FFF770
:100E5000C7FB04460D467F10002FEAD10698019B80
:100E60000028009A0399029806DAFFF721FC32461F
:100E7000079BFFF71DFC05E0FFF7B2FB3246079B1F
:100E8000FFF7AEFB049A002A02D00122D20751409C
:100E9000099A03C2B4E7FFB591B00020099000257C
:100EA000ED432E209E685C681F460190B9696D1C59
:100EB000129888470090396A88470028F6D1009830
:100EC000401C0AD00D20C0018443002E12DD009882
:100ED0002B2809D02D280DD103E00020C04315B0E8
:100EE000F0BD012080020443B9696D1C1298884747
:100EF000761E009003A9600501D52D2000E02B206F
:100F00006A461073491C0CA80F9102900AE0B96957
:100F10006D1C1298884700900120400204431398EA
:100F2000761E0560002E02DD00983028EFD0019972
:100F30000098884246D18020044308E00998401E6A
:100F400009900120400204431399681C0860B969A4
:100F50006D1C761E1298884700903028EED031E044
:100F60000199884205D1200603D480200443761ECF
:100F70001EE000981AF0ECF8002826D0012040026C
:100F8000044307A90F980331761E88420BD20098BC
:100F90000F99303808700F98401C0F90200607D525
:100FA0000998401E03E0200602D40998401C0990CD
:100FB000A00502D51399681C0860B9696D1C1298C8
:100FC00088470090002ECBDC59E0002E57DD0098BA
:100FD000652801D0452852D1A00550D50320000234
:100FE0008443B9696D1C761E129888470090002EC4
:100FF0000CDD2B2804D02D2808D1FF20013004431C
:10100000B9696D1C12988847761E0090E00501D5DD
:101010002D2100E02B21029801700298401C0290C3
:10102000019025E00120400204430EA902980131FD
:10103000761E88420ED20098029930380006000EC3
:10104000087003D10299019881420AD90298401C84
:10105000029006E0E00501D5234801E02248404225
:101060000990B9696D1C1298884700901398056023
:10107000002E04DD00981AF06BF80028D2D1F9692F
:10108000129888470F99FF200870029903AA0870E8
:1010900000200A900B900CA90AA8099BFFF76CFE90
:1010A000A00502D40120C04319E72420044209D03E
:1010B000E00713D138680B9A0A99031D3B6000685A
:1010C00006C00BE00B990A98FFF74AFC0146E007BF
:1010D00004D13868021D3A60006801602846FEE6C7
:1010E000000014400000F03FF1D8FFFF4268002AE2
:1010F00008D001680B78491C002B03D0521E06C093
:10110000184670470121C160881E70474268002A56
:101110000BD0C3680168002B07D183688B4204D0D1
:10112000491E521C06C0002070470020C043704773
:10113000F7B582B0029C00272078641C1546019701
:10114000302802D0002D15D015E020780127641C2E
:10115000782804D0582802D0002D09D00BE0002DAB
:1011600001D0102D07D1002710252078641C02E043
:10117000082500E00A250026009610E000990127C6
:1011800069430818020C294680B2714300908E18FA
:101190003804864201D3012001902078641C29463E
:1011A00000F019F80028E9DA0398002805D0002F8C
:1011B00001D0641E00E0029C04600198002806D063
:1011C00019F0EAFE02210160C81E05B0F0BD0099C9
:1011D00030040843F9E73A2800D230382023024689
:1011E0009A43412A01D310463738884201D3002060
:1011F000C04370470EB5054A029200220092134682
:101200000192FFF7E9FC03B000BD000033040000C9
:1012100070B58D180478401CA207920F01D1027896
:10122000401C231106D10378401C03E006780E70A1
:10123000401C491C521EF9D1002B15D002780C26F7
:101240008A1A3440401C0C2C03D0A401121B9B1C96
:1012500008E004782402121B401CF8E714780C7094
:10126000491C521C5B1EF9D5A942D3D3002070BD86
:1012700010B5002210210520000703F020FA10BD50
:1012800010B5012210210520000703F018FA10BD47
:1012900038B50446074908480068FEF72BFF60434D
:1012A000009002E00098401E009000980028F9D1BC
:1012B00038BD000040420F00A403002070B5044672
:1012C0000025206880688007800F012807D12068EA
:1012D0000068C007C00F002801D0012000E00020F6
:1012E000002839D1206880681C490840002801D1B5
:1012F000012000E00020002809D1A06D1021084342
:10130000A065E06D01210843E065012070BD206803
:10131000806801210843216888600120FFF7B8FF39
:1013200006F0B6F905460EE006F0B2F9401B0A28B1
:1013300009D9A06D10210843A065E06D0121084383
:10134000E0650120E2E720680068C007C00F0121C6
:10135000484048400028E7D00020D7E71700008029
:1013600030B589B005460C461022002105A820F0B2
:1013700088FA224605A905A81AF09DFA6846007D5C
:101380008021084000281CD000BF00200AE005A9E9
:10139000095C490005AB421C9A5CD211114305AAB5
:1013A0001154401C0F28F2DB08A9C97849060A0E1F
:1013B00008A9CA7000BFC8788721484008A9C8702A
:1013C00016E000BF00200AE005A9095C490005AB52
:1013D000421C9A5CD211114305AA1154401C0F28DB
:1013E000F2DB08A9C97849060A0E08A9CA7000BF2D
:1013F000FF201530005910280FD100BF002009E050
:10140000E11DFA31095C05AA125C5140E21DFA3275
:101410001154401C1028F3DB61E06846007D8021F8
:10142000084000281CD000BF00200AE005A9095C84
:10143000490005AB421C9A5CD211114305AA115414
:10144000401C0F28F2DB08A9C97849060A0E08A932
:10145000CA7000BFC8788721484008A9C87016E044
:1014600000BF00200AE005A9095C490005AB421C49
:101470009A5CD211114305AA1154401C0F28F2DBCB
:1014800008A9C97849060A0E08A9CA7000BF8021B8
:10149000FF2015300259E01DFA30815406E000218A
:1014A000FF2015300259E01DFA308154FF2015301D
:1014B0000059401CFF21153108511028EFD300BFFF
:1014C000002009E0E11DFA31095C05AA125C5140D7
:1014D000E21DFA321154401C1028F3DB00BF00BF9C
:1014E00000200AE02146F131095CE21DFA32125C6B
:1014F00051402246F1321154401C1028F2DB00BF4B
:1015000010222146F13101A820F0A1F922462946F6
:1015100001A81AF0D0F91022002105A820F0B1F995
:1015200009B030BD10B50446102200212046F1302C
:1015300020F0A7F90021FF2015300151F0222046AC
:1015400020F09FF910BD70B504460D4622461021CB
:1015500028461AF0DDF970BDF0B585B004460F4697
:101560001546FF201530005900283ED0FF201530C9
:1015700000591021081AA84204D2FF201530005942
:10158000081A00E028460646B2B2FF211531095973
:10159000E31DFA33C818394620F059F9FF201530F9
:1015A00000598119FF20153001510059102801D32D
:1015B000B54201D105B0F0BD00BF00200AE02146D0
:1015C000F131095CE21DFA32125C51402246F132DF
:1015D0001154401C1028F2DB00BF22462146F13195
:1015E00008461AF068F9BF19AD1B21E000BF0020C2
:1015F00008E02146F131095C3A5C51402246F13263
:101600001154401C1028F4DB00BF10222146F13198
:10161000684620F01CF92246694668461AF04BF9E4
:10162000102269462046F13020F011F91037103DA4
:10163000102DDBD8AAB23946E01DFA3020F007F9A8
:10164000FF201530055100BFB4E7000070B5054616
:101650001B480078002820D0012000F081F9FFF716
:1016600007FE02F015FA1748006806F0B8F90446BC
:10167000FFF706FE02F01BFA06F00AF812490968A5
:10168000401AA04205D916F00FFC06F001F80E49E9
:101690000860012000F054F900BFFFF7F1FD02F0EF
:1016A00006FA06F0D8FB642002F04AFE07480088DC
:1016B0000CF0D6FA06F0B4FA02F0EAF970BD0000B8
:1016C000CA100020E41000206C110020CC10002073
:1016D0001CB50F480079002814D101206946087113
:1016E0000C48806800900A49443149680878694686
:1016F00012F051FC002106483C38017500200449D5
:10170000087100BF02483C38807C014948711CBD0B
:10171000601F00208C2100201CB51A48817C407C71
:1017200081422EDA1748807C401C16498874887CD8
:10173000C10F091849104900411A012921D122215C
:10174000684601710F4880304068FF301930017DD4
:10175000684681710B4880304068F83041786846AF
:101760004171084980314968087801A912F005FCE7
:101770000090009841B2034880304068F8304170D2
:1017800000BF1CBD241F002070B50446256800263C
:10179000002D01D1012070BDEE687068002801D1D4
:1017A0000120F8E7284671688847012800D1F2E750
:1017B00014212846FEF774FD0020206000BFEAE7F0
:1017C000F8B504460E4625460027002D01D101201C
:1017D000F8BDEF68002E01D10120F9E7B8690028B3
:1017E00001D10120F4E731462846BA699047012823
:1017F00000D1EDE70020EBE770B505460C46002070
:101800002060681C002804D001280ED0022813D0C4
:1018100000BF204600F0A2F9012805D1204600F0C3
:1018200001F9012800D170BD0DE0204600F096F9C5
:10183000012800D1F7E706E0204600F0F3F8012880
:1018400000D1F0E700BF00BF0020ECE770B5044610
:1018500025460026002D01D1012070BDEE68B0683C
:10186000002801D10120F8E72846B16888470128FF
:1018700000D1F2E70020F0E710B586B0044600BFC3
:10188000002C06D0012C13D0022C20D0032C3CD1EC
:101890002CE000BF2748C06A022108432549C862DE
:1018A0000846C06A02210840009000BF00BF2DE03A
:1018B00000BF2048C06A012108431E49C86208468B
:1018C000C06AC007C00F009000BF00BF1EE000BF8D
:1018D0001848C06A022108431649C8620846C06A0F
:1018E00002210840009000BF00BF0FE000BF114878
:1018F000C06A022108430F49C8620846C06A022133
:101900000840009000BF00BF00E000BF00BF00BF64
:1019100060000949085A01900120029000200390BC
:1019200003200490A100054A505801A902F0C2FD0D
:1019300006B010BD001002401429020890030020D8
:1019400010B504466200044B995AA200034B985804
:10195000002202F0B4FE10BD1429020890030020FA
:1019600010B504466200044B995AA200034B9858E4
:10197000012202F0A4FE10BD1429020890030020E9
:1019800070B5044600252148C078012800D170BDFB
:1019900016F074FB012800D1F9E7B1201B4908704B
:1019A000B820487000208870C87008710120487104
:1019B000174888601748C8601748086117481849D1
:1019C0000860084612490860002048600F482060FF
:1019D0002068C5682868002807D114212068FEF710
:1019E0005FFC002020600120D1E72068296888473B
:1019F000012807D114212068FEF752FC0020206046
:101A00000120C4E707F0F2FB0020C0E778130020B4
:101A1000540300200000002068000020E0000020A7
:101A20005C03002070B5044600252348C07D0128D2
:101A300000D170BD16F022FB012800D1F9E7332058
:101A40001D49087532211C4841750121817500210D
:101A5000C17501760121417618481749C8611849B6
:101A6000154801620021416216481449083988600E
:101A7000002112480838C1600F48143020602068E7
:101A8000C5682868002807D114212068FEF708FCE3
:101A9000002020600120CCE72068296888470128C1
:101AA00007D114212068FEF7FBFB002020600120F5
:101AB000BFE70020BDE700008C130020BC1300200E
:101AC000080100206803002070B5044600251F4867
:101AD000C078012800D170BD16F0D0FA012800D1DD
:101AE000F9E74020194908703C20487000208870B0
:101AF000C870087101204871154888601548C86091
:101B000000200861144812490860002048600F480E
:101B100020602068C5682868002807D11421206843
:101B2000FEF7BEFB002020600120D4E72068296872
:101B30008847012807D114212068FEF7B1FB002057
:101B400020600120C7E70020C5E70000C413002083
:101B50006C030020580100207403002070B5044677
:101B600000252148C078012800D170BD16F086FA02
:101B7000012800D1F9E76A201B490870D620487077
:101B800000208870C870087101204871174888606B
:101B90001748C86017480861174818490860084680
:101BA00012490860002048600F4820602068C5681E
:101BB0002868002807D114212068FEF771FB002057
:101BC00020600120D1E7206829688847012807D1D3
:101BD00014212068FEF764FB002020600120C4E788
:101BE0000AF01CFF0020C0E78C130020B413002073
:101BF000AC020020A00100204C0300206003002064
:101C000070B5044625680026002D01D1012070BD65
:101C1000EE687068002801D10120F8E72846716855
:101C20008847012800D1F2E714212846FEF738FB47
:101C30000020206000BFEAE7F8B504460E462546BE
:101C40000027002D01D10120F8BDEF68002E01D141
:101C50000120F9E7B869002801D10120F4E73146F5
:101C60002846BA699047012800D1EDE70020EBE74C
:101C700070B505460C4600202060681C002802D084
:101C8000012807D000BF2046FFF71EFF012800D122
:101C900070BD06E02046FFF717FF012800D1F7E7E7
:101CA00000BF00BF0020F3E770B50446256800269A
:101CB000002D01D1012070BDEE687068002801D1AF
:101CC0000120F8E7284671688847012800D1F2E72B
:101CD00014212846FEF7E4FA0020206000BFEAE75E
:101CE000F8B504460E4625460027002D01D10120F7
:101CF000F8BDEF68002E01D10120F9E7B86900288E
:101D000001D10120F4E731462846BA6990470128FD
:101D100000D1EDE70020EBE770B505460C4600204A
:101D20002060681C002802D0012807D000BF204690
:101D3000FFF726FE012800D170BD06E02046FFF720
:101D40001FFE012800D1F7E700BF00BF0020F3E726
:101D500070B5044625460026002D01D1012070BD36
:101D6000EE68B068002801D10120F8E72846B16884
:101D70008847012800D1F2E70020F0E710B50548B8
:101D8000FFF702FD0448FFF73BFF0448FFF78CFF15
:101D900010BD0000B8030020BC030020B4030020E5
:101DA00010B506490020FFF763FF05490120FFF742
:101DB00023FD04490020FFF7AFFF10BDBC03002046
:101DC000B8030020B4030020F0B587B0044600201B
:101DD0000690002734480068FFF738FD0546002DBF
:101DE00002D0002007B0F0BD322002F0A9FA03A90A
:101DF0002D480068FFF720FF0546002D01D0002088
:101E0000F0E70398A0610498E061059820622748F4
:101E10000068FFF71BFD0546002D01D00020E1E71B
:101E2000322002F08DFA694620480068FFF7C8FCAE
:101E30000546002D01D00020D4E70098606201988B
:101E4000A0620298E0620A2002F07AFA002718489D
:101E50000068FFF77DFF0546002D01D00020C1E797
:101E60000A2002F06DFA002612E006A91048006868
:101E7000FFF736FF0546002D01D00020B2E70A200B
:101E800002F05EFA38460699FEF722FA0746761CFB
:101E90000F2EEADB07493846FEF7B0FA069006989F
:101EA000206001209EE70000BC030020B803002052
:101EB000B40300200000704170B505461C4800685E
:101EC000401C1B4908601B4919481FF07BFF19483B
:101ED0000068194900228A5E801816490860144873
:101EE0000068401C124908601248016810480068E8
:101EF00020F0CEFB0E4801680E480068FEF7FAF8A5
:101F0000044621460D4819F0D9FD0D4908600849DD
:101F100009680C4A5143084609490968FEF7EAF87E
:101F20000849081A06490860074816F003FD70BD05
:101F3000B8100020B4100020FC100020383E002013
:101F4000BC10002010270000CC3C002010B5154923
:101F500015481FF037FF1448016812480068FEF763
:101F6000C9F804462146114819F0A8FD1049086037
:101F70000D4909680F4A514308460D490968FEF7A3
:101F8000B9F80C49081A0A4908600B490B4816F0C1
:101F90000FFC0B49094816F0B8FC084816F0CAFCBB
:101FA00010BD0000B4100020B8100020383E002002
:101FB000BC10002010270000B91E0008CC3C0020F7
:101FC000005C26050FB400B5E3B014A81DF09CFF1B
:101FD000FEA114A818F054FF60A8007D002805D0C9
:101FE000FBA114A8033018F04BFF04E0F9A114A8DA
:101FF000033018F045FF65A8007A65A9C97965AA7C
:10200000927965AB5B79029303920491059065A880
:10201000007965A9C9780091019065A880780F9032
:1020200060A8407D0E900246EBA115A802300F9BE0
:1020300018F026FF65A8027CC07B65A9897B65AB8B
:102040005B7B029305920391049065A8007B65A9D0
:10205000C97A0091019065A8807A0F9060A8407FAE
:102060000E900246DCA119A802300F9B18F008FF61
:1020700069A80130C07B65A9C97F65AA927F65AB5D
:102080005B7F0A930B920C910D9065A8017FC07E37
:1020900065AA927E65AB5B7E0693079209910890D4
:1020A00065A8027EC17D807D65AB5B7D029303AB3D
:1020B00007C365A8007D65A9C97C0091019065A84A
:1020C000807C0F9068A840790E900246CB491DA8ED
:1020D00002300F9B18F0D4FE6DA80130C0786DA9B6
:1020E00001318978009101906DA8013040780F90FE
:1020F00068A8407D0E900246BBA125A802300F9B28
:1021000018F0BEFE6EA80130C27B817B407B6EABB7
:1021100001331B7B0A930BAB07C36EA80130C07A57
:102120006EA90131897A6EAA0132527A6EAB0133FF
:102130001B7A06930792089109906EA80130C07926
:102140006EA9013189796EAA013252796EAB0133E1
:102150001B7902930392049105906EA80130C07818
:102160006EA901318978009101906EA80130407804
:102170000F9068A8407E0E900246A04927A8023022
:102180000F9B18F07DFE72A80130C27B807B72A984
:102190000131497B72AB01331B7B0A930D920B918A
:1021A0000C9072A80130C07A72A90131897A72AAA2
:1021B0000132527A72AB01331B7A0693079208916F
:1021C000099072A80130C07972A90131897972AA87
:1021D0000132527972AB01331B790293039204915D
:1021E000059072A80130C07872A9013189780091F8
:1021F000019072A8013040780F9070A8407A0E903C
:1022000002467E492FA802300F9B18F039FE70A8B5
:10221000407E3030C1B230A8817770A8807E3030E7
:10222000C1B230A8C17770A8C07E3030C1B238A822
:10223000017070A8007F024671A10F9038A801308C
:1022400018F01EFE70A8407F02466DA10F9039A8BD
:1022500018F016FE70A8807F3030C1B238A8C17166
:1022600078987D21C9000F90FDF744FF1390E1217C
:1022700009011398FDF73EFF1290E121090113981F
:10228000FDF738FF0F913C210F98FDF733FF1190B8
:102290003C211398FDF72EFF10911099009159A140
:1022A0003AA8119B129A18F0EBFD00201390799830
:1022B0007D21C9000F90FDF71DFF1390E121090159
:1022C0001398FDF717FF1290E12109011398FDF70C
:1022D00011FF0F913C210F98FDF70CFF11903C214D
:1022E0001398FDF707FF10911098009045A13CA8A6
:1022F000119B129A18F0C4FD002013907A987D214A
:10230000C9000F90FDF7F6FE1390E1210901139823
:10231000FDF7F0FE1290E12109011398FDF7EAFEA6
:102320000F913C210F98FDF7E5FE11903C21139889
:10233000FDF7E0FE10911098009032A13EA8119B8D
:10234000129A18F09DFD78A8007B002804D031A1D6
:1023500040A818F095FD03E02FA140A818F090FDCB
:1023600078A8407B002805D02AA140A8033018F0A7
:1023700087FD04E028A140A8033018F081FD00206B
:10238000139054221398411C139141A902310A540D
:1023900078A8807B002807D03C221399481C139012
:1023A00041A80230425406E03E221399481C139083
:1023B00041A80230425478A90F2008560F9041A836
:1023C0000230139940180E900DA127E06E6F2A007D
:1023D0004F54410041425000253032582530325888
:1023E0002530325825303258253032582530325871
:1023F000253032582530325800000000FC320208E7
:1024000025642A00253032643A253032643A25307A
:1024100032640000594553004E4F2A000F9A18F0BD
:102420002FFD78A9087C002805D0E84944A802308F
:1024300018F026FD05E0E549091D44A8023018F012
:102440001FFD78A8407C002805D0E04945A8013050
:1024500018F016FD05E0DD49091D45A8013018F00A
:102460000FFD0020139048221398411C139146A998
:102470000A5478A8807C002806D03C221398411C7E
:10248000139146A90A5405E03E221399481C139063
:1024900046A8425470A8808E0F9046A81399401801
:1024A0000E90CA4914390F9A18F0EAFC78A8807D7A
:1024B000002804D0C54949A818F0E2FC04E0C3494B
:1024C000091D49A818F0DCFC78A8C07D002805D0BB
:1024D000BE4949A8033018F0D3FC05E0BB49091DEB
:1024E00049A8033018F0CCFC002013904C2213981C
:1024F000411C13914AA902310A5478A8007E002891
:1025000007D03C221398411C13914AA902310A5466
:1025100006E03E221398411C13914AA902310A5445
:1025200070A8408F0F904AA80230139940180E905F
:10253000A64914390F9A18F0A3FC78A8007F002848
:1025400005D0A2494DA8023018F09AFC05E09F4939
:10255000091D4DA8023018F093FC78A8407F002890
:1025600005D09A494EA8013018F08AFC05E0974939
:10257000091D4EA8013018F083FC00201390412261
:102580001398411C13914FA90A5478A8807F002802
:1025900006D03C221398411C13914FA90A5405E020
:1025A0003E221398411C13914FA90A5480A8008819
:1025B0000F904FA8139940180E90844914390F9A20
:1025C00018F05EFC80A88078002804D07F4952A8CB
:1025D00018F056FC04E07D49091D52A818F050FC83
:1025E00080A8C078002805D0784952A8033018F098
:1025F00047FC05E07549091D52A8033018F040FC5E
:10260000002013904D221398411C139153A90231BD
:102610000A5480A80079002807D03C221398411C56
:10262000139153A902310A5406E03E221399481C23
:10263000139053A80230425480A8C0880F9053A82A
:102640000230139940180E90604914390F9A18F00F
:1026500017FC80A8007A002805D05C4956A80230F3
:1026600018F00EFC05E05949091D56A8023018F073
:1026700007FC80A8407A002805D0544957A80130AB
:1026800018F0FEFB05E05149091D57A8013018F06C
:10269000F7FB0020139083987D21C9000F90FDF770
:1026A00029FD1390E12109011398FDF723FD1290F4
:1026B000E12109011398FDF71DFD0F913C210F98B1
:1026C000FDF718FD11903C211398FDF713FD1091B3
:1026D000109800903D49103958A8119B129A18F093
:1026E000CFFB80A8007C002804D038495AA818F0F5
:1026F000C7FB04E03549091D5AA818F0C1FB80A8A2
:10270000407C002805D031495AA8033018F0B8FBA6
:1027100005E02E49091D5AA8033018F0B1FB80A826
:10272000807C002805D029495BA8023018F0A8FB5E
:1027300005E02649091D5BA8023018F0A1FB002026
:1027400013904E221398411C13915CA901310A5435
:1027500080A8C07C002807D03C221398411C13910C
:102760005CA901310A5406E03E221398411C1391E2
:102770005CA901310A5480A8808A0F905CA80130BE
:10278000139940180E90114914390F9A18F078FBDC
:1027900080A81621415E0A460F910DA1833818F0DA
:1027A0006FFB80A91820085E024609A10F9060A85F
:1027B000023018F065FBFF223C3214A96498FDF743
:1027C00056FD63B008BC04B018470000142400088C
:1027D00025690000FFB587B004461F46002006901B
:1027E00010256557112020560590A0683860607943
:1027F000012852D1022168460174A17C8174E07CD9
:1028000004A911F0BAFB0390039846B2B54201DD6A
:10281000284600E030460546B54203D10020386026
:1028200006903AE0A189A068884202D30120069070
:1028300001E000200690A089E1894018A168884243
:102840002BD8082069460874E07C04A911F095FB98
:102850000390039840B20590E189A068FDF74AFC17
:1028600001291AD12221684601744574A17C817422
:10287000E07C04A911F081FB0390039845B2B542B6
:102880000BD1002006902079012806D169460872F4
:10289000E07C01A911F07FFB00BF08980570099941
:1028A0000598087006980BB0F0BD000030B589B0EF
:1028B000044633484068FF30C130007E002802D112
:1028C0006946087502E00120694608752C48406891
:1028D000FF302130417F68468175C47503A815F02B
:1028E0003AFE27484068FF30CD30406800902448C9
:1028F00040680546FF35CD3529780B4669780902D1
:102900000B43A97809040B43E8780006034301A8A8
:10291000049A039915F04AFE0299019807910690CE
:10292000174880388069089000216846417514482E
:1029300040784007C00F002807D000200BF002FDB0
:10294000002802D00120694648750D494968087879
:1029500005A910F029FA0A488038806908494968B1
:10296000FF31C13149884843054980398969411A95
:1029700003484068FF308130816409B030BD0000F9
:10298000A41F002010B504460748806C002809D019
:102990000548806C8068002804D00348806C8168FA
:1029A0002046884710BD0000241E002038B505468B
:1029B0000C46002000906946284601F073F9002873
:1029C00001D0002038BD0098844203D80098401CF4
:1029D000002801D10120F5E70020F3E710B50BF046
:1029E000DBFA002801D00E2010BD0A484068E03014
:1029F000007C01280BD10BF0D5FA002801D00F2064
:102A0000F2E70BF0CDFA002801D00F20ECE7002010
:102A1000EAE70000A41F00200B48807C0A49497C9B
:102A2000884201DB012070470748803040788007EA
:102A3000C00F002805D004483C300079012800D19F
:102A4000F1E70020EFE70000241F00201148017C7F
:102A500080304068FF3019300078814201DB01206E
:102A600070470C48803040788007C00F00280FD096
:102A7000084880304068E030007C002801D1012007
:102A8000EEE704481C30407C002801D10120E7E734
:102A90000020E5E7241F0020FFB585B004460E4660
:102AA0000E9F002E01D0002F02D1022009B0F0BDF0
:102AB0001748FEF737FD6946089801F0D9F8054632
:102AC000002D22D10099491C1148FEF73CFD002C35
:102AD00004D0102221460E48FEF73EFD31460C4838
:102AE000079AFEF739FD0A4901A8FEF739FC694645
:102AF000C8790006897909040843694649790902B9
:102B0000084369460979084338602846CEE7000043
:102B100074250020FFB587B005460C461646139F66
:102B2000002D01D0002F02D10A200BB0F0BDFF20F4
:102B30000130844201DD0E20F7E703AA12991198B3
:102B40006B4607C331462046109B0A9A0EF02CFEB6
:102B500033462246294603A8009714F023FA00289A
:102B600001D00F20E1E70020DFE70000F0B5A7B0BB
:102B700007460C46E0784F2801D1012000E00020F4
:102B80002179542901D1012100E000210840617917
:102B9000412901D1012100E000210840002803D093
:102BA00001206946087418E0E078412801D101202D
:102BB00000E000202179422901D1012100E000211B
:102BC00008406179502901D1012100E0002108402D
:102BD000002802D00020694608741022A11D04A814
:102BE00001301FF011FC10222146163106A80130D9
:102BF0001FF00AFC20222146263108A801301FF0D0
:102C000003FC0822214646310CA801301FF0FCFBD2
:102C1000202221464E310DA801301FF0F5FB202265
:102C200021466E3111A801301FF0EEFB8E20005DB1
:102C30003038C1B210A841758F20005D3038C1B264
:102C400010A881759020005D3038C1B210A8C17500
:102C5000002500210176417611E010A8007E0A21AE
:102C60004843C1B210A80176017E20469130405DF4
:102C700030380818C1B210A80176681CC5B22046C9
:102C80009130405D2A28E8D1002511E010A8407E4F
:102C90000A214843C1B210A84176417E20469430B3
:102CA000405D30380818C1B210A84176681CC5B222
:102CB00020469430405D2A28E8D100259720005D09
:102CC000303810A988769820005D30380A214843B2
:102CD0009921095D40183038E121090141439B20C9
:102CE000005D30380A2250439C22125D8018303833
:102CF0003C22504309189E20005D30380A22504380
:102D00009F22125D8018303808187D21C900484381
:102D10001790A020005D30380A214843A121095DA9
:102D200040183038E12109014143A320005D3038CB
:102D30000A225043A422125D801830383C225043AE
:102D40000918A620005D30380A225043A722125DE0
:102D50008018303808187D21C90048431890A820F1
:102D6000005D30380A214843A921095D40183038F8
:102D7000E12109014143AB20005D30380A22504374
:102D8000AC22125D801830383C2250430918AE2026
:102D9000005D30380A225043AF22125D801830386F
:102DA00008187D21C90048431990B020005D5928BA
:102DB00003D0B020005D792813D1B120005D4528F3
:102DC00003D0B120005D65280BD1B220005D5328EF
:102DD00003D0B220005D732803D1012018A9087226
:102DE00002E0002018A90872B320005D592803D022
:102DF000B320005D792813D1B420005D452803D0AD
:102E0000B420005D65280BD1B520005D532803D0A8
:102E1000B520005D732803D1012018A9487212E083
:102E2000B320005D4E2803D0B320005D6E280AD188
:102E3000B420005D4F2803D0B420005D6F2802D17C
:102E4000002018A94872B720005D3C2803D101205A
:102E500018A9887202E0002018A9887202250020B3
:102E600018A9C8722046B630405D2D2801D1681CD3
:102E7000C5B211E018A8C07A0A21484341B218A887
:102E8000C172C17A2046B630405D3038081841B270
:102E900018A8C172681CC5B22046B630405D2A2809
:102EA000E8D1B820005D2D2806D118A8C07A40428C
:102EB00041B218A8C17202E018A8C17AC172C2203A
:102EC000005D592803D0C220005D792813D1C320AA
:102ED000005D452803D0C320005D65280BD1C420C8
:102EE000005D532803D0C420005D732803D1012066
:102EF00018A9087302E0002018A90873C520005D16
:102F0000592803D0C520005D792813D1C620005D63
:102F1000452803D0C620005D65280BD1C720005D81
:102F2000532803D0C720005D732803D1012018A9BE
:102F3000487312E0C520005D4E2803D0C520005D17
:102F40006E280AD1C620005D4F2803D0C620005D40
:102F50006F2802D1002018A94873C920005D3C28C1
:102F600003D1012018A9887302E0002018A98873F2
:102F7000022500260BE030460A214843064620463B
:102F8000C830405D3038801906B2681CC5B2204692
:102F9000C830405D2A28EED110A90E86D420005DED
:102FA000592803D0D420005D792813D1D520005DA5
:102FB000452803D0D520005D65280BD1D620005DC3
:102FC000532803D0D620005D732803D1012018A90F
:102FD000887402E0002018A98874D720005D592861
:102FE00003D0D720005D792813D1D820005D452873
:102FF00003D0D820005D65280BD1D920005D53286F
:1030000003D0D920005D732803D1012018A9C8740A
:1030100012E0D720005D4E2803D0D720005D6E2837
:103020000AD1D820005D4F2803D0D820005D6F283A
:1030300002D1002018A9C874DB20005D3C2803D110
:10304000012018A9087502E0002018A908750225BA
:1030500000260BE030460A21484306462046DA3077
:10306000405D3038801906B2681CC5B22046DA309F
:10307000405D2A28EED110A9CE86E620005D5928B1
:1030800003D0E620005D792813D1E720005D4528B4
:1030900003D0E720005D65280BD1E820005D5328B0
:1030A00003D0E820005D732803D1012018A9087619
:1030B00002E0002018A90876E920005D592803D015
:1030C000E920005D792813D1EA20005D452803D06E
:1030D000EA20005D65280BD1EB20005D532803D06A
:1030E000EB20005D732803D1012018A9487612E077
:1030F000E920005D4E2803D0E920005D6E280AD14A
:10310000EA20005D4F2803D0EA20005D6F2802D13D
:10311000002018A94876ED20005D3C2803D101204D
:1031200018A9887602E0002018A9887602250026D2
:103130000BE030460A21484306462046EC30405D0D
:103140003038801906B2681CC5B22046EC30405DAC
:103150002A28EED110A98E87F820005D592803D0C7
:10316000F820005D792813D1F920005D452803D0AF
:10317000F920005D65280BD1FA20005D532803D0AB
:10318000FA20005D732803D1012018A9887702E096
:10319000002018A98877FB20005D592803D0FB2068
:1031A000005D792813D1FC20005D452803D0FC2068
:1031B000005D65280BD1FD20005D532803D0FD2064
:1031C000005D732803D1012018A9C87712E0FB2005
:1031D000005D4E2803D0FB20005D6E280AD1FC2044
:1031E000005D4F2803D0FC20005D6F2802D1002035
:1031F00018A9C877FF20005D3C2803D1012020A931
:10320000087002E0002020A90870022500260BE0CB
:1032100030460A21484306462046FE30405D30389D
:10322000801906B2681CC5B22046FE30405D2A28CF
:10323000EED120A94E80FF200B30005D592804D02C
:10324000FF200B30005D792817D1FF200C30005D86
:10325000452804D0FF200C30005D65280DD1FF20EB
:103260000D30005D532804D0FF200D30005D732821
:1032700003D1012020A9087102E0002020A90871D3
:10328000FF200E30005D592804D0FF200E30005D75
:10329000792817D1FF200F30005D452804D0FF208A
:1032A0000F30005D65280DD1FF201030005D5328E0
:1032B00004D0FF201030005D732803D1012020A925
:1032C000487116E0FF200E30005D4E2804D0FF202C
:1032D0000E30005D6E280CD1FF200F30005D4F28AE
:1032E00004D0FF200F30005D6F2802D1002020A9FC
:1032F0004871FF201130005D30380A214843FF211A
:103300001231095D40183038E12109014143FF20A5
:103310001430005D30380A225043FF221532125D0E
:10332000801830383C2250430918FF201730005DC8
:1033300030380A225043FF221832125D801830388C
:1033400008187D21C90048432290FF201930005DF4
:10335000592804D0FF201930005D792817D1FF20AB
:103360001A30005D452804D0FF201A30005D652822
:103370000DD1FF201B30005D532804D0FF201B30EF
:10338000005D732803D1012020A9087302E000200A
:1033900020A908732046FF302E3018F047FB00228A
:1033A0005B4B01910090FDF71BF903910290FDF733
:1033B00059FA01B220A841822046FF30333018F07C
:1033C00035FB0022524B01910090FDF709F9039162
:1033D0000290FDF747FA01B220A88182FF201C303D
:1033E000005D592804D0FF201C30005D792817D1DA
:1033F000FF201D30005D452804D0FF201D30005DFA
:1034000065280DD1FF201E30005D532804D0FF2019
:103410001E30005D732803D1012020A9487302E00B
:10342000002020A94873FF201F30005D592804D0D8
:10343000FF201F30005D792817D1FF202030005D6C
:10344000452804D0FF202030005D65280DD1FF20E5
:103450002130005D532804D0FF202130005D732807
:1034600003D1012020A9887316E0FF201F30005DE2
:103470004E2804D0FF201F30005D6E280CD1FF20A5
:103480002030005D4F2804D0FF202030005D6F28E1
:1034900002D1002020A98873FF202330005D3C2842
:1034A00003D1012020A9C87302E0002020A9C8731D
:1034B000022500260CE030460A21484306462046F5
:1034C000FF302230405D3038801906B2681CC5B22A
:1034D0002046FF302230405D2A28ECD120A8068209
:1034E00000252046FF302E30FCF7E5FE01B220A873
:1034F00041822046FF303330FCF7DDFE01B220A8C8
:103500008182882204A93846FCF7B1FE27B0F0BDBD
:103510000000244030B50246002300200AE00124C8
:103520008440144001258540AC4201D15C1CE3B2CB
:10353000441CE0B28842F2DB184630BDFFB583B0D0
:103540000F461E460020029001900025009053E097
:10355000002448E0009841000598405A0121A1400C
:10356000084000283CD028190C2148433058002836
:1035700000D136E00398002806D10120A040400782
:10358000400F002800D12CE028190C235843801943
:103590000823C3561A1128190C2358438019007A9E
:1035A0000007011778B20FF0D1FE002800D118E013
:1035B00028190C2148438019407A01010C980818F9
:1035C000C068002804D00198401CC0B2019008E0F7
:1035D0002819C2B20298411CC9B202910D990A542D
:1035E00000BF601CC4B2102CB4DB28461030C5B23A
:1035F0000098401CC0B20090102DA9DB0E990198D4
:103600000870029807B0F0BD70470000FFB585B0A4
:10361000044615460698002804D0002D02D00898CC
:10362000002802D10A2009B0F0BD002001900290CC
:1036300003900490052C06D0062C05D0072C04D04E
:10364000082C0AD105E000BF00BF012069460871BF
:1036500005E002206946087101E00B20E3E700BFA6
:10366000032201A8013006991EF0F1F80322294631
:1036700002A81EF0ECF8022202A8033008991EF0FE
:10368000E6F80D4840682346022201A9064600904C
:103690003778384677783F023843B7783F04384365
:1036A000F6783606304313F090FC002801D00F2046
:1036B000B9E70020B7E70000D42100200246002A25
:1036C00001D0002901D103207047107B0007000FB3
:1036D000002806DD2020805C002802DD0020087024
:1036E00020E02820805C002802D10120087019E029
:1036F000107B0007000F002806D12020805C0028E6
:1037000002D1022008700DE0107B0007000F002896
:1037100006D12020805C002802DD0320087001E033
:103720001720D1E70020CFE77047704710B5012080
:1037300000F0B0FE022000F0ADFE10BD10B5042078
:1037400000F0A8FE082000F0A5FE10BD10B5102066
:1037500000F0A0FE202000F09DFE402000F09AFE28
:10376000802000F097FEFF20013000F093FE012042
:10377000400200F08FFE0120800200F08BFE01204D
:10378000C00200F087FE0120000300F083FE01204C
:10379000400300F07FFE0120800300F07BFE01204B
:1037A000C00300F077FE10BD00BFFEE710B5052096
:1037B000FFF7E8F810BD10B50420FFF7E3F810BDDF
:1037C00010B50620FFF7DEF810BD10B50220FFF798
:1037D000D9F810BD10B50020FFF7D4F810BD10B512
:1037E0000120FFF7CFF810BD10B50320FFF7CAF88E
:1037F00010BD30B504460D4600222946204600F093
:1038000001F830BDF0B50346012500241148407A87
:1038100001281CDC00200F4E767A0E4FB855384632
:10382000407A8600381D8351001F467A0830825541
:103830003E46707A461C7E72044620463030087040
:103840003A2048702F2088700020C8700025284634
:10385000F0BD0000183C002010B5044600212046B1
:1038600000F002F810BD000070B502460B460021C2
:1038700001200D4C647A012C15DB1478303CE1B248
:103880008D00094C241D6459002C0CD000258E009D
:10389000054C241DA551241D6554083C647A641E02
:1038A000014D6C72002070BD183C002000210A4AB6
:1038B00051610A494968012252021143074A516085
:1038C0001146496808221143044A51600021C20987
:1038D000D201116070470000D81300200020024080
:1038E000002039498969FF2201321140914208D1F3
:1038F0003649496902221143344A5161FF2101319D
:10390000084331498969012252021140914208D18C
:103910002E494969012211432C4A51610121490272
:10392000084329498969012292021140914208D134
:103930002649496908221143244A5161012189021B
:103940000843214989690122D2021140914208D1DC
:103950001E494969042211431C4A51610121C902CF
:10396000084319498969012252031140914208D143
:103970001649496910221143144A51610121490332
:10398000084311498969012252041140914207D12B
:103990000E494969202211430C4A516120210843F4
:1039A00009498969012212041140914208D107494D
:1039B000496940221143054A516101210904084324
:1039C000014988617047000000200240D8130020A0
:1039D00070B5044600F07AFE05460BE0601C002836
:1039E00008D0002C04D000F071FE401BA04201D989
:1039F000032070BD1F488069C007C00F0028EDD1AB
:103A00001C48806902210840022801D119498861B7
:103A100018488069FF2101310840884223D01548A9
:103A200080694900084088421DD0124880694900D9
:103A30000840884217D00F488069490008408842F2
:103A400011D00C4880698900084088420BD0094891
:103A5000806909010840884205D0064880694910FC
:103A60000840884203D1FFF73BFF0120C1E7002057
:103A7000BFE700000020024010B50446002C00D132
:103A800010BD1022002120461DF0FBFE0120F7E7AB
:103A900010B5002204210520000700F010FE0022CE
:103AA000FF2101310520000700F009FE10BD10B50F
:103AB000012204210520000700F001FE10BD0000D6
:103AC00001468800094A1058094A8018002807D082
:103AD0008018002806D052008018002804D000BFAB
:103AE000002070470120FCE70220FAE78029020845
:103AF000B817FEFF08B5194819490860FF20E130E2
:103B00004860084614300AF053FD1549086100204A
:103B10000090144949680878694610F023FA104962
:103B200088600098C86008461C3013F089FA0C4978
:103B30008861084624300AF083FA09490862084679
:103B40002C300AF021FA06498862084634300AF01F
:103B50007FFB03490863084608BD0000AC1F002036
:103B60008C210020A41F0020F8B505460E461746FC
:103B7000344608E02078A84201D12046F8BD20460E
:103B800004F0EEFA0446BC42F4D10020F6E7FFB59B
:103B900081B005460E4617460B9C002F04D0002C22
:103BA00002D00C98002802D10A2005B0F0BD2B00ED
:103BB00017F0A9F90515181B1E0421006846807C22
:103BC000012809D1002E01D0032E02D1022020703D
:103BD00004E00120207001E0032020700DE00420AB
:103BE00020700AE00520207007E00620207004E025
:103BF0000720207001E00520D7E700BFFA89207870
:103C00000C9B0A990AF07CFCCFE7000002460021D9
:103C10000FE0C800094B1858904208D8481CC00053
:103C20001858904203D9C800C01800797047481C42
:103C3000C1B21529EDD300BFFEE7000090270208AE
:103C400010B502460B4600210BE08800074C205CB3
:103C5000904204D1880000191860002010BD481C53
:103C6000C1B20529F1DB0C20F8E700005C07002059
:103C700030B502460B4600210DE008010818084C3B
:103C8000205C904205D10801081800191860002036
:103C900030BD481CC1B21829EFDB0320F8E7000053
:103CA0008C26002000B50246002901D10A2000BD63
:103CB000130017F028F9083A05101B262B30353A67
:103CC0001C484068006908601A4840681030194B69
:103CD0005B6818632BE01748406840690860154826
:103CE00040681430134B5B68186320E0114840684B
:103CF000806908600F48406818300E4B5B68186395
:103D000015E00C484068C069086010E00948406848
:103D1000006A08600BE007484068406A086006E0F7
:103D200004484068806A086001E00520BFE700BFE2
:103D30000020BCE7D42100201CB504460E48406892
:103D4000FF301930017D6846817144710D21017188
:103D500009484068FF302130C07F012802D10E2081
:103D60006946087104494968087801A910F005F905
:103D700000900098C0B21CBDA41F00200246002382
:103D80008A4201D1CBB201E0501EC3B258B2704793
:103D900070B50948046945698669A419002C0AD0E0
:103DA00008220649204604F0E7F9042203491031AD
:103DB000284604F0E1F970BD4000F81FAA0A00206F
:103DC000F8B5044600250026002700BF5420005DFA
:103DD000012801D10220F8BD01215420015500BF66
:103DE000206880688007800F012806D1206800685D
:103DF0000840002801D0012000E0002000283FD129
:103E0000A06DFF210131884302210843A06520688D
:103E1000C0688707BF0F2068C068800880002168DD
:103E2000C860206880680121C9070843216888604C
:103E300003F02EFC064611E003F02AFC801B0A2842
:103E40000CD9A06D0221884310210843A06500BF52
:103E500000215420015500BF0120BCE72068806884
:103E6000C00FC0070028E7D12068C0683843216828
:103E7000C860A06D0221884301210843A06504E0C9
:103E8000A06D20210843A065012500BF002154201A
:103E9000015500BF28469EE770B504460D4600BF99
:103EA0005420005D012801D1022070BD0121542061
:103EB000015500BF20688068042108408008002860
:103EC0000AD0A06D20210843A06500BF0021542026
:103ED000015500BF0120E8E72D496868884229D0D4
:103EE0002068806A29684903490B08432168886271
:103EF00028684003400B2749084001218904884273
:103F000008D12548806849010843234988600A2070
:103F1000FDF7BEF928684003400B20490840012105
:103F2000490488422CD11C488068490108431A4939
:103F3000886025E02068806A29684903490B884326
:103F40002168886228684003400B1249084001211B
:103F50008904884205D110488068490188430E4988
:103F6000886028684003400B0C490840012149043F
:103F7000884205D10848806849018843064988601D
:103F800000BF00215420015500BF00208DE7000034
:103F90000110000000000448002701400000024416
:103FA00001460868006C704710B50446002C01D12A
:103FB000012010BDA06D002806D1E065002154202D
:103FC0000155204600F00AF9A06D10210840002894
:103FD00006D12068806804210840800800280AD0A3
:103FE000A06D10210843A06500BF00215420015599
:103FF00000BF0120DDE7A06DFF21013188430221D0
:104000000843A065206880688007800F012807D1D9
:1040100020680068C007C00F002801D0012000E020
:10402000002000283AD100BF032189076068884238
:1040300007D049426068884203D0490060688842DE
:104040000CD1206800698000800821680861206820
:104050000069616808432168086112E0206800690E
:1040600080008008216808615A4880680F2189040F
:104070008843584988600846806861680843554904
:10408000886000BF2068C068182188432168C86024
:104090002068C068A16808432168C8604D488068EE
:1040A0000121490688434B49886008468068218F72
:1040B000490608434749886020688068012109074C
:1040C0000840002804D1206880680843216888607F
:1040D0002068C068404908402168C8602169E068DC
:1040E000022901D1042100E000210843216A49038B
:1040F0000843216B49000843616B0843A1698903A8
:104100000843E169C90308432168C9680843216875
:10411000C860FF21C231A06A884207D0E16AA06A64
:1041200008432168C96808432168C860606A01289B
:1041300012D1206A002807D12068C0680121090433
:1041400008432168C86007E0A06D20210843A065EE
:10415000E06D01210843E065206C012817D120683B
:104160000069FF218900884321680861616CA06CA7
:104170000843E16C08432168096908432168086124
:104180002068006901210843216808610BE020686C
:104190000069C007C00F002805D0206800694008EA
:1041A00040002168086120684069C008C00021689B
:1041B000486120684069E16B08432168486100203C
:1041C000E065A06D0221884301210843A06500201D
:1041D000EFE60000002701401902FEFF7047F8B526
:1041E00004460D46002600276069082801D10827EB
:1041F00011E02068C068C007C00F00280AD0A06D79
:1042000020210843A06500BF00215420015500BFB4
:104210000120F8BD0C2703F03BFA064614E0681CA9
:10422000002811D0002D04D003F032FA801BA842E0
:104230000AD9A06D04210843A06500BF00215420C5
:10424000015500BF0320E4E72068006838400028DB
:10425000E5D0A06D012149020843A0652068C0682F
:10426000032189020840002825D1206A002822D194
:10427000206800680821084008281CD12068806850
:1042800004210840800800280DD1206840680C21D6
:10429000884321684860A06DFF21013188430121D6
:1042A0000843A06507E0A06D20210843A065E06DEC
:1042B00001210843E065A069002802D10C20216893
:1042C00008600020A5E7000070B5044600252068BE
:1042D000806804210840800800282BD100BF5420AA
:1042E000005D012801D1022070BD0121542001553B
:1042F00000BFE069012803D02046FCF7DFFF054638
:10430000002D18D1A06D0D490840FF21013108434F
:10431000A0650020E06500BF00215420015500BFCA
:104320001C202168086020688068042108432168F7
:10433000886000E002252846D6E70000FEF1FFFF76
:1043400001B5009803F000F908BD0000F8B5044677
:104350000E460127002500BF1C48007C012801D122
:104360000220F8BD01201949087400BF1848FFF762
:104370002FFB0746002F22D1401E3060656817E0F2
:104380002846FFF793FA1248FFF722FB0746114829
:104390004068082188430F4948600846406849152D
:1043A00088430C494860002F01D0356006E0803515
:1043B000A068C00161684018A842E1D800BF00BFF2
:1043C00000200249087400BF3846CAE7D81300200D
:1043D00050C3000000200240034840680221084307
:1043E000014948600020704700200240F8B50746A8
:1043F0000C461546012600BF0E48007C012801D15D
:104400000220F8BD01200B49087400BF0A48FFF7DD
:10441000DFFA0646002E06D10649486125600648A7
:10442000FFF7D6FA064600BF00200249087400BF15
:104430003046E6E7D813002050C300000D4840681E
:1044400002210840002810D00A484068C007C00F69
:10445000002804D008480749C8600848C8600848D0
:10446000044908610748086101E001207047002005
:10447000FCE7000000200240EFCDAB8905040302F9
:10448000BFAE9D8C1615141310B50446204602F0DD
:104490007DFE10BD10B50446054840692040002847
:1044A00004D0034844612046FFF7EEFF10BD000032
:1044B0000004014070B50346002200240020DFE024
:1044C000012696400D6835402C46002C77D04D686B
:1044D000022D02D04D68122D15D1D508AE001D4613
:1044E0002035A8595507EE0E0F25B5400646AE43B8
:1044F00030465607F60E0D69B5402843D508AD0085
:104500001E46203670514D68012D08D04D68022D91
:1045100005D04D68112D02D04D68122D18D1986824
:1045200056000325B5400646AE4330465600CD68DA
:10453000B540284398605868012595400646AE432B
:10454000304610264D6835402D0995402843586067
:10455000186856000325B5400646AE4330460D792F
:10456000AD07AD0F5600B54028431860D868560017
:104570000325B5400646AE43304656008D68B5402B
:104580002843D860012636074D683540B54276D1BC
:104590003E4D6D6B012635433C4E75633C4D960890
:1045A000B600A85995072E0F0F25B5400646AE4315
:1045B000304605252D07AB4202D100251AE05EE00A
:1045C000344DAB4201D1012514E0334DAB4201D152
:1045D00002250FE0314DAB4201D103250AE0304DF9
:1045E000AB4201D1042505E02E4DAB4201D105259A
:1045F00000E006259607360FB5402843244D96085F
:10460000B600A851284D28680546A543284601262E
:1046100036044D683540B54202D10546254328464B
:10462000214D286068680546A54328460126760482
:104630004D683540B54202D10546254328461A4DFE
:104640006860A8680546A5432846012636054D68DA
:104650003540B54202D1054625432846124DA86093
:10466000E8680546A5432846012676054D6835408D
:10467000B54202D10546254328460B4DE860521C41
:104680000D68D540002D00D01AE770BD0010024023
:10469000080001400004005000080050000C0050C9
:1046A00000100050001C0050000401400246136935
:1046B0000B40002B01D0012000E000207047002AB1
:1046C00001D0816100E0816270470000014800680C
:1046D00070470000A803002010B50446002C01D14B
:1046E000012010BD242141200155206800684008A8
:1046F000400021680860204600F042FA0020606413
:10470000002141200155002020634220015500BFB7
:104710004020015500BF0020E3E701464120405CF6
:104720007047000010B50446002C01D1012010BDD7
:104730004120005D002805D1002140200155204680
:1047400000F01FFA2421412001552068006840082C
:104750004000216808600F210906606888432168CD
:104760000861206880680121C90388432168886046
:10477000E068012806D10121C903A0680843216827
:10478000886005E021218902A068084321688860CB
:10479000E068022802D180022168486020684068F1
:1047A00014490843216848602068C0680121C90392
:1047B00088432168C860616920690843A1690902CA
:1047C00008432168C860216AE069084321680860DD
:1047D00020680068012108432168086000206064A7
:1047E0002021412001550020206300214220015555
:1047F00000209CE700800002FFB583B004460C9FB8
:104800000E9E00254120005D20286FD1002F02D090
:104810000D98002802D1012007B0F0BD00BF402054
:10482000005D012801D10220F6E701214020015559
:1048300000BF02F02DFF054619230122D1032046B7
:10484000009503F007FC002801D00320E4E72221B3
:1048500041200155402142200155002060646762DB
:104860000D9860850020606300960195204604A99C
:104870000EC903F03FFB002810D0606C042806D15D
:1048800000BF00214020015500BF0120C4E700BF48
:1048900000214020015500BF0320BDE7608DFF28A7
:1048A0000CD9FF20208543480090208DC2B20123FF
:1048B0001B062046049903F0B1FB0BE0608D2085B8
:1048C0003C480090208DC2B201235B06204604992B
:1048D00003F0A4FB00BF33460022042120460095CC
:1048E00003F0B8FB002802D0032095E75FE02068C2
:1048F000406AC1B2626A501C60621170208D401E15
:104900002085608D401E6085208D002829D1608D16
:10491000002826D03346002280212046009503F04F
:1049200099FB002801D0032076E7608DFF280CD981
:10493000FF20208500200090208DC2B201231B069D
:104940002046049903F06AFB0BE0608D208500206F
:104950000090208DC2B201235B062046049903F02B
:104960005DFB608D0028B6D12A463146204603F013
:104970009AFB002806D0606C042801D101204BE787
:10498000032049E720202168C861206840680A495F
:104990000840216848602021412001550021422023
:1049A000015500BF4020015500BF002034E7022020
:1049B00032E700000024008000E800FEFFB583B06D
:1049C00004460C9F0E9E00254120005D202870D1DA
:1049D000002F02D00D98002802D1012007B0F0BDB1
:1049E00000BF4020005D012801D10220F6E701212F
:1049F0004020015500BF02F04BFE0546192301225D
:104A0000D1032046009503F025FB002801D00320A8
:104A1000E4E7212141200155402142200155002099
:104A2000606467620D986085002060630096019560
:104A3000204604A90EC903F0A7FA002810D0606C24
:104A4000042806D100BF00214020015500BF0120ED
:104A5000C4E700BF00214020015500BF0320BDE78F
:104A6000608DFF280CD9FF20208500200090208D2C
:104A7000C2B201231B062046049903F0CFFA0BE0D3
:104A8000608D208500200090208DC2B201235B063E
:104A90002046049903F0C2FA00BF2A463146204658
:104AA00003F02EFB002807D0606C042802D10120FF
:104AB00094E760E0032091E7616A481C606208782F
:104AC00021688862608D401E6085208D401E208593
:104AD000208D002829D1608D002826D03346002261
:104AE00080212046009503F0B5FA002801D003206C
:104AF00074E7608DFF280CD9FF20208500200090EE
:104B0000208DC2B201231B062046049903F086FAC9
:104B10000BE0608D208500200090208DC2B2012323
:104B20005B062046049903F079FA608D0028B4D121
:104B30002A463146204603F0B6FA002806D0606CBB
:104B4000042801D1012049E7032047E720202168FC
:104B5000C8612068406809490840216848602021F0
:104B60004120015500214220015500BF4020015540
:104B700000BF002032E7022030E7000000E800FE1E
:104B80007047704702480068401C01490860704740
:104B9000A803002010B50648006802210843044914
:104BA0000860032000F006F800F008F8002010BDAF
:104BB00000200240014600207047000010B50C485C
:104BC000806B0121090708430949886300F0F8FC5C
:104BD00000F0ECFC0748006808210843054908601C
:104BE00000BF00BF00F0D8FC02F0BAFB10BD00000F
:104BF00000100240002002400146002915DBCB06D0
:104C0000DB0E01229A400A4B1A6000BF00BF00BFB2
:104C1000BFF34F8F00BF00BF00BF00BF00BF00BF8A
:104C2000BFF36F8F00BF00BF00BF00BF7047000021
:104C300080E100E00146002905DBCB06DB0E012206
:104C40009A40024B1A6000BF7047000000E100E08C
:104C500070B504460D4616462946204616F060F902
:104C600070BD000000BF00BF00BF00BF00BFBFF3AA
:104C70004F8F00BF00BF00BF06480749C86000BF94
:104C800000BF00BFBFF34F8F00BF00BF00BF00BF1A
:104C900000BFFDE70400FA0500ED00E002461168E0
:104CA00001239B20800083505820405A18435823EA
:104CB00058525820405A0223184358235852002073
:104CC000704701460A6801234D20C0004350002070
:104CD00013235B01CB1818705420805A012318430A
:104CE000542398525420805A022318435423985234
:104CF00000207047704770B505460C468020204064
:104D0000802805D16007060E28462830311804E0B7
:104D100066012846FF3029303118002A03D10020CF
:104D20000873CB8004E0012008730B81180C4881C4
:104D3000002070BD70B504460D466B012146283138
:104D400059184A69272109010859294614F07AF9A6
:104D500070BD70B504460D466B012146FF31293107
:104D600059184A69272109010859294614F000FAFF
:104D700070BD10B50446002C01D1012010BD0320E8
:104D80001121490161184872204600F0C5FB2046F8
:104D900000F014FB0020112149016118487200BF86
:104DA000ECE710B5044600BF112040012018007A3E
:104DB000012801D1022010BD0120112149016118F3
:104DC000087200BF206815F0E1FB00BF0020112130
:104DD00049016118087200BF00BFECE770B50446D6
:104DE0000E4680203040802807D17007010E2046F3
:104DF00028300D180120687007E07007010E20466A
:104E0000FF3029300D18002068707007400F28709F
:104E100000BF112040012018007A012801D1022092
:104E200070BD0120112149016118087200BF294697
:104E3000206815F06FFA00BF0020112149016118A8
:104E4000087200BF00BFEBE770B504460E4630079E
:104E5000000F6168884201D9012070BD8020304078
:104E6000802807D17007010E204628300D18012038
:104E7000687007E07007010E2046FF3029300D18DA
:104E8000002068700020A8707007400F287000BFD5
:104E9000112040012018007A012801D10220DCE70E
:104EA0000120112149016118087200BF29462068BC
:104EB00015F096FB00BF002011214901611808720E
:104EC00000BF00BFC9E702460020704702464807FE
:104ED000030E1046FF3029301818C0697047FFB51F
:104EE00081B005460E461F460020009080203040CD
:104EF000802807D17007010E284628300C180120A1
:104F0000607007E07007010E2846FF3029300C184A
:104F1000002060707007400F207003982061E770D8
:104F20006078002801D02078E081022F01D1002094
:104F3000207100BF112040012818007A012802D1F9
:104F4000022005B0F0BD0120112149016918087245
:104F500000BF2146286814F0A3FF00BF00201121E4
:104F600049016918087200BF0098EAE7FFB581B0EF
:104F700005460E4617467007010E2846FF302930B9
:104F80000C1867610498A0610020E06160707007F0
:104F9000400F20707007400F002804D12146286878
:104FA00015F0B4FB03E02146286815F0AFFB0020A4
:104FB00005B0F0BD70B504460D466807400F616846
:104FC000884201D9012070BD80202840802807D167
:104FD0006807010E204628300E180120707006E088
:104FE00069012046FF3029300E1800207070012022
:104FF000B0706807400F307000BF112040012018CA
:10500000007A012801D10220DDE7012011214901A8
:105010006118087200BF3146206815F049FB680727
:10502000400F002805D1232109016118206815F0DF
:10503000D3FA00BF0020112149016118087200BF96
:1050400000BFC0E7FFB581B005460E4617467007A2
:10505000010E284628300C1867610498A0610020D2
:10506000E061012060707007400F20707007400FF2
:10507000002804D12146286815F048FB03E02146AA
:10508000286815F043FB002005B0F0BD10B50446BC
:10509000206815F049FD0121C9030840884202D16A
:1050A00020460CF0E1F8206815F03EFD0121890250
:1050B000084088420DD120684030808888432168AC
:1050C00040318880204600F0A9F90021204600F0F8
:1050D000D7F9206815F028FD01218903084088428E
:1050E00006D120684030808888432168403188801C
:1050F000206815F019FD012149030840884206D1B6
:10510000206840308088884321684031888020684A
:1051100015F00AFD01210903084088422BD12068BF
:105120004030008858490840216840310880206894
:10513000403000885449091F0840216840310880E8
:105140001320400120180078012808D100201321E5
:1051500049016118087000212046FFF7CBFD204669
:1051600000F070F9206840308088012109038843ED
:10517000216840318880206815F0D6FC0121C902E1
:105180000840884224D12068403000880821084324
:105190002168403108802068403080880121C902A0
:1051A000884321684031888020684030008804218D
:1051B0000843216840310880206815F0B5FC0121C2
:1051C00009030840000B002802D1204600F0D0F966
:1051D000206815F0A9FC80210840802832D1206881
:1051E0004030808888432168403188801320400106
:1051F00020180078002822D120684030008804213F
:105200000843216840310880206840300088082128
:1052100008432168403108800120132149016118A9
:10522000087020684030808AF02108408108992069
:105230008000015101212046FFF75CFD02E020467D
:1052400000F096F9206815F06FFC01214902084032
:10525000884209D1206840308088884321684031E5
:105260008880204600F004F9206815F05DFCFF21DD
:1052700001310840884206D1206840308088884348
:1052800021684031888010BDFBFF000030B585B03B
:105290000446002C02D1012005B030BD1120400190
:1052A0002018407A002806D111214901611808729E
:1052B000204600F099F80320112149016118487235
:1052C000206815F07DF9002523E001216A012046C0
:1052D0002830101841706901204628304554690172
:1052E0000818C58100216A01204628301018C170B5
:1052F0006A0120462830101801616A0120462830D2
:10530000101841616A012046283010188161681C1C
:10531000C5B26068A842D8D8002523E000216A0100
:105320002046FF3029301018417069012046FF30B7
:105330002930455400216A011018C1706A012046C5
:10534000FF302930101801616A012046FF302930F2
:10535000101841616A012046FF3029301018816120
:10536000681CC5B26068A842D8D814222146103102
:105370006846FAF77CFF20460FC815F010F90028A0
:1053800006D002201121490161184872012083E7EB
:105390000021242001550120112149016118487282
:1053A000E069012802D12046FFF78BFC206A012822
:1053B00002D12046FFF772FC00206DE710B50446CD
:1053C00007492068884209D10648806B0121C90538
:1053D0008843044988631F20FFF70EFC10BD0000BE
:1053E000005C00400010024010B5044609492068E6
:1053F00088420ED10848806B0121C905084306493F
:105400008863002211461F20FFF722FC1F20FFF7B0
:1054100011FC10BD005C00400010024070B5044655
:105420000125A068022801D0FEF7BEF92721090155
:105430000859294614F019F827210901085913F0D1
:10544000BAFF70BD10B50446A069002807D0074810
:105450000069062188430549086113F0CEF8272129
:105460000901085913F0DEFF10BD000000ED00E057
:1054700010B5044627210901085913F0DEFF10BDBD
:1054800070B504460D4600BF112040012018007A77
:10549000012801D1022070BD0120112149016118AC
:1054A000087200BF242005552946206815F060FBCE
:1054B00000BF0020112149016118087200BF00BF20
:1054C000E9E710B5044627210901085923210901FC
:1054D000611813F0E1FF10BD10B5044600BF1120A4
:1054E00040012018007A012801D1022010BD0120BE
:1054F000112149016118087200BF206815F03CF8BD
:10550000206815F0FDFA00BF002011214901611843
:10551000087200BF00BFE9E710B5044600BF1120C4
:1055200040012018007A012801D1022010BD01207D
:10553000112149016118087200BF206815F040F878
:10554000206815F01DFB002808D000BF00201121A5
:1055500049016118087200BF0120E7E700BF002081
:10556000112149016118087200BF00BFDEE7000089
:1055700010B5044627210901085914F006F8A0695E
:10558000002805D003480069062108430149086145
:1055900010BD000000ED00E0034800680121890211
:1055A00008430149086070470070004003480068E4
:1055B000012149020843014908607047007000401A
:1055C00003480068102188430149086070470000C3
:1055D0000070004010B5024600200B4B1868800890
:1055E0008000034613431846074B1860074B1B699E
:1055F0000424A343054C2361012901D130BF02E0FB
:1056000040BF20BF20BF10BD0070004000ED00E093
:1056100010B5024600200E4B186880088000034633
:10562000134318460A4B18600A4B1B690424234392
:10563000084C2361012901D130BF02E040BF20BFE7
:1056400020BF044B1B690424A343024C236110BDFB
:105650000070004000ED00E0F8B50446002600258B
:1056600020212068084020287CD12068084020287C
:1056700000D100BF00279148806B01210907084035
:10568000002805D18D48806B08438C498863012729
:105690008B480068FF2101310840002816D1884856
:1056A0000068084386490860FFF710F8064606E0E0
:1056B000FFF70CF8801B642801D90320F8BD80484F
:1056C0000068FF21013108400028F1D07B480068C4
:1056D000032109050840054660680840A8420DD02E
:1056E000091160680840884208D1744800680121A7
:1056F00049040840002801D00120DFE76F4840300E
:1057000000690321090408400546002D3CD060686B
:105710000840A84238D0202120680840202833D1F2
:105720006648403000690321090488430546634800
:10573000403000690121C9040843604940310861D3
:10574000084600690121C90488435C494031086169
:105750000846056180152840002815D0FEF7B6FFE1
:10576000064608E039E0FEF7B1FF801B5549884244
:1057700001D90320A2E751484030006901214902C4
:105780000840400A0028EED000BF00BF03210904F2
:105790006068084088420AD1484800680901884387
:1057A000032212056168114008434449086000BFA4
:1057B00042484030006903221204616811400843E6
:1057C0003E494031086100BF012F05D13B48806B45
:1057D000890588433949886300BF2078C007C00F16
:1057E000002809D035484030C06880088000A16892
:1057F000084332494031C86002212068084002282D
:1058000009D12E484030C0680C218843E168084324
:105810002A494031C86004212068084004280AD180
:1058200026484030C0680321890288432169084323
:1058300022494031C86008212068084008280AD160
:105840001E484030C068032109038843616908434A
:105850001A494031C860FF21013120680840884260
:105860000AD116484030C068032109048843A16961
:10587000084312494031C860402120680840402850
:1058800009D10E484030C06809058843216A0843A1
:105890000A494031C86080212068084080280AD128
:1058A00006484030C068032189048843E169084301
:1058B00002494031C860002000E7000000100240AB
:1058C000007000408813000070B504460D460026A5
:1058D00076480068C007C00FA8420ED2734800681F
:1058E0004008400028437149086008460068C00726
:1058F000C00FA84201D0012070BD022120680840DD
:10590000022807D16A48C068F0218843A16808438B
:105910006749C8602078C007C00F00284CD0606875
:10592000022809D162480068012149040840400C5E
:10593000002824D10120DFE76068032809D15C48F2
:105940000068012149060840400E002817D10120B7
:10595000D2E76068012808D1554800680421084052
:10596000800800280BD10120C6E7514800680121BA
:1059700049020840400A002801D10120BCE74C48F8
:10598000C06880088000616808434949C860FEF724
:105990009DFE0646606802280FD107E0FEF796FEDE
:1059A000801B4449884201D90320A5E74048C068CC
:1059B0000C2108400828F1D134E0606803280FD199
:1059C00007E0FEF783FE801B3A49884201D9032095
:1059D00092E73748C0680C2108400C28F1D121E03B
:1059E000606801280FD107E0FEF770FE801B314987
:1059F000884201D903207FE72D48C0680C21084068
:105A00000428F1D10EE007E0FEF760FE801B294973
:105A1000884201D903206FE72548C0680C2108405F
:105A20000028F1D121480068C007C00FA8420ED954
:105A30001E4800684008400028431C49086008468A
:105A40000068C007C00FA84201D0012054E704211C
:105A500020680840042808D11548C06807210902B9
:105A60008843E16808431249C8600821206808405B
:105A7000082809D10E48C0680721C9028843216956
:105A8000C90008430A49C86000F01AF80849C96803
:105A9000F02211400909084A515CC84007490860D2
:105AA0000320FFF787F8002026E7000000200240CF
:105AB00000100240881300001F290208A4030020E0
:105AC000FEB500250026002700240020019000904C
:105AD0002F48C5680C202840002847D0042804D04F
