:020000040800F2
:100000000000012015F40108C1E00108C3E0010867
:10001000C7E00108C9E00108CBE0010800000000CA
:10002000000000000000000000000000CDE001081A
:10003000CFE0010800000000D1E00108D3E0010892
:1000400065F4010865F4010865F4010865F4010828
:1000500065F4010865F40108E3E00108EDE001083A
:10006000F7E0010801E101080BE1010865F401086E
:1000700065F4010865F4010865F4010865F40108F8
:1000800065F4010865F4010865F4010865F40108E8
:1000900065F4010865F4010865F4010815E101083B
:1000A00065F4010865F4010865F4010865F40108C8
:1000B00065F40108000000000000000065F401087C
:1000C00065F4010865F4010865F4010865F40108A8
:1000D00065F4010865F4010865F4010865F4010898
:1000E0003BE10108DBE00108000000000000000027
:1000F0000000000000000000000000000000000000
:100100000000000065F401080000000065F401082B
:10011000000000000000000065F4010865F401081B
:1001200065F4010865F4010865F4010865F4010847
:1001300065F401080000000000000000000000005D
:1001400065F4010865F4010865F4010871E101082E
:1001500065F4010865F4010865F4010865F4010817
:1001600065F4010865F4010865F401080000000069
:1001700065F4010865F4010865F401080000000059
:0C01800065F4010865F4010865F401084D
:1001900010B5054C237833B9044B13B10448AFF3C1
:1001A00000800123237010BD8004002000000000A7
:1001B000B862020808B5034B1BB103490348AFF30B
:1001C000008008BD0000000084040020B86202081E
:1001D00008B50146024800F04FF9002008BD00BFF5
:1001E0009856002008B5024800F052F9002008BDDA
:1001F000985600200146014800F04CB9985600205E
:1002000030B585B00D460DF10F040146019204484A
:1002100000942A4600F0F4FA9DF90F0005B030BDB5
:100220009856002030B585B00D460DF10F040146FB
:100230000192044800942A4600F018F89DF90F0036
:1002400005B030BD9856002030B585B00D460DF193
:100250000F0101922B4602460091034800F034F949
:100260009DF90F0005B030BD985600202DE9F04FE4
:1002700089B01F46129B4FF0000C83F800C03B78FA
:1002800005460C461646CBB1DDF84C904FF0000801
:1002900001206FF0704E0022002300EB0E0109EBED
:1002A0000111C1E90023C1F80880A1F80CC081F850
:1002B0000EC039780130C0B28142EED2002E60D03B
:1002C0004FF001084FF0000908F1805A0AF1FF3A97
:1002D00004EB0A1A64499AF80D20531EDBB241FA66
:1002E00003F0172B4FF0010101FA03F100F28D80AA
:1002F0005E4BC0071A4440F1888011EA090F49EAB1
:10030000010940F0928012F801BCDAF8083002933B
:1003100005EB8B021846D2F86413039203F0E0FE5B
:10032000029B01461846002979D1039AD2F884131A
:1003300003F0F4FE08F1010805EBCB0B5FFA88F837
:1003400000286CD1DAE90001DBE97423994208BF87
:10035000904203D1129B4FF004021A704645B3D26B
:10036000013EF2B204F1100606EB0216A368617BAF
:100370000093D4E900232846103401F07BFBA64209
:10038000F4D1284600F0E6FF97F80080B8F1000F9E
:1003900051D00023DFF8D890DFF8D8B098464FF658
:1003A000FF7A02E0152C234624D049FA03F25C1CA4
:1003B000D207E6B2F6D513F80B3003F28B133146B1
:1003C00035F8133053452846ECD001F09FFA002849
:1003D000E8D00DF11303009305AA06AB3146284679
:1003E00001F072FA3B78434508F1010227D8129ACE
:1003F000032313700023C5F8F432284600F048FCAC
:1004000087F8008009B0BDE8F08F129AFF234FF003
:100410000008137087F8008009B0BDE8F08F129AC9
:10042000FE2313704FF00008EAE7129AFA231370C4
:100430004FF00008E4E7129A02231370DAE75FFA3C
:1004400082F81398DDE9062308F18051013900EBA9
:100450000111C1E9002305989DF813304E73012264
:1004600088600A738B739DE70F20E0008873020891
:10047000EF7912007073020810B4042001240822DE
:1004800000230C70487010BC8A70CB70704700BF9E
:1004900000F080BB0139032901D90020704710B555
:1004A0000446603001F0BAFF2046012101F088FBCC
:1004B000044BA3652046E365022101F081FB002087
:1004C00010BD00BF0000C8412DE9F04F8BB00021E6
:1004D000159D149E2961C5E90211297504463170E4
:1004E0001F46B0F86EA4164600F0D2FBD4E9D489BA
:1004F00058EA090339D0B6EB08034FF00002059320
:10050000B849B94BB4F86C844FF0000067EB090BA5
:1005100023F0ECFC02F064FC03F0B8FE0B46A0FBF9
:10052000080103FB0811059BC31A029361EB0B033F
:100530000393DDE902234FEA101848EA01784FEAF5
:100540002119904579EB0303C0F21F81059B1B1A0B
:1005500006936BEB01030793DDE90623904579EBE6
:10056000030302DA149A642313700023002000218D
:100570000DF12608C5E90001C5E902332B612B7591
:100580002A460DF12503CDF800800121204600F018
:1005900085FB9DF82530BDF826902BB194F8B93431
:1005A0006B7494F8B734AB740DF125032A46CDF87B
:1005B00000800221204600F071FBBDF826309DF836
:1005C0002520994528BF99462AB194F8B834EB7490
:1005D00094F8B734AB740DF125032A46CDF80080AA
:1005E0000321204600F05AFBBDF826309DF8252057
:1005F000994528BF994612B194F8B734AB740DF100
:1006000025032A46CDF800800421204600F046FB51
:10061000BDF826309DF825204B4528BF4B469A450E
:1006200028BF9A460AB301232B7494F8B6846F4B03
:1006300004EB48085B7DB8F88024AA8194F8B824BC
:10064000EA7494F8B724AA74A133002154F8230063
:1006500003F03CFD00286BD094F8BB34002B67D12D
:10066000B8F87834EB81C4E9D667B4F8B434B3FB96
:10067000FAF20AFB1232AAEB020A1FFA8AFAB4F85B
:1006800070C4C4F8506353449BB2B3FBFCF20CFB40
:100690001233C4F854730022A4F8B4345149524BB5
:1006A000A4F86CA40020ADF826C023F01FFC02F0D3
:1006B00097FB03F0EBFDA0FB0A8901FB0A99D4E943
:1006C000D60118EB060649EB07070023301A67EB43
:1006D0000101C5E9006784F8BB3403F025FB4449F8
:1006E00003F014FC4349054603F0FAFC28B16523E6
:1006F00084F8BC340BB0BDE8F08F3F49284603F0C6
:100700000DFD0028F3D1D4E9D801301A67EB0101BF
:1007100003F00AFB364903F0F9FB364903F0E0FC2D
:10072000002859D0662384F8BC340BB0BDE8F08FA4
:10073000D4E9D623D4E9D801824273EB010CBCBFC3
:1007400002460B46B01A67EB030103F0EDFA2849A5
:1007500003F0DCFB00F0BCFB94F8BB34E88193B3FE
:100760004FF07E53009332463B461621204601F05F
:1007700081F9AB6843F40013AB6094F8BB34002BF1
:100780003FF471AFC4E9D8676FE7174B1549B4F868
:100790006C8400220020D4E9D46723F0A7FB02F088
:1007A0001FFB03F073FD0B46A0FB080103FB0811C0
:1007B0008619149A41EB07076423C5E90067137093
:1007C0000BB0BDE8F08F0023009332463B46162164
:1007D000204601F04FF9D0E784F8BC040BB0BDE827
:1007E000F08F00BF0000244000001C408873020806
:1007F000286B6E4E00007042000070430000000045
:100800002DE9F04F8FB09146189A04930024834647
:100810000D46147000F28A411C2207A81EF054FEF7
:10082000B9F1000F40F09B80189A0C23137007A9B0
:10083000584600F05DFA189B002840F0388193F983
:1008400000000028C0F2C2809A4D9B4E0124631E16
:1008500045FA03F3DF07E1B20ED5A35D0EAA02EB62
:1008600043020BEB430332F81E2CB3F88834934257
:10087000584601D000F074FB0134162CE7D1049BDC
:100880001B78072B40F2A7800021DFF83C92894EAD
:10089000DFF840A20291CDF804B003E0182D2946FC
:1008A00000F09E80854B0B414D1CD807EAB2F5D570
:1008B000029B199803950133DBB2029303F10053B5
:1008C000013B00EBC30701243A718C4040F83390A0
:1008D0004FF0000816E018F80330019A02EB4303CA
:1008E000B3F888044FF6FF73984206D003F006FA77
:1008F0000146734803F00AFB386008F10108B8F1BB
:10090000150F2AD046FA08F3DB07F6D55AF8283037
:100910001C424946F1D0D7F800B0584603F0D6FB48
:10092000684B0028D7D118F80320019B03EB420243
:10093000B2F8880403F0E2F90146614803F0E6FAF0
:1009400005462946584603F0CBFB0028D5D008F1D0
:100950000108B8F1150F3D60D4D1039D9EE72B79B6
:10096000013B012B40F28E8001940124DDF8608070
:10097000CDF80CB011E04F4A1A41D20717D5012229
:1009800002FA03F3019A1A40029230D0F32388F856
:1009900000300134E4B2A14510D304F10057013F07
:1009A00005EBC7063379013BDBB2142BE3D90134E5
:1009B000E4B20A23A14588F80030EED2189BDDF896
:1009C0000CB093F90030002BBFF631AF049B1B78BD
:1009D000072B3FF659AFF123189A137000230293A7
:1009E000049B1A46029B13700FB0BDE8F08F019A6A
:1009F00055F837A01A4300215046019203F066FBD8
:100A000048B3F62388F8003055F837A00021504647
:100A100003F05CFBD346F0B10021584603F07EFBA7
:100A2000002859D15846002103F050FBB0FA80F35A
:100A30005B095B429FB298F90030002BA9D1337952
:100A4000DFF880B09B440EAA1BF8013C02EB430385
:100A500023F81E7C9DE71C49504603F037FB002815
:100A600073D11A49504603F059FB28B9184950462A
:100A700003F036FB002877D0F22388F8003055F8D1
:100A800037B0C9E72868002103F020FB00285ED0BA
:100A9000BDF81C2047F230539A425BD0BDF81E20AF
:100AA0009A4257D0189A02940B23137098E7187043
:100AB000C7E600BFEF7912006F7302080F20E00055
:100AC0000000C8427073020800FF7F470000204109
:100AD0000E74DA3A1C7302082B49584603F000FBE7
:100AE00000289FD059462948DFF8A4B003F00EFA39
:100AF00023F094F903F042FBDDF808A00295039D72
:100B0000059487B233795B4413F8013C534403F2F4
:100B1000D3130AF10E0A35F81340204602F072FC96
:100B200017A3D3E9002302F0E7FC02F059F902F021
:100B3000BBFF83B2E21A1C4493B2BB42A4B215D8E5
:100B4000BC4213D3059C029D75E7D3466AE701902A
:100B500001240BE79BF9BC34002B7FF43DAF01224D
:100B600002938BF8BB243BE7D34655E7BAF1540F09
:100B7000C8D1F423059C029D88F8003009E700BF26
:100B80007B14AE47E17A843F00FF7F470000C842F4
:100B90007073020810B5044600F06AFB204600F0AE
:100BA00005FB204600F0F6F9204610BD2DE9F04780
:100BB0000646324F324D00F031FF012402E001348D
:100BC000162C10D0631E47FA03F3D807E1B2F6D50E
:100BD000635D06EB43033046B3F88824013400F02C
:100BE000A3FF162CEED1304600F098FEDFF88C9073
:100BF000244FDFF89880002402E00134152C1AD02D
:100C000049FA04F3DA07F8D5E35D334493F8A534E1
:100C1000002BF2D038F914A0002302E00A2D2B4655
:100C2000EBD05D1C4AFA03F3DB07E9B2F6D5304698
:100C300000F042FFF2E70024214686F8BA440E2273
:100C400006F2A6401EF04EFC0F4B86F8B644DB7849
:100C500003F28313214636F8130006F2724333F889
:100C6000022B904201F1010103D00429F7D1BDE824
:100C7000F08786F8B614BDE8F08700BFEF79120060
:100C80006F7302087073020888730208F07202081A
:100C900090F8BA3403B9704788E700BF70B40139DF
:100CA000124D039C6D5C05F28315002630F815503B
:100CB0001E704FF6FF76B542258010D0B0F8B464B0
:100CC000B6FBF5F405FB1465ADB255B99068012487
:100CD000C9B204FA01F101431C701475916070BC33
:100CE000704790F8BB040028F9D0EFE7887302083A
:100CF0002DE9F04F714C724E07460D4683B000232C
:100D00006FF000414FF6FF7044FA03F2D20740F152
:100D1000B780F25C0A4435F81220B2F5E16F00F0BA
:100D2000AF80824200F0AC80B7F86EC46348614681
:100D300000236FF0004440FA03F2D20706D5F25CBC
:100D4000224435F81220914228BF11460133152B59
:100D5000F1D14FF6FF7081421FD0BCFBF1F301FBD4
:100D600013C39BB2002B40F0A380544C6FF0004C97
:100D700044FA03F2D2070DD5F25C624435F812E072
:100D8000864507D0BEFBF1F201FB12E292B2002AC7
:100D900040F08E800133152BEAD14FF6FF71494A9E
:100DA000464C8E4600236FF0004852F8040B0007B3
:100DB00044FA03FC02D51CF0010F68D10133152B56
:100DC000F3D14FF6FF7399425FD007F272430024CC
:100DD00002E00134042C09D033F8022B8A42F8D106
:100DE00007EB4404B4F87A440434A4B2334ADFF87D
:100DF000D8B0DFF8D8A001944FF0000842FA08F309
:100E0000DB0734D516F8083003F10043013B35F811
:100E10001390484602F072FF97F8B9C497F8B834B7
:100E2000019A044697F8B7044FEA4C0C40005FFA69
:100E30008CFCC0B25B006044DBB20344134498B244
:100E400002F058FF594602F0ADFF514603F05EF83C
:100E50000146204603F044F9184A40B14FF6FF73AB
:100E6000994504D06FF0110003B0BDE8F08F08F190
:100E70000108B8F1150FC1D1002003B0BDE8F08F13
:100E80000133152B7FF440AFF6E70424AEE7F05CA6
:100E9000404435F81000704590D0714506D081422D
:100EA0008CD06FF0100003B0BDE8F08F014685E7ED
:100EB0006FF00F0003B0BDE8F08F00BFEF791200B4
:100EC000707302081C7302080000C84200007A44D4
:100ED00070B54FF08141044623F0FCF819490546EE
:100EE000204623F0F7F818490646284602F05AFF34
:100EF00016490546304602F055FF0146284602F0E5
:100F000049FE21460546204602F04CFF104902F0FA
:100F100049FF0146284602F03DFE0E49054620469F
:100F200002F040FF0146284602F034FE0A4902F072
:100F300031FE0A4902F036FF22F070FF03F01EF97D
:100F400080B270BD00004040598207B0DFE0C2347B
:100F50003767D9B85A8E863C6A92E43E00007A44DC
:100F60000B4B0B4410B413F8013C00EB4301B1F8F8
:100F70008844944204D0013B0344012483F8A644EE
:100F80000123A1F8882410BC80F8BA34704700BF50
:100F9000707302082DE9F04140F201530546022228
:100FA00080F8B724A0F8B83418226E4900F27240D5
:100FB00005F2A6341EF088FA05F24E4623464FF697
:100FC000FF7223F8022FB342FBD16748DFF8C0C19C
:100FD000664F674BDFF8BCE1DFF8BC81654AC5F8B6
:100FE0003CE440F2DC51A5F840144FF06411C5E92F
:100FF000EACCC5E9FE70C5F8C0C3C5F8CCC3C5F8D6
:10100000B8C3C5F81834C5F81C34C5F82034C5F881
:101010002434C5F82834C5F83034C5E9F111C5E9E0
:10102000F877C5E9FA77C5F8D413C5F8DC13C5F825
:10103000B013C5F8D083C5F8F073C5F80004C5F83F
:101040000404C5F80804C5F80C04C5F81404C5F870
:10105000B423C5F8BC1340224749C5F848E4C5F895
:10106000D8C3C5F8F473C5F81004C5F82C3405F5D9
:101070005A701EF029FA4149DFF82081DFF820E19B
:10108000DFF820C13E4F3F48C5F8701300234FF0F2
:1010900080423D49C5F86C33C5F86833C5F87C33E8
:1010A000C5F88033C5F88433C5F89C23C5F8A02360
:1010B000C5F8A413C5F87483C5F890E3C5F88CC3CC
:1010C000C5F88873C5F89403334605F26A414FF6B4
:1010D000FF7223F8022F9942FBD147F230520023CE
:1010E000A5F86E24A5F870344FF6FF7134F8023F6E
:1010F0008B4205D0B5F870249A4238BFA5F87034F9
:10110000A642F3D1214CDFF8A0C00023012744FA06
:1011100003F2D20711D513F80C2005EB4201013A76
:10112000B1F84E04B1F8886486421CBF521982F8A7
:10113000A674A1F8880485F8BA740133152BE6D19A
:1011400005F2A54305F2B341012203F8012F8B42BA
:10115000FBD195F8BA340BB9BDE8F0812846BDE85B
:10116000F04123E590720208080708072C012C01C2
:10117000701770176400307550720208000082C248
:101180000024F449806A494B00001041EF791200B5
:1011900030753075DC05DC053075640000002A43CD
:1011A0000000FA420000C8427073020800220023C7
:1011B000C0E9D423C0E9D623C0E9D823002147F2EF
:1011C000305330B4A0F86C3480F8B614A0F8B414DE
:1011D00000F5916300F2A54200F2A4454FF6FF74BA
:1011E00023F8024FAB4202F8011FF9D1662330BC4D
:1011F000A0F8BA1480F8BC34704700BF194B01390D
:1012000070B45B5C00EB43034FF6FF72B3F8FA4235
:10121000944206D0144CD0F8F82234F9114094438B
:1012200002D0002070BC7047104CD0F8E0526456D9
:10123000AC43F6D1B3F83E53B3F832636C1CA5B29D
:10124000B5FBF6F406FB1454A4B2A3F83E43002CFD
:10125000E7D1012303FA01F11143C0F8F81218464F
:10126000E0E700BFC8720208A8720208BC72020858
:10127000F8B5044600F0DCFC204601F08BFE04F5D6
:10128000CC7001F0B9FC04F1280001F061FA04F11E
:10129000600000F063FD04F5E07504F59C7001F05A
:1012A000E3FB284600F0D2FC284601F08BFE002626
:1012B00004F5227304F5EC7204F52A750020002170
:1012C00043F8046BAB42E2E80201F9D100234FF08E
:1012D000000CC4F8E03204F5297204F5047004F23D
:1012E000E32104F537750026002742F804CFAA420F
:1012F000E0E9026701F8013FF7D1C4E9BD3304F525
:101300003F7204F54275012000214FF6FF731087EC
:10131000A2F8441022F8023B9542F8D1A4F8083311
:10132000A4F80A33A4F80C33A4F80E33A4F810334D
:10133000A4F81233A4F81433A4F8163304F23231AB
:1013400004F216334FF6FF7223F8022F8B42FBD1C3
:101350002046F8BD2DE9F04700239CB00025C0F8D9
:10136000F832052104468DF81A308DF81B300795A8
:101370000895099516951795189519951A951B9521
:101380000A950B95FFF73AFF002800F09280D4F8F9
:10139000A402294602F09AFE002840F02081032191
:1013A0002046DFF820A54FF0FF366FF00047FFF72B
:1013B00025FF002840F08A8001212046FFF71EFF0C
:1013C00038B1D4F8A402002102F080FE002840F0D9
:1013D000588102212046FFF711FF38B1D4F8A4024A
:1013E000002102F073FE002840F08481092120468C
:1013F000FFF704FF38B1D4F8A402002102F066FE22
:10140000002840F00B8200250A212046FFF7F6FE57
:1014100038B1D4F8A402002102F058FE002840F0B0
:101420002A829AF8053003F28B114FF6FF7234F8D6
:101430001110914203F1FF3504D0D4F8E022560791
:1014400000F1B2809AF8063003F28B114FF6FF726A
:1014500034F81110914203F1FF3504D0D4F8E022A2
:10146000D00700F186809AF8073003F28B114FF60F
:10147000FF7234F81110914203F1FF3503D0D4F814
:10148000E02291075AD49AF8083003F28B114FF6F4
:10149000FF7234F81110914203F1FF3503D0D4F8F4
:1014A000E02212072AD40023C4F8E0321CB0BDE8C1
:1014B000F087DFF810A44FF0FF366FF000470321EC
:1014C0002046FFF79BFE00283FF476AFD4F8A40235
:1014D000002102F0FBFD00283FF46EAF09A908AA25
:1014E000CDE9012107AB0093D4F88C32D4F89022D7
:1014F000D4F89412204601F01BF85DE7D4E97C672C
:1015000003F1A902D4F8941244F8221004EBC303A7
:10151000C3E98467002022F081FC02F02FFE2544FD
:1015200085F8E402D4F8F43243F48073C4F8F4325A
:101530000023C4F8E0321CB0BDE8F087D4E9786736
:1015400003F1A902D4F88C1244F8221004EBC3036F
:10155000C3E98467002022F061FC02F00FFE2544FD
:1015600085F8E402D4F8F43243F08003C4F8F4328E
:1015700089E7D4E9766703F1A902D4F8881244F820
:10158000221004EBC303C3E98467002022F046FC69
:1015900002F0F4FD254485F8E402D4F8F43243F077
:1015A0004003C4F8F4325EE7D4E97A6703F1A90294
:1015B000D4F8901244F8221004EBC303C3E9846703
:1015C000002022F02BFC02F0D9FD254485F8E4022E
:1015D000D4F8F43243F02003C4F8F43232E7D4E90B
:1015E0007C670DF12C0C0DF11A01DFF8D8A2CDF8B3
:1015F00008C00DF11B00CDE9001032463B4604F552
:10160000CC7001F00FFB9AF80B809DF81A0002F0E5
:1016100071FB08F1A90904EBC80344F82900C3E9E8
:101620008467284622F0FAFB02F0A8FD08F1FF3893
:10163000A04488F8E402D4F8F4329DF81B009AF82C
:101640000C8043F40063C4F8F43202F053FB08F159
:10165000A90904EBC803024644F829202846C3E937
:10166000846722F0DBFB02F089FD08F1FF38A0441B
:1016700088F8E402D4F8F43243F48053C4F8F43226
:101680001DE7D4F8A032D4F89C02039316AA0AAD41
:101690000021CDE9042502F019FDB0FA80F59DF88E
:1016A0001AC09DF81B00CDF800C06D09099B089A6F
:1016B00007990190029504F1600000F0CFFB9AF8C1
:1016C00011300A9D03F1A90104EBC30244F8215033
:1016D000013BC2E984670020E51822F09FFB02F07D
:1016E0004DFD85F8E402D4F8F43243F40033C4F835
:1016F000F4326EE614AD12A810A90EAA0CABCDE917
:101700000305CDE9012100930A990B9B16AA04F168
:10171000280001F04BF89AF800300C9D0D9803F169
:10172000A90104EBC30244F82150013BC2E98467DC
:10173000E51822F073FB02F021FD85F8E402D4F8ED
:10174000F4229AF801300E9D0F9803F1A90142F09E
:101750000102C4F8F42204EBC30244F82150013B17
:10176000C2E98467E51822F059FB02F007FD85F80D
:10177000E402D4F8F4229AF80230109D119803F193
:10178000A90142F00202C4F8F42204EBC30244F8B7
:101790002150013BC2E98467E51822F03FFB02F0CB
:1017A000EDFC85F8E402D4F8F4229AF80330129D97
:1017B000139803F1A90142F00402C4F8F42204EBE7
:1017C000C30244F82150013BC2E98467E51822F0C6
:1017D00025FB02F0D3FC85F8E402D4F8F4229AF851
:1017E0001430149D159803F1A90142F00802C4F8C1
:1017F000F42204EBC30244F82150013BC2E98467A0
:10180000E51822F00BFB02F0B9FC85F8E402D4F8ED
:10181000F43243F48013C4F8F432E7E5D4E97A896A
:10182000D4F89832B4F860100291CDE9008903939E
:101830003246D4F890123B4604F59C7001F05AF9F8
:101840009AF80D3003F1A90104EBC3020546013BF0
:1018500044F821500020C2E98489E61822F0DEFA1B
:1018600002F08CFC86F8E402D4F8F43243F400531E
:10187000C4F8F432C8E52A46D4F88C32D4F8901271
:1018800004F5E070D4E97A6700F0DCFE9AF80E30D7
:1018900003F1A905024604EBC30144F82520013BEE
:1018A000C1E984670020E518079222F0B7FA02F038
:1018B00065FC85F8E402D4F8F43243F48043C4F8BC
:1018C000F432AEE570730208F0B401390E4C049D99
:1018D000645C04F1A90C00EBC40750F82C6016609E
:1018E000D7E98467C3E900670444012294F8E3322E
:1018F0002B70D0F8F43202FA01F123EA0103F0BCB4
:10190000C0F8F432704700BF70730208D0F8F402D8
:101910000139C9B2084100F0010070472DE9F04FCC
:1019200039493A4CDFF8E8A0DFF8E890DFF8E880C2
:10193000002240F217354FF6FF7704E001320A2A01
:1019400004F101045ED045FA02F3DB07F6D51AF87C
:1019500002C000EB4C0CBCF8FAE2BE45EED000230E
:101960001E4645FA03FB1BF0010F11D039F912B0E6
:101970004BFA03FB1BF0010F0AD01AF803B000EB7F
:101980004B0BBBF8FAB2BB4502D05E4538BF5E4692
:1019900001330A2BE5D1002341FA03FB1BF0010FB1
:1019A00011D094F900B04BFA03FB1BF0010F0AD0E1
:1019B00013F808B00BF2831B30F81BB0BB4502D004
:1019C0005E4538BF5E460133182BE5D1002EB5D0F9
:1019D000BEFBF6FB06FB1BEE1FFA8EF31FFA8BFB1A
:1019E0004BB106F0010E0EEB5606B342A4BF0BF14D
:1019F000010B1FFA8BFB01320A2AACF832B304F157
:101A00000104A0D1BDE8F08F0F20E000BC720208F5
:101A1000C8720208A87202088873020830B400F580
:101A20003F7300F54275012400214FF6FF721C87B9
:101A3000A3F8441023F8022B9D42F8D1A0F8082304
:101A4000A0F80A23A0F80C23A0F80E23A0F8102376
:101A5000A0F81223A0F81423A0F8162300F21633DE
:101A60004FF6FF7200F2323023F8022F8342FBD18F
:101A700030BC7047F0B501390E4C14F801C000EBD2
:101A8000CC0EDEE974459D4208BF944210D00CF1A3
:101A9000A10C16461F46059B40F82C30CEE9746712
:101AA0000122D0F8E03202FA01F10B43C0F8E03233
:101AB000F0BD00BF887302084B1EDAB2092A00D9B4
:101AC0007047184A114411F8012C00EB4202B2F899
:101AD000FA12092BF4D801A252F823F00D1B0008CA
:101AE000131B0008191B0008C11A00081D1B000861
:101AF000C11A0008C11A0008C11A0008C11A00085A
:101B0000051B000800F5E07000F0DEBD603000F05D
:101B10009BBC283000F048BF00F064BD00F5CC70DD
:101B200001F0F6B8C87202081F4B0139F0B45B5CD3
:101B30001E4E1F4F03F28B1340F2173520F813206F
:101B4000002345FA03F4E4070DD536F911401C4192
:101B5000E40708D5FC5C00EB4404B4F8FAC29445F1
:101B600088BFA4F8FA2201330A2BEAD1114D124E94
:101B7000DFF848C0002345FA03F4E7070ED556F80E
:101B800021401C41E40709D51CF8034000EB440444
:101B9000B4F80673974288BFA4F806230133182BC4
:101BA000E9D1F0BC704700BF70730208F072020800
:101BB000C87202080F20E0001C7302088873020834
:101BC0004B1EDAB2092A00D97047184A114411F89D
:101BD000012C00EB4202B2F8FA12092BF4D801A250
:101BE00052F823F0151C00081B1C0008211C0008DB
:101BF000C91B0008251C0008C91B0008C91B0008D8
:101C0000C91B0008C91B00080D1C000800F5E07086
:101C100000F05ABD603000F017BC283000F0C4BEA0
:101C200000F0E0BC00F5CC7001F072B8C872020898
:101C30004FF07C51002210B403240476016010BCE4
:101C400041608160C26002614261704710B401244A
:101C50004FF07C5100220472016010BC426070475A
:101C60002DE9F84F9DF8286004460D461746984622
:101C700006F1FF39002B42D103363549406802F0A6
:101C800091F854F8261001F085FFD7F800A0064619
:101C90005146284601F07CFF0546208802F02EF8C8
:101CA0002C4902F033F900218346284602F036FA27
:101CB000002836D02849606802F074F8D4F8BC10C7
:101CC00002F024F9594602F06DF804460146284610
:101CD00002F024FA88B95146284601F05BFF3146EC
:101CE000044602F0FDF900B92646B8F1000F01D014
:101CF00006F100463E60BDE8F88F2546EBE7136825
:101D0000134903F1004AC2F800A00136406802F00E
:101D100049F854F8261001F03BFF05F1004506464E
:101D2000B6E709F130090BF1004054F8291002F030
:101D3000EDF822F043F901464FF07E5001F028FF04
:101D40000146284602F02EF8D7F800A00546C2E763
:101D5000C178C63D0000C842CBBECB3E2DE9F8435A
:101D60000446304E304D31483149324AA662002394
:101D7000DFF8E480304F314EE562206361636264D6
:101D8000A363E363236404F1480504F15C090020C4
:101D900001F0B4FF45F8040B4D4528616862AE635D
:101DA00004D018F9010B57F8046BF1E70023002069
:101DB000C4F8D030C4F8D430E36123626360A36018
:101DC000E3602361636140F202231D491D4EA4F8C4
:101DD000CA00A4F8CC00606223834FF6FF70022390
:101DE000194A1A4D2080C4F898101948C4F8A01058
:101DF000C4F8AC10C4F8B410C4F8B860154984F83D
:101E0000C830C4F8C000C4F89C20C4F8A420C4F8AA
:101E1000A820C4F8B020C4F8BC50C4F8C4102046B0
:101E2000BDE8F883894100BFCDCCCCBE000040BFE7
:101E3000E17A94BECDCCCCBDD872020852499DBC8B
:101E40000000A041D8550064000020420000E14499
:101E500000C0A8474031774CE97202082DE9F04FE5
:101E600095B015469DF8782004929DF87C20099243
:101E70001E469DF880200A920B460446434940685E
:101E8000039301F08FFF31468346284600F072FF2E
:101E90003F4F0C90394602F041F9002800F00582CE
:101EA0000CA801F05BF82388B3F5967F00F006825A
:101EB000B3F5E16F00F03D82642B11AB0893184637
:101EC0004FF00C0200F01F82A36A059304F1480151
:101ED000A36B06930FAF07971DF0F6FA04F15401B8
:101EE000384608221DF0F0FAD4F8A810D4F89890DB
:101EF0000D91484600F03EFF03460DA80D9301F0FA
:101F00002DF8A768DDF830800021384602F0DEF8B1
:101F1000002841D10D99404601F03AFE01460B9050
:101F200001F040FF119901F03DFF0B9B1299824691
:101F3000184601F037FF0146504601F02BFE139979
:101F400001F028FE494603462846994601F020FE46
:101F5000104901F0DBFF0F9901F024FF109901F007
:101F600019FE0146484601F01DFF4FF07F518246A1
:101F700002F0D4F8002840F084814FF07C515046A4
:101F800002F0AEF850B14FF07C5A07E0C178C63D80
:101F90000AD7233C0000C8424FF07E5A06992846D3
:101FA00001F000FF904901F0B1FF059981464046DC
:101FB00001F0F8FE0146484601F0ECFD01460398A9
:101FC00001F0E6FD394601F0E3FD514601F0EAFE7D
:101FD000394601F0DFFD239B1860074694F9B900EC
:101FE00001F08CFE0146284602F084F8002800F03B
:101FF000018194F9B80001F081FE0146284602F003
:1020000083F8002800F0F68094F8BB0001F076FE1B
:102010000146304602F06EF8002800F0EB8094F89C
:10202000BA0001F06BFE0146304602F06DF8099BE4
:10203000002800F0DF80002B00F0DC800A9B002BE2
:1020400040F0DC802198002102F040F8002800F0E8
:10205000BC81A38C002B40F0B4814FF00109261DF8
:10206000A2464C46DDF88C904FF00008414670685F
:1020700002F02CF8351D414610B17760D9F8007098
:10208000A86802F023F8594648B1286801F080FD9D
:10209000394602F043F810B1AF60D9F800700094EF
:1020A0003946504600232A46FFF7DAFDA868414624
:1020B00002F00CF8002800F07A81022C40F07281C6
:1020C000239B1F68544604F1100204F1180304F125
:1020D000080503944FF0000805921C4655F804AB20
:1020E0003946504602F006F8D5F80490002840F032
:1020F000CB803946484602F007F8002840F0C480FB
:10210000002306933946504601F042FD49460646F3
:10211000384601F03DFD41460746304601F0E0FFFC
:1021200000B146464146384601F0DAFF00B1474665
:102130004146484601F0CAFF002800F0DB80D9463E
:102140003946304621F035FE014601F023FD49466F
:1021500001F0DCFE4FF07E51064601F0DFFF08B1D2
:102160004FF07E56049B002B00F09180099B002BC2
:1021700000F08D801D49286901F0A8FF002840F07B
:10218000F280DFF86C906F6855F8040C394601F066
:10219000FFFC49460646584601F004FE594601F048
:1021A000F9FC0146304601F09BFF002840F0EF802B
:1021B0003846414601F08AFF002840F0E880069B3F
:1021C000002B40F0EB802378FF2B00F01E810133C1
:1021D000DBB2039A237092F8C8209A4240F215812C
:1021E0004FF0804358E000BF0000C842000040406C
:1021F0009A99993E0A9B002B3FF465AFA66800218F
:10220000304601F063FF08B1239B1E6825690D96D7
:102210000021284601F05AFF20B13046594601F00E
:10222000B7FC0546E668E3690F9500213046119337
:1022300001F04CFF08B1239B1E6865690E960021D2
:10224000284601F043FF20B15946304601F0A0FC7A
:102250000546236A229812930DA9082210951DF0B5
:1022600033F9229B0799082298181DF02DF9229B1B
:10227000089903F1100008221DF026F915B0BDE8F9
:10228000F08F4FF07F5A89E6012306933AE7039BCC
:1022900093F8C830237043462B61059BAB4204F191
:1022A000010425D0239B1F6818E70CA80C9700F0A9
:1022B00055FE2388B3F5967F7FF4FAAD11AB0893F2
:1022C0001846236B05930C22236C069304F17001CE
:1022D0000FAF07971DF0F8F804F17C01384608228B
:1022E0001DF0F2F8D4F8B010D4F8A0900D9100E6EB
:1022F000039C83E74946504601F04AFC594621F0C9
:102300003DFD81461CE7636B059304F18401636C1A
:1023100006930FAF07971DF0D7F804F190013846E8
:1023200008221DF0D1F8D4F8B410D4F8A4900D917F
:10233000DFE511AB08931846E36A05930C22E36BC3
:10234000069304F15C010FAF07971DF0BDF804F18F
:102350006801384608221DF0B7F8D4F8AC10D4F85C
:102360009C900D91C5E531464FF07E5001F010FC78
:10237000014601F017FD4FF07D5101F013FD244996
:1023800001F010FD234901F005FC8146FBE6039BAB
:1023900093F8C83023704FF07E537DE720704FF0E4
:1023A000804379E7D9F8007002242E465EE6009457
:1023B000D9F8001006F10C0201235046FFF750FC3B
:1023C0007BE6E28C9B1AA3847DE6219801F0B0FEA7
:1023D00004EB4003A68C0546B3F8C800301A80B25F
:1023E00001F088FC3335074654F8250021F0E6FD5E
:1023F0000146384601F08AFD21F010FD01F0BEFED5
:10240000239B361A1F68A6845DE6034B44E700BF92
:10241000CDCC4C3ECDCCCC3D0000404030B4002370
:102420004FF6FF75002440F202210222058044622B
:10243000018330BC80F8C820C361036243608360BD
:10244000C3600361436170474FF6FF73994244D004
:1024500030B503888B4283B00C46054634D0B1F5C5
:10246000E16F018054D031D8642951D0B1F5967F05
:1024700036D1294B0193294BA3FB04235B09EB8441
:1024800001A800F06BFD019821F02EFC244901F019
:102490003DFD686014B347F23053B3FBF4F004FB26
:1024A00010339BB280B25BBB01F024FC019001A809
:1024B00000F066FD0199084601F06CFB21F018FC64
:1024C00001F05CFE85F8C80003B030BD47F2305320
:1024D000994205D1134B0193CDE770471248E5E7C8
:1024E0000E4B104A0192A3FB04235A09642101FBFD
:1024F000124292B2312A4FEA5313BCD90133BEE7DC
:1025000004F0010101EB5404A342A8BF0130CBE762
:10251000064B0193AFE700BF0AD7233F1F85EB515E
:10252000502C633E304C463F00FF7F479A99193F3D
:102530002DE9F04F0C4689B0814608462849DDE96F
:1025400012769246984601F0D5FD00B1244CD9F898
:102550000C00002101F0BAFD0DF1040B002832D16E
:102560005846019400F0FAFC0198CDF80CA0CDF883
:10257000108005ADA9F104040DF10C0A09F1080B56
:10258000D4F81080414601F003FB54F8041F01F019
:1025900009FC414601F0FEFA5C4545F8040B02D007
:1025A0005AF8040BECE705A909F10C000C221CF009
:1025B0008BFF069A05993960079B3260149A136065
:1025C00009B0BDE8F08F5846019400F0C7FC019BAC
:1025D000C9F810A0C9F81480C9F80C30C0E700BFD2
:1025E000000020412DE9F047074684B0084601F07D
:1025F00081FB0146124801F089FC4FF07C5101F04B
:10260000D1FB4FF07E59804607F11C0507F1280ADF
:1026100001AE414655F8040B01F078FC49460446EA
:1026200001F07CFD00B14C46554546F8044BF0D115
:1026300001A9384600F0D0FC04B0BDE8F08700BF27
:102640000000C8422DE9F04105460F46184600211A
:102650001C46904601F04EFD00282FD11849204617
:1026600001F05CFD40BB6E680021304601F02EFD9C
:1026700000B13E463146384601F08AFA296801F039
:1026800091FB314601F086FA21460646686005F165
:102690000C0000F06BFC214601F07CFA414602463A
:1026A000304600F0D5FB0649044601F037FD00B185
:1026B000034C2046BDE8F081014CD4E7014CD2E741
:1026C0000000C84217B7D138F0B5064683B00846B7
:1026D00001F010FB01461B4801F018FC4FF07C5143
:1026E00001F060FB0146184801F010FC4FF07E51EC
:1026F00021F05FFB1549044601F054FB21F0B4FBC7
:10270000014601F04FFB0546014601F04BFB29460F
:1027100001F040FA034601A8019300F031FC204685
:102720004FF07E51019F01F0D1FC38B9294638465F
:1027300001F02EFA014601F02DFA0446346003B090
:10274000F0BD00BF0000C84299D4503CDB0FC93F28
:1027500030B400214FF4FA75E124192281704FF052
:102760008141058084800D4D82714FF4C8740C4AFC
:10277000C1604FF07C51056184824FF47A75094C39
:102780008261C161002208490584C462826030BC54
:102790004262826201634163704700BF00002041D2
:1027A00000007041EC5185420000C8412DE9F84F0E
:1027B0001768DDF828B0154604463846984689461D
:1027C00001F0E6F9D5F804A006464946504601F066
:1027D000DFF9E9688146504601F0DAF901464846DA
:1027E00001F094FB8146208801F084FAA968034631
:1027F00038461F4601F0CCF90146304601F086FB11
:102800008246A08801F076FA0146504601F0CAFAE5
:102810008246A07901F06EFA0146504601F0BAF9FD
:102820008246A07801F066FA514621F0A7FA0146E7
:10283000384621F0BEFAA1680746304601F0B2FAE8
:102840000646A07901F056FA0146304601F0A2F999
:102850000646A07801F04EFA314621F08FFA4FF08B
:102860007E510646404601F03BFC00285ED12763BE
:102870006663CBF800702B69CBF804300B9B0B9A86
:102880001E602B695360E06A314601F03DFC002870
:1028900042D0A08A01F02EFAE1680746304601F0E6
:1028A00081FA394601F076F980464146384621F0F2
:1028B00065FA0C9B0C9A18602B695360208C01F010
:1028C00019FA616A034630461E4601F06BFAA16AA6
:1028D00001F060F90146314821F0FCFB0146304827
:1028E00021F04CFA0146304621F063FA0D9B0D9A17
:1028F00018602B692B495360484601F053FA294967
:10290000044601F00BFC00B1264C0E9B0E9A1C6095
:102910006B695360BDE8F88F2169304601F042FAD7
:102920008046A08A01F0E6F90746BEE741464046E8
:1029300001F038FAD4F830A080463946504601F00C
:10294000CFFB80B13846414601F02CFA414607469C
:102950004FF07E5001F01CF9514601F023FA394640
:1029600001F018F90746D4F834A03146504601F07A
:10297000B7FB00283FF47DAF3046414601F012FA24
:10298000414606464FF07E5001F002F9514601F0F3
:1029900009FA314601F0FEF806466AE700002041D8
:1029A000CDCCCC3D0000C8424FF6FF73994200D118
:1029B00070472DE9F043044690F80680808883B084
:1029C00040440D4601F09AF9B5F5967FA769D4F811
:1029D0001C9006463DD0B5F5E16F37D0642D35D05B
:1029E0001D4B0093684600F0B9FA404601F082F9A9
:1029F0000146304601F0CCF80546009821F074F904
:102A00000146284601F082FAA06001A8019700F073
:102A1000A5FA6846CDF8009000F0A0FA0099019858
:102A200001F0B6F8294601F071FA606201A8019739
:102A300000F094FA616A304601F0B4F90146019859
:102A400001F0A6F8A06203B0BDE8F083034B009349
:102A5000C8E7034B0093C5E7304C463F9A99193FAE
:102A60000AD7233F0000000030B41549154A164D1F
:102A7000164C016042611649164A8562C463164DC0
:102A8000164CC16002621649164A45638464164DAD
:102A9000164C016142621649856300226FF00045C1
:102AA000C4644FF0FF34C0E91445816530BC426016
:102AB0008261C26202648260C261026342647047E2
:102AC00007F0963D0000A040E63F4CC0B150834067
:102AD0001C7CE13DCDCC0C3E91ED3CBF5DFEE33E68
:102AE0003480D73F67D5273EFB3A403F363C85BF11
:102AF000000040402DE9F04782B0DDE90A9ABDF8B8
:102B00003040B4F5E16F0546884617461E466DD045
:102B100028D941F270739C422ED047F230539C4228
:102B200008BF012408D1D5E914014FF0FF326FF03E
:102B3000004300F005FA08B300244FF0FF326FF0B5
:102B400000433846314600F0FBF908B9C5E9147670
:102B50002146404601F01CF80D9901F019F802B029
:102B6000BDE8F087642C05D0B4F5967F08BF042437
:102B7000D9D0E1E70524D6E70224D4E7D5E914014A
:102B8000B9EB00006AEB010100F088FC18A3D3E95F
:102B9000002300F0DBFD0B460246CDE9002305EBE8
:102BA000840400F0A1FF54F8041C824601F0FAF8F6
:102BB000216900F0EFFF616A8146504601F0F2F8AA
:102BC000DDE9002382461946104600F095FC00F02E
:102BD0008BFF0146504600F0DDFFA16B00F0DAFFED
:102BE0000146484601F092F90446A6E7846DA4E741
:102BF0000000000065CDCD4130B409494161012498
:102C000000220025002104840024C0E90045C0E919
:102C1000064580F8221030BC8260C26002617047B5
:102C2000C9B28B532DE9F8430446D0E9000116469A
:102C30001F46D4E90623B6EB000867EB01094245BD
:102C400073EB090303DB864277EB010347DA0023CA
:102C50004FF00008A36084F82280C4E9006794F86C
:102C600021507DB9D4E90001301A67EB010101F070
:102C70005BF8E16800F08EFF2169E06001F044FA42
:102C800000283ED1B8F1000F0ED1D4E90001301A6E
:102C900067EB010101F048F8A16800F07BFF616972
:102CA000A06001F031FA40BB012E77F10003089BD0
:102CB000099ABCBF01260027C4E900671D7094F87B
:102CC000223013702BB965690021284601F0FEF906
:102CD00058B10A9A4FF07E531360BDE8F88350EA6A
:102CE000010394F82280BAD1B7E7A068294601F021
:102CF0000DF90A9B1860BDE8F883012384F822309F
:102D0000D2E74FF0010984F821904D46BAE700BFA1
:102D10004FF6FF7399421BD090F92020114B01FB15
:102D200002F202EB5202A2FB0323B1F5967FC0E947
:102D3000062307D0B1F5E16F07D0642902D00A4B12
:102D400043617047094B43617047094B43617047CA
:102D500000238360002100220023C0E9002380F8C3
:102D60002210704780969800C9B28B53C9B28B521B
:102D700076845F5170B50E461349044601F012F88F
:102D800012490546204600F005FF0146284601F09D
:102D9000BDF821F013F90E490546304601F002F85E
:102DA0000C4901F0B3F8294600F0FCFF0A4905463A
:102DB000204600F0EFFE0146284601F0A7F807493B
:102DC00000F0F0FF70BD00BFC3F58C41B81E734327
:102DD0008195C3400000C8423393884333B35843BE
:102DE00038B504460D4620F06FFE164B002200F069
:102DF000F5FD78B1144B00222046294600F002FE72
:102E000058B9124B00222046294600F005FE70B149
:102E1000002400252046294638BD0B4B2046294674
:102E2000002200F0B3F9BDE8384020F051BE064B57
:102E300020462946002200F0A7F9BDE8384020F0DE
:102E4000C3BD00BF000030430000E03F0000E0BF12
:102E500070B5054682B00C4610460021164601F0BA
:102E60003FF9002864D13349304601F057F9002872
:102E700057D13049304601F049F8019001A800F0DF
:102E800065F82D49284600F08DFF2C490646284656
:102E900000F080FE0146304601F038F8019900F05C
:102EA00079FE2649054600F07DFF29460546224861
:102EB00000F06EFE0146284601F028F81E490190F8
:102EC000054600F06FFF1D490646284600F062FEE9
:102ED0000146304601F01AF817490546204600F031
:102EE00061FF16490646204600F054FE0146304672
:102EF00001F00CF80146284600F04AFE21F05EF889
:102F00000C4900F04FFF0B49044601F007F958B98E
:102F10000021204601F002F900B90024204602B049
:102F200070BD4FF07E50A8E7024C204602B070BD45
:102F30000020A2E70000C842C3F58C41B81E7343CD
:102F4000994206BF904201200020704710B5044608
:102F5000006821F063F8206010BD00BF10B5044682
:102F6000006821F089F8206010BD00BF10B504464C
:102F70000846216800F016FF616800F00BFE10BDE6
:102F800010B50446006821F0FBF8206010BD00BFBA
:102F900000F07CB8017E094B094AC26103624362BA
:102FA00059B110B401230024013300EB8302DBB2DA
:102FB00099425460F8D210BC704770470AD7233B3F
:102FC0000AD7A33C037A0022C26002611BB1012B25
:102FD000FDD80023436070472DE9F04F0E4689B0BD
:102FE00029498146306800F0DDFE274903467068B4
:102FF000029300F0D7FE24490346B068039300F023
:10300000D1FE034602A8049300F04CF80DF1080825
:1030100005AF4546BA462968084600F0C3FE044697
:10302000014600F0BFFE214600F0B4FD45F8044B18
:10303000BD424AF8040BEED13846FFF7A9FF06F16E
:1030400008034FF07E5AA9F10409351F019355F882
:10305000044F57F804BB58F8046B5146204601F062
:1030600035F80346314658462BB900F091FD01462C
:1030700000F090FD0446019B49F8044FAB42E6D1B5
:1030800009B0BDE8F08F00BFDB0FC93F38B5041FA2
:1030900000F1080554F8040F21F072F8AC422060EA
:1030A000F8D138BD38B5041F00F1080554F8040FF5
:1030B00020F0DAFEAC422060F8D138BD10F8012BC8
:1030C00011F8013B012A28BF9A42F7D0D01A704765
:1030D000034613F8012B002AFBD1181A0138704758
:1030E00001F0FF01102A2BDB10F0070F08D010F8B9
:1030F000013B013A8B422DD010F0070F42B3F6D1BD
:10310000F0B441EA012141EA014122F007047FF0D5
:1031100000070023F0E80256083C85EA010586EA2C
:10312000010685FA47F5A3FA87F586FA47F6A5FA68
:1031300087F68EB9EED1F0BC01F0FF0102F0070274
:1031400032B110F8013B013A83EA010313B1F8D11F
:103150000020704701387047002D06BF3546033800
:10316000073815F0010F07D1013015F4807F02BF39
:10317000013015F4C03F0130F0BC0138704700BF8A
:1031800081F0004102E000BF83F0004330B54FEA18
:1031900041044FEA430594EA050F08BF90EA020F85
:1031A0001FBF54EA000C55EA020C7FEA645C7FEA18
:1031B000655C00F0E2804FEA5454D4EB5555B8BF3B
:1031C0006D420CDD2C4480EA020281EA030382EAAC
:1031D000000083EA010180EA020281EA0303362D3E
:1031E00088BF30BD11F0004F4FEA01314FF4801C11
:1031F0004CEA113102D0404261EB410113F0004F23
:103200004FEA03334CEA133302D0524263EB4303D9
:1032100094EA050F00F0A780A4F10104D5F1200E77
:103220000DDB02FA0EFC22FA05F2801841F10001D2
:1032300003FA0EF2801843FA05F359410EE0A5F1A6
:1032400020050EF1200E012A03FA0EFC28BF4CF0D7
:10325000020C43FA05F3C01851EBE37101F000458D
:1032600007D54FF0000EDCF1000C7EEB00006EEB9A
:103270000101B1F5801F1BD3B1F5001F0CD3490824
:103280005FEA30004FEA3C0C04F101044FEA44527B
:1032900012F5800F80F09A80BCF1004F08BF5FEA02
:1032A000500C50F1000041EB045141EA050130BDE2
:1032B0005FEA4C0C404141EB0101013C28BFB1F5F4
:1032C000801FE9D291F0000F04BF01460020B1FA3F
:1032D00081F308BF2033A3F10B03B3F120020CDA12
:1032E0000C3208DD02F1140CC2F10C0201FA0CF0F0
:1032F00021FA02F10CE002F11402D8BFC2F1200C55
:1033000001FA02F120FA0CFCDCBF41EA0C0190400A
:10331000E41AA2BF01EB0451294330BD6FEA040453
:103320001F3C1CDA0C340EDC04F11404C4F120023E
:1033300020FA04F001FA02F340EA030021FA04F350
:1033400045EA030130BDC4F10C04C4F1200220FAA7
:1033500002F001FA04F340EA0300294630BD21FAE5
:1033600004F0294630BD94F0000F83F4801306BFAB
:1033700081F480110134013D4EE77FEA645C18BF9F
:103380007FEA655C29D094EA050F08BF90EA020F36
:1033900005D054EA000C04BF1946104630BD91EA2E
:1033A000030F1EBF0021002030BD5FEA545C05D131
:1033B0004000494128BF41F0004130BD14F5800470
:1033C0003CBF01F5801130BD01F0004545F0FE41E4
:1033D00041F470014FF0000030BD7FEA645C1ABF19
:1033E000194610467FEA655C1CBF0B46024650EA50
:1033F000013406BF52EA033591EA030F41F400217C
:1034000030BD00BF90F0000F04BF0021704730B501
:103410004FF4806404F132044FF000054FF00001D6
:1034200050E700BF90F0000F04BF0021704730B597
:103430004FF4806404F1320410F0004548BF40426C
:103440004FF000013EE700BF42004FEAE2014FEAC1
:1034500031014FEA02701FBF12F07F4393F07F4F9C
:1034600081F06051704732F07F4208BF704793F09F
:103470007F4F04BF41F40021704730B54FF46074B2
:1034800001F0004521F000411CE700BF50EA0102B5
:1034900008BF704730B54FF000050AE050EA01025E
:1034A00008BF704730B511F0004502D5404261EBCE
:1034B00041014FF4806404F132045FEA915C3FF40F
:1034C000D8AE4FF003025FEADC0C18BF03325FEAAC
:1034D000DC0C18BF033202EBDC02C2F1200300FA5D
:1034E00003FC20FA02F001FA03FE40EA0E0021FA82
:1034F00002F11444BDE600BF70B54FF0FF0C4CF470
:10350000E06C1CEA11541DBF1CEA135594EA0C0F21
:1035100095EA0C0F00F0DEF82C4481EA030621EA5C
:103520004C5123EA4C5350EA013518BF52EA033597
:1035300041F4801143F4801338D0A0FB02CE4FF049
:103540000005E1FB02E506F00042E0FB03E54FF079
:103550000006E1FB03569CF0000F18BF4EF0010E71
:10356000A4F1FF04B6F5007F64F5407404D25FEA6D
:103570004E0E6D4146EB060642EAC62141EA555120
:103580004FEAC52040EA5E504FEACE2EB4F1FD0C62
:1035900088BFBCF5E06F1ED8BEF1004F08BF5FEAE0
:1035A000500E50F1000041EB045170BD06F0004692
:1035B00046EA010140EA020081EA0301B4EB5C043F
:1035C000C2BFD4EB0C0541EA045170BD41F4801137
:1035D0004FF0000E013C00F3AB8014F1360FDEBF5C
:1035E000002001F0004170BDC4F10004203C35DA38
:1035F0000C341BDC04F11404C4F1200500FA05F3BB
:1036000020FA04F001FA05F240EA020001F000425B
:1036100021F0004110EBD37021FA04F642EB0601D1
:103620005EEA430E08BF20EAD37070BDC4F10C04FB
:10363000C4F1200500FA04F320FA05F001FA04F2BF
:1036400040EA020001F0004110EBD37041F10001AB
:103650005EEA430E08BF20EAD37070BDC4F12005B6
:1036600000FA05F24EEA020E20FA04F301FA05F21E
:1036700043EA020321FA04F001F0004121FA04F2C6
:1036800020EA020000EBD3705EEA430E08BF20EA96
:10369000D37070BD94F0000F0FD101F000464000D0
:1036A00041EB010111F4801F08BF013CF7D041EA52
:1036B000060195F0000F18BF704703F00046520056
:1036C00043EB030313F4801F08BF013DF7D043EA27
:1036D0000603704794EA0C0F0CEA135518BF95EADD
:1036E0000C0F0CD050EA410618BF52EA4306D1D164
:1036F00081EA030101F000414FF0000070BD50EA83
:10370000410606BF1046194652EA430619D094EA0C
:103710000C0F02D150EA013613D195EA0C0F05D1F6
:1037200052EA03361CBF104619460AD181EA03014A
:1037300001F0004141F0FE4141F470014FF0000002
:1037400070BD41F0FE4141F4780170BD70B54FF09D
:10375000FF0C4CF4E06C1CEA11541DBF1CEA13551D
:1037600094EA0C0F95EA0C0F00F0A7F8A4EB0504FF
:1037700081EA030E52EA03354FEA013100F08880F6
:103780004FEA03334FF0805545EA131343EA1263BF
:103790004FEA022245EA111545EA10654FEA002674
:1037A0000EF000419D4208BF964244F1FD0404F52D
:1037B000407402D25B084FEA3202B61A65EB030589
:1037C0005B084FEA32024FF480104FF4002CB6EB46
:1037D000020E75EB030E22BFB61A754640EA0C00C6
:1037E0005B084FEA3202B6EB020E75EB030E22BF06
:1037F000B61A754640EA5C005B084FEA3202B6EB47
:10380000020E75EB030E22BFB61A754640EA9C0005
:103810005B084FEA3202B6EB020E75EB030E22BFD5
:10382000B61A754640EADC0055EA060E18D04FEA93
:10383000051545EA16754FEA06164FEAC30343EA33
:1038400052734FEAC2025FEA1C1CC0D111F4801F00
:103850000BD141EA00014FF000004FF0004CB6E7F9
:1038600011F4801F04BF01430020B4F1FD0C88BF98
:10387000BCF5E06F3FF6AFAEB5EB030C04BFB6EBA3
:10388000020C5FEA500C50F1000041EB045170BD96
:103890000EF0004E4EEA113114EB5C04C2BFD4EBC3
:1038A0000C0541EA045170BD41F480114FF0000E47
:1038B000013C90E645EA060E8DE60CEA135594EAC3
:1038C0000C0F08BF95EA0C0F3FF43BAF94EA0C0FC6
:1038D0000AD150EA01347FF434AF95EA0C0F7FF43B
:1038E00025AF104619462CE795EA0C0F06D152EA8F
:1038F00003353FF4FDAE1046194622E750EA410673
:1039000018BF52EA43067FF4C5AE50EA41047FF483
:103910000DAF52EA43057FF4EBAE12E74FF0FF3CE8
:1039200006E000BF4FF0010C02E000BF4FF0010CB9
:103930004DF804CD4FEA410C7FEA6C5C4FEA430C32
:1039400018BF7FEA6C5C1BD001B050EA410C0CBF81
:1039500052EA430C91EA030F02BF90EA020F0020E3
:10396000704710F1000F91EA030F58BF994208BF4A
:1039700090422CBFD8176FEAE37040F00100704707
:103980004FEA410C7FEA6C5C02D150EA013C07D15E
:103990004FEA430C7FEA6C5CD6D152EA033CD3D0A9
:1039A0005DF8040B704700BF8446104662468C46A3
:1039B0001946634600E000BF01B5FFF7B7FF0028D6
:1039C00048BF10F1000F01BD4DF808EDFFF7F4FFFF
:1039D0000CBF012000205DF808FB00BF4DF808ED8A
:1039E000FFF7EAFF34BF012000205DF808FB00BFAD
:1039F0004DF808EDFFF7E0FF94BF012000205DF8CF
:103A000008FB00BF4DF808EDFFF7CEFF94BF012083
:103A100000205DF808FB00BF4DF808EDFFF7C4FF7C
:103A200034BF012000205DF808FB00BF4FEA410CC5
:103A30007FEA6C5C02D150EA013C0AD14FEA430CA8
:103A40007FEA6C5C02D152EA033C02D14FF00000E5
:103A500070474FF0010070474FEA410212F5001223
:103A600015D211D56FF47873B3EB625212D94FEAC5
:103A7000C12343F0004343EA505311F0004F23FAAF
:103A800002F018BF404270474FF00000704750EA04
:103A9000013005D111F0004008BF6FF000407047C1
:103AA0004FF00000704700BF4A0011D212F500121B
:103AB00011D20DD56FF47873B3EB62520ED44FEA86
:103AC000C12343F0004343EA505323FA02F0704706
:103AD0004FF00000704750EA013002D14FF0FF3044
:103AE00070474FF0000070474FEA4102B2F1E043E7
:103AF00024BFB3F5001CDCF1FE5C0DD901F0004CD5
:103B00004FEAC0024CEA5070B2F1004F40EB830024
:103B100008BF20F00100704711F0804F21D113F150
:103B20003872BCBF01F00040704741F480114FEA89
:103B30005252C2F11802C2F1200C10FA0CF320FA12
:103B400002F018BF40F001004FEAC1234FEAD3232F
:103B500003FA0CFC40EA0C0023FA02F34FEA430399
:103B6000CCE77FEA625307D150EA01331EBF4FF022
:103B7000FE4040F44000704701F0004040F0FE403D
:103B800040F40000704700BF80F0004002E000BF3A
:103B900081F0004142001FBF5FEA410392EA030F38
:103BA0007FEA226C7FEA236C6AD04FEA1262D2EB82
:103BB0001363C1BFD218414048404140B8BF5B4287
:103BC000192B88BF704710F0004F40F4000020F020
:103BD0007F4018BF404211F0004F41F4000121F036
:103BE0007F4118BF494292EA030F3FD0A2F1010280
:103BF00041FA03FC10EB0C00C3F1200301FA03F1BE
:103C000000F0004302D5494260EB4000B0F5000FE0
:103C100013D3B0F1807F06D340084FEA310102F19F
:103C20000102FE2A51D2B1F1004F40EBC25008BF51
:103C300020F0010040EA03007047490040EB00001B
:103C4000013A28BFB0F5000FEDD2B0FA80FCACF11C
:103C5000080CB2EB0C0200FA0CF0AABF00EBC25049
:103C600052421843BCBFD0401843704792F0000F37
:103C700081F4000106BF80F400000132013BB5E78A
:103C80004FEA41037FEA226C18BF7FEA236C21D000
:103C900092EA030F04D092F0000F08BF0846704765
:103CA00090EA010F1CBF0020704712F07F4F04D133
:103CB000400028BF40F00040704712F100723CBF46
:103CC00000F50000704700F0004343F0FE4040F470
:103CD000000070477FEA226216BF08467FEA23632E
:103CE0000146420206BF5FEA412390EA010F40F419
:103CF000800070474FF0000304E000BF10F0004365
:103D000048BF40425FEA000C08BF704743F096434B
:103D100001464FF000001CE050EA010208BF704766
:103D20004FF000030AE000BF50EA010208BF7047ED
:103D300011F0004302D5404261EB41015FEA010C02
:103D400002BF84460146002043F0B64308BFA3F1FA
:103D50008053A3F50003BCFA8CF2083AA3EBC253DC
:103D600010DB01FA02FC634400FA02FCC2F12002FB
:103D7000BCF1004F20FA02F243EB020008BF20F032
:103D80000100704702F1200201FA02FCC2F1200298
:103D900050EA4C0021FA02F243EB020008BF20EA8D
:103DA000DC7070474FF0FF0C1CEAD0521EBF1CEABB
:103DB000D15392EA0C0F93EA0C0F6FD01A4480EAA9
:103DC000010C400218BF5FEA41211ED04FF0006392
:103DD00043EA501043EA5111A0FB01310CF00040BE
:103DE000B1F5000F3EBF490041EAD3715B0040EAE4
:103DF000010062F17F02FD2A1DD8B3F1004F40EBB4
:103E0000C25008BF20F00100704790F0000F0CF086
:103E1000004C08BF49024CEA502040EA51207F3A4A
:103E2000C2BFD2F1FF0340EAC250704740F4000025
:103E30004FF00003013A5DDC12F1190FDCBF00F016
:103E400000407047C2F10002410021FA02F1C2F1C4
:103E5000200200FA02FC5FEA310040F1000053EA60
:103E60004C0308BF20EADC70704792F0000F00F0AE
:103E7000004C02BF400010F4000F013AF9D040EAB4
:103E80000C0093F0000F01F0004C02BF490011F448
:103E9000000F013BF9D041EA0C018FE70CEAD15346
:103EA00092EA0C0F18BF93EA0C0F0AD030F0004CC6
:103EB00018BF31F0004CD8D180EA010000F000407A
:103EC000704790F0000F17BF90F0004F084691F038
:103ED000000F91F0004F14D092EA0C0F01D1420272
:103EE0000FD193EA0C0F03D14B0218BF084608D13B
:103EF00080EA010000F0004040F0FE4040F4000085
:103F0000704740F0FE4040F4400070474FF0FF0C17
:103F10001CEAD0521EBF1CEAD15392EA0C0F93EA5E
:103F20000C0F69D0A2EB030280EA010C49024FEAB0
:103F3000402037D04FF0805343EA111143EA101369
:103F40000CF000408B4238BF5B0042F17D024FF421
:103F5000000C8B4224BF5B1A40EA0C00B3EB510FFC
:103F600024BFA3EB510340EA5C00B3EB910F24BFE5
:103F7000A3EB910340EA9C00B3EBD10F24BFA3EB6A
:103F8000D10340EADC001B0118BF5FEA1C1CE0D132
:103F9000FD2A3FF650AF8B4240EBC25008BF20F0E5
:103FA000010070470CF0004C4CEA50207F32C2BF39
:103FB000D2F1FF0340EAC250704740F400004FF0D6
:103FC0000003013A37E792F0000F00F0004C02BF07
:103FD000400010F4000F013AF9D040EA0C0093F0D1
:103FE000000F01F0004C02BF490011F4000F013B2B
:103FF000F9D041EA0C0195E70CEAD15392EA0C0F93
:1040000008D142027FF47DAF93EA0C0F7FF470AFCA
:10401000084676E793EA0C0F04D14B023FF44CAF0D
:1040200008466EE730F0004C18BF31F0004CCAD1A2
:1040300030F000427FF45CAF31F000437FF43CAFDE
:104040005FE700BF4FF0FF3C06E000BF4FF0010C00
:1040500002E000BF4FF0010C4DF804CD4FEA4002E2
:104060004FEA41037FEA226C18BF7FEA236C11D02C
:1040700001B052EA530C18BF90EA010F58BFB2EBDF
:10408000030088BFC81738BF6FEAE17018BF40F05F
:10409000010070477FEA226C02D15FEA402C05D113
:1040A0007FEA236CE4D15FEA412CE1D05DF8040B98
:1040B000704700BF844608466146FFE70FB5FFF72B
:1040C000C9FF002848BF10F1000F0FBD4DF808EDE3
:1040D000FFF7F4FF0CBF012000205DF808FB00BFD4
:1040E0004DF808EDFFF7EAFF34BF012000205DF82E
:1040F00008FB00BF4DF808EDFFF7E0FF94BF01207B
:1041000000205DF808FB00BF4DF808EDFFF7D2FF77
:1041100094BF012000205DF808FB00BF4DF808EDBA
:10412000FFF7C8FF34BF012000205DF808FB00BF87
:104130004FEA4002B2F1FE4F0FD34FF09E03B3EBB4
:1041400012620DD94FEA002343F0004310F0004FF4
:1041500023FA02F018BF404270474FF0000070474A
:1041600012F1610F01D1420205D110F0004008BFE9
:104170006FF0004070474FF00000704742000ED2D1
:10418000B2F1FE4F0BD34FF09E03B3EB126209D492
:104190004FEA002343F0004323FA02F070474FF048
:1041A0000000704712F1610F01D1420202D14FF0BD
:1041B000FF3070474FF00000704700BF7BB972B905
:1041C0000029BEBF00204FF0004106E008BF0028D4
:1041D0001CBF6FF000414FF0FF3000F0F5B9ADF1BA
:1041E000080C6DE904CE002909DB002B1ADB00F076
:1041F00083F8DDF804E0DDE9022304B070474042B3
:1042000061EB4101002B1BDB00F076F8DDF804E0E8
:10421000DDE9022304B0404261EB4101524263EB0D
:1042200043037047524263EB430300F065F8DDF847
:1042300004E0DDE9022304B0404261EB4101704734
:10424000524263EB430300F057F8DDF804E0DDE988
:10425000022304B0524263EB4303704753B94AB997
:10426000002908BF00281CBF4FF0FF314FF0FF307E
:1042700000F0AAB9ADF1080C6DE904CE00F03CF8ED
:10428000DDF804E0DDE9022304B0704738B5002210
:10429000002304460D46FFF7A1FB28B92046294616
:1042A000BDE8384000F00AB8204605F1004100F0B2
:1042B00005F8404261EB410138BD00BFD0B50C4B61
:1042C000002206460F46FFF717F9FFF7EDFB0446FD
:1042D000FFF798F8074B0022FFF70EF902460B464E
:1042E00030463946FEF750FFFFF7DEFB2146D0BDD2
:1042F0000000F03D0000F0412DE9F047089D044624
:104300008E46002B4DD18A42944669D9B2FA82F288
:1043100052B101FA02F3C2F1200120FA01F10CFAC4
:1043200002FC41EA030E94404FEA1C48210CBEFBFC
:10433000F8F61FFA8CF708FB16E341EA034306FB85
:1043400007F199420AD91CEB030306F1FF3080F014
:104350001F81994240F21C81023E63445B1AA4B261
:10436000B3FBF8F008FB103344EA034400FB07F703
:10437000A7420AD91CEB040400F1FF3380F00A8144
:10438000A74240F207816444023840EA0640E41B39
:1043900000261DB1D4400023C5E900433146BDE8E5
:1043A000F0878B4209D9002D00F0EF800026C5E987
:1043B000000130463146BDE8F087B3FA83F6002E9F
:1043C0004AD18B4202D3824200F2F980841A61EB17
:1043D000030301209E46002DE0D0C5E9004EDDE735
:1043E00002B9FFDEB2FA82F2002A40F09280A1EB1D
:1043F0000C014FEA1C471FFA8CFE0126200CB1FB72
:10440000F7F307FB131140EA01410EFB03F088426A
:1044100008D91CEB010103F1FF3802D2884200F2F7
:10442000CB804346091AA4B2B1FBF7F007FB101189
:1044300044EA01440EFB00FEA64508D91CEB040427
:1044400000F1FF3102D2A64500F2BB800846A4EB82
:104450000E0440EA03409CE7C6F12007B34022FA6D
:1044600007FC4CEA030C20FA07F401FA06F31C439C
:10447000F9404FEA1C4900FA06F3B1FBF9F8200CA9
:104480001FFA8CFE09FB181140EA014108FB0EF0EF
:10449000884202FA06F20BD91CEB010108F1FF3A3F
:1044A00080F08880884240F28580A8F1020861444B
:1044B000091AA4B2B1FBF9F009FB101144EA014159
:1044C00000FB0EFE8E4508D91CEB010100F1FF3404
:1044D0006CD28E456AD90238614440EA0840A0FB9C
:1044E0000294A1EB0E01A142C846A64656D353D072
:1044F0005DB1B3EB080261EB0E0101FA07F722FA96
:1045000006F3F1401F43C5E9007100263146BDE8BE
:10451000F087C2F12003D8400CFA02FC21FA03F321
:10452000914001434FEA1C471FFA8CFEB3FBF7F0A2
:1045300007FB10360B0C43EA064300FB0EF69E42C7
:1045400004FA02F408D91CEB030300F1FF382FD260
:104550009E422DD9023863449B1B89B2B3FBF7F608
:1045600007FB163341EA034106FB0EF38B4208D9E1
:104570001CEB010106F1FF3816D28B4214D9023E22
:104580006144C91A46EA004638E72E46284605E740
:104590000646E3E61846F8E64B45A9D2B9EB020811
:1045A00064EB0C0E0138A3E74646EAE7204694E7A1
:1045B0004046D1E7D0467BE7023B614432E73046D4
:1045C00009E76444023842E7704700BF10B5032092
:1045D00000F0C4FC0F2019F045FA10B10124204668
:1045E00010BD044619F054FAF9E70000034B1B789C
:1045F000034A11680B441360704700BF000000209D
:104600009C0400200048704700000D017047000026
:1046100030B583B000230193002800F0DA8004460F
:10462000436D13B323689A6812F0005F05D09A684F
:1046300022F0204222F03F029A602268936813F031
:10464000805F1FD1936823F0104323F03F0343F0B2
:1046500080539360604B1B689B09604AA2FB032355
:104660009B0901335B00019309E0FFF7CFFF0023B3
:10467000A36584F85030D5E7019B013B0193019B72
:10468000002BF9D12268936813F0805F78D1636DB5
:1046900043F010036365A36D43F00103A36501209C
:1046A000936813F0040300D00123616D11F0100F23
:1046B00040F08880002B40F08580636D23F4817387
:1046C00043F002036365936813F0010F0BD1444B71
:1046D0009B6813F0010F06D1636842498A6822F48F
:1046E0007C1213438B60627E636B43EA4233E26861
:1046F0001343A268134394F8202043EA0243012A9B
:1047000040D0A26A22B102F47072E16A0A431343F4
:104710002168CD68344A2A401343CB6021688B68F6
:1047200013F0040300D001238A6812F0080200D0BD
:104730000122B3B9AAB9227E94F830305B0043EA73
:104740008232CB6823F4804323F002031343CB600F
:1047500094F83830012B1AD02268136923F0010332
:1047600013612369012B24D02268136B23F00F03FC
:104770001363636D23F0030343F00103636526E0D5
:1047800000208DE7626A013A43EA4243B9E72168B3
:104790000B6923F4FF6323F00403E26B256C2A43C7
:1047A000656C2A43A56C2A43134343F001030B6154
:1047B000D7E721680B6B23F00F03E269013A13433B
:1047C0000B63D6E7636D43F010036365012003B00C
:1047D00030BD0120FBE700BF10020020632D3E0525
:1047E000000004500003045007C0F0FFF8B5044671
:1047F0000E464569082D05D00368DB6813F0010FEC
:104800001ED1042519F039F9074623681A682A428F
:104810001CD1B6F1FF3FF8D019F02FF9C31BB342FA
:1048200001D8002EF1D123681B682B42EDD1636DB6
:1048300043F004036365002384F85030032004E050
:10484000436D43F0200343650120F8BD626D42F4DF
:1048500000726265DA6812F4406F11D1627E7AB933
:104860001A6812F0080F0BD0626D22F48072626534
:10487000626D12F4805F03D1626D42F001026265E5
:10488000DA68082D06D012F4804F07D10C221A6086
:104890000020DAE708221A600020D6E70020D4E7DB
:1048A0000368186C70470000F0B583B000220192D5
:1048B00090F85020012A00F01F820346012280F860
:1048C00050200268926812F0040F09D0426D42F045
:1048D000200242650120002283F8502003B0F0BD81
:1048E0004A68052A08D8023A032A68D8DFE802F0A5
:1048F000025D60630C224A601D684C683035220AF4
:10490000920002F00C02A85804F01F0E1F2404FAB3
:104910000EF420EA04000C68C4F3846C0CFA0EFC5C
:1049200040EA0C00A8501C68A26812F0040200D0F3
:104930000122A06810F0080000D001200AB9002868
:1049400040D01868826812F0010F17D10A68CD684C
:10495000D0F8B040C2F3120C24EA0C0405F0180C95
:10496000B84D25FA0CF52A40C2F312022243C0F8D2
:10497000B020C868B44A904200F0AD800A68B349DC
:104980000A4200F0B581B249896801F0E074B1488B
:10499000824200F04C81B048824200F08281AF48F0
:1049A000824200F09281002095E712224A60A3E73C
:1049B00018224A60A0E74FF480724A609CE7062202
:1049C0004A6099E70E688D681434720E920002F006
:1049D0000402A058C6F3045C072606FA0CF620EA87
:1049E000060005FA0CF52843A0504C691868C26807
:1049F000C2F3C102520004FA02F20D69042D0ED076
:104A00000E68603050F82570954C3C4006F0F84632
:104A10003243144344F0004440F8254091E7026ECD
:104A2000046EC4F384640A68C2F3120585BBC2F342
:104A30008462944231D01C68626E606EC0F3846000
:104A40000A68C2F312056DBBC2F3846290422ED095
:104A50001C68A26EA06EC0F384600A68C2F31205DF
:104A600055BBC2F3846290422BD01C68E26EE06EAC
:104A7000C0F384600A68C2F312053DBBC2F38462CE
:104A800090427FF45EAFE26E22F00042E26658E7A9
:104A900092FAA2F2B2FA82F2CBE7026E22F0004260
:104AA0000266C8E792FAA2F2B2FA82F2CEE7626E2A
:104AB00022F000426266CBE792FAA2F2B2FA82F2E8
:104AC000D1E7A26E22F00042A266CEE792FAA2F2ED
:104AD000B2FA82F2D4E71C680A68C2F31205002D0C
:104AE0003AD1900E013000F01F0009288CBF002041
:104AF000012000285CD0002D3AD1900E01308006B4
:104B000000F0F84E002D3CD1900E013000F01F0057
:104B1000012606FA00F04EEA0000002D3DD1920E6B
:104B2000013202F01F0202EB4202120502438868C2
:104B300004F11406550EAD0005F004057459C2F3D6
:104B400004524FF0070C0CFA02FC24EA0C0C9040C3
:104B50004CEA0000705111E792FAA2F0B0FA80F02E
:104B6000013000F01F0009288CBF00200120C0E7A1
:104B700092FAA2F0B0FA80F00130800600F0F84E10
:104B8000C0E792FAA2FCBCFA8CFC0CF1010C0CF010
:104B90001F0C012606FA0CF0BDE792FAA2F2B2FA57
:104BA00082F2013202F01F0202EB42021205BDE75F
:104BB000DDB9900E0130800600F0F84CF5B9900E8A
:104BC000013000F01F00012606FA00F04CEA000058
:104BD000FDB9920E013202F01F0202EB42021E3AB0
:104BE000120542F000720243A1E792FAA2F0B0FA75
:104BF00080F00130800600F0F84CDFE792FAA2F076
:104C0000B0FA80F0013000F01F00012606FA00F033
:104C1000DCE792FAA2F2B2FA82F2013202F01F024B
:104C200002EB42021E3A120542F00072DBE711F479
:104C3000000F7FF4B0AE19680A4A914214D00020E8
:104C400049E600BFFFFF070000007F40000008802A
:104C500000030450000052C7000084CB0100008014
:104C600000F0FF030000045044F400022348816870
:104C700021F0E0710A438260214A126892092149B9
:104C8000A1FB02129209013202EB42029200019250
:104C900002E0019A013A0192019A002AF9D100201A
:104CA00019E611F0807F7FF47AAE1968164A9142B6
:104CB00001D000200FE644F080721048816821F096
:104CC000E0710A438260002005E611F4800F11D1E3
:104CD00019680D4A914201D00020FCE544F480029D
:104CE0000648816821F0E0710A4382600020F2E505
:104CF0000020F0E50020EEE50220EFE5000304507F
:104D000010020020632D3E050000045038B50368F2
:104D10009A6812F0010F40D104469968204A114266
:104D200009D0436D43F010034365836D43F00103E5
:104D30008365012032E09A6822F0004222F03F02AF
:104D400042F001029A6018F098FE054623681A683E
:104D500012F0010F1FD19A6812F0010F07D19A6863
:104D600022F0004222F03F0242F001029A6018F065
:104D700084FE431B022BE9D923681B6813F0010F43
:104D8000E4D1636D43F010036365A36D43F0010349
:104D9000A365012002E0002000E0002038BD00BF34
:104DA0003F00008003689B6813F0040F3CD110B5EE
:104DB000044690F85030012B38D0012380F8503051
:104DC000FFF7A4FF60BB636D23F4706323F001035E
:104DD00043F480736365636D13F4805F1DD0A36D2E
:104DE00023F00603A36523681C221A60002384F8BD
:104DF00050302268D36813F0007F05D0636D23F430
:104E0000405343F480536365936823F0004323F0D9
:104E10003F0343F00403936010BD0023A365E2E762
:104E2000002384F85030F7E7022070470220F3E7B0
:104E300038B504460268936813F0020300D00123DA
:104E4000916811F0010F39D0002B39D1936803F02C
:104E50000D03012B09D0636D43F010036365A36D4F
:104E600043F00103A365012029E0936823F0004388
:104E700023F03F0343F002039360236803221A6088
:104E800018F0FBFD054623689B6813F0010F13D053
:104E900018F0F3FD401B0228F5D923689B6813F036
:104EA000010FF0D0636D43F010036365A36D43F011
:104EB0000103A365012002E0002000E0002038BDCE
:104EC0000020FCE730B583B00023019390F8503008
:104ED000012B41D004460D46012380F85030FFF7E6
:104EE000A7FF80BB636D23F4885323F0020343F0D4
:104EF000020363652268936823F0404323F03F0375
:104F000005F080452B4343F00043936023689B6882
:104F1000002B06DB636D23F0030343F0010363659D
:104F200015E0019B01330193019BB3F5912FEDD364
:104F3000636D23F0120343F010036365002384F8CC
:104F40005030012006E0636D43F0100363650023D9
:104F500084F8503003B030BD0220FBE7074AD36825
:104F600023F4E0631B041B0C000200F4E060034325
:104F700043F0BF6343F40033D360704700ED00E0BB
:104F800000B5194BDB68C3F30223C3F1070CBCF176
:104F9000040F28BF4FF0040C03F1040EBEF1060FFE
:104FA00018D9033B4FF0FF3E0EFA0CFC21EA0C012E
:104FB00099400EFA03F322EA0303194300280BDB9E
:104FC0000901C9B200F1604000F5614080F80013AA
:104FD0005DF804FB0023E5E700F00F000901C9B20A
:104FE000024B1954F4E700BF00ED00E014ED00E0BF
:104FF000002807DB00F01F02400901239340024A0A
:1050000042F82030704700BF00E100E000280CDBD0
:1050100000F01F024009012393402030034A42F868
:105020002030BFF34F8FBFF36F8F704700E100E078
:10503000BFF34F8F0549CA6802F4E062044B134383
:10504000CB60BFF34F8F00BFFDE700BF00ED00E076
:105050000400FA0510B4064C616941F00101616178
:105060000260BFF36F8F43605DF8044B704700BF71
:1050700000200240094A536943F480235361EFF34F
:10508000108C72B6402351F8042B40F8042B013BDE
:1050900013F0FF03F7D18CF3108870470020024013
:1050A000094B5B69002B01DB00207047064B074A68
:1050B0009A6002F188329A605B69002B01DB002064
:1050C00070470120704700BF002002402301674560
:1050D000034A536943F0004353610020704700BF07
:1050E0000020024038B5044618F0C7FC0546144BB2
:1050F0001B6913F4803F09D0B4F1FF3FF7D018F0DB
:10510000BCFC401BA042F2D3032015E00C4B1B69F2
:105110000C4A134009D10A4B1B6913F0010F0CD044
:10512000074B01221A61002006E007494A681A432A
:105130004A60034A1361012038BD0020FCE700BF2C
:1051400000200240FAC30200080000202DE9F041CF
:105150001646284A1278012A49D004460D46984638
:10516000244B01221A704CF25030FFF7BBFF074668
:1051700008BB204B00225A601F4B1B6813F4806F42
:105180001FD01D4A136823F480631360194B022259
:105190001A77D4B1631E012B1ED900244CF2503073
:1051A000FFF7A0FF074624B1134A536923EA04041A
:1051B000546100F047F80F4B00221A703846BDE8E2
:1051C000F0810C4B00221A77E3E73246434628462B
:1051D000FFF740FF0124E1E731462846FFF74AFF89
:1051E000022C01D00024D9E74FF48024D6E702270F
:1051F000E4E700BF080000200020024010F0010F8B
:1052000004D0054A536943F004035361024A5369C9
:1052100043F480335361704700200240084B5A69C1
:1052200022F47E72C00000F4FF6002435A615A69A2
:1052300042F002025A615A6942F480325A61704760
:1052400000200240144B1B7FDBB2012B01D0032B4B
:105250000CD1124A116841F400611160116821F407
:1052600000611160116841F400711160023BDBB212
:10527000012B03D9084B00221A777047074B1A6895
:1052800042F480521A601A6822F480521A601A6836
:1052900042F480621A60EDE708000020002002401E
:1052A000F8B53B4B1B78012B6FD004460E46384BAC
:1052B00001221A704CF25030FFF714FF0746002805
:1052C0005ED1334B00225A60324B1B6813F4007FCF
:1052D00033D0304B1A6822F400721A601B6813F442
:1052E000806F26D02B4A136823F480631360284B09
:1052F00003221A772368012B31D04FF0FF3333603C
:10530000A568A368E2681344AB4237D961682846B0
:10531000FFF784FF4CF25030FFF7E4FE1D4A53695B
:1053200023F47E7323F002035361074628BB013543
:10533000E7E7174B01221A77DCE7164B1B6813F4DB
:10534000806F08D0134A136823F480631360104BF6
:1053500002221A77CEE70E4B00221A77CAE760685E
:10536000FFF74CFF4CF25030FFF7BCFE0746094AEE
:10537000536923F00403536100E03560FFF762FFD7
:10538000034B00221A703846F8BD0227FBE700BF26
:105390000800002000200240F0B583B0002336E072
:1053A000042400E00024B4403C430235604E46F83B
:1053B0002540604C2568D44325EA02064F6817F45F
:1053C000803F01D042EA05065A4D2E606D6804EA1E
:1053D00005064F6817F4003F01D042EA0506554D17
:1053E0006E60AD6804EA05064F6817F4801F01D0AF
:1053F00042EA05064F4DAE60ED682C404E6816F44B
:10540000001F01D042EA05044A4AD46001330A6809
:1054100032FA03F400F089804FF0010C0CFA03FC1F
:105420001CEA0202F2D04C68651E012D03D9112C32
:1054300001D0122C13D185685E000324B44025EA04
:105440000405CC68B4402C438460446824EA0C0C06
:105450004C68C4F300149C4044EA0C044460C668E1
:105460004FEA430C032505FA0CF5EC4326EA050E3A
:105470008D6805FA0CF545EA0E05C5604D68022DEC
:1054800001D0122D12D1DE08083650F8267003F034
:1054900007054FEA850E0F2505FA0EF527EA0507E1
:1054A0000D6905FA0EF53D4340F826500568254084
:1054B0004C6804F0030404FA0CF42C4304604C68B8
:1054C00014F0805FA2D01C4C256E45F001052566C6
:1054D000246E04F001040194019C9D08AE1C144C40
:1054E00054F8267003F00304A6000F24B44027EA02
:1054F0000407B0F1904F3FF455AF104CA0420ED0CE
:1055000004F58064A0420CD004F58064A0420AD067
:1055100004F58064A0423FF443AF072443E701242D
:1055200041E702243FE703243DE703B0F0BD00BF9D
:105530000000014000040140001002400004004847
:105540000369194201D001207047002070470AB159
:10555000816170478162704708B5054B5B69034202
:1055600000D108BD024B586118F006FBF9E700BFF7
:105570000004014003689A6912F0020F01D0002272
:105580009A6203689A6912F0010F03D19A6942F096
:1055900001029A61704730B4029D046860684FEA66
:1055A000555C0CF4806C4CF07F7C4CF4583C4CF413
:1055B0007F7C4CF0030C20EA0C00C1F3090141EAA6
:1055C0000241194329430143616030BC7047F8B57B
:1055D00005460E46174603689B6913F0100F01D16C
:1055E0000020F8BD2B689C6914F0200F17D1B6F18C
:1055F000FF3FF7D018F041FAC01BB04201D8002E8F
:10560000F0D16B6C43F020036B64202385F84130AC
:10561000002385F8423085F840300120E1E7102270
:10562000DA612B682024DC612846FFF7A3FF2A6893
:10563000536823F0FF7323F48B3323F4FF7323F0B9
:10564000010353606B6C43F004036B6485F84140C5
:10565000002385F8423085F840300120C1E770B55D
:1056600004460D46164623689B6913F0020F1DD1B0
:10567000324629462046FFF7AAFFC8B9B5F1FF3FD9
:10568000F1D018F0FAF9801BA84201D8002DEAD118
:10569000636C43F020036364202384F841300023CB
:1056A00084F8423084F84030012000E0002070BDD2
:1056B0000120FCE72DE9F0410646884617461D46C5
:1056C0003468A46938EA04030CBF4FF0010C4FF0B2
:1056D000000CBC4518D1B5F1FF3FF1D018F0CDF961
:1056E000069BC01AA84201D8002DE9D1736C43F083
:1056F00020037364202386F84130002386F842306B
:1057000086F84030012000E00020BDE8F081000074
:105710002DE9F04182B0044690461D46089E099F3F
:10572000194B00934FF08073EAB2FFF734FF3A460B
:1057300031462046FFF793FFF8B9012D0ED12368BB
:105740005FFA88F29A620097334600228021204651
:10575000FFF7B0FFA8B902B0BDE8F08123684FEAB7
:1057600018229A623A4631462046FFF778FF30B950
:1057700023685FFA88F29A62E5E70120EBE70120EF
:10578000E9E70120E7E700BF002000802DE9F041B4
:1057900082B0044690461D46089E099F184B009310
:1057A0000023EAB2FFF7F7FE3A4631462046FFF7FC
:1057B00056FFF8B9012D0ED123685FFA88F29A627C
:1057C00000973346002240212046FFF773FFA8B917
:1057D00002B0BDE8F08123684FEA18229A623A4687
:1057E00031462046FFF73BFF30B923685FFA88F265
:1057F0009A62E5E70120EBE70120E9E70120E7E70E
:105800000020008070B505460C4616462B689B6943
:1058100013F0200F1AD1324621462846FFF7D7FE53
:10582000B0B918F02AF9801BA04201D8002CEDD1A4
:105830006B6C43F020036B64202385F84130002318
:1058400085F8423085F84030012070BD0020FCE72B
:105850000120FAE770B504460D46164623689B6999
:1058600013F0040F3ED1324629462046FFF7AFFE23
:105870000146002838D123689A6912F0200F13D10D
:1058800018F0FBF8801BA84201D8002DE6D1636C0C
:1058900043F020036364202384F84130002384F81C
:1058A00040300121084670BD9A6912F0040F02D001
:1058B000228D002AF6D12022DA6121684B6823F07C
:1058C000FF7323F48B3323F4FF7323F001034B6046
:1058D0000023636484F8412084F8423084F8403027
:1058E0000121DFE70021DDE70121DBE77047002828
:1058F00059D010B5044690F84130002B43D02423F2
:1059000084F841302268136823F001031360636850
:10591000226823F0706313612268936823F40043C4
:105920009360E368012B33D0A368226843F40443F7
:105930009360E368022B31D02268536843F0007310
:1059400043F4004353602268D36823F40043D360D8
:10595000236962691343A169226843EA0123D36082
:10596000E369216A22680B4313602268136843F0DD
:105970000103136000206064202384F84130206319
:1059800084F8420010BD80F84030FFF7AFFFB6E763
:10599000A368226843F400439360CAE723684FF486
:1059A00000625A60C8E7012070477047A8B110B57F
:1059B0000446242380F841300268136823F0010371
:1059C0001360FFF7F2FF0020606484F84100206359
:1059D00084F8420084F8400010BD012070470000A8
:1059E0002DE9F04782B00F460A9E90F84110C9B2E7
:1059F000202940F0A38004469046994690F8403014
:105A0000012B00F09F804FF0010A80F840A018F0B1
:105A100034F805460090192352464FF400412046C1
:105A2000FFF748FE002840F08F80212384F84130A2
:105A3000102384F8423000236364C4F82480A4F85F
:105A40002A906363638D9BB2FF2B0AD9FF222285C4
:105A5000414B00934FF0807339462046FFF79BFD82
:105A600018E0628D92B222853B4B00934FF0007399
:105A7000D2B239462046FFF78EFD0BE0628D92B21E
:105A80002285002300934FF00073D2B2394620469E
:105A9000FFF781FD638D9BB2002B33D02A46314640
:105AA0002046FFF7DCFD002850D1626A2368127897
:105AB0009A62636A01336362638D9BB2013B9BB25E
:105AC0006385238D013B9BB22385628D92B2002AB0
:105AD000E0D0002BDED10095334600228021204605
