:020000040800F2
:10000000D04D0020D50000088DD3000811650008F0
:1000100000000000000000000000000000000000E0
:10002000000000000000000000000000C9140108EA
:1000300000000000000000004FDD000895480108A6
:10004000E7000008E7000008F7EF0008E7000008F5
:10005000E7000008E92A0008F92A0008092B00082F
:10006000E7000008E7000008C5290008E7000008CD
:10007000E7000008E7000008E7000008E7000008C4
:10008000E7000008E7000008E700000800000000A3
:10009000E7000008E7000008E7000008E7000008A4
:1000A000E7000008E7000008E7000008494E0108E3
:1000B000E7000008E700000800000000E968010808
:1000C0000348854600F09EFD00480047F9CC010832
:1000D000D04D00200448804704480047FEE7FEE773
:1000E000FEE7FEE7FEE7FEE7914A0108C1000008CF
:1000F00030B50B46014600202022012409E00D46C0
:10010000D5409D4205D31D469540491B2546954047
:1001100040191546521E002DF1DC30BD70B500248B
:100120002546002801DA01244042002901DA012590
:100130004942FFF7DDFFAC4200D04042002C00D026
:10014000494270BDF0B51FB40646002082B0054696
:100150004024019100901BE0019922460F46304651
:1001600000F02EFC049A059B801A994110D310468A
:100170001946224600F014FC361A8F410197224698
:1001800001200021009F00F00BFC38184D41009029
:100190002046641E0028DFDC019B00982946324679
:1001A00007B0F0BDF8B500242546002904DA0E4654
:1001B000012400214042B141002B04DA1E460023F5
:1001C00052420125B341FFF7BDFF8C4617461E463C
:1001D000AC4203D0002540428D41AC46002C02D0F9
:1001E000002657429E4161463A46334601B0F0BD73
:1001F000F0B51FB486B000200090019002900698E0
:10020000069980B204900798090C02040014114367
:1002100007900027089D099806913E463C460390AA
:100220000398A9B20204000C039004982D0C154306
:1002300048430021224600F0B3FBC7197141103436
:100240000E46402CECDB3846029A00F0A9FB009ADF
:10025000019B801800905941029801911030029042
:100260004028CCDB00980BB0F0BD03460B439B0746
:1002700003D009E008C9121F08C0042AFAD203E01B
:100280000B780370401C491C521EF9D27047D2B241
:1002900001E00270401C491EFBD270470022F6E7C5
:1002A00010B513460A4604461946FFF7F0FF2046EC
:1002B00010BDF8B502464A40D40F42004B00520828
:1002C0005B089A4202D20246084611464A0023D0F1
:1002D000C30D4A00DDB2120EAD1A202D35DA4902E7
:1002E0000126490AF6058A19002C00D05242202125
:1002F0004F1B1146B9402A411018C20D9A4221D015
:10030000002C17D0012D08DCDA05801AD20F8019D5
:10031000D207DBB200F080FBF8BDDA05801A0123BA
:1003200040001B06C01880185A428018CA0F10439C
:10033000490007E04908C2071143DA05801A80190D
:100340004008801800F060FBF8BD61000122511ADE
:10035000001BF7E70122D2075140AAE70122D2078A
:100360005040A6E7024670B54A40D30FDB07400075
:100370002DD04A002AD0010E140E000212020919D3
:10038000400A520A8418E50104465443000A120A3E
:100390002E045043A4194219200CC543AA18120C6C
:1003A0000125AD03521C521912047F39240400D0D8
:1003B000521C104301D44000491EC2B20C06C009B1
:1003C0002018401C4008802A02D003E0002070BDA5
:1003D00040084000002900DA0020184370BD70B5C5
:1003E00002464A40D50F40004A00ED074008520837
:1003F000002814D0002A12D0C40DD30D41020120D0
:10040000C0055202490A520AE41A091812187D342A
:10041000914201D3641C00E04900002C01DA002065
:1004200070BD0023914201D3891A0343400849005B
:100430000028F7D100290AD0914202D10121C90731
:1004400005E0914201D2012101E00121C943E0050B
:10045000C018401900F0D8FA70BD0000F0B507468A
:100460000846584087B0C00F049048000E46590017
:1004700040084908BC1A884105D2384631461E4614
:1004800017460B4602465800400810434CD0300D2A
:10049000039040055900400D490D0590401A029007
:1004A000402872DA18030121000B09050843019066
:1004B00004980092002805D00199524200208841FA
:1004C00000920190029840210A1A0199009800F0C8
:1004D00067FA05460C466B4607CB00F082FAC01956
:1004E0007141039A0E0D0023D71756401A467A40E1
:1004F000164344D0049A002A2DD0029A012A039A66
:1005000015DC1205C01A914101263605001C714107
:10051000D20F059ED2070093019202962A462346E7
:1005200000F0C0FA07B0F0BD38463146FAE71605CC
:10053000224A0F46B218C01AB74101210905001C12
:100540004F4100187F41114618187941E20F1043BE
:100550006D19644113E0E2076D0815436408C20792
:100560001443039A01261205C01A91413605001C56
:100570007141CE07400830434908C01851412A460E
:10058000234600F082FACDE7FFE7049801224000FD
:10059000C117121A00238B4104983146C417381A28
:1005A000A141EEE730B40124E407634030BC55E7D5
:1005B00030B40124E407614030BC4FE70000E0FFA5
:1005C000F0B51FB488B00B990998002448400999E8
:1005D000C00F490049080991C0070B9900904900D4
:1005E00049080B9109990898A64608431CD00B9915
:1005F0000A98084318D0099801244000420D480089
:10060000410D099824050003000B204309900B9825
:100610000003000B20430B9050181C494018002287
:1006200001901446104605E0002001460DB0F0BDD3
:10063000032801DA034600E003239C46C11A0AAEF0
:100640000AE05F0008ADED5B4F00F75B7D430027DC
:10065000AA187C41491C5B1E6145F2DD410004ABD8
:100660005A522104120C0A43240C401C0828DFDBD8
:10067000019802900099704601910090059B049AA0
:100680000799069800F00EFAD0E700000DFCFFFF76
:10069000F0B50C465C4085B0E40FE40703944C00D1
:1006A00000266408590094464908024602962243EF
:1006B00021D062460A431ED06200570D4A000E0345
:1006C0002303550D012402462C492405781B1B0BDE
:1006D000360B401823432643614600901C46501AAF
:1006E000B44103D30098401C009002E09218009897
:1006F0005B41002803DA0020014605B0F0BD002070
:10070000012109050746864611E064461D46141B73
:10071000B54106D36546521BB341744607430C43AB
:10072000A646CD0740084908284392185B41054674
:100730000D43EAD11046184313D060461946504085
:100740007140084306D06046101AB34106D2012218
:10075000002306E000220123DB0702E00122D2434E
:100760005310009874460105381C6141029C039D9A
:100770000019694100F089F9BFE70000FD0300009E
:10078000C217C10F504010B54018CA079623002168
:1007900000F042F910BD10B500229623114600F07A
:1007A0003BF910BD0EB5C217C10F5040CA07401823
:1007B0000021054B0293019200910A460B4600F07E
:1007C00071F903B000BD0000330400000EB5054907
:1007D0000291002100910A460B46019100F062F956
:1007E00003B000BD33040000C20F410040020123EA
:1007F000400ADB05D207090EC0187F2901DA002064
:100800007047962903DC9623591AC84001E09639AF
:100810008840002AF4D04042704741004002012243
:10082000400AD205090E80187F2901DA002070479E
:10083000962903DC9622511AC840704796398840A1
:100840007047000070B5CD0F4A0009030123090B62
:100850001B0519430B4BED070024520D9A4201DA98
:10086000002070BD074B34339A4203DC9A1A00F023
:10087000A7F802E00449511888402C43F1D04042C7
:1008800070BD0000FF030000CDFBFFFF4A0009031D
:100890000123090B1B051943094B10B5520D9A4250
:1008A00001DA002010BD064B34339A4203DC9A1A59
:1008B00000F086F810BD03495118884010BD0000B3
:1008C000FF030000CDFBFFFFC20FD207400040082E
:1008D0000BD0C10D0723DB01C91840020905400AEE
:1008E0001143C2084007114370470020014670477A
:1008F00010B5002904DB0124E40740428C41214665
:10090000002B04DB1C460123DB075242A3418B4230
:1009100000D1824210BD000010B5002904DB012483
:10092000E40740428C412146002B04DB1C46012396
:10093000DB075242A341994200D1904210BD000012
:10094000CB0FDB07490010B5490802460A4307D020
:100950000A0D07240903E401090B121B002A01DC1C
:10096000002010BDC900440F0C43C100E018D2059F
:10097000801800F049F810BD0122D207002800DBE2
:10098000101A002900DB511A814270470122D20758
:10099000002800DB101A002900DB511A884270473A
:1009A00010B5202A04DB0146203A9140002010BDFA
:1009B000914020239C1A0346E3401943904010BD08
:1009C00010B5202A04DB0846203AD040002110BD93
:1009D0000B46D340D0402024A21A91400843194628
:1009E00010BD10B5202A06DBCB170846203A10416F
:1009F000C1170B4306E00B461341D0402024A21A36
:100A000091400843194610BD002904DA401C4900F2
:100A100001D140084000704770B40024050C05D196
:100A20001024000402D1002921D01124050E01D187
:100A300000020834050F01D10001241D850F01D1EA
:100A40008000A41C002801DB4000641C002908D0A1
:100A500020252E1B0D46F540A14000D00121294341
:100A6000084301061B1B000ADB1D02D5002070BCD9
:100A70007047DB05181880180029F8DA401C490077
:100A8000F5D170BC40084000704710B5002B08DA63
:100A90000024401C614192185B411A4301D1400877
:100AA000400010BDF0B51FB482B005460C0003D065
:100AB000084616F0C9F802E016F0C6F820300246E3
:100AC000009021462846FFF76BFF049B059A0446D9
:100AD0000F4618431143084314D0184610431BD047
:100AE000009840210A1A18460599FFF769FF054644
:100AF0000E46009A05990498FFF752FF084305D067
:100B0000012004E02046394607B0F0BD0020C1179F
:100B100005430E432C43374300990E986305401A52
:100B20007905E40A00220C43FD0A0A3002D50020B0
:100B30000146E9E70105101969410C9C0D9D00195A
:100B40006941FFF7A2FFDFE7F8B505464800400816
:100B50000C46284304D06000184A400D904201DD45
:100B60002846F8BD15493539884210DC88420BDB30
:100B7000290D200308432903014305D0E00F104944
:100B8000C00741180020F8BD00200146F8BD161A24
:100B90004020821B28462146FFF702FF07460091AE
:100BA000284621463246FFF70BFF3A46009BFFF7E7
:100BB0006CFF3246FFF7F4FEF8BD0000330400007E
:100BC0000000F03F4A0009030123090B1B051943EC
:100BD0000A4B10B5520D9A4202DA0020014610BDB0
:100BE000064B34339A4203DC9A1AFFF7E9FE10BD34
:100BF000034BD218FFF7D4FE10BD0000FF03000026
:100C0000CDFBFFFF064C0125064E05E0E36807CC4F
:100C10002B430C3C98471034B442F7D3FFF754FAF7
:100C20000CE801082CE8010870B58D180478401C08
:100C3000A207920F01D10278401C231106D103783C
:100C4000401C03E006780E70401C491C521EF9D16E
:100C5000002B15D002780C268A1A3440401C0C2C2C
:100C600003D0A401121B9B1C08E004782402121B71
:100C7000401CF8E714780C70491C521C5B1EF9D517
:100C8000A942D3D3002070BD38B5044607490848AF
:100C90000068FFF72DFA6043009002E00098401EC4
:100CA000009000980028F9D138BD000040420F00A4
:100CB0002402002070B50446002520688068800763
:100CC000800F012807D120680068C007C00F0028E6
:100CD00001D0012000E00020002839D12068806880
:100CE0001C490840002801D1012000E00020002814
:100CF00009D1A06D10210843A065E06D01210843D2
:100D0000E065012070BD20688068012108432168EA
:100D100088600120FFF7B8FF05F062F905460EE094
:100D200005F05EF9401B0A2809D9A06D102108437F
:100D3000A065E06D01210843E0650120E2E720683D
:100D40000068C007C00F0121484048400028E7D094
:100D50000020D7E71700008030B589B005460C4663
:100D60001022002105A81CF0F8F8224605A905A8C4
:100D700016F039FC6846007D8021084000281CD010
:100D800000BF00200AE005A9095C490005AB421C30
:100D90009A5CD211114305AA1154401C0F28F2DBB2
:100DA00008A9C97849060A0E08A9CA7000BFC87800
:100DB0008721484008A9C87016E000BF00200AE05B
:100DC00005A9095C490005AB421C9A5CD21111438C
:100DD00005AA1154401C0F28F2DB08A9C97849065E
:100DE0000A0E08A9CA7000BFFF201530005910284C
:100DF0000FD100BF002009E0E11DFA31095C05AA0E
:100E0000125C5140E21DFA321154401C1028F3DBF1
:100E100061E06846007D8021084000281CD000BFAA
:100E200000200AE005A9095C490005AB421C9A5C58
:100E3000D211114305AA1154401C0F28F2DB08A956
:100E4000C97849060A0E08A9CA7000BFC878872168
:100E5000484008A9C87016E000BF00200AE005A9B4
:100E6000095C490005AB421C9A5CD211114305AAEA
:100E70001154401C0F28F2DB08A9C97849060A0E54
:100E800008A9CA7000BF8021FF2015300259E01D5B
:100E9000FA30815406E00021FF2015300259E01D90
:100EA000FA308154FF2015300059401CFF211531C4
:100EB00008511028EFD300BF002009E0E11DFA31EE
:100EC000095C05AA125C5140E21DFA321154401C23
:100ED0001028F3DB00BF00BF00200AE02146F131FB
:100EE000095CE21DFA32125C51402246F132115483
:100EF000401C1028F2DB00BF10222146F13101A86E
:100F00001CF011F82246294601A816F06CFB1022AD
:100F1000002105A81CF021F809B030BD10B5044629
:100F2000102200212046F1301CF017F80021FF208C
:100F300015300151F02220461CF00FF810BD70B59D
:100F400004460D4622461021284616F077FB70BD58
:100F5000F0B585B004460F461546FF201530005900
:100F600000283ED0FF20153000591021081AA84251
:100F700004D2FF2015300059081A00E02846064622
:100F8000B2B2FF2115310959E31DFA33C8183946A9
:100F90001BF0C9FFFF20153000598119FF201530C3
:100FA00001510059102801D3B54201D105B0F0BD5F
:100FB00000BF00200AE02146F131095CE21DFA324F
:100FC000125C51402246F1321154401C1028F2DBD1
:100FD00000BF22462146F131084616F004FBBF1936
:100FE000AD1B21E000BF002008E02146F131095C83
:100FF0003A5C51402246F1321154401C1028F4DB77
:1010000000BF10222146F13168461BF08CFF2246BA
:101010006946684616F0E7FA102269462046F13024
:101020001BF081FF1037103D102DDBD8AAB23946D6
:10103000E01DFA301BF077FFFF201530055100BF8F
:10104000B4E7000070B505461748007800281CD0AA
:10105000012000F065F901F0A9FE1448006805F0D0
:1010600066F9044601F0B7FE04F0BAFF10490968BA
:10107000401AA04205D913F0F3F804F0B1FF0C496F
:101080000860012000F03CF900BF01F0A4FE05F06B
:101090004CFB642002F0EEFA0648008809F01EFAC4
:1010A00005F04EFA70BD0000520F00206C0F0020BA
:1010B000F40F0020540F00201CB50F4800790028C1
:1010C00014D10120694608710C48806800900A49D3
:1010D00044314968087869460FF05BFA00210648F8
:1010E0003C38017500200449087100BF02483C38B3
:1010F000807C014948711CBDBC1D0020E41F0020FC
:101100001CB51A48817C407C81422EDA1748807CCD
:10111000401C16498874887CC10F09184910490081
:10112000411A012921D12221684601710F488030DE
:101130004068FF301930017D684681710B4880306E
:101140004068F83041786846417108498031496803
:10115000087801A90FF00FFA0090009841B20348F7
:1011600080304068F830417000BF1CBD801D0020F9
:1011700070B505462C68002C0ED0E0684168002947
:101180000CD02046884701280AD014212046FFF7BA
:1011900085F80020286070BD012070BD012070BD61
:1011A000012070BD10B500280AD0C268002909D0FE
:1011B0009269002A08D09047012807D0002010BD6E
:1011C000012010BD012010BD012010BD012010BD67
:1011D00010B50C460022226000280CD0012810D047
:1011E000204600F02DF9012810D1204600F0A8F883
:1011F00001280BD110BD204600F022F9012805D1AD
:1012000010BD204600F09CF8012801D0002010BD40
:10121000012010BD10B5002808D0C16889680029D8
:1012200006D08847012805D0002010BD012010BD40
:10123000012010BD012010BD10B586B0044600BFCE
:10124000002C06D0012C13D0022C20D0032C3CD132
:101250002CE000BF2748C06A022108432549C86224
:101260000846C06A02210840009000BF00BF2DE080
:1012700000BF2048C06A012108431E49C8620846D1
:10128000C06AC007C00F009000BF00BF1EE000BFD3
:101290001848C06A022108431649C8620846C06A55
:1012A00002210840009000BF00BF0FE000BF1148BE
:1012B000C06A022108430F49C8620846C06A022179
:1012C0000840009000BF00BF00E000BF00BF00BFAB
:1012D00060000949085A0190012002900020039003
:1012E00003200490A100054A505801A902F05AFABF
:1012F00006B010BD001002406CDE01081002002094
:1013000010B504466200044B995AA200034B98584A
:10131000002202F000FB10BD6CDE0108100200206C
:1013200010B504466200044B995AA200034B98582A
:10133000012202F0F0FA10BD6CDE0108100200205C
:1013400070B505461C4CE07D012823D013F072F8DF
:10135000012821D033202075322060750120A0752E
:101360000026E6752676607620463030E061134828
:10137000206266622046124928308160C6601438B7
:101380002860C1680968002908D0884701280BD067
:10139000002070BD012070BD012070BD1421FEF73A
:1013A0007DFF2E60012070BD14212868FEF776FFB6
:1013B0002E60012070BD0000FC11002020000020E4
:1013C000E001002070B505461A4CE078012820D0D5
:1013D00013F030F801281ED0402020703C206070AF
:1013E0000026A670E6702671012060711248A06088
:1013F0001249E1602661011F0160466020462C60B1
:10140000E1680968002908D0884701280BD000202E
:1014100070BD012070BD012070BD1421FEF73EFF9C
:101420002E60012070BD14212868FEF737FF2E6062
:10143000012070BD34120020F00100207000002057
:1014400070B505461D4CE078012826D012F0F2FF59
:10145000012824D06A202070D62060700026A67053
:10146000E67026710120607120462830A060144982
:10147000E160144921611549134A0A600160466020
:1014800020462C60E168096800290AD088470128B5
:101490000DD007F0F1FF002070BD012070BD0120CC
:1014A00070BD1421FEF7FAFE2E60012070BD1421DC
:1014B0002868FEF7F3FE2E60012070BDFC110020AD
:1014C00088010020B8000020D8010020E40100209D
:1014D00070B505462C68002C0ED0E06841680029E4
:1014E0000CD02046884701280AD014212046FEF758
:1014F000D5FE0020286070BD012070BD012070BDA8
:10150000012070BD10B500280AD0C268002909D09A
:101510009269002A08D09047012807D0002010BD0A
:10152000012010BD012010BD012010BD012010BD03
:1015300010B50246084600210160002A04D0FFF7DA
:1015400041FF012804D110BDFFF73CFF012801D065
:10155000002010BD012010BD10B50348FFF708FEA4
:101560000248FFF7B5FF10BD380200203C02002002
:1015700010B504490020FFF7DBFF03490120FFF706
:1015800027FE10BD3C0200203802002030B587B095
:1015900004461F480068FFF73DFE0546002D02D0B7
:1015A000002007B030BD322002F064F804A91848CA
:1015B0000068FFF7A7FF0546002D01D00020F0E7E7
:1015C0000498A0610598E0610698206211480068BF
:1015D000FFF720FE0546002D01D00020E1E7322074
:1015E00002F048F801A90B480068FFF7DBFD05464B
:1015F000002D01D00020D4E7019860620298A0621B
:101600000398E0620A2002F035F80120C9E70000E3
:101610003C0200203802002070B505461C480068D6
:10162000401C1B4908601B4919481BF0F1FE194872
:101630000068194900228A5E80181649086014481B
:101640000068401C12490860124801681048006890
:101650001CF0C8FA0E4801680E480068FEF748FD05
:10166000044621460D4816F08DF80D4908600849DA
:1016700009680C4A5143084609490968FEF738FDD4
:101680000849081A06490860074813F029FB70BD8D
:10169000400F00203C0F0020840F0020883C0020D9
:1016A000440F002010270000243B002010B51549EE
:1016B00015481BF0ADFE1448016812480068FEF79B
:1016C00017FD04462146114816F05CF810490860E1
:1016D0000D4909680F4A514308460D490968FEF74C
:1016E00007FD0C49081A0A4908600B490B4813F01A
:1016F00035FA0B49094813F0DEFA084813F0F0FAFE
:1017000010BD00003C0F0020400F0020883C00204E
:10171000440F00201027000019160008243B002069
:10172000005C26050FB4F0B5DDB0074610A81AF02E
:1017300033F9FAA110A815F073FA60A8007B00280D
:1017400005D0F7A110A8033015F06AFA04E0F5A15E
:1017500010A8033015F064FA63A8007A63A9C97968
:1017600063AA927963AB5B7902930392049105902B
:1017700063A8007963A9C9780091019063A8837870
:1017800060A8427BE8A111A8023015F049FA63A8CD
:10179000007C63A9C97B63AA927B63AB5B7B0293EA
:1017A00003920491059063A8007B63A9C97A009114
:1017B000019063A8837A60A8427DDBA115A802305E
:1017C00015F02EFA67A80130C07B63A9C97F63AA10
:1017D000927F63AB5B7F0A930B920C910D9063A891
:1017E000007F63A9C97E63AA927E63AB5B7E06938A
:1017F00007920891099063A8007E63A9C97D63AA36
:10180000927D63AB5B7D029303920491059063A884
:10181000007D63A9C97C0091019063A8837C60A8C6
:10182000427FCA4919A8023015F0FAF96BA80130B5
:10183000C0786BA901318978009101906BA80130C3
:10184000437868A8427BBCA121A8023015F0E8F9D2
:101850006CA80130C07B6CA90131897B6CAA013274
:10186000527B6CAB01331B7B0A930B920C910D9056
:101870006CA80130C07A6CA90131897A6CAA013256
:10188000527A6CAB01331B7A069307920891099048
:101890006CA80130C0796CA9013189796CAA013238
:1018A00052796CAB01331B7902930392049105903A
:1018B0006CA80130C0786CA9013189780091019041
:1018C0006CA80130437868A8427CA04923A8023064
:1018D00015F0A6F970A80130C07B70A90131897B91
:1018E00070AA0132527B70AB01331B7B0A930B92BF
:1018F0000C910D9070A80130C07A70A90131897ADD
:1019000070AA0132527A70AB01331B7A06930792A8
:101910000891099070A80130C07970A901318979C6
:1019200070AA0132527970AB01331B790293039292
:101930000491059070A80130C07870A901318978B0
:101940000091019070A80130437870A842787F49D7
:101950002BA8023015F064F970A8407C3030C1B279
:1019600030A8817370A8807C3030C1B230A8C173B8
:1019700070A8C07C3030C1B230A8017470A8027D5C
:1019800073A1EF3815F04CF970A8427D70A135A80D
:1019900015F046F970A8807D3030C1B230A8C1750D
:1019A0007D21C9007698FEF7A3FB0446E1210901D9
:1019B0002046FEF79DFB0F90E12109012046FEF72E
:1019C00097FB0E913C210E98FEF792FB06463C21B8
:1019D0002046FEF78DFB0D46334600955DA136A8E7
:1019E0000F9A15F01DF900247D21C9007798FEF7A4
:1019F0007FFB0446E12109012046FEF779FB0F90A9
:101A0000E12109012046FEF773FB0E913C210E985F
:101A1000FEF76EFB06463C212046FEF769FB0D46AD
:101A2000334600954BA138A80F9A15F0F9F8002419
:101A30007D21C9007898FEF75BFB0446E12109018E
:101A40002046FEF755FB0F90E12109012046FEF7E5
:101A50004FFB0E913C210E98FEF74AFB06463C21B7
:101A60002046FEF745FB0D463346009539A13AA8BE
:101A70000F9A15F0D5F878A80079002804D039A17C
:101A80003CA815F0CDF803E037A13CA815F0C8F844
:101A900078A84079002805D032A13CA8033015F081
:101AA000BFF804E030A13CA8033015F0B9F80024D9
:101AB00054222046641C3DA902310A5478A880793A
:101AC000002804D03C222046641C0A5405E03E2233
:101AD0002046641C3DA902310A5478A907228A567F
:101AE000EA3908191AA115F09BF878A9087A002894
:101AF00005D01CA140A8023015F092F804E01AA10C
:101B000040A8023015F08CF878A8407A00282DD033
:101B100014A141A8013015F083F82CE06E6F2A0063
:101B20004F54410041425000253032582530325840
:101B30002530325825303258253032582530325829
:101B4000253032582530325800000000C8E701081F
:101B500025642A00253032643A253032643A253033
:101B600032640000594553004E4F2A00924941A863
:101B7000013015F055F8002448222046641C42A983
:101B80000A5478A8807A002804D03C222046641C9D
:101B90000A5404E03E222046641C42A90A5470A95B
:101BA0008A8D42A908198449183915F039F878A99D
:101BB000887B002805D08049091F45A815F030F81A
:101BC00003E07D4945A815F02BF878A8C07B0028D4
:101BD00006D07949091F45A8033015F021F804E023
:101BE000754945A8033015F01BF800244C22204607
:101BF000641C46A902310A5478A8007C002804D04D
:101C00003C222046641C0A5405E03E222046641C07
:101C100046A902310A5470A94A8EA63908196649A4
:101C2000183914F0FDFF78A9087D002806D0624914
:101C3000091F49A8023014F0F3FF04E05E4949A8E7
:101C4000023014F0EDFF78A8407D002806D05A49F4
:101C5000091F4AA8013014F0E3FF04E056494AA8DE
:101C6000013014F0DDFF002441222046641C4BA902
:101C70000A5478A8807D002804D03C222046641CA9
:101C80000A5404E03E222046641C4BA90A5470A961
:101C90000A8F4BA908194849183914F0C1FF78A9CF
:101CA000887E002805D04449091F4EA814F0B8FFCB
:101CB00003E041494EA814F0B3FF78A8C07E002885
:101CC00006D03D49091F4EA8033014F0A9FF04E0D7
:101CD00039494EA8033014F0A3FF00244D222046BA
:101CE000641C52A902310A5478A8007F002804D04D
:101CF0003C222046641C0A5405E03E222046641C17
:101D000052A902310A5470A9CA8F763908192A4992
:101D1000183914F085FF80A90878002806D02649D4
:101D2000091F55A8023014F07BFF04E0224955A892
:101D3000023014F075FF80A84078002806D01E49B4
:101D4000091F56A8013014F06BFF04E01A4956A889
:101D5000013014F065FF00247D21C9008198FEF751
:101D6000C7F90446E12109012046FEF7C1F90F90A9
:101D7000E12109012046FEF7BBF90E913C210E98A6
:101D8000FEF7B6F906463C212046FEF7B1F90D46AE
:101D900033460095084914395AA80F9A14F040FFA9
:101DA000FF22353210A93846FEF75FFA5DB0F0BC6D
:101DB00008BC04B018470000681B0008FFB587B0D6
:101DC00004461F4600200690102565571120205616
:101DD0000590A06838606079012852D102216846D8
:101DE0000174A17C8174E07C04A90EF0C4FB039013
:101DF000039846B2B54201DD284600E0304605466C
:101E0000B54203D10020386006903AE0A189A0686D
:101E1000884202D30120069001E000200690A089AC
:101E2000E1894018A16888422BD8082069460874C7
:101E3000E07C04A90EF09FFB0390039840B205904C
:101E4000E189A068FEF754F901291AD122216846D8
:101E500001744574A17C8174E07C04A90EF08BFBB5
:101E60000390039845B2B5420BD10020069020792B
:101E7000012806D169460872E07C01A90EF089FBB1
:101E800000BF0898057009990598087006980BB06E
:101E9000F0BD00003EB5044625484068FF30C13023
:101EA000007D002802D16946087002E001206946E1
:101EB00008701F484068FF302130417F68468170BC
:101EC000C4701B494968FF318131C86C12F036FE7D
:101ED000019017488038806902900021684641705F
:101EE000134840784007C00F002807D0002008F0B2
:101EF00057FE002802D00120694648700C49496805
:101F0000087869460DF052FA094880388069084916
:101F10004968FF31C1314988484305498039896999
:101F2000411A03484068FF30813081643EBD0000A3
:101F3000001E002010B504460748806C002809D018
:101F40000548806C8068002804D00348806C816854
:101F50002046884710BD0000801C002038B505468B
:101F60000C46002000906946284601F035F800280C
:101F700001D0002038BD0098844203D80098401C4E
:101F8000002801D10120F5E70020F3E70B48807C11
:101F90000A49497C884201DB0120704707488030AC
:101FA00040788007C00F002805D004483C300079F5
:101FB000012800D1F1E70020EFE70000801D00209C
:101FC0001148017C80304068FF3019300078814230
:101FD00001DB012070470C48803040788007C00F3B
:101FE00000280FD0084880304068E030007C00288E
:101FF00001D10120EEE704481C30407C002801D1CB
:102000000120E7E70020E5E7801D0020FFB585B04F
:1020100004460E460E9F002E01D0002F02D1022052
:1020200009B0F0BD1748FEF779FF6946089800F03F
:10203000B9FF0546002D22D10099491C1148FEF731
:102040007EFF002C04D0102221460E48FEF780FFB0
:1020500031460C48079AFEF77BFF0A4901A8FEF7B4
:102060007BFE6946C87900068979090408436946F8
:1020700049790902084369460979084338602846C6
:10208000CEE70000CC230020FFB587B005460C4604
:102090001646139F002D01D0002F02D10A200BB04D
:1020A000F0BDFF200130844201DD0E20F7E703AAD6
:1020B000129911986B4607C331462046109B0A9A25
:1020C0000BF094FE33462246294603A8009711F0F0
:1020D00015FA002801D00F20E1E70020DFE7F0B576
:1020E0009FB007460C46E0784F2801D1012000E060
:1020F00000202179542901D1012100E0002108406C
:102100006179412901D1012100E000210840002826
:1021100003D001206946087018E0E078412801D119
:10212000012000E000202179422901D1012100E0B5
:10213000002108406179502901D1012100E00021EE
:102140000840002802D00020694608701022A11D16
:1021500000A801301BF000FC10222146163102A815
:1021600001301BF0F9FB20222146263104A8013062
:102170001BF0F2FB08222146463108A801301BF073
:10218000EBFB202221464E3109A801301BF0E4FB75
:10219000202221466E310DA801301BF0DDFB8E2080
:1021A000005D3038C1B210A841718F20005D303819
:1021B000C1B210A881719020005D3038C1B210A862
:1021C000C171002500210172417211E010A8007A4E
:1021D0000A214843C1B210A80172017A2046913009
:1021E000405D30380818C1B210A80172681CC5B231
:1021F00020469130405D2A28E8D1002511E010A842
:10220000407A0A214843C1B210A84172417A20465F
:102210009430405D30380818C1B210A84172681C73
:10222000C5B220469430405D2A28E8D10025972089
:10223000005D303810A988729820005D30380A217E
:1022400048439921095D40183038E1210901414393
:102250009B20005D30380A2250439C22125D80187A
:1022600030383C22504309189E20005D30380A2245
:1022700050439F22125D8018303808187D21C90014
:1022800048431390A020005D30380A214843A12123
:10229000095D40183038E12109014143A320005D68
:1022A00030380A225043A422125D801830383C2274
:1022B00050430918A620005D30380A225043A72257
:1022C000125D8018303808187D21C90048431490E9
:1022D000A820005D30380A214843A921095D401833
:1022E0003038E12109014143AB20005D30380A223A
:1022F0005043AC22125D801830383C2250430918FC
:10230000AE20005D30380A225043AF22125D8018A3
:10231000303808187D21C90048431590B020005D71
:10232000592803D0B020005D792813D1B120005D79
:10233000452803D0B120005D65280BD1B220005D97
:10234000532803D0B220005D732803D1012010A9C7
:10235000087602E0002010A90876B320005D592815
:1023600003D0B320005D792813D1B420005D452847
:1023700003D0B420005D65280BD1B520005D532843
:1023800003D0B520005D732803D1012010A9487641
:1023900012E0B320005D4E2803D0B320005D6E280C
:1023A0000AD1B420005D4F2803D0B420005D6F280F
:1023B00002D1002010A94876B720005D3C2803D147
:1023C000012010A9887602E0002010A98876022555
:1023D000002010A9C8762046B630405D2D2801D1D6
:1023E000681CC5B211E010A8C07E0A21484341B262
:1023F00010A8C176C17E2046B630405D303808183E
:1024000041B210A8C176681CC5B22046B630405D06
:102410002A28E8D1B820005D2D2806D110A8C07E5A
:10242000404241B210A8C17602E010A8C17EC17638
:10243000C220005D592803D0C220005D792813D145
:10244000C320005D452803D0C320005D65280BD163
:10245000C420005D532803D0C420005D732803D13D
:10246000012010A9087702E0002010A90877C520F4
:10247000005D592803D0C520005D792813D1C620FE
:10248000005D452803D0C620005D65280BD1C7201C
:10249000005D532803D0C720005D732803D10120BD
:1024A00010A9487712E0C520005D4E2803D0C52052
:1024B000005D6E280AD1C620005D4F2803D0C620DB
:1024C000005D6F2802D1002010A94877C920005D67
:1024D0003C2803D1012010A9887702E0002010A930
:1024E0008877022500260BE030460A21484306463D
:1024F0002046C830405D3038801906B2681CC5B22D
:102500002046C830405D2A28EED110A90E84D42080
:10251000005D592803D0D420005D792813D1D5203F
:10252000005D452803D0D520005D65280BD1D6205D
:10253000005D532803D0D620005D732803D101200D
:1025400018A9887002E0002018A98870D720005DC3
:10255000592803D0D720005D792813D1D820005DF9
:10256000452803D0D820005D65280BD1D920005D17
:10257000532803D0D920005D732803D1012018A966
:10258000C87012E0D720005D4E2803D0D720005D30
:102590006E280AD1D820005D4F2803D0D820005DD6
:1025A0006F2802D1002018A9C870DB20005D3C28EC
:1025B00003D1012018A9087102E0002018A90871B0
:1025C000022500260BE030460A21484306462046F5
:1025D000DA30405D3038801906B2681CC5B220463A
:1025E000DA30405D2A28EED110A9CE84E620005DC5
:1025F000592803D0E620005D792813D1E720005D3B
:10260000452803D0E720005D65280BD1E820005D58
:10261000532803D0E820005D732803D1012018A9B6
:10262000087202E0002018A90872E920005D59280C
:1026300003D0E920005D792813D1EA20005D452808
:1026400003D0EA20005D65280BD1EB20005D532804
:1026500003D0EB20005D732803D1012018A9487234
:1026600012E0E920005D4E2803D0E920005D6E28CD
:102670000AD1EA20005D4F2803D0EA20005D6F28D0
:1026800002D1002018A94872ED20005D3C2803D13A
:10269000012018A9887202E0002018A9887202257A
:1026A00000260BE030460A21484306462046EC301F
:1026B000405D3038801906B2681CC5B22046EC3047
:1026C000405D2A28EED110A98E85F820005D59289A
:1026D00003D0F820005D792813D1F920005D45284A
:1026E00003D0F920005D65280BD1FA20005D532846
:1026F00003D0FA20005D732803D1012018A9887344
:1027000002E0002018A98873FB20005D592803D03F
:10271000FB20005D792813D1FC20005D452803D003
:10272000FC20005D65280BD1FD20005D532803D0FF
:10273000FD20005D732803D1012018A9C87312E0A1
:10274000FB20005D4E2803D0FB20005D6E280AD1DF
:10275000FC20005D4F2803D0FC20005D6F2802D1D3
:10276000002018A9C873FF200C30005D3C2803D15D
:10277000012018A9087402E0002018A90874022595
:1027800000260CE030460A21484306462046FF302A
:102790000B30405D3038801906B2681CC5B2204647
:1027A000FF300B30405D2A28ECD110A94E86FF2067
:1027B0001730005D592804D0FF201730005D7928BC
:1027C00017D1FF201830005D452804D0FF201830B5
:1027D000005D65280DD1FF201930005D532804D01D
:1027E000FF201930005D732803D1012018A9087556
:1027F00002E0002018A90875FF201A30005D592852
:1028000004D0FF201A30005D792817D1FF201B303B
:10281000005D452804D0FF201B30005D65280DD1E8
:10282000FF201C30005D532804D0FF201C30005DC9
:10283000732803D1012018A9487516E0FF201A302B
:10284000005D4E2804D0FF201A30005D6E280CD1A8
:10285000FF201B30005D4F2804D0FF201B30005D9F
:102860006F2802D1002018A94875FF202930005D8B
:1028700030380A214843FF212A31095D4018303899
:10288000E12109014143FF202C30005D30380A224C
:102890005043FF222D32125D801830383C225043C5
:1028A0000918FF202F30005D30380A225043FF22E4
:1028B0003032125D8018303808187D21C900484335
:1028C0001E907C2269463846FDF7CFFC1FB0F0BD54
:1028D00030B50246002300200AE001248440144061
:1028E00001258540AC4201D15C1CE3B2441CE0B23E
:1028F0008842F2DB184630BDFFB583B00F461E4656
:102900000020029001900025009053E0002448E050
:10291000009841000598405A0121A1400840002834
:102920003CD028190C2148433058002800D136E00B
:102930000398002806D10120A0404007400F00283E
:1029400000D12CE028190C23584380190823C356C2
:102950001A1128190C2358438019007A000701170F
:1029600078B20CF0F3FF002800D118E028190C21F0
:1029700048438019407A01010C980818C068002863
:1029800004D00198401CC0B2019008E02819C2B2DE
:102990000298411CC9B202910D990A5400BF601CF3
:1029A000C4B2102CB4DB28461030C5B20098401CCD
:1029B000C0B20090102DA9DB0E9901980870029802
:1029C00007B0F0BD70470000FFB585B0044615465E
:1029D0000698002804D0002D02D00898002802D1C3
:1029E0000A2009B0F0BD00200190029003900490ED
:1029F000052C06D0062C05D0072C04D0082C0AD1B3
:102A000005E000BF00BF01206946087105E0022013
:102A10006946087101E00B20E3E700BF032201A82B
:102A2000013006991AF07FFA0322294602A81AF00B
:102A30007AFA022202A8033008991AF074FA0D48B3
:102A400040682346022201A906460090377838469E
:102A500077783F023843B7783F043843F678360634
:102A6000304310F05EFD002801D00F20B9E70020B0
:102A7000B7E700002C2000200246002A01D00029E0
:102A800001D103207047107B0007000F002806DDEE
:102A90002020805C002802DD0020087020E0282033
:102AA000805C002802D10120087019E0107B00072B
:102AB000000F002806D12020805C002802D10220CF
:102AC00008700DE0107B0007000F002806D12020C1
:102AD000805C002802DD0320087001E01720D1E7A8
:102AE0000020CFE77047704710B5012000F04EFE80
:102AF000022000F04BFE10BD10B5042000F046FE91
:102B0000082000F043FE10BD10B5102000F03EFE7E
:102B1000202000F03BFE402000F038FE802000F036
:102B200035FEFF20013000F031FE0120400200F0B0
:102B30002DFE0120800200F029FE0120C00200F0DD
:102B400025FE0120000300F021FE0120400300F0DB
:102B50001DFE0120800300F019FE0120C00300F0DB
:102B600015FE10BD00BFFEE710B50520FFF7E2F926
:102B700010BD10B50420FFF7DDF910BD10B506201B
:102B8000FFF7D8F910BD10B50220FFF7D3F910BD3B
:102B900010B50020FFF7CEF910BD10B50120FFF7EA
:102BA000C9F910BD10B50320FFF7C4F910BD30B549
:102BB00004460D4600222946204600F001F830BDAB
:102BC000F0B50346012500241148407A01281CDC99
:102BD00000200F4E767A0E4FB8553846407A860060
:102BE000381D8351001F467A083082553E46707A60
:102BF000461C7E7204462046303008703A204870E9
:102C00002F2088700020C87000252846F0BD0000E5
:102C1000703A002010B504460021204600F002F86A
:102C200010BD000070B502460B46002101200D4C7E
:102C3000647A012C15DB1478303CE1B28D00094C2C
:102C4000241D6459002C0CD000258E00054C241D39
:102C5000A551241D6554083C647A641E014D6C72B4
:102C6000002070BD703A002010B5084900234B6168
:102C700007494A684C1522434A604A68082422439F
:102C80004A60C009C001036010BD00004812002066
:102C90000020024010B50020204A9169CB05204950
:102CA00004D54869022318434861901593699B0530
:102CB00005D54B69012423434B6163021843936993
:102CC0005B0505D54B69082423434B61E301184399
:102CD00093691B0505D54B69042423434B616302AB
:102CE000184393699B0405D54B69102423434B611A
:102CF0006302184393699B0304D54C6920231C434A
:102D00004C6118439369DB0305D54B694024234389
:102D10004B61A1020843906110BD000000200240F9
:102D20004812002070B5044600F0FCFD0546184E20
:102D30000AE0601C08D0002C04D000F0F3FD401B1A
:102D4000A04201D9032070BDB069C007F1D1B069BC
:102D5000800701D50220B061B069C00511D4B06907
:102D600080050ED4B06940050BD4B069000508D4C5
:102D7000B069800405D4B069800302D4B069C0038F
:102D800003D5FFF787FF012070BD002070BD000054
:102D90000020024010B50446002C00D110BD1022C6
:102DA000002120461AF0D9F80120F7E710B50022DB
:102DB00004210520000700F0AEFD002204210520BB
:102DC000000700F0A8FD0022FF21013105200007C7
:102DD00000F0A1FD10BD10B501220421052000075F
:102DE00000F099FD012204210520000700F093FD69
:102DF00010BD000001468800094A1058094A801891
:102E0000002807D08018002806D05200801800281B
:102E100004D000BF002070470120FCE70220FAE741
:102E2000D0DE0108B817FEFF08B519481949086037
:102E3000FF20DD3048600846143007F0E7FF1549F1
:102E400008610020009014494968087869460DF02F
:102E500087FB104988600098C86008461C3010F055
:102E60009BFB0C4988610846243007F025FD094981
:102E7000086208462C3007F0C3FC06498862084601
:102E8000343007F013FE03490863084608BD00000C
:102E9000081E0020E41F0020001E0020F8B5054693
:102EA0000E461746344608E02078A84201D1204655
:102EB000F8BD204603F0BEFD0446BC42F4D100201C
:102EC000F6E7FFB581B005460E4617460B9C002F6E
:102ED00004D0002C02D00C98002802D10A2005B0A2
:102EE000F0BD2B0013F0DFFE0515181B1E0421009A
:102EF0006846807C012809D1002E01D0032E02D122
:102F00000220207004E00120207001E003202070E6
:102F10000DE0042020700AE00520207007E0062064
:102F2000207004E00720207001E00520D7E700BFF3
:102F3000FA8920780C9B0A9907F010FFCFE7000070
:102F4000024600210FE0C800094B1858904208D8EB
:102F5000481CC0001858904203D9C800C018007916
:102F60007047481CC1B21529EDD300BFFEE7000031
:102F7000E4DC010810B502460B4600210BE0880096
:102F8000074C205C904204D1880000191860002092
:102F900010BD481CC1B20529F1DB0C20F8E7000088
:102FA000DC05002030B502460B4600210DE008018B
:102FB0000818084C205C904205D108010818001937
:102FC0001860002030BD481CC1B21829EFDB032077
:102FD000F8E70000E424002000B50246002901D1F2
:102FE0000A2000BD130013F05EFE083A05101B26F0
:102FF0002B30353A1C484068006908601A48406820
:103000001030194B5B6818632BE017484068406923
:103010000860154840681430134B5B68186320E063
:1030200011484068806908600F48406818300E4BAE
:103030005B68186315E00C484068C069086010E0E0
:1030400009484068006A08600BE007484068406A29
:10305000086006E004484068806A086001E00520D6
:10306000BFE700BF0020BCE72C2000201CB50446B1
:103070000E484068FF301930017D68468171447107
:103080000D21017109484068FF302130C07F0128BF
:1030900002D10E206946087104494968087801A9DF
:1030A0000DF069FA00900098C0B21CBD001E00200F
:1030B000024600238A4201D1CBB201E0501EC3B2C6
:1030C00058B2704770B50948046945698669A41902
:1030D000002C0AD008220649204603F0B7FC04223F
:1030E00003491031284603F0B1FC70BD4000F81FC1
:1030F00032090020F8B5044600250026002700BF4D
:103100005420005D012801D10220F8BD0121542086
:10311000015500BF206880688007800F012806D114
:10312000206800680840002801D0012000E000204D
:1031300000283FD1A06DFF210131884302210843BF
:10314000A0652068C0688707BF0F2068C068800836
:1031500080002168C860206880680121C907084391
:103160002168886002F03CFF064611E002F038FF5B
:10317000801B0A280CD9A06D022188431021084326
:10318000A06500BF00215420015500BF0120BCE70D
:1031900020688068C00FC0070028E7D12068C06899
:1031A00038432168C860A06D02218843012108438B
:1031B000A06504E0A06D20210843A065012500BFA3
:1031C00000215420015500BF28469EE770B50446F3
:1031D0000D4600BF5420005D012801D1022070BDC2
:1031E00001215420015500BF206880680421084057
:1031F000800800280AD0A06D20210843A06500BFE8
:1032000000215420015500BF0120E8E72D496868DE
:10321000884229D02068806A29684903490B0843FD
:103220002168886228684003400B27490840012133
:103230008904884208D12548806849010843234908
:1032400088600A20FDF720FD28684003400B2049D4
:1032500008400121490488422CD11C48806849015A
:1032600008431A49886025E02068806A2968490374
:10327000490B88432168886228684003400B124943
:10328000084001218904884205D11048806849011D
:1032900088430E49886028684003400B0C49084069
:1032A00001214904884205D10848806849018843C2
:1032B0000649886000BF00215420015500BF00204E
:1032C0008DE70000011000000000044800270140C5
:1032D0000000024401460868006C704710B50446BF
:1032E000002C01D1012010BDA06D002806D1E065A1
:1032F000002154200155204600F00AF9A06D10214C
:103300000840002806D12068806804210840800811
:1033100000280AD0A06D10210843A06500BF00213D
:103320005420015500BF0120DDE7A06DFF210131D0
:10333000884302210843A065206880688007800FC9
:10334000012807D120680068C007C00F002801D0FD
:10335000012000E0002000283AD100BF03218907A6
:103360006068884207D049426068884203D04900BB
:10337000606888420CD1206800698000800821685C
:10338000086120680069616808432168086112E0EB
:103390002068006980008008216808615A488068B8
:1033A0000F2189048843584988600846806861680D
:1033B00008435549886000BF2068C06818218843C9
:1033C0002168C8602068C068A16808432168C86097
:1033D0004D4880680121490688434B49886008466A
:1033E0008068218F490608434749886020688068C3
:1033F000012109070840002804D12068806808439B
:10340000216888602068C068404908402168C86019
:103410002169E068022901D1042100E0002108436C
:10342000216A49030843216B49000843616B084343
:10343000A16989030843E169C90308432168C96890
:1034400008432168C860FF21C231A06A884207D0C2
:10345000E16AA06A08432168C96808432168C86016
:10346000606A012812D1206A002807D12068C0684C
:103470000121090408432168C86007E0A06D2021EC
:103480000843A065E06D01210843E065206C012838
:1034900017D120680069FF218900884321680861ED
:1034A000616CA06C0843E16C08432168096908431A
:1034B00021680861206800690121084321680861CA
:1034C0000BE020680069C007C00F002805D0206805
:1034D0000069400840002168086120684069C00810
:1034E000C0002168486120684069E16B0843216899
:1034F00048610020E065A06D022188430121084356
:10350000A0650020EFE60000002701401902FEFF41
:103510007047F8B504460D46002600276069082864
:1035200001D1082711E02068C068C007C00F00283B
:103530000AD0A06D20210843A06500BF00215420BF
:10354000015500BF0120F8BD0C2702F049FD0646D9
:1035500014E0681C002811D0002D04D002F040FDBA
:10356000801BA8420AD9A06D04210843A06500BFB2
:1035700000215420015500BF0320E4E720680068C3
:1035800038400028E5D0A06D012149020843A0651C
:103590002068C068032189020840002825D1206ADC
:1035A000002822D1206800680821084008281CD182
:1035B0002068806804210840800800280DD1206818
:1035C00040680C21884321684860A06DFF210131CB
:1035D000884301210843A06507E0A06D202108432E
:1035E000A065E06D01210843E065A069002802D1D3
:1035F0000C20216808600020A5E7000070B5044693
:1036000000252068806804210840800800282BD10C
:1036100000BF5420005D012801D1022070BD0121AE
:103620005420015500BFE069012803D02046FDF772
:1036300041FB0546002D18D1A06D0D490840FF2122
:1036400001310843A0650020E06500BF002154203F
:10365000015500BF1C202168086020688068042193
:1036600008432168886000E002252846D6E700006C
:10367000FEF1FFFF01B5009802F00EFC08BD00004E
:10368000F8B505460E46184F387C012807D00120B2
:1036900038741648FFF746FB002802D020E00220CD
:1036A000F8BD0021C94331606C6813E02046FFF784
:1036B000DBFA0E48FFF736FB0D494A6808239A43A8
:1036C0004A604A684B159A434A60002801D034602A
:1036D00006E08034A9686A68C9018918A142E5D862
:1036E00000213974F8BD00004812002050C30000CA
:1036F000002002400348416802221143416000203B
:103700007047000000200240F8B50E4617460B4CEB
:10371000207C012808D0012020740948FFF702FB13
:103720000025002802D006E00220F8BD6561376060
:103730000348FFF7F7FA2574F8BD0000481200208F
:1037400050C300000948416889070CD54168C90782
:1037500003D00749C1600749C160074901610749B2
:1037600001610020704701207047000000200240E6
:10377000EFCDAB8905040302BFAE9D8C1615141363
:1037800010B50446204602F0A9F910BD10B5044951
:103790004A69024202D04861FFF7F2FF10BD000003
:1037A00000040140F0B5002298E001249440A446B2
:1037B0002340002B7ED04C68022C01D0122C0CD15F
:1037C000D408A40027183D6A5407E40E0F26A6402B
:1037D000B5430E69A6402E433E624C68012C05D0CD
:1037E000022C03D0112C01D0122C11D18568540069
:1037F0000326A640B543CE68A6402E4386604468A3
:103800006546AC430D79ED06ED0F954025434560C7
:10381000076854000325A540AF430E79B607B60FDD
:10382000A6403E430660C668AE438D68A54035435A
:10383000C5604C68E40050D52B4C666B01252E43C7
:1038400066639508294CAD002D19AF689407240FC5
:103850000F26A640B74305263607B04201D1002601
:1038600019E0234EB04201D1012614E0214EB042AE
:1038700001D102260FE0204EB04201D103260AE01A
:103880001E4EB04201D1042605E01D4EB04201D1CA
:10389000052600E00626A6403E43AE60194D2C6882
:1038A0009C434E68F60300D51C432C606C689C4317
:1038B0004E6800E011E0B60300D51C436C60AC68B4
:1038C0009C434E68F60200D51C43AC60EC689C43F8
:1038D0004E68B60200D51C43EC60521C0B681C46B7
:1038E000D44000D061E7F0BD00100240000001406C
:1038F0000004005000080050000C00500010005060
:10390000001C0050000401400069084201D0012061
:10391000704700207047002A01D0816170478162A2
:10392000704700000148006870470000280200202E
:1039300010B50446002C01D1012010BD24214120E6
:103940000155206800684008400021680860204652
:1039500000F042FA0020606400214120015500205F
:1039600020634220015500BF4020015500BF0020C8
:10397000E3E701464120405C7047000010B5044673
:10398000002C01D1012010BD4120005D002805D18F
:10399000002140200155204600F01FFA242141203B
:1039A00001552068006840084000216808600F2128
:1039B00009066068884321680861206880680121E1
:1039C000C903884321688860E068012806D1012185
:1039D000C903A06808432168886005E021218902A5
:1039E000A068084321688860E068022802D180024C
:1039F000216848602068406814490843216848608D
:103A00002068C0680121C90388432168C8606169D2
:103A100020690843A169090208432168C860216A36
:103A2000E0690843216808602068006801210843B4
:103A30002168086000206064202141200155002099
:103A4000206300214220015500209CE700800002F5
:103A5000FFB583B004460C9F0E9E00254120005DFB
:103A600020286FD1002F02D00D98002802D101200C
:103A700007B0F0BD00BF4020005D012801D1022049
:103A8000F6E701214020015500BF02F0A9FA0546E2
:103A900019230122D1032046009502F045FF00289A
:103AA00001D00320E4E7222141200155402142209A
:103AB00001550020606467620D9860850020606396
:103AC00000960195204604A90EC902F07DFE00284B
:103AD00010D0606C042806D100BF002140200155A1
:103AE00000BF0120C4E700BF00214020015500BFF6
:103AF0000320BDE7608DFF280CD9FF2020854348B7
:103B00000090208DC2B201231B062046049902F0CA
:103B1000EFFE0BE0608D20853C480090208DC2B206
:103B200001235B062046049902F0E2FE00BF334603
:103B3000002204212046009502F0F6FE002802D063
:103B4000032095E75FE02068406AC1B2626A501CBA
:103B500060621170208D401E2085608D401E608542
:103B6000208D002829D1608D002826D033460022E0
:103B700080212046009502F0D7FE002801D00320C6
:103B800076E7608DFF280CD9FF202085002000906B
:103B9000208DC2B201231B062046049902F0A8FE24
:103BA0000BE0608D208500200090208DC2B20123A3
:103BB0005B062046049902F09BFE608D0028B6D17A
:103BC0002A463146204602F0D8FE002806D0606C16
:103BD000042801D101204BE7032049E72020216878
:103BE000C861206840680A4908402168486020216F
:103BF0004120015500214220015500BF40200155C0
:103C000000BF002034E7022032E7000000240080DB
:103C100000E800FEFFB583B004460C9F0E9E002511
:103C20004120005D202870D1002F02D00D9800287F
:103C300002D1012007B0F0BD00BF4020005D012887
:103C400001D10220F6E701214020015500BF02F01A
:103C5000C7F9054619230122D1032046009502F039
:103C600063FE002801D00320E4E721214120015513
:103C70004021422001550020606467620D986085F4
:103C80000020606300960195204604A90EC902F049
:103C9000E5FD002810D0606C042806D100BF00218B
:103CA0004020015500BF0120C4E700BF0021402093
:103CB000015500BF0320BDE7608DFF280CD9FF2010
:103CC000208500200090208DC2B201231B062046D3
:103CD000049902F00DFE0BE0608D2085002000901D
:103CE000208DC2B201235B062046049902F000FE3B
:103CF00000BF2A463146204602F06CFE002807D05D
:103D0000606C042802D1012094E760E0032091E771
:103D1000616A481C6062087821688862608D401E74
:103D20006085208D401E2085208D002829D1608D42
:103D3000002826D03346002280212046009502F03C
:103D4000F3FD002801D0032074E7608DFF280CD913
:103D5000FF20208500200090208DC2B201231B0689
:103D60002046049902F0C4FD0BE0608D2085002000
:103D70000090208DC2B201235B062046049902F018
:103D8000B7FD608D0028B4D12A463146204602F0A6
:103D9000F4FD002806D0606C042801D1012049E719
:103DA000032047E720202168C8612068406809494E
:103DB000084021684860202141200155002142200F
:103DC000015500BF4020015500BF002032E702200E
:103DD00030E7000000E800FE7047704702480168C5
:103DE000491C0160704700002802002010B50648F9
:103DF0000168022211430160032000F007F800F07F
:103E000009F8002010BD00000020024001460020FB
:103E10007047000010B50C48806B0121090708436A
:103E20000949886300F09EFB00F094FB0748006896
:103E3000082108430549086000BF00BF00F082FB6D
:103E400001F036FF10BD00000010024000200240CB
:103E5000002809DBC106C90E01208840034908601B
:103E6000BFF34F8FBFF36F8F7047000080E100E01A
:103E7000002805DBC106C90E012088400149086001
:103E80007047000000E100E010B512F019FF10BD0E
:103E9000BFF34F8F04490348C860BFF34F8F00BF83
:103EA000FDE700000400FA0500ED00E00168FF30C6
:103EB000FF3002300122C2664031088B1043088374
:103EC000088B0222104308830020704710B5016858
:103ED00001224D23DB001A50132400236401001932
:103EE00003704031888A10438882888A02221043F6
:103EF0008882002010BD704710B50C0604D5490714
:103F0000090E0818283003E049010818FF3029304D
:103F100099B2002A06D0012202730181190C418155
:103F2000002010BD00220273C180F9E770B504467D
:103F30000D466B012146283159184A69272109018C
:103F40000859294611F054FA70BD70B504460D4663
:103F50006B012146FF31293159184A69272109018E
:103F60000859294611F0DAFA70BD70B50446002CE4
:103F70000DD011200321400125186972204600F060
:103F8000B2FA204600F01AFA0020687270BD0120D3
:103F900070BD10B5112149014418217A012907D0BB
:103FA00001212172006812F025FB0020207210BD53
:103FB000022010BD70B54A07CD09520F51010918F2
:103FC00001230024002D02D028314B7002E0FF3184
:103FD00029314C700A701122520185182A7A012A5F
:103FE00006D02B72006812F071FA2C72002070BD9E
:103FF000022070BD70B50A074368120F9A4201D9BA
:10400000012070BD4A07CD09520F51010918012343
:104010000024002D02D028314B7002E0FF312931FD
:104020004C708C700A701122520185182A7A012A6C
:1040300006D02B72006812F0FDFA2C72002070BDC1
:10404000022070BD002070474907090E0818FF3094
:104050000130406C7047F8B54F07CC097F0F7901EC
:10406000091801260025002C02D028314E7002E0EC
:10407000FF3129314D700F700A61CB704A78002AE8
:1040800000D0CF81022B00D10D7111225201841872
:10409000227A012A06D02672006812F0D7F8284644
:1040A0002572F8BD0220F8BD70B50D466C07640F8F
:1040B00061010918FF3129314A618B610022CA610F
:1040C0004A700C706A0704D0006812F00FFB0020E1
:1040D00070BD006812F00AFBF9E7F8B504460D461A
:1040E00068076168400F884201D90120F8BDE909DD
:1040F00000270122002904D04101091928314A7002
:1041000004E069010919FF3129314F708A70087084
:10411000112040012618307A012806D0327220681A
:1041200012F0C4FA680702D007E00220F8BD23218C
:1041300009016118206812F07BFA37720020F8BD7F
:1041400070B50D466C07640F6101091828314A618A
:104150008B610022CA6101224A700C706A0704D088
:10416000006812F0C3FA002070BD006812F0BEFAB9
:10417000F9E7F8B50446206812F0BEFB000402D54A
:10418000204609F00FFC206812F0B6FB40050DD563
:10419000206840308188012292029143818020462C
:1041A00000F03CF90021204600F06AF9206812F086
:1041B000A3FB400406D52068403081880122920389
:1041C00091438180206812F097FB800406D5206817
:1041D000403081880122520391438180206812F08F
:1041E0008BFBC10413204001042608272518002951
:1041F0001CDA206840300188B143018020684030DB
:104200000188B94301802878012805D10020287051
:1042100000212046FFF76FFE204600F013F92068CA
:10422000403081880122120391438180206812F07E
:1042300063FB000519D520684030018839430180AF
:104240002068403081880122D20291438180206819
:104250004030018831430180206812F04DFBC0439B
:10426000C00402D5204600F059F9206812F044FB42
:1042700000060BD5206840308188802291438180E0
:10428000287800281ED0204600F048F9206812F057
:1042900033FB800509D52068403081880122520215
:1042A00091438180204600F0E3F8206812F024FB5F
:1042B000C00506D5206840308188FF220132914335
:1042C0008180F8BD2068403001883143018020683A
:1042D0004030018839430180012028702068403037
:1042E000808AF02108408108992080000151012135
:1042F0002046FFF700FEC9E7F0B585B00446002C64
:1043000007D0112040012618707A0025002803D01C
:1043100006E0012005B0F0BD3572204600F064F8DB
:1043200003207072206812F079F9002001270CE058
:10433000410109190A46203257721072C886D57297
:104340008D63CD630D64401CC0B261688142EFD8BB
:1043500000200EE0410109190A46FF3121314D725A
:104360000872CD72D11DF9318D63CD630D64401C8F
:10437000C0B261688142EDD82146142210316846EE
:10438000FBF773FF20460FC812F03BF9002803D05B
:10439000022070720120BDE7242005557772E06984
:1043A000012802D12046FFF791FD206A012802D1A1
:1043B0002046FFF77BFD0020ACE7000010B5044667
:1043C00007492068884209D10648806B0121C90548
:1043D0008843044988631F20FFF73AFD10BD0000A1
:1043E000005C00400010024010B5044609492068F6
:1043F00088420ED10848806B0121C905084306494F
:104400008863002211461F20FFF73EFD1F20FFF7A3
:104410002FFD10BD005C00400010024070B5044646
:104420000125A068022801D0FEF79CFB2721090185
:104430000859294611F0EFF927210901085911F00F
:1044400090F970BD10B50446A069002807D0074850
:104450000069062188430549086110F0AEFA27215A
:104460000901085911F0B4F910BD000000ED00E099
:1044700010B5044627210901085911F0B4F910BDFF
:1044800010B5112252018418227A012A09D0012282
:10449000227224221154006812F047FA0020207280
:1044A00010BD022010BD10B504462721090108598E
:1044B00023210901611811F0C5F910BD70B504463A
:1044C000112040012518287A01280AD001202872DD
:1044D000206812F087F8206812F0FCF9002028729A
:1044E00070BD022070BD70B50546112040012C182A
:1044F000207A01280DD001202072286812F08EF851
:10450000286812F019FA0021002804D02172012035
:1045100070BD022070BD2172002070BD10B5044630
:1045200027210901085911F006FAA069002805D0D1
:1045300003480069062108430149086110BD0000D5
:1045400000ED00E002480168021511430160704768
:104550000070004002480168421511430160704735
:1045600000700040024801681022914301607047CA
:1045700000700040094B1A689208920002431A60CA
:104580000748026904239A430261012903D040BF0E
:1045900020BF20BF704730BF704700000070004050
:1045A00000ED00E00A4B1A689208920002431A607C
:1045B0000848026904231A430261012906D040BF5A
:1045C00020BF20BF016999430161704730BFF9E7FF
:1045D0000070004000ED00E0F8B504462078644D1E
:1045E00080067FD5002662484038806BC00006D424
:1045F0005F484038826B01040A43826301265D48AC
:104600000168C90512D40168821511430160FFF7E2
:1046100089F9074606E0FFF785F9C01B642801D930
:104620000320F8BD53480068C005F4D55048403811
:1046300000680321090508406268114081420AD0E0
:104640009003800F032806D1494840380068800352
:1046500001D50120F8BD286903210904084000287C
:1046600021D00A4082421ED0207880061BD52869BE
:1046700088432A690121C9040A432A612A698A43B5
:104680002A612861C0050ED5FFF74CF9074607E0FF
:10469000FFF748F9C11B3848814201D90320F8BD12
:1046A00028698005F4D560688103890F032908D142
:1046B0002F4B403B196803221205914310400143E0
:1046C00019602869032261681204114008432861B7
:1046D000012E07D126484038826B01048A4300E04E
:1046E00000E082632078C00705D0E868A1688008F0
:1046F00080000843E8602078800705D5E8680C2131
:104700008843E1680843E8602078400706D5E868F8
:1047100003218902884321690843E8602078000763
:1047200006D5E86803210903884361690843E86006
:104730002088C00506D5E868032109048843A169DB
:104740000843E8602078400606D5E868012189061C
:104750008843216A0843E8602078000606D5E868A7
:10476000032189048843E1690843E8600020F8BD1B
:10477000401002400070004088130000F8B5044665
:104780000E465B480068C007C00FB0420CD25848C4
:10479000016849084900314301600068C007C00F43
:1047A000B04201D00120F8BD2078524F800705D5D6
:1047B000F868F0218843A1680843F8602078C007B2
:1047C00060D06068022808D003280BD001280ED0E2
:1047D0003968890510D40120F8BD396889030BD4E4
:1047E0000120F8BD3968890106D40120F8BD396877
:1047F000490701D40120F8BDF968890889000143FF
:10480000F960FFF78FF80546606802280CD003288E
:1048100018D0012824D031E0FFF784F8411B364836
:10482000814201D90320F8BDF8680007800F0228F3
:10483000F2D127E0FFF776F8411B2F48814201D9DA
:104840000320F8BDF8680007800F0328F2D119E0B3
:10485000FFF768F8411B2848814201D90320F8BDC1
:10486000F8680007800F0128F2D10BE0FFF75AF833
:10487000411B2148814201D90320F8BDF868000797
:10488000800FF3D11A480168C907C90FB1420BD98B
:10489000016849084900314301600068C007C00F42
:1048A000B04201D00120F8BD2078400706D5F86855
:1048B000072109028843E1680843F860207800076F
:1048C00007D5F8680721C90288432169C900084350
:1048D000F86000F017F8F968084A0906090F515CFA
:1048E000C840074908600320FFF790FA0020F8BD90
:1048F00000200240001002408813000077DE01080B
:104900002402002010B51C4AD1680C230846184028
:1049100004280BD0082810D00C2810D050680004B0
:10492000410F491C0120C003884010BD1068C0061B
:1049300001D5124810BD124810BD124810BD8802A2
:10494000114B000F185C0902890F491CD368DB0367
:1049500004D50C4A5043FBF7CBFB10BD1268D206BE
:1049600004D5064A5043FBF7C3FB10BD044A50432D
:10497000FBF7BEFB10BD00000010024000093D0027
:104980000024F40000127A0087DE0108F8B504461E
:104990002078FC4EC00755D0F0680007800F022831
:1049A00007D0F0680007800F03280AD1F068C00321
:1049B00007D53068800345D56068002842D10120C2
:1049C000F8BD012160680904884203D130680843BA
:1049D000306015E0052301221B049204984206D1A1
:1049E00030681043306030680843306008E0306859
:1049F00088433060306808400090306890433060F1
:104A0000606800280FD0FEF78DFF0546DE4F06E0F8
:104A1000FEF788FF401BB84201D90320F8BD30687B
:104A20008003F5D50EE0FEF77DFF0546D64F06E084
:104A3000FEF778FF401BB84201D90320F8BD30686B
:104A40008003F5D4207880074CD5F0681F27000735
:104A5000800F3F02012807D0F0680007800F03286D
:104A600011D1F068C0030ED43068400704D5E06867
:104A7000012801D00120F8BD70682169B8430902FE
:104A8000084370602EE0E068002819D031680922E0
:104A9000914301433160FEF745FF054606E0FEF70E
:104AA00041FF401B022801D90320F8BD30684007B0
:104AB000F5D570682169B84309020843706011E0B8
:104AC0003068400840003060FEF72CFF054606E0E5
:104AD000FEF728FF401B022801D90320F8BD3068EB
:104AE0004007F5D42078C0067ED5F068A74F0007B0
:104AF000800F0BD0E069002863D03068FF210131BE
:104B000008433060FEF70EFF05464AE03068800536
:104B100002D5E06900280AD0606A7168394088428D
:104B200014D90AF001FA002803D00120F8BD0120B1
:104B3000F8BD7068616AB843084370607068218C82
:104B40000002000A09060843706011E07168B94369
:104B5000014371607068218C0002000A0906084355
:104B60007060606A0AF0E0F9002801D00120F8BD09
:104B7000606A410B491C0120C0038840F1680906A6
:104B80000A0F8349895CC840824908600320FFF707
:104B90003DF929E0FEF7C6FE401B022801D903209B
:104BA000F8BD30688005F5D57068616AB843084380
:104BB00070607068218C0002000A0906084370606A
:104BC00012E03068FF21013188433060FEF7AAFE11
:104BD000054606E0FEF7A6FE401B022801D9032089
:104BE000F8BD30688005F5D420786B4D000727D5D7
:104BF0006069002812D02869012108432861FEF766
:104C000091FE074606E0FEF78DFEC01B022801D983
:104C10000320F8BD28698007F5D511E02869400810
:104C200040002861FEF77EFE074606E0FEF77AFEAA
:104C3000C01B022801D90320F8BD28698007F5D4DC
:104C40002078400771D500200090B06BC00006D4DA
:104C5000B06B012109070843B063012000904F4861
:104C60000168C90512D40168821511430160FEF77D
:104C700059FE074606E0FEF755FEC01B642801D921
:104C80000320F8BD45480068C005F4D5FF20A168A1
:104C90000130814203D12969014329611BE00122CE
:104CA000920200290AD005231B0299420DD12969DD
:104CB000114329612969014329610CE02969814374
:104CC000296128699043286105E0296981432961A8
:104CD000286990432861A06800280FD0FEF722FEC3
:104CE000074607E0FEF71EFEC11B2748814201D997
:104CF0000320F8BD28698005F4D50EE0FEF712FE0A
:104D0000074607E0FEF70EFEC11B1F48814201D98E
:104D10000320F8BD28698005F4D40098012804D147
:104D2000B06B012109078843B0632078800643D522
:104D30001B48A2694114002A18D0B26801231A4303
:104D4000B260726B1A437263026A0A430262FEF730
:104D5000E9FD054606E0FEF7E5FD401B022801D906
:104D60000320F8BDB0688007F5D525E0B268520889
:104D70005200B260026A8A430262FEF7D3FD054622
:104D800017E00000001002408813000000E000005F
:104D900077DE01082402002040100240007000402D
:104DA00000000140FEF7BEFD401B022801D9032090
:104DB000F8BDB0688007F5D4A06A002847D0F16834
:104DC0000907890F032944D001273F06022806D08E
:104DD0003068B8433060FEF7A5FD044634E0306823
:104DE000B8433060FEF79EFD054606E0FEF79AFDEB
:104DF000401B022801D90320F8BD30688001F5D49A
:104E0000216BE06AF2680843616BFD231B049A433F
:104E100011430843F060306838433060FEF782FD8C
:104E2000044606E0FEF77EFD001B022801D90320A0
:104E3000F8BD30688001F5D509E0FEF773FD001B71
:104E4000022801D90320F8BD30688001F5D4002084
:104E5000F8BD0120F8BD00685030890008180068CE
:104E6000704700685030890008180260704730B5FC
:104E7000014620310A78012A15D001240C70022243
:104E80004A700368CA225A62036853225A6202684F
:104E9000936820252B4393600068FF2242624C7088
:104EA0000020087030BD022030BD10B504460FF060
:104EB0008BFE10BDF8B5044625462035287801281C
:104EC0001BD001202870022068702268CA2050621E
:104ED000226853205062FF2201320027914221D1E3
:104EE0002068816891438160206881681201914344
:104EF0008160FEF717FD06460FE00220F8BDFEF7C1
:104F000011FD811B7D20C000814206D92168FF2050
:104F10004862032068702F70F8BD2068C068C00721
:104F2000EDD020E020688168012252029143816027
:104F300020688168120191438160FEF7F3FC064608
:104F40000DE0FEF7EFFC811B7D20C000814206D9F9
:104F50002168FF204862032068702F70F8BD206828
:104F6000C0688007EDD52168FF2048620120687085
:104F70002F700020F8BD000010B50B460068416896
:104F80000D480140080CD870CC04E40E5C708C060F
:104F9000A40E9C700904490F1970002A0AD109F067
:104FA000FBFFD870587809F0F7FF5870987809F02F
:104FB000F3FF9870002010BD3FFFFF0010B50B46B7
:104FC0000168896A5960016809694904490C996056
:104FD000006801680E4801408802800E18704C0479
:104FE000640E5C704C06640E9C70090C40242140D9
:104FF000D970002A0AD109F0CFFF1870587809F04B
:10500000CBFF5870987809F0C7FF9870002010BD4A
:105010007F7F7F0070B50446002C05D025462035E3
:105020006878002802D006E0012070BD00202870BA
:10503000204600F045F8022068702168CA204862C6
:10504000216853204862204609F0B9FFFF2100285B
:1050500005D02068416204206870012070BD20687E
:105060008268164B1A408260206882686368A6696D
:105070001A43236933431A4382602268E06810614F
:105080002068026923891B041A4302612068C268F0
:1050900080239A43C2602068C26C92089200C26466
:1050A000E269606902432068C36C1A43C2642068E5
:1050B000416201206870002070BD0000BFFF8FFFBB
:1050C00010B598B0044604200A9000201490FF20E8
:1050D00001300C900AA8FFF759FC002801D0FDF719
:1050E00041FD20200190C002029001A8FFF774FA50
:1050F000002801D0FDF736FD084800690121890428
:10510000084306490861002211460220FEF7BCFE52
:105110000220FEF7ADFE18B010BD000040100240A6
:10512000FEB504460B46254620352878012810D0C8
:1051300001202870022068701E4600272036002AB1
:1051400009D020688068400625D5187809F024FF2A
:1051500022E00220FEBD20688068400600D4DF7097
:10516000187809F021FF0204587809F01DFF0002A9
:105170000243987809F018FF0243D87800040243EC
:10518000307809F011FF00060243D86902435869DC
:105190000243164618E0DF70D869002832D0307814
:1051A00009F0FAFE19789878090408435978DA78F2
:1051B0000902120411430843317809060843D969EA
:1051C000084359690843064699695868084300909E
:1051D0002168CA204862216853204862FF22586A29
:1051E00001328023904235D12068816891438160EB
:1051F0002068C1681940FF398239C160FEF792FB0F
:10520000019012E0307809F0C7FECBE7FEF78AFB89
:105210000199411A7D20C000814206D92168FF20F2
:105220004862032068702F70FEBD2068C068C00708
:10523000ECD02068C66121680098486420688168C5
:10524000FF220132114381602068816812011143FD
:10525000816032E0206881680122520291438160BE
:105260002068C1681D4A19408918C160FEF75AFBC1
:1052700001900EE0FEF756FB0199411A7D20C00017
:10528000814206D92168FF204862032068702F7090
:10529000FEBD2068C0688007ECD5206806622168E2
:1052A000009888642068816801225202114381605D
:1052B0002068816812011143816009480268012158
:1052C00049040A43026082680A4382602168FF2021
:1052D0004862012068702F700020FEBD7FFDFFFF37
:1052E00000040140F8B504460B46254620352878D1
:1052F000012806D00120287002206870002A02D000
:1053000008E00220F8BD5878C10603D5EF21084017
:105310000A305870002A23D0587809F03DFE98785A
:1053200009F03AFED8789E78000406435878197838
:1053300000024903084306432168CA2048622168E5
:1053400053204862204609F03AFE0027002818D072
:105350002168FF204862042068702F700120F8BD8A
:10536000D87809F021FE0604587809F01DFE0002E5
:105370000643987809F018FE064318784003064360
:10538000DAE711480640206846602068C16880223C
:105390009143C1602068806880060CD4204600F0EC
:1053A00097F8002807D02168FF2048620420687021
:1053B0002F700120F8BD2168FF204862012068702D
:1053C0002F700020F8BD00003FFFFF00F8B5044635
:1053D0000D4626462036307801280ED00120307048
:1053E000022070700027002A09D0206880684006DB
:1053F0001CD5287809F0D0FD19E00220F8BD2068FE
:105400008068400600D4EF70287809F0CDFD0204D2
:10541000687809F0C9FD00020243A87809F0C4FDCC
:105420000243E8780004024300920BE0EF70297811
:10543000A878090408436978EA780902120411433C
:10544000084300902168CA204862216853204862BE
:10545000204609F0B4FD002807D02168FF204862EB
:105460000420707037700120F8BD1849009808407A
:10547000216808602068816801229204914381605C
:10548000E9682869014320688268114381602068C7
:10549000C16880229143C1602068806880060CD476
:1054A000204600F015F8002807D02168FF20486248
:1054B0000420707037700120F8BD2168FF20486219
:1054C0000120707037700020F8BD00007F7F7F00E2
:1054D00070B505462868C168A0229143C160FEF7F7
:1054E00021FA04467D26F60006E0FEF71BFA001BB3
:1054F000B04201D9032070BD2868C0688006F4D589
:10550000002070BD70B50446002C06D025464035FD
:10551000687C0026002802D005E0012070BD2E74B2
:10552000204600F032F802206874206801684022AA
:1055300091430160A168606822690843E1681143F2
:105540000843616901220843A169520211400843DE
:10555000E1690843216A0843A16A08432168086099
:10556000A0690421000C0840616A08432168486072
:105570002168E06A08612068C16992009143C161B5
:10558000666501206874002070BD7047F8B5044658
:1055900000200090254640356E7C012E04D06E7CA4
:1055A000222E01D00220F8BD00290CD0002A0AD0FA
:1055B000002B08D02E7C012E07D001262E746E7C85
:1055C000012E04D005E00120F8BD0220F8BD3226EE
:1055D0006E7400206065A263A387E3872163A386BE
:1055E000E386A064E0640126A06A7603B04207D196
:1055F00020680168B143016020680168314301609F
:1056000020680168490603D4016840221143016003
:105610000122D202FF21E0680531570090427ED17D
:105620006068002804D088420CD1E08E012809D19E
:10563000206B21680088C860206B801C2063E08E8E
:10564000401EE086E08E00284DD1A06AB04203D112
:105650002068016839430160002201212046069B31
:105660000BF06DFE002801D00320F8BD2068C06853
:10567000A16B0880A06B801CA063E08F401EE087B8
:10568000C3E0002202212046069B0BF058FE0028B2
:1056900001D00320F8BD206B21680088C860206B12
:1056A000801C2063E08E401EE086E08E002806D13C
:1056B000A06AB04203D1206801683943016000222A
:1056C00001212046069B0BF03AFE002801D0032062
:1056D000F8BD2068C068A16B0880A06B801CA06327
:1056E000E08F401EE087E08E0028CAD16068002865
:1056F00014D1002201212046069B0BF020FE002839
:1057000002D00320F8BD0AE02068C068A16B0880C1
:10571000A06B801CA063E08F401EE08775E060688E
:10572000002804D088420BD1E08E012808D1206BDC
:10573000411C216321680078C860E08E401EE0862D
:10574000E08E002848D1A06AB04203D120680168E9
:1057500039430160002201212046069B0BF0EFFD3A
:10576000002801D00320CDE72068C068A16B087035
:10577000E08F401EE08748E0002202212046069B81
:105780000BF0DDFD002801D00320BBE7206B411C9E
:10579000216321680078C860E08E401EE086E08EBC
:1057A000002806D1A06AB04203D1206801683943BD
:1057B0000160002201212046069B0BF0C0FD00285D
:1057C00001D003209EE72068C168A06B421CA26341
:1057D0000170E08F401EE087E08E0028CCD1606829
:1057E000002812D1002201212046069B0BF0A7FDC4
:1057F000002801D0032085E72068C168A06B421C07
:10580000A2630170E08F401EE087A06A0227B042C9
:1058100011D1002201212046069B0BF090FD0028AB
:1058200004D0606D3843606503206BE72068C06872
:10583000009069460888012280212046069B0BF0D3
:105840007EFD002805D0606D20210843606503209F
:1058500058E701206874A06AB04212D120688168BC
:10586000C943C9060DD4616D394361650168B1430F
:105870000160206801683143016000202874012024
:1058800040E7002028743DE710B51848007800284C
:105890002BD10120154908701548164908600021D0
:1058A000144801640120C0071249486000211148D2
:1058B000C161012181630021816181600721C16390
:1058C000012101610021C16001624162C1620421C4
:1058D0004161002101630848406B012149020843EE
:1058E000054948630348FDF7F9FC10BD1803002083
:1058F0000024014038140020001002407CB504460A
:10590000002524480078012842D100BF2248406881
:1059100008210840C0080028F8D02048406B8901C1
:1059200008431E49486300211D48FDF7E3FB1D485D
:1059300000901D48019069461948FDF747FC009406
:1059400001200003019069461548FDF73FFC14480B
:10595000FDF754FE7D21C9001148FDF7DAFD10481E
:10596000FDF7B8FC85B200BF0D48006880680221D1
:1059700008430B49096888600320094909680860E1
:1059800000BF0648406B0121490288430349486330
:1059900028467CBD18030020007000400010024023
:1059A00038140020FFFF070001100000014600200E
:1059B000FF2212020A40002A01D008221043094A9D
:1059C0000A40002A01D004221043074A0A40002A54
:1059D00001D002221043054A0A40002A01D00122C8
:1059E00010437047F0F00000CCCC0000AAAA0000E1
:1059F000F8B505460E46144600BF3549681A8D4273
:105A00002FD008DC3348281800280CD00121890247
:105A1000401A44D116E001218902401A30D0890091
:105A2000401A3CD13CE000BF2B48C06A012108432A
:105A30002949C8620846C06AC007C00F009000BF6D
:105A400000BF3CE000BF2448C06A0221084322494D
:105A5000C8620846C06A02210840009000BF00BF2B
:105A60002DE000BF1C48C06A042108431A49C862DF
:105A70000846C06A04210840009000BF00BF1EE035
:105A800000BF1548C06A082108431349C862084688
:105A9000C06A08210840009000BF00BF0FE000BFAF
:105AA00000BF0D48C06A802108430B49C862084600
:105AB000C06A80210840009000BF00BF00BF00BF47
:105AC00000BF266021462846FDF76CFEF8BD0000A9
:105AD00000080050000000B00010024070B50546FC
