:020000040800F2
:1000000000000120894F0208393C02083B3C0208ED
:100010003F3C0208413C0208433C0208000000004B
:10002000000000000000000000000000453C020845
:10003000473C020800000000493C02084B3C020813
:10004000D94F0208D94F0208D94F0208D94F0208E8
:10005000D94F0208D94F02085B3C0208653C0208F0
:100060006F3C0208793C0208833C0208D94F020821
:10007000D94F0208D94F0208D94F0208D94F0208B8
:10008000D94F0208D94F0208D94F0208D94F0208A8
:10009000D94F0208D94F0208D94F02088D3C0208F7
:1000A000D94F0208D94F0208D94F0208D94F020888
:1000B000D94F02080000000000000000D94F0208DC
:1000C000D94F0208D94F0208D94F0208D94F020868
:1000D000D94F0208D94F0208D94F0208D94F020858
:1000E000B33C0208533C020800000000000000007E
:1000F0000000000000000000000000000000000000
:1001000000000000D94F020800000000D94F02088B
:100110000000000000000000D94F0208D94F02087B
:10012000D94F0208D94F0208D94F0208D94F020807
:10013000D94F02080000000000000000000000008D
:10014000D94F0208D94F0208D94F0208E93C0208EA
:10015000D94F0208D94F0208D94F0208D94F0208D7
:10016000D94F0208D94F0208D94F020800000000F9
:10017000D94F0208D94F0208D94F020800000000E9
:0C018000D94F0208D94F0208D94F0208DD
:1001900010B5054C237833B9044B13B10448AFF3C1
:1001A00000800123237010BD88040020000000009F
:1001B00038BF020808B5034B1BB103490348AFF32E
:1001C000008008BD000000008C04002038BF020839
:1001D00008B50146024800F09FFA002008BD00BFA4
:1001E0006057002008B5024800F09DFA002008BDC5
:1001F000605700200146014800F097BA6057002080
:100200001FB501920DF10F0200920A460146044803
:1002100000F026FE9DF90F0005B05DF804FB00BF5D
:10022000605700201FB501920DF10F0200920A469F
:100230000146044800F06AF89DF90F0005B05DF82A
:1002400004FB00BF6057002007B5009313460A4621
:100250000146034800F072FD03B05DF804FB00BFE7
:100260006057002007B5009313460A46014603482D
:1002700000F0AFFD03B05DF804FB00BF6057002045
:1002800010B586B005AC03940DF113040294089CDC
:100290008DE8180013460A460146054800F09EF90D
:1002A000059A099B9DF913001A6006B010BD00BFA6
:1002B0006057002010B586B005AC03940DF113040F
:1002C0000294089C8DE8180013460A46014605482A
:1002D00000F0DDF9059A099B9DF913001A6006B03C
:1002E00010BD00BF605700201FB50DF10F03019234
:1002F000009302460B46044800F01EFA9DF90F00D9
:1003000005B05DF804FB00BF605700202DE9F04FF9
:100310008DB00026DDF858B002938BF800601746C8
:100320001A7804460D463AB900219DF81E600391E3
:10033000A846A9460A4638E01799179B01EB021216
:100340000D330D324FF0000C002000211E7043F8D9
:1003500005CC03F8016C5E70A3F10D0E10339342CF
:10036000CEE90001F2D1DFE7039B0592034303933B
:10037000964B1944D9F8083011F801AC049304EBFA
:100380008A0A1846DAF8D41A07F0CAFB049B059AC1
:1003900028BBDAF8F41A0492184609F1100907F09C
:1003A000DDFBE0B9049A01210132BA4219DA99F869
:1003B0000D104E1EF6B2172E01D9FF230BE0844B11
:1003C00043FA06F0C007F8D5012303FA06F0039BB1
:1003D0000342C9D0FA238BF800300025EFE0FE235A
:1003E000F9E709B18DF81E6000238DF81D3008AAC9
:1003F0000AAB3946284604F087FFDDE90A230021CD
:100400004FF6FF708B4208BF824207D00899204602
:1004100004F096FF10B101238DF81D309DF81F30B8
:100420009DF81D60DFF8A4E105EB071700224FF0EF
:10043000040CAF4217D0697B7144D5E9002311F851
:10044000011C01F58F7104EBC101D1E900018B4260
:100450000ABF82420123002302D10EB98BF800C0EB
:1004600010350122E5E70AB18DF81F3047450DD060
:100470009DF81D3098F80D100193D8F808300093BE
:10048000F8E80423204601F083FBEFE794F8B33C3F
:10049000002B3DD00DF11D030AAA08A9204601F04A
:1004A00021FA0DF11F030AAA09A9204601F010FC48
:1004B0009DF81D303BB39DF81F3023B3089829F0F9
:1004C00099FB07F07BFB94F87C3CC0B283421CBFD5
:1004D00005238BF800308DF81E00089894F8B25C64
:1004E00029F088FB07F06AFB0130C0B2B0FBF5F3DE
:1004F00005FB1300012384F8B43C9DF81E3084F8FA
:100500007C0C84F8B53C94F8B23C013B84F8843C04
:1005100094F8B22C94F8841C204600F0ABFE029BA9
:100520001D78002D42D0DFF8B0A0012600254FF63F
:10053000FF791B2E06F1FF333BD0264A1A41D20722
:1005400042D506EB0A0212F8012C04EB4202B2F883
:10055000782A4A4538D00127D4F8542A07FA03F3F9
:10056000134231D00DF11E035FFA86F8009308AAFA
:100570000AAB4146204601F0C5F9029B1B78AB420D
:1005800001D8032313E00135179BEDB2691E03EB7D
:100590000111089B8B609DF81E308B73DDE90A23E7
:1005A00081F80D800F73C1E900230DE002238BF861
:1005B00000300023C4F8543A204604F0B4FC029BF7
:1005C0001D700DB0BDE8F08F0136B2E7FAD1020818
:1005D0000F20E000EF79F2037CD202082DE9F04F02
:1005E00087B09946129C109E119FDF239046139A64
:1005F000237000231360B9F1170F4FF010038346E7
:10060000059341D900293FD12170012540F2177A85
:1006100003910C2D05F1FF3316D04AFA03F3DB07E3
:1006200030D5039B009332463B46E9B2584601F071
:10063000DBF8034630B38DE8C00005AA49464046C2
:1006400004F054FC2070E8B194F90030E3B93A4664
:100650003146584604F0CEFD034638B18DE8C0005F
:1006600005AA4946404604F041FC207094F9005028
:1006700055B9139A059B13601146404604F060FD7E
:10068000257001E00135C4E707B0BDE8F08F2DE922
:10069000F04F85B09946109D119FDF232B700023EA
:1006A0003B60B9F1180F4FF0100382469046039358
:1006B0002FD951B195F900405CBB039B3B60394693
:1006C000404604F03DFD2C7023E02970012440F2E7
:1006D000177B0E460C2C04F1FF33EBD04BFA03F3DF
:1006E000DB0714D50F9B00960E9AE1B2504601F03D
:1006F000BAF8034658B10F9A01920E9A00924946F1
:1007000003AA404604F0F2FB28700028D2D101343D
:10071000E0E705B0BDE8F08F02230B704B700023BB
:100720008B70CB70704701F01DBB08B504F072FEF2
:10073000002008BD000000002DE9F04F95B0002614
:10074000DDF87C80DDF87890C8F808608246CDE955
:10075000022300230022C8E9002300F69E41A8F8E6
:100760000C60A8F80E6088F8396088F83A6088F85C
:100770003B6088F83C6088F83D6088F83E60142251
:1007800008F110000AF68A4726F0CDF914223946FE
:1007900008F1240026F0C7F99AF8B23C88F83830FE
:1007A000BAF8243C89F8006050460AF52C66059397
:1007B00004F0B9FBD6E9002352EA030154D09AF8B9
:1007C000851C002950D1DDE90201801A61EB03018B
:1007D0000022744B04460D460020734928F0ECFDBE
:1007E000BAF822BC4FF0000CCDE908BCCDE90601F7
:1007F00005F09AF907F06AFADDE908BCA0FB0B23C3
:1008000001FB0B334FEA121B101B4BEA037B63EB1C
:1008100005014FEA231C83457CEB0101CDE90C2344
:1008200017DAD6E90034DDE90601BAF8226C25466C
:100830001C4605F079F907F049FAA0FB062301FBF5
:100840000633A4185D416423C8E9004589F80030E7
:1008500051E2A01A65EB03010B4683457CEB0303D1
:1008600002DA642389F800309AF8B33C002B00F0D8
:100870009F809AF8B23C9AF8B52C013BDBB29A42C1
:1008800040F013829AF8853C022B40F00E829AF8D1
:10089000B43C002B00F009829AF8873C9AF8860C49
:1008A000184406F0DFFA02460B469AF8880C03F06B
:1008B000F7FB9AF8863C0130C0B283428AF8880C74
:1008C00080F0F3810DF13C0939461422484626F0A8
:1008D0002AF9BDF83C0006F0B5FA4FF0000B0646C9
:1008E0000F460BF1010B39F81B0006F0ABFA02467C
:1008F0000B463046394606F069F9BBF1090F06464A
:100900000F46EED107F0E2F99AF8876CA6FB0023B8
:1009100001FB06338C26A2FB060106FB0311234EC6
:10092000DDE90223A0FB0645121906FB01556B41C8
:10093000CDE90C01C8E9002341460022504604F0ED
:100940002FFFDDE90C670123002E8AF8883C77F140
:10095000000308DAB7F1004F08BF002E03D074423D
:1009600067EB470501E034463D460A220023204656
:10097000294607F093F94FF00A0EA0FB0E23A41AA4
:100980000EFB013365EB0305002D08BF052C00D3DA
:100990000130002E77F1000300DA4042AAF8220C61
:1009A000A3E100BF00001C400000244040420F00B3
:1009B0000DF12E070DF12D030097424601215046FF
:1009C00004F026FB059BBDF82E904B4528BF4B46F7
:1009D00099469DF82D303BB19AF8803C88F83A3022
:1009E0009AF87E3C88F83B300DF12D030097424683
:1009F0000221504604F00CFBBDF82E30994528BF6B
:100A000099469DF82D303BB19AF87F3C88F83C30F0
:100A10009AF87E3C88F83B300DF12D030097424652
:100A20000321504604F0F4FABDF82E30994528BF52
:100A300099469DF82D30ABB19AF87E3C88F83B3052
:100A4000B14B5B7B0AEB43034FF6FF72B3F8683A96
:100A5000ADF82E3093421EBFD8F8083043F400534F
:100A6000C8F8083000970DF12D0342460421504686
:100A700004F0CEFABDF82E709DF82D304F4528BFFA
:100A80004F460AF6C829002B00F0B180012388F8F0
:100A900039309AF87D3C03F21B630FA93AF8133002
:100AA000A8F80C309AF87F3C88F83C309AF87E3CE5
:100AB00088F83B3050460DF12D030CAA01F042F9A5
:100AC00000210F9807F022F818B19AF8823C002B09
:100AD00077D00AF52D63D9E90001D3E900239042CC
:100AE000CDE90C01994101DACDE90C23DDE90C34A3
:100AF000DDE90201C01A61EB040106F035FE83490D
:100B000006F024FF4FF081410F9028F04DFD804901
:100B100005900F9828F048FD059B06907D49DDF86B
:100B20003CB0184606F05EFE069A05907A491046DB
:100B300006F058FE059B0146184606F04BFD594647
:100B40000590584606F04EFE744906F04BFE059B94
:100B50000146184606F03EFD71490590584606F0DC
:100B600041FE059B0146184606F034FD6D4906F02E
:100B700031FD6D4906F036FE29F03CF807F01EF80D
:100B80009AF8823CA8F80E008BB1002301934FF035
:100B90007E5300931621DDE90223504600F0F8FF52
:100BA000D8F8083043F40013C8F8083011E0019376
:100BB000002300931621DDE90223504600F0E8FFF0
:100BC00007E09AF87D3C03F217633AF81330A8F86F
:100BD0000E309AF8823C33B1DDE902120AF52D633A
:100BE000C3E9001203E0DDE90234C9E90034DDE9BC
:100BF0000234C6E90034BAF87A3CB3FBF7F607FBD7
:100C00001636BE1BB6B2BAF8261CAAF8226C3344BC
:100C10009BB2B3FBF1F201FB1233ADF82E100022B0
:100C2000AAF87A3C0020414B414928F0C5FB04F06A
:100C30007BFF07F04BF8DDE90245A0FB062301FB33
:100C40000633A4185D410023C8E900458AF8823CB8
:100C5000D9E90023A01A65EB030106F085FD2B49B5
:100C600006F074FE3349064606F05AFF20B93249B1
:100C7000304606F073FF08B1652310E00AF52D63D6
:100C8000D3E90023A01A65EB030106F06DFD1F49AF
:100C900006F05CFE274906F043FF18B166238AF888
:100CA000833C28E08AF8830C25E09AF8803C88F899
:100CB0003A309AF87E3C88F83B309AF87F3C88F8C6
:100CC0003C300123DDE9020188F839300CA3D3E977
:100CD000002380185941C8E90001022241465046CC
:100CE00004F05EFD0423AAF8223CDDE902340AF593
:100CF0002C6ACAE9003415B0BDE8F08FAFF300806C
:100D0000C00E160200000000FAD10208286B6E4ED9
:100D100000004040598207B0DFE0C2343767D9B8DD
:100D20005A8E863C6A92E43E00007A4400001C40E1
:100D30000000244000007042000070432DE9F04F95
:100D400089B00F461446002105461E460DF11608CF
:100D500000F52C630DF118090020C3E90001129A77
:100D6000CDF8009043462146384604F08DFD9DF9AC
:100D700016304BBB083C0DF11C0A0DF1170B9DF909
:100D800016300BBB069B9C421ED9129BCDF808A0C7
:100D90008DE8000932464946384604F0EBFA9DF9E1
:100DA00016308BB99DF81710FE2905D1079A3146E8
:100DB000284604F0E5FD04E0079B3246284600F093
:100DC00021FA8DF81600DAE79DF9160009B0BDE8A2
:100DD000F08F2DE9F04F89B00E4614460DF116073D
:100DE0000DF1180881461D46CDF800803B46129A49
:100DF0002146304604F048FD9DF9163043BB083CBF
:100E00000DF11C0A0DF1170B9DF9163003BB069B63
:100E10009C421DD9129BCDF808A08DE880082A4677
:100E20004146304604F0A6FA9DF9163083B99DF884
:100E30001710FE2904D10799284604F059FE04E052
:100E4000079B2A46484600F06BFE8DF81600DBE74C
:100E50009DF9160009B0BDE8F08F00000000000009
:100E60002DE9F04F8DB08DE80C00169C0023237007
:100E700082460D46262200F5446102A825F053FE65
:100E8000009BE3B12B79013B012B18D80021286886
:100E900006F03CFE98B1BDF8082047F230539A4264
:100EA00003D0BDF80A209A4206D19AF9833C23B9AF
:100EB00001238AF8823C0CE10B23237009E1009B9B
:100EC00000278AF8B37C13B90C2323708BE0B94652
:100ED0002B79013BDBB2192B7CD8934A1A41D207FC
:100EE00078D5012202FA03F313EA090F01D0F323A4
:100EF00071E0D5F800800021404649EA030906F078
:100F000005FE08B1F6230DE08849404606F0FEFDD7
:100F1000002846D18649404606F020FE002800F011
:100F2000F480F22323700021404606F017FE0028CB
:100F300037D07E49404606F0F3FD90B341467D48E8
:100F400006F004FD28F056FE06F038FE4FF00008CB
:100F500086B2794A2B79134413F8013C434403F2D7
:100F60008B533AF813B0584605F06CFF6CA3D3E9E5
:100F7000002305F0E1FF04F0D7FD06F0B5FA80B2DA
:100F8000C0EB0B039BB29E4203D3584480B286420F
:100F900012D908F11308B8F1720FDAD1F4232370D3
:100FA0000AE0002140464FF0010606F0AFFD08B10F
:100FB0004FF000067642B6B294F9003063B95E4A4B
:100FC0002B7913440CAA13F8013C02EB430323F8DA
:100FD0002A6C01E00A232370009B0137BB4205F114
:100FE00008053FF775AF94F90030002B09DB02A923
:100FF000504604F039F800B1207094F90030002B0D
:1010000008DA019B1B78072B22D900252C46DFF834
:1010100028812BE0444E484F002346FA03F212F099
:10102000010F03F101050FD0DB5D0CAA02EB4302B7
:1010300003F21F6332F82A2C3AF81330934203D09C
:10104000E9B2504604F0CEF91A2D2B46E5D1D8E787
:10105000F12332E7344B43FA0BF3DB071BD40BF1DC
:10106000010BBBF11A0FF5D1182D33D0012303FA70
:1010700005F7324B3B400135002BF5D00134179A70
:101080002A49E4B2631E02EBC3064FF0000B357130
:1010900042F83310DEE72A4B53F82B301F42DED0E4
:1010A000D6F800902149484606F030FDB8B118F84E
:1010B0000B3003F21F633AF813004FF6FF739842A8
:1010C0000DD006F03BFB01461A4806F03FFC3060AD
:1010D000C5E70024019B1C700DB0BDE8F08F18F827
:1010E0000B3003F21F633AF8130006F027FB0146AA
:1010F000104806F02BFC01460090484606F010FD13
:10110000009B0028ABD03360A9E70E49404606F0AB
:1011100007FD00283FF407AF03E700BFAFF30080EF
:101120007B14AE47E17A843FEF79F20300FF7F47FB
:10113000000020410000C8427CD202080F20E000DD
:1011400014D202080E74DA3AF8B54E1E0F49069F03
:101150000446885D00F27B21451E00F5937004EB88
:10116000C00044F82170C0E90023079828F042FD30
:1011700006F024FD2544012385F8400A03FA06F110
:10118000D4F8543A1943C4F8541AF8BD7CD2020872
:10119000194B013970B55C5C00EB44044FF6FF73EA
:1011A000B4F85A2A9A4201D1002070BD134BD0F8EE
:1011B000585A33F91130AB43F6D1114BD0F83C2AD1
:1011C00053F821309343EFD1B4F8AC3AB4F89E6AA7
:1011D00001339BB2B3FBF6F206FB12339BB2A4F8C9
:1011E000AC3A002BE0D1012303FA01F12943C0F806
:1011F000581A184670BD00BF18D1020824D1020841
:101200003CD10208013910B414461A460A292DD8D7
:10121000DFE801F00A15062C0F2C2C2C1A202600D2
:10122000214610BC02F0FAB92146683010BC01F02A
:1012300039BC214600F5E07010BC03F06BB92146C3
:101240002C3010BC02F052BE214600F5AC7010BC30
:1012500002F0DEBF214600F5FC7010BC02F013BBAB
:10126000214600F5047010BC00F064BF6FF063000D
:1012700010BC70472DE9F04F0023A5B000258B4628
:10128000C0F8583A0521044608920B950C950D9527
:101290001E951F9520952195229523950E950F95C6
:1012A0008DF828308DF829308DF82A30FFF770FF3F
:1012B000DFF830A5002864D0584606F03FFA014612
:1012C000D4F8EC0906F022FC00285AD004F511638A
:1012D000D3E900670DF12A0303930FAB02930DF1DD
:1012E000290301930AAB3246009304F5E0703B46B4
:1012F00003F034F99AF80B809DF8280008F27B235C
:10130000099306F017FA08F1FF39099B08F593785D
:1013100004EBC80844F82300C8E90067284628F011
:1013200069FC06F04BFC04EB090888F8400AD4F885
:10133000543A9AF80C809DF8290043F40063C4F8ED
:10134000543A08F27B23099306F0F4F908F1FF39C7
:10135000099B08F5937804EBC80844F82300C8E912
:101360000067284628F046FC06F028FC04EB090834
:1013700088F8400AD4F8543A43F48053C4F8543AF5
:1013800003E04FF0FF366FF0004703212046FFF7E0
:10139000FFFEB8B1584606F0D1F90146D4F8EC0981
:1013A00006F0B4FB70B10DAB02930CAB01930BAB29
:1013B0000093D4F8D829D4F8D439D4F8DC192046CD
:1013C00002F046F901212046FFF7E2FE002836D060
:1013D000584606F0B3F90146D4F8EC0906F096FB3E
:1013E00068B30EAB06931EAB05930021D4F8E83921
:1013F000D4F8E409049304F168084FF0010906F0F9
:1014000085FB08B14FF000095FFA89F303939DF85B
:101410002A3002939DF8293001939DF828300093DB
:101420000C9A0D9B0B99404601F08AFB0E9B009392
:10143000019532463B4612212046FFF785FE0221E8
:101440002046FFF7A5FE00284CD0584606F076F956
:101450000146D4F8EC0906F059FB002842D018AB3D
:10146000049316AB039314AB029312AB019310AB2E
:1014700000931EAA0F9B0E9904F12C0002F046FB6C
:10148000119B0193109B009332463B46012120465D
:10149000FFF75AFE139B0193129B009332463B4683
:1014A00002212046FFF750FE159B0193149B0093E9
:1014B00032463B4603212046FFF746FE179B019329
:1014C000169B009332463B4604212046FFF73CFE24
:1014D000199B0193189B009332463B4615212046E9
:1014E000FFF732FE09212046FFF752FE30B358467F
:1014F00006F024F90146D4F8EC0906F007FBE8B140
:1015000004F60813D3E90089D4F8E0390393B4F85A
:101510006A30029332463B46D4F8D819CDE90089A7
:1015200004F5AC7002F0ADFE01950646009042460F
:101530004B460E212046FFF707FE00E000260A2159
:101540002046FFF725FEF0B1584606F0F7F80146B1
:10155000D4F8EC0906F0DAFAA8B104F60813D3E9D6
:1015600000893246D4F8D439D4F8D81904F5FC707F
:1015700002F0A3F901950B90009042464B460F21D3
:101580002046FFF7E1FD0B212046FFF701FE002872
:1015900000F09F8004F51163D3E900670DF12B0380
:1015A00004931AAB0393D4F8D0390293D4F8D43906
:1015B0000193D4F8D839D4F8DC190093D4F8EC2985
:1015C000089B04F5047000F038FE089B581EC0B25A
:1015D00006F0B4F80146D4F8EC0906F097FA0028B2
:1015E00077D0B4F8962A4FF6FF739A4217D09AF83C
:1015F00015301A989DF82B1003F27B2244F8220034
:1016000003F59372234404EBC202C2E9006783F836
:101610003F1AD4F8543A43F40013C4F8543AB4F8D7
:10162000982A4FF6FF739A4217D09AF816301B98F3
:101630009DF82B1003F27B2244F8220003F59372ED
:10164000234404EBC202C2E9006783F83F1AD4F8CE
:10165000543A43F48003C4F8543AB4F89A2A4FF643
:10166000FF739A4217D09AF817301C989DF82B10E8
:1016700003F27B2244F8220003F59372234404EB27
:10168000C202C2E9006783F83F1AD4F8543A43F41F
:101690000003C4F8543AB4F89C2A4FF6FF739A42F8
:1016A00017D09AF818301D989DF82B1003F27B2262
:1016B00044F8220003F59372234404EBC202C2E90A
:1016C000006783F83F1AD4F8543A43F08073C4F8A3
:1016D000543A9AF8053004EB4303B3F8782A4FF6EE
:1016E000FF739A420FD0D4F83C3A5E070BD5D4F87A
:1016F000D829019504F608130092D3E900230621A6
:101700002046FFF721FD9AF8063004EB4303B3F8B7
:10171000782A4FF6FF739A420FD0D4F83C3AD80794
:101720000BD5D4F8D029019504F6F8030092D3E93B
:10173000002307212046FFF707FD9AF8073004EB46
:101740004303B3F8782A4FF6FF739A420FD0D4F8C8
:101750003C3A99070BD5D4F8D429019504F51063C8
:101760000092D3E9002308212046FFF7EDFC9AF808
:10177000083004EB4303B3F8782A4FF6FF739A421C
:101780000FD0D4F83C3A1A070BD5D4F8DC290195D0
:1017900004F511630092D3E9002309212046FFF7E5
:1017A000D3FC9AF8193004EB4303B3F8782A4FF6C8
:1017B000FF739A420FD0D4F83C3A1B020BD5D4F8F1
:1017C000EC29019504F513630092D3E900231A2153
:1017D0002046FFF7B9FC0023C4F83C3A25B0BDE829
:1017E000F08F00BF7CD2020810B5013914461A46AA
:1017F0009DF808300A2934D8DFE801F00B180633C9
:10180000113333331E252C002146BDE8104001F072
:1018100071BF21466830BDE8104001F087BC214609
:1018200000F5E070BDE8104002F02ABF21462C30E0
:10183000BDE8104002F052BA214600F5AC70BDE898
:10184000104002F0A5BD214600F5FC70BDE8104037
:1018500002F072B8214600F50470BDE8104000F0B7
:1018600075BE002010BD10B5013914461A469DF80A
:1018700008300A2934D8DFE801F00B180633113399
:1018800033331E252C002146BDE8104001F063BF14
:1018900021466830BDE8104001F0AEBC214600F59D
:1018A000E070BDE8104002F02CBF21462C30BDE8AE
:1018B000104002F076BA214600F5AC70BDE8104049
:1018C00002F0B7BD214600F5FC70BDE8104002F003
:1018D00064B8214600F50470BDE8104000F0DABE9F
:1018E000002010BD30B5D0F8EC490C6000F5136154
:1018F000D1E90045C2E90045D0F83C2AC2F3C05204
:101900001A7030BDF0B501390E4C645C04F27B25D1
:1019100050F82550156004F5937200EBC202D2E92D
:101920000067C3E900670444059B94F83F2A1A70D6
:10193000012303FA01F1D0F8543A23EA0103C0F875
:10194000543AF0BD7CD202082DE9F74FDFF8F0C021
:10195000374F002140F2177848FA01F3DB0761D5D1
:101960007D5C00EB45054FF6FF76B5F85A2AB2428A
:1019700058D000244FEA410A23464FF0010B01964C
:101980000BFA04F940F2177E09EA0E0EBEF1000FC1
:1019900012D0284E3AF906E01EEA090F0CD0244E68
:1019A00016F804E0019E00EB4E0EBEF85AEAB6456A
:1019B00002D07345B8BF734601340B2CE0D14FEA17
:1019C000810900244FF0010A4FF6FF7B1A4E0AFAF4
:1019D00004FE0EEA06067EB159F80C601EEA060FF8
:1019E0000AD0164EA65D00EB4606B6F8686A5E455C
:1019F00002D0B342B8BF33460134182CE6D18BB1C4
:101A0000B2FBF3F413FB04F6921B92B242B1C3F3A0
:101A10004F0603F0010333449A42A4BF0134A4B239
:101A2000A5F89E4A01310B2996D103B0BDE8F08F8D
:101A300018D1020824D102080F20E000FAD10208D0
:101A40003CD1020800F69E2270B500F6AC21134688
:101A5000012600254FF6FF7423F8026F8B42DD81CB
:101A600023F8444CF8D100F668234FF6FF7100F6D6
:101A7000782023F8021F9842FBD14FF6FF7320F81D
:101A8000023F8242FBD170BDF8B5044601F0BAFDB9
:101A900004F5E07002F01CFD04F12C0002F008F8DF
:101AA00004F1680001F04EFC04F5AC7002F068FB34
:101AB0000A2104F5FC7001F0DBFE04F5047000F06F
:101AC000C1FA002604F6CC1104F50F6304F5136285
:101AD0000020002741F8040FE3E9026793424FF02A
:101AE000000CF7D10023C4F83C3A04F6EC1504F6D8
:101AF0003F20002600279E460133132B45F804CFD4
:101B00004FF00001E2E9026700F801EFF4D120464E
:101B1000C4F8541AC4F8581AFFF794FF2046F8BDC9
:101B2000013910B414461A460A292DD8DFE801F00D
:101B30000A15062C0F2C2C2C1A202600214610BC2E
:101B400001F03ABE2146683010BC01F0E9BC2146E4
:101B500000F5E07010BC02F065BE21462C3010BCD0
:101B600002F056B9214600F5AC7010BC02F096BCEC
:101B7000214600F5FC7010BC01F03FBF214600F586
:101B8000047010BC00F0DEBD6FF0630010BC704745
:101B90002DE9704301391D46104B9DF81C605B5CBC
:101BA00014465A1E00EBC30303F50F63D3E9008903
:101BB000A94508BFA04500D176B102F51D72069E69
:101BC00040F82260C3E90045012303FA01F1D0F88F
:101BD0003C3A1943C0F83C1ABDE87083FAD10208B8
:101BE0004B1EDAB20A2A9BBF124A89184FF6FF71C0
:101BF00011F8012C9CBF00EB4202B2F85A1A092BD3
:101C000016D8DFE803F0070E05150A15151515118E
:101C100001F0ECBD683001F027BC00F5E07002F087
:101C2000D1BD2C3002F012B900F5FC7001F0FEBEFF
:101C3000704700BF18D1020801391F4B5B5C00EBF5
:101C40004303F0B51D4FDFF880E0A3F8782A0126A2
:101C5000002306FA03F540F217742C406CB137F9F3
:101C600011402C4209D01EF8034000EB4404B4F8A4
:101C70005A5A954288BFA4F85A2A01330B2BE8D14F
:101C80000F4FDFF848E0002301260E4C06FA03F55B
:101C90002C406CB157F82140254209D01EF8034072
:101CA00000EB4404B4F8685A954288BFA4F8682A47
:101CB0000133182BE9D1F0BD7CD2020896D202087C
:101CC00014D202080F20E00018D10208FAD102084D
:101CD00030B5D0F8DC490C6000F51161D1E9004560
:101CE000C2E90045D0F83C2AC2F3C0021A7030BDE8
:101CF0004B1E0A2B9BBF124A89184FF6FF7111F831
:101D0000012C9CBF00EB4202B2F85A1A092B16D8DC
:101D1000DFE803F0070E05150A151515151101F07A
:101D200065BD683001F0A0BB00F5E07002F04ABD6F
:101D30002C3002F08BB800F5FC7001F077BE7047D4
:101D400018D1020830B5D0F8E4490C6000F51261F2
:101D5000D1E90045C2E90045D0F83C2AC2F340521F
:101D60001A7030BD10B50446FFF78EFE204603F012
:101D7000DBFC204603F066FB204610BD2DE9F74F43
:101D80009DF830A00646884691461F4600244FF035
:101D9000280BBC4218DA08EB84030025554511DAFC
:101DA0000BFB05F259F825109858019305F01AFD20
:101DB000014656F8240005F00DFC013546F82400D4
:101DC000019BEBE70134E4E703B0BDE8F08F2DE9B8
:101DD000F0479DF820A00646884691461F460024FD
:101DE000BC4215DA0025554510DA04EB850359F895
:101DF000251058F8230005F0F5FC014656F824009C
:101E000005F0E8FB013546F82400ECE70134E7E78C
:101E1000BDE8F0872DE9F0418AB006460D46DDE9C0
:101E20001001174605F038FB3044129C90F8393009
:101E3000012B17D009D3022B65D1294628226846E9
:101E400024F071FE0125009E2DE02E1F043C243558
:101E500056F8041F002027F073FCB54244F8040F25
:101E6000F6D155E028222946204624F05CFE0026C3
:101E7000B7424DDD4FF0404155F8260005F0B2FC69
:101E800027F006FB4FF07E5105F0A4FB01464FF012
:101E9000804005F05BFD4FF07E5105F099FB44F862
:101EA00026000136E4E75DF825803146404605F01E
:101EB00055FE00B1464601350A2DF4D10025AF424A
:101EC0000ADD5DF82500314605F082FB27F0E0FAD7
:101ED0004DF825000135F2E7009E01255DF825103B
:101EE000304605F077FB01350A2D0646F6D1002570
:101EF0005DF82500314605F029FD44F8250001353F
:101F00000A2DF5D104E028222946204624F00BFEB4
:101F10000AB0BDE8F0812DE9F0431C4690F83C3052
:101F2000012B85B00E46174617D002D3022B34D0B2
:101F300081E00968002027F003FC20607168002020
:101F400027F0FEFB6060B168002027F0F9FBA0607D
:101F5000F168002027F0F4FB6BE01022204624F00B
:101F6000E2FD0025AF426ADD4FF0404156F8250002
:101F700005F038FC27F08CFA4FF07E5105F02AFB73
:101F800001464FF0804005F0E1FC4FF07E5105F036
:101F90001FFB44F825000135E4E71022684624F0D1
:101FA000C2FD009D019E2946304605F0D7FD00B1D7
:101FB0003546029E2946304605F0D0FD00B1354633
:101FC000039E2946304605F0C9FD00B1354600267E
:101FD000B7420ADD5DF82600294605F0F9FA27F038
:101FE00057FA4DF826000136F2E7DDF80090DDF8EB
:101FF0000480029F039E4146484605F0EBFA3946AD
:1020000005F0E8FA314605F0E5FA0546014648468E
:1020100005F09CFC29462060404605F097FC2946C7
:102020006060384605F092FC2946A060304605F015
:102030008DFCE06003E01022204624F074FD05B022
:10204000BDE8F0830B230370002380F8E43680F8AA
:10205000E53680F8E6360246012380F83A3080F80B
:102060003B30022330B502F83C3F00F1640400210C
:1020700042F8041F94424FF00003F9D100F18C02A2
:1020800044F8043FA2424FF00001F9D10246C0F8E3
:102090009010C0F89410C0F898104FF07E5542F898
:1020A0009C1F00F5297142F8045F91424FF07E5465
:1020B000F9D100F2344241F8044F8A42FBD100F2D8
:1020C000D44142F8044F9142FBD10A2280F8D8242F
:1020D00080F8D924042280F8DA2400F59B6100F20C
:1020E000446241F8043F8A42FBD100F5CF6142F8D7
:1020F000043F9142FBD100F2AC6241F8043F8A42B6
:10210000FBD100F5DC6142F8044F9142FBD101465E
:1021100000F1280441F8043F8C424FF00002F9D14D
:10212000002380F83830012380F83930C26202631E
:10213000426330BD2DE9F04786B004AB05AD0446DF
:102140000078009301950DF10F030E4602F0BEFBDF
:102150009DF90F30002B6BD1012704F5D66804F2EE
:102160007C6904F5C96AFBB2013B0D2B57D8DFE847
:1021700003F0070A0D141B222930373E4046484F12
:1021800004F13A0227E004F1400201E004F16802A0
:102190002946304603F044FF47E004F19002294607
:1021A000304604F030F840E004F1A0022946304601
:1021B00004F080F939E004F52A722946304604F02B
:1021C000BDF932E004F587622946304604F0F1F9A2
:1021D0002BE004F59B622946304604F027F924E001
:1021E00004F2DC422946304604F01BFA1DE0524658
:1021F00000E04A462946304604F054FA15E04246CB
:10220000F8E72946304603F0AEFE84F8E4060CE019
:102210002946304603F0A7FE84F8E50605E0294686
:10222000304603F0A0FE84F8E6060137102F9AD15D
:102230009DF90F0006B0BDE8F0872DE9F04FB9B069
:102240009846459F469B00254FF0000904463D6097
:102250007D60BD60FD60104683F800900E4627F05B
:10226000C9FC05F0ABFC94F839300130C0B2D3B1F1
:10227000012840F0598194F8E63684F8399084F8C2
:1022800038900BB1429BE36294F8E4360BB1439B68
:10229000236394F8E53633B1449B636394F8393093
:1022A000002B40F0418194F8383008F101020133ED
:1022B000DBB2D2B2B3FBF2F102FB1132D2B29042E6
:1022C00040F02A81404584F8380044F8206040F00E
:1022D0002B8100230DF178092BAE49F8235046F8E5
:1022E000235001330D2BF8D12822211D304624F034
:1022F0001AFC236B3593E36A369304F5C960636B6C
:10230000379302F0E1FD00286ED0002306930022EF
:102310000023CDE91423864B0793864B0022CDE999
:10232000162314A90AAA06A801F036FEA2464FF009
:1023300000085AF8040F27F0DBF87F4905F052FA3D
:102340007E4905F045F9DAF8441605F041F946F8FA
:10235000280008F10108B8F10A0FEAD17849206B8A
:1023600005F040FAD4F8701605F032F97549359049
:10237000E06A05F037FA744905F02CF9D4F87416C0
:1023800005F026F90A993690606B05F02BFA0B9947
:1023900005F020F9D4F8781605F01AF94FF0000A84
:1023A00037901C234FF0000B4FF0000803FB08A2EE
:1023B000224456F82810D2F8DC04049305F012FAEF
:1023C0000146584605F006F908F10108B8F10D0F6D
:1023D0008346049BEAD149F80A000AF1040ABAF1DB
:1023E0001C0FDFD107231FE004F2AC6B80465BF8C3
:1023F00004AF0021504605F089FB58B95BF8341C46
:1024000056F8280005F0E4F8514605F09FFA49F81F
:10241000280003E056F8283049F8283008F1010870
:10242000B8F10D0FE3D143460DF12808059328229A
:1024300094F8D834049304F14001404694F8D9B498
:1024400094F8DAA424F06FFB059B00934A46049BA2
:1024500004F1A0014046FFF791FC364B00220DF13C
:102460005009CDE90023CDF80890049A4146204652
:10247000FFF7D0FCBBF1000F25D0282204F1680142
:10248000304624F050FB049B00934A465B4604F51B
:102490002A713046FFF772FC4FF080430022CDE9ED
:1024A000002331465A462046CDF80880FFF7B2FC9B
:1024B000102204F1900106A824F035FBCDF800B0FD
:1024C0005346424609E0102204F1900106A824F088
:1024D0002AFB049B00934A46534604F5876106A8ED
:1024E000FFF775FC3B46524606A92046FFF713FD51
:1024F000469A03231370234604F1280243F8045F2D
:102500009342FBD1002384F83830012384F839301A
:10251000E5622563656307E0234604F1280243F87A
:10252000045F9342FBD1EDE739B0BDE8F08F00BF07
:102530000024F4490000F03F65D1993D937EC53EEB
:102540000AD7233C9076AC3B6D28AF3E2DE9FF4780
:102550000546164604AA0F2002F8090D28780C46F5
:1025600002F0DAF99DF807800390002305F5D6699B
:1025700005F27C6A43457BDA5F1CFBB2013B0E2B04
:1025800074D8DFE803F00810161E262E363E464E9D
:10259000545960666C0003AB3246214605F13A009F
:1025A00003F0E4FE62E003AB3246214605F1400051
:1025B00004E003AB3246214605F1680003F066FDF6
:1025C00054E003AB3246214605F1900003F010FFC2
:1025D0004CE003AB3246214605F1A00003F03EFF7C
:1025E00044E003AB3246214605F52A7003F07CFF38
:1025F0003CE003AB3246214605F5876003F0B6FFA9
:1026000034E003AB3246214605F59B6003F0E7FF5B
:102610002CE003AB3246214605F2DC4004F018F80A
:1026200024E003AB3246214605F5C96008E003AB60
:1026300032462146504603E003AB32462146484627
:1026400004F045F812E003AB3246214695F8E40663
:102650000AE003AB3246214695F8E50604E095F81A
:10266000E60603AB3246214603F090FC3B4681E789
:1026700004A9039B21F8063D022202A824F053FA84
:102680009DF80830237003989DF80930637004B0FA
:10269000BDE8F0872DE9F043064685B01746B04601
:1026A00004AA062002F8090D18F8040B0C4602F0E3
:1026B00033F99DF80790039000234B4530DA5D1CF9
:1026C000EBB2013B052B29D8DFE803F0030A101811
:1026D0001D2203AB3A462146404603F0D7FC1DE0DD
:1026E00003AB3A46214696F8380004E096F83900E4
:1026F00003AB3A46214603F049FC0FE003AB3A46F0
:102700002146F06A08E003AB3A462146306B03E00D
:10271000706B03AB3A46214603F0FBFB2B46CCE73C
:1027200004A9039B21F8063D022202A824F0FBF92C
:102730009DF80830237003989DF80930637005B048
:10274000BDE8F0832DE9F04186B004AB05AD044649
:102750000078009301950DF10F030E4602F0B6F8D4
:102760009DF90F309BBB012704F10408FBB2013B2C
:10277000042B24D8DFE803F0030910171D0042469C
:102780002946304603F04CFC1EE02946304603F053
:10279000EAFB84F8380017E02946304603F0E3FBF3
:1027A00084F8390010E02946304603F096FBE062D9
:1027B0000AE02946304603F090FB206304E02946F6
:1027C000304603F08AFB60630137072FCED19DF9B5
:1027D0000F0006B0BDE8F081F8B500EB83040D46AC
:1027E000E76800213846164605F090F938B93946B1
:1027F000606804F0EDFE294626F0A2FF054631464A
:10280000606804F0E5FE002126F09AFFE1680746C3
:10281000304604F0DDFE002126F092FF01463846E6
:1028200026F0ABFF014604F0D5FE294605F08EF8F0
:102830004FF07E51BDE8F84026F09FBF2DE9F04FE4
:1028400085B0054602930F469DF840305D494068CB
:102850000393164604F0C6FF029B9DF8388083461A
:1028600033B908F1030355F8231004F0B3FE0BE06D
:10287000336803F10043336008F1010307F10047B7
:1028800055F8231004F0A4FE31688146384604F060
:102890009FFE0446688804F04DFF4B4905F056F84A
:1028A00005EB880A01904949DAF81C0005F02EF979
:1028B000A0B13946DAF8040004F08AFE002126F0BF
:1028C0003FFF01464FF07E5004F082FE014604F0C7
:1028D00089FF4FF07D5104F085FF01E04FF07E50FD
:1028E0003B4904F07FFF3B4904F074FE594604F075
:1028F00079FF0146584604F06DFE00210746204648
:1029000005F02CF920B3B8F1010F09BF9DF83C3058
:10291000DFF8C8800B3355F82380039B33B9394661
:10292000204605F01BF908B1DFF8B0802A49686835
:1029300004F058FF414605F009F8019904F052FFF0
:1029400005460146204605F009F940B32C4626E02D
:10295000039B8BB9204626F09FFE0146384605F0C2
:10296000DFF848B1B8F1010F06D11849D5F8D80001
:1029700004F0ECFF014601E0DAF8D410019B03F10A
:10298000004004F0E3FF26F083FD01464FF07E5047
:1029900004F01EFE0146204604F024FF0446316880
:1029A000204604F017FE04460146484605F0D6F8D6
:1029B00000B14C46029B0BB104F10044346005B0F9
:1029C000BDE8F08FC178C63D0000C842000040401D
:1029D000CDCC4C3ECDCCCC3DCBBECB3E0000E1447B
:1029E0002DE9F0479DF820506C1E00EB850506464A
:1029F0008946E869284990461F4605F087F868B17E
:102A000039464FF07E5004F0E3FD014604F0EAFE43
:102A10004FF07D5104F0E6FE824601E04FF07E5A11
:102A2000EF686868394604F0D3FD1C4905465046F6
:102A300004F0D8FE1A4904F0CDFD494604F0D2FE58
:102A4000494604F0C7FD0146284605F069F83444BC
:102A500020B90021384605F059F830B196F8E03039
:102A600023774FF07E50BDE8F087B8F1000F01D01A
:102A7000207709E0237FFF2B1CBF01332377227FC0
:102A800096F8E0309A4203D24FF08040BDE8F087DC
:102A90000148BDE8F08700BF00004040CDCC4C3E6F
:102AA000CDCCCC3D2DE9F04786B004AB05AD044656
:102AB0000078009301950DF10F030E4601F006FF1B
:102AC0009DF90F30BBBB012704F1E80804F1CE09E2
:102AD00004F1CC0AFBB2013B052B24D8DFE803F05C
:102AE00003060910171D04F1D8021DE004F1D002FD
:102AF0001AE004F13C022946304603F084FB17E05B
:102B000004F1E2022946304603F0AAFB10E05246E7
:102B10002946304603F0DDFB0AE04A4629463046A6
:102B200003F0ECFB04E042462946304603F020F96E
:102B30000137082FCED19DF90F0006B0BDE8F08710
:102B40002DE9F04F95B0044607939DF8783009932E
:102B50009DF87C3008939DF880300B910593834954
:102B60009DF8843040680A93914604F03BFE80490A
:102B7000239F249D0646484604F034FE7D49804646
:102B8000484604F027FD0146404604F0DFFE26F0EB
:102B90007FFC79498046079804F024FE774904F0C9
:102BA000D5FE414604F01EFE75498046484604F0B5
:102BB00011FD0146404604F0C9FE724904F012FEC0
:102BC0007149804604F0CAFF20B1404626F0BEFCA1
:102BD000069002E04FF0404306936388B3F5967F7A
:102BE0002FD016D8642B41D10C2204F1980111A8E2
:102BF000D4F848A0D4F858B023F095FF082204F187
:102C0000A4010FA823F08FFFD4F8B880D4F8C830FF
:102C100040E0B3F5E16F29D10C2204F1700111A855
:102C2000D4F840A0D4F850B023F07DFF082204F17E
:102C30007C010FA823F077FFD4F8B080D4F8C0301F
:102C400028E00C2204F1840111A8D4F844A0D4F89F
:102C500054B023F068FF082204F190010FA823F07C
:102C600062FFD4F8B480D4F8C43013E00C2204F12D
:102C70005C0111A8D4F83CA0D4F84CB023F053FF69
:102C8000082204F168010FA823F04DFFD4F8AC80AE
:102C9000D4F8BC3036490D93404604F0A3FD3549C5
:102CA0000C90404604F096FC0C9A0146104604F045
:102CB0004DFE26F0EDFB0D9B0C902F49184604F0BD
:102CC00091FD2E4904F042FE0C9A114604F08AFD53
:102CD0002B490C90404604F07DFC0C9B01461846A5
:102CE00004F034FE274904F07DFD26F02FFC00217E
:102CF0000C90A06804F00AFF0C9B002846D11946EE
:102D0000069804F065FC01460D9004F06BFD1199E6
:102D100004F068FD0D9B12990C90184604F062FDBA
:102D20000C9A0146104604F055FC139904F052FC2D
:102D300041460C90484604F04BFC104904F006FE56
:102D40000F9904F04FFD109904F044FC0C9B0146D0
:102D5000184604F047FD4FF07F5126F00EFD4FF06E
:102D60007C5126F0EDFC034612E000BFC178C63D61
:102D7000C3F58C41B81E73438195C3400000C8421F
:102D80003393884333B358430AD7233C4FF07E53E1
:102D9000594648460C9304F025FDAF49D4F8088005
:102DA00004F0D4FD51468346069804F01BFD01460D
:102DB000584604F00FFC01460B9804F009FC41460C
:102DC00004F006FC0C9B194604F00CFD414604F08F
:102DD00001FC2860804694F9CD0004F0AFFC014668
:102DE000484604F0A7FEF8B194F9CC0004F0A6FC24
:102DF0000146484604F0A8FEB0B194F8CF0004F0B4
:102E00009DFC0146079804F095FE68B194F8CE0049
:102E100004F094FC014607984FF0010904F094FE79
:102E200000B981465FFA89F0089B002B3DD00A9BD0
:102E3000002B40F0F280002800F0998000212298B9
:102E400004F064FED4F8289080B10021484604F0D4
:102E50005DFE78BBA08D04F06DFC0146484604F091
:102E6000B7FB0146002026F06BFC1CE0229804F022
:102E70007FFE04EB40038046B3F8E00004F05AFC08
:102E80000146484604F0A4FB08F13908824654F88C
:102E9000280026F0FDFA0146504604F057FD014691
:102EA000484604F095FBA06261E00A9B002B40F0CD
:102EB000B4805CE00021A06804F028FE08B1C4F8EA
:102EC00008800021206904F021FE002840F0F780EE
:102ED000059B02934FF0010802230193CDF8008077
:102EE00029682046002304F10802FFF7A7FC00210F
:102EF000206904F00BFE60B9059B0293CDF80480B5
:102F0000CDF80080434604F1100229682046FFF7FF
:102F100095FC0021E06804F0F9FD08B12B68E3603E
:102F20000021606904F0F2FD002840F0D880059B84
:102F300002934FF00208CDF80480CDF80080296894
:102F40002046002304F10C02FFF778FC00216069A1
:102F500004F0DCFD58B9059B029301230193CDF8E1
:102F6000008004F1140229682046FFF767FCD5F8B9
:102F70000090A168484604F0E7FD002840F0BF80BB
:102F8000216948464FF0010804F0D4FD08B94FF01C
:102F900000085FFA88F801234A4631462046FFF7C9
:102FA0001BFC099A0346002A00F0AC80089A002A0C
:102FB00000F0A88001220092314642462046FFF7E9
:102FC0000FFD2062D5F80090E168484604F0BCFD92
:102FD000002840F09C80616948464FF0010804F0E9
:102FE000A9FD08B94FF000085FFA88F802234A46A5
:102FF00031462046FFF7F0FB099A0346002A00F00D
:103000008980089A002A00F08580022200923146C9
:1030100042462046FFF7E4FC6062D4F808900021A5
:10302000484604F073FD08B1D5F80090D4F80C8040
:10303000D4F820A00021404604F068FD08B1D5F87E
:103040000080C7F8009025690021284604F05EFD45
:1030500020B9BD6007E000BF0000C84231464846C5
:1030600004F0B6FAB860C7F810A0C7F80480656924
:103070000021284604F04AFD08B9FD6004E031460D
:10308000404604F0A5FAF860636A7B6194F8383032
:10309000012B44D12349504604F038FD58B1059B1B
:1030A0004BB1D4F8D0302363D4F8D4306363002319
:1030B00084F8383033E01C4B236363632FE03146E0
:1030C000A068D5F8008004F083FA0146404604F079
:1030D00027FD00283FF4FCAEC4F81080F8E6314626
:1030E000E068D5F8008004F073FA0146404604F029
:1030F00017FD00283FF41BAFC4F8148017E74FF00A
:10310000010848E794F8E0302377002059E74FF0B2
:1031100001086BE794F8E030637700207CE715B096
:10312000BDE8F08F000040400000E1442DE9FF477A
:1031300005461646A84604AA072002F8090D18F805
:10314000E80B0C4601F0E8FB9DF807900390002384
:1031500005F1CE0A4B453DDA5F1CFBB2013B062B65
:1031600036D8DFE803F0040A101820282F0003AB3C
:103170003246214605F1D80028E003AB324621460D
:1031800005F1D00022E003AB3246214605F13C00B8
:1031900002F0AFFF1CE003AB3246214605F1E2002E
:1031A00002F0E0FF14E003AB3246214605F1CC000B
:1031B00003F006F80CE003AB32462146504602F01D
:1031C00069FE05E003AB32462146404602F0E5FDCC
:1031D0003B46BFE704A9039B21F8063D022202A853
:1031E00023F0A1FC9DF80830237003989DF8093066
:1031F000637004B0BDE8F0872DE9FF470546164629
:10320000A84604AA0D2002F8090D18F8300B0C4648
:1032100001F082FB9DF807900390002305F1200A3E
:103220004B455EDA5F1CFBB2013B0C2B57D8DFE845
:1032300003F0070D151A21262E33383D444A4F005E
:1032400003AB3246214605F1080004E003AB3246E9
:10325000214605F1100002F0A0FD40E003AB32462C
:103260002146288B03E0688B03AB3246214602F0EF
:10327000F0FD34E003AB324621466888F7E703AB44
:103280003246214605F11C0002F004FE27E003ABA4
:10329000324621465046DEE703AB32462146A86A55
:1032A00008E003AB32462146A88DE0E7686803AB2F
:1032B0003246214602F02DFE11E003AB3246214694
:1032C00095F8E00009E003AB324621464046C2E7EC
:1032D00095F8380003AB3246214602F057FE3B46D4
:1032E0009EE704A9039B21F8063D022202A823F0D1
:1032F0001AFC9DF80830237003989DF8093063701C
:1033000004B0BDE8F0874FF6FF730022438000232E
:103310000B49028342838362828543600222836079
:1033200003610362C36043614362012380F8E020CC
:10333000027701634277416380F83830704700BFFD
:103340000000E14401230370364BC363364B036432
:10335000364B4364364B83640023C3640365436583
:10336000C3650366836603674367C367C0F8843039
:10337000C0F88830C0F890302E4BC0F898302E4BF3
:10338000C0F89C302D4B2E4AC0F8A0302D4B8265E2
:10339000C0F8A4304FF07E522B4B4266C266826763
:1033A000C0F88020C0F88C20C0F89420C0F8A83065
:1033B000264A274BC0F8AC3010B5C0F8B020C0F892
:1033C000B430C0F8C030C0F8C830224BC0F8D0309C
:1033D000C0F8D430204BC0F8D830204BC0F8DC30D7
:1033E0000A23A0F8E2300323A0F8E430D82380F8C1
:1033F000CC30552380F8CD30002380F8CE306423C4
:1034000080F8CF30164BC0F8E830164BC0F8B82023
:10341000C0F8BC20C0F8C420C0F8EC30FFF773FF40
:1034200010BD00BF894100BFCDCCCCBE000040BF65
:10343000E17A94BE52499DBC5F29CB3D76E06C3F5A
:10344000CDCCCCBD9BE67D3FBF0E7C3F0000204233
:103450000000A0410000614500C0A8474031774C02
:103460000000604017B7D13838B54FF6FF73994266
:1034700005460C464BD043888B4248D0B1F5967F29
:10348000698006D0B1F5E16F05D0642903D02048EA
:1034900002E0204800E020486423B4FBF3F303EB90
:1034A000830202EB8202A4EB820292B2312A84BF31
:1034B00001339BB2AB8526F049F826F0EDF81749A9
:1034C00004F044FA68609CB147F23050B0FBF4F06D
:1034D00014FB00F3C3F5EA4330339BB253B104F05D
:1034E000010202EB5404A34204DB013080B201E08C
:1034F0004FF6FF7004F01EF926F0ACF8014604F018
:1035000069F826F031FB04F059FB85F8E00038BD7E
:10351000304C463F0AD7233F9A99193F502C633EBF
:103520002DE9F04786B004AB05AD04460078009362
:1035300001950DF10F030E4601F0C8F99DF90F300A
:10354000002B5AD1012704F1300804F1200904F1BD
:103550001C0AFBB2013B0B2B46D8DFE803F006093F
:1035600010161C22282A30363C4304F1080201E0E0
:1035700004F110022946304602F0FAFB3AE02946EF
:10358000304602F04FFC208334E02946304602F0FA
:1035900049FC60832EE02946304602F043FC6080FF
:1035A00028E052462946304602F0A8FE22E04A466C
:1035B000E0E72946304602F090FCA0621AE0294676
:1035C000304602F02FFCA08514E02946304602F078
:1035D00084FC60600EE02946304602F0C4FC84F8AA
:1035E000E00007E04246C5E72946304602F0BBFC52
:1035F00084F8380001370E2FABD19DF90F0006B0CB
:10360000BDE8F08710B50323044600F8043B03F03F
:103610002DF9204602F0BEFA204610BD70B586B0E6
:1036200004AB05AC05460078009301940DF10F033F
:103630000E4601F04BF99DF90F302BB905F1200230
:103640002146304602F044FB9DF90F0006B070BDE4
:103650002DE9F84F0D4604462549DDF828800B9FDB
:103660000C9E28469246994604F064FA00B1204D1B
:103670002069002104F04AFA38B1284625F066FF97
:10368000C4F814A02061C4F818902846D4F804B0F7
:1036900025F05CFF2569294603F09AFF594604F09E
:1036A000A1F8294603F096FFC8F800006569504666
:1036B000294603F08DFFA16804F094F8294603F031
:1036C00089FF3860A5694846294603F081FFE16813
:1036D00004F088F8294603F07DFF3060D8F8003008
:1036E00023613B6863613368A361BDE8F88F00BF65
:1036F000000020412DE9FF419046064604AA01241E
:1037000002F8094D16F8200B0D4601F005F99DF859
:10371000077003900023BB420BDA5C1CE3B2012B61
:1037200005D103AB42462946304602F0E6FA23466D
:10373000F1E704A9039B21F8063D022202A823F029
:10374000F2F99DF808302B7003989DF809306B70E2
:1037500004B0BDE8F0812DE9FF419046064604AA79
:10376000012402F8094D16F8100B0D4601F0D4F8AB
:103770009DF8077003900023BB420BDA5C1CE3B298
:10378000012B05D103AB42462946304602F0B5FA7B
:103790002346F1E704A9039B21F8063D022202A873
:1037A00023F0C1F99DF808302B7003989DF809307B
:1037B0006B7004B0BDE8F08170B586B004AB05ACA9
:1037C00005460078009301940DF10F030E4601F0B9
:1037D0007DF89DF90F302BB905F1100221463046D6
:1037E00002F076FA9DF90F0006B070BDF0B5044600
:1037F00085B0084603F09EFF01461C4804F0A6F879
:103800004FF07C5103F0EEFF01460546206A04F0BC
:103810009DF84FF07E563146074604F09FF908B9EF
:10382000019700E001962946606A04F08FF84FF096
:103830007E563146074604F091F908B9029700E038
:1038400002962946A06A04F081F84FF07E55294679
:10385000064604F083F908B9039600E0039501A930
:10386000201D02F099FF05B0F0BD00BF0000C84266
:1038700010B5044600F8041B03F004F8204602F0DB
:103880009DF9204610BD70B586B004AB05AC054669
:103890000078009301940DF10F030E4601F016F825
:1038A0009DF90F302BB905F110022146304602F088
:1038B0005FFA9DF90F0006B070BD2DE9F041044696
:1038C0000F461846002190461D4604F033F930B9E2
:1038D0001749284604F042F910B1154D00E0154D86
:1038E000A068002104F012F900B1A760A66838466C
:1038F000314603F06DFE616803F074FF314603F05A
:1039000069FE2169A0600646284603F06BFF6169E5
:1039100003F060FE294603F05DFE41460246304654
:1039200002F058F90249BDE8F04125F026BF00BF7A
:103930000000C84217B7D1382DE9FF41904606462E
:1039400004AA012402F8094D16F8100B0D4600F0E8
:10395000E3FF9DF8077003900023BB420BDA5C1C69
:10396000E3B2012B05D103AB42462946304602F0B3
:1039700093FC2346F1E704A9039B21F8063D0222AC
:1039800002A823F0D0F89DF808302B7003989DF81A
:1039900009306B7004B0BDE8F0812DE9FF410646A7
:1039A000904604AA012002F8090D30780D4600F077
:1039B000B3FF9DF8077003900023BB420BDA5C1C39
:1039C000E3B2012B05D103AB42462946B06802F0B1
:1039D000A0FA2346F1E704A9039B21F8063D022241
:1039E00002A823F0A0F89DF808302B7003989DF8EA
:1039F00009306B7004B0BDE8F08170B586B004ABDF
:103A000005AD04460078009301950DF10F030E46B5
:103A100000F05CFF9DF90F3023B92946304602F0D3
:103A20005CFAA0609DF90F0006B070BD2DE9F04171
:103A30000646084603F07EFE01461A4803F086FF5C
:103A40004FF07C5103F0CEFE4FF07E5401461648F5
:103A500003F07CFF214625F090FE1449804603F0D8
:103A6000C1FE25F01DFE014603F0BCFE05460146E1
:103A700003F0B8FE294603F0ADFD25F0EBFD21462D
:103A80000746404604F042F848B92946384603F054
:103A90009FFD014603F09EFD7060BDE8F0817460FB
:103AA000BDE8F0810000C84299D4503CDB0FC93F0B
:103AB00002220270002202714FF081414FF4FA722B
:103AC0004280016196220D49C280416132224FF449
:103AD000C8710272018300220949C260C161826219
:103AE0004FF07C51C262074A016202634FF47A715F
:103AF000054A818442638263704700BF0000204111
:103B000000007041EC518542000048422DE9F84F19
:103B1000176804463846154698468B4603F058FD0C
:103B20008246608803F006FE8146207A03F002FE9A
:103B3000A9680646384603F04BFD0146504603F09F
:103B400005FF0746E08803F0F5FD0146384603F01F
:103B500049FE314603F03EFD0146304625F0F0FDBA
:103B60000146484625F009FE0746207A03F0E2FDAB
:103B7000E1680646504603F035FE314603F02AFD63
:103B80000146304625F0DCFD4FF07E5106464046AA
:103B900003F0C6FF002835D04146404603F022FE20
:103BA000D4F834A080465146384603F0D7FF80B1A0
:103BB0004146384603F016FE414607464FF07E5018
:103BC00003F006FD514603F00DFE394603F002FDF9
:103BD0000746D4F838A03046514603F0BFFF98B1ED
:103BE0004146304603F0FEFD414606464FF07E500A
:103BF00003F0EEFC514603F0F5FD314603F0EAFC1C
:103C0000064601E06763A6630A9B0A9A1F602B6958
:103C100053600B9B0B9A1E602B695360216B3046DF
:103C200003F088FF278B60B1384603F083FD2169DC
:103C30008046304603F0D6FD0146404603F0CAFCFC
:103C400003E06169304603F0CDFD8046384603F05D
:103C500071FD414625F074FD0C9B0C9A18602B6990
:103C60005360A08C03F066FDA16A0746304603F05E
:103C7000B9FDE16A03F0AEFC0146154825F094FC5D
:103C80000146144825F05CFD0146384625F075FDD7
:103C90000D9B0D9A18602B6953606C68594620463D
:103CA00003F096FCE9680646204603F091FC0146C5
:103CB000304603F04BFE084903F094FD064925F019
:103CC0005CFD0E9B0E9A18606B695360BDE8F88F1F
:103CD00000002041CDCCCC3D0000C8422DE9F0438E
:103CE000054685B01646A84604AA082002F8090D24
:103CF00018F8100B0C4600F00FFE9DF8079003908B
:103D000000234B453BDA5F1CFBB2013B072B34D849
:103D1000DFE803F004090E131A21282D03AB324605
:103D2000214628790DE003AB32462146688816E02B
:103D300003AB32462146E88811E0287A03AB3246CD
:103D4000214602F023F918E003AB324621464046F3
:103D500002F0A2FA11E0288B03AB3246214602F0B2
:103D600078F80AE003AB32462146E86903E0286AA6
:103D700003AB3246214602F0CCF83B46C1E704A92A
:103D8000039B21F8063D022202A822F0CCFE9DF8FA
:103D90000830237003989DF80930637005B0BDE8C2
:103DA000F0832DE9FF410646174604AA022002F8D7
:103DB000090D30780D4600F0AFFD9DF807800390A7
:103DC0000023434512DA5C1CE3B2012B06D0022B20
:103DD0000AD103AB3A462946B06B03E0706B03ABE4
:103DE0003A46294602F095F82346EAE704A9039BE0
:103DF00021F8063D022202A822F095FE9DF8083027
:103E00002B7003989DF809306B7004B0BDE8F08109
:103E100070B586B004AB05AD0446007800930195FB
:103E20000DF10F030E4600F051FD9DF90F304BB917
:103E30002946304602F051F829466063304602F0C8
:103E40004CF8A0639DF90F0006B070BD2DE9F84352
:103E50004FF6FF73994204460D463ED0237AC08840
:103E6000184403F06BFCB5F5967F074606D0B5F510
:103E7000E16F01D0642D03D1194D02E0194D00E02E
:103E8000194DE06925F062FB0646207A03F052FCEA
:103E90000146384603F09CFB8146206A25F056FB1C
:103EA0000146304603F094FB494603F04FFD80463F
:103EB000284625F04BFB25F0EFFB0146484603F072
:103EC00045FD4146E060C4F82880384603F08AFC8E
:103ED0000146304603F07CFBE062BDE8F88300BF9A
:103EE0009A99193F0AD7233F304C463F2DE9F041BC
:103EF00086B004AB05AD04460078009301950DF142
:103F00000F030E4600F0E2FC9DF90F30002B3ED16E
:103F1000012704F11008FBB2013B062B2FD8DFE884
:103F200003F0040A10161C2228002946304602F02D
:103F30001AF8207128E02946304601F073FF6080AE
:103F400022E02946304601F06DFFE0801CE0294662
:103F5000304602F008F8207216E042462946304604
:103F600001F006FF10E02946304601F05BFF208398
:103F70000AE02946304601F0B0FFE06104E029463E
:103F8000304601F0AAFF20620137092FC3D19DF905
:103F90000F0006B0BDE8F08130B591B015464FF086
:103FA0007E5302680E930C460C920F9304AA43684A
:103FB0000D9302A90CA800F0BAFC2146102208A813
:103FC00022F0B1FD06AC0223009304AA08AB02A9BB
:103FD0000CA8019400F007F808222146284622F098
:103FE000A2FD11B030BD2DE9F74F0D9D0C9C1F4671
:103FF000002316462B600A466B603946804600F067
:10400000A6FC083F4FF0000AA2450EDA56F82A3007
:10401000F7E9020103F1804903F086FA09F1FF395B
:104020000AF1010A45F82900EEE706EB8407002CA7
:1040300033DD04F1FF3B57F8043D04EB4B0404F17E
:10404000804403F1FF3A013C55F82A0058F8241047
:1040500003F07CFC05EB8A0945F82A0008EBCB034A
:104060004FF0000ADA4516DA56F82A4053F82A10BB
:10407000D9F80000019304F1804403F0B3FB013C44
:10408000014655F8240003F0A3FA0AF1010A45F8A5
:104090002400019BE6E75C46C9E703B0BDE8F08F6A
:1040A0002DE9F84F19460646104614461D4601F004
:1040B0003BFD03F019FAC7B2384602F0D3FE0246C0
:1040C0000B462046294603F09FF920B1B6FBF7F0D6
:1040D00007FB10604AE0304602F0B4FE00220646BC
:1040E0000F4600232046294603F08EF988BB204660
:1040F000294625F007FD02460B462046294603F0D7
:1041000083F930BB22462B463046394603F03EF851
:1041100025F0BAF90022174B8046894602F056FD79
:1041200025F0E6FB02460B464046494602F04CFDB0
:1041300025F0AAF9002282468B460F4B404649469D
:1041400002F0FAFE02460B465046594603F070F95B
:1041500030B922462B463046394625F005F901E0B4
:104160000020002101F0E0FC03F0BEF9C0B2BDE880
:10417000F88F00BF0000E03F0000B03C00000000EE
:1041800016490161164941611649816109221649A2
:10419000027030B5154A41621549426081620022C1
:1041A00014498260C260C2610262C16202634263FA
:1041B000114942648264114A8163C2641049114A00
:1041C000C16302651049114A01644FF0FF346FF07A
:1041D00000450266C0E9164530BD00BF1C7CE13DCC
:1041E0003480D73F0000A040CDCC0C3E07F0963D78
:1041F00067D5273EE63F4CC091ED3CBF5DFEE33EF8
:10420000FB3A403F363C85BFB15083400000404000
:104210002DE9F04786B004AB05AD04460078009365
:1042200001950DF10F030E4600F050FB9DF90F3084
:1042300013BB012704F1400804F12C0904F1180A0A
:10424000FBB2013B032B0FD8DFE803F002040A0C9A
:10425000221D00E052462946304602F0B2F808E03E
:104260004A46F8E74246F6E72946304601F035FE71
:1042700020660137062FE3D19DF90F0006B0BDE897
:10428000F0872DE9F3471D46BDF83030B3F5E16FF7
:1042900007468846144629D005D8642B0ED0B3F5BE
:1042A000967F27D00CE041F27072934204D047F21F
:1042B000305293421CD003E002261CE005261AE08F
:1042C00000264FF0FF326FF000432046294602F0EF
:1042D000E1FA08B9C7E916453146404603F078F9D6
:1042E0000D9903F075F902B0BDE8F087066EE8E7B6
:1042F000012600E004264FF0FF326FF00043D7E9BB
:10430000160102F0C7FA0028DAD1D7E91623DDE951
:104310000A9AB9EB02006AEB030102F0DFFD1AA36F
:10432000D3E9002302F032FF0B460246CDE9002319
:1043300036B203F0F9F807EB860957F826108246E3
:1043400003F050FAD9F8141003F044F9D9F8281002
:104350000646504603F046FADDE900238246194638
:10436000104602F0E9FD03F0DFF80146504603F085
:1043700031F9D9F83C1003F02DF90146304603F02D
:10438000E5FA06469DE700BF0000000065CDCD417F
:104390002DE9FF4706461746B04604AA052002F855
:1043A000090D18F8400B0C4600F0B6FA9DF807907E
:1043B0000390002306F12C0A4B4528DA5D1CEBB272
:1043C000013B042B21D8DFE803F0030810151A0085
:1043D00003AB3A462146301D04E003AB3A46214682
:1043E00006F1180001F08CFF0FE003AB3A462146BE
:1043F0005046F7E703AB3A4621464046F2E703ABA7
:104400003A462146306E01F084FD2B46D4E704A9DC
:10441000039B21F8063D022202A822F084FB9DF8AE
:104420000830237003989DF80930637004B0BDE82C
:10443000F0872DE9F04387B00646904606AA012092
:1044400002F8090D30780D4600F066FA9DF80F70FD
:10445000059000230DF11409BB420DDA5C1CE3B298
:10446000012B07D1CDF8009043462A46D6E9160124
:1044700001F0B8FD2346EFE706A9059B21F8063DAC
:10448000022204A822F04FFB9DF810302B700598F3
:104490009DF811306B7007B0BDE8F08370B586B041
:1044A00004AB05AD04460078009301950DF10F03B0
:1044B0000E4600F00BFA9DF90F302BB92946304615
:1044C00001F07BFDC4E916019DF90F0006B070BD37
:1044D00030B50E49C1616421052280F828100C49CD
:1044E0000270002400220025C16200218261C0E91F
:1044F0000845C0E902454261026180F8291080F850
:104500002A1080F82B10026330BD00BFC9B28B5354
:1045100023291D5670B586B004AB05AD044600785E
:10452000009301950DF10F030E4600F0CFF99DF9B0
:104530000F307BB92946304601F0CFFC2946A061F7
:10454000304601F000FF294684F82800304601F08B
:10455000C4FCE0629DF90F0006B070BD2DE9F04784
:104560000446D0E90201B2EB000863EB01091646EC
:104570001F46D4E90823424573EB0903099DDDF882
:1045800028A003DB864277EB010308DA00232361CE
:10459000002384F82A3000220023C4E90223D4E94E
:1045A0000223134301D1C4E9026794F829308BB97F
:1045B000D4E90201301A67EB010103F0D5F8616913
:1045C00003F008F8A169606103F0BEFA10B101239D
:1045D00084F8293094F82B308BB9D4E90201301AD1
:1045E00067EB010103F0C0F8216B02F0F3FFE16A11
:1045F000206303F0A9FA10B1012384F82B3094F85A
:104600002A308BB9D4E90201301A67EB010103F0BB
:10461000ABF8216902F0DEFFE169206103F094FA52
:1046200010B1012384F82A30012E77F1000304DA57
:1046300001220023C4E9022301E0C4E90267089BC8
:1046400094F829201A7094F82A302B700B9B94F858
:104650002B201A702B782BB9E5690021284603F02E
:1046600055FA28B14FF07E53CAF80030BDE8F08704
:104670002069294603F06AF9CAF80000BDE8F0870E
:104680002DE9FF410646174604AA032002F8090D4A
:1046900030780D4600F040F99DF807800390002324
:1046A00043451CDA5C1CE3B2022B08D0032B0ED06E
:1046B000012B12D103AB3A462946B0690BE003AB9C
:1046C0003A46294696F9280001F0B3FD05E0F06A64
:1046D00003AB3A46294601F01CFC2346E0E704A957
:1046E000039B21F8063D022202A822F01CFA9DF845
:1046F00008302B7003989DF809306B7004B0BDE84A
:10470000F0812DE9F04387B00546164606AA07203A
:1047100002F8090D28780C4600F0FEF89DF80F907D
:104720000590002305AF4B453ADA03F101085FFA23
:1047300088F3013B062B31D8DFE803F0040C111697
:104740001C222A00009733462246D5E9020101F0D7
:1047500049FC23E03B463246214668691CE03B4663
:1047600032462146286917E03B463246214695F8F5
:1047700029000AE03B463246214695F82A0004E02B
:1047800095F82B003B463246214601F05FFC05E0E0
:10479000286B3B463246214601F0BBFB4346C2E74D
:1047A00006A9059B21F8063D022204A822F0BBF9C8
:1047B0009DF81030237005989DF81130637007B094
:1047C000BDE8F0834FF6FF73994209D100230361DE
:1047D000002380F82A3000220023C0E9022370471A
:1047E00090F928200B4B4A4302EB5202A2FB032311
:1047F000B1F5967FC0E9082304D0B1F5E16F03D08D
:10480000642903D1044B02E0044B00E0044BC36174
:10481000704700BF80969800C9B28B5276845F5172
:10482000C9B28B53F0B587B004AB05AE044600782F
:10483000009301960DF10F030D4600F047F89DF926
:104840000F30002B3ED10127FBB2013B052B31D8A5
:10485000DFE803F0030A10161E283146284601F04F
:10486000ACFBC4E902012AE03146284601F035FBE1
:10487000606124E03146284601F02FFB20611EE0F4
:10488000059BEA5C003218BF012284F8292006E06B
:10489000059BEA5C003218BF012284F82A2001330C
:1048A00005930CE0059BEA5C003218BF012284F8F6
:1048B0002B20F4E73146284601F00FFB2063013737
:1048C000082FC1D19DF90F0007B0F0BDF7B5089EC4
:1048D0001C460D4609990023032A0B6007462370E6
:1048E000336001D8982314E004230B602B788DF8F3
:1048F000043002226B788DF8053001A90DF1060015
:1049000022F011F9BDF806303360AB78BB4201D01C
:104910009C23237003B0F0BD10B514780CB19C42F9
:1049200002D20020107010BD8870042010BD37B571
:1049300002230124002514600D6053604D608DE852
:1049400006001A46214600F05DF803B030BD2DE99F
:10495000F843176806460C4638460021154603F012
:10496000D5F800282FD1D4E9000102F0DDFD814601
:10497000D4E9020102F0D8FDD6F8048001460646CB
:10498000404602F02FFF494602F024FE0146384619
:1049900002F028FF0021074603F0B8F898B939461D
:1049A000484602F015FE02F06FFAC4E900014146E4
:1049B000384602F017FF0146304602F009FE02F0C9
:1049C00063FAC4E902016E680021304603F09EF8E4
:1049D000A8B9D4E9020102F0A7FD01460546304618
:1049E00002F000FF0021064603F090F838B9314686
:1049F000284602F0EDFD02F047FAC4E90201BDE8E5
:104A0000F88300002DE9F04F95B093420593A8BFBD
:104A100013460A9300230646079190460E9310937F
:104A200012930F931193139300240893059B9C42B8
:104A30000FDA079B314603EB4402404601F0F4FFD6
:104A400010AB0D9043F8240012AB43F8240001345E
:104A5000ECE700252C460A9B9C4280F2D580A31CE3
:104A60000693079B03EB440304EB030A0B93C4EB8D
:104A700008030993059B671C0DF1400B3A46594604
:104A8000181B01F00DFF204487420AF1FF391FD0A7
:104A9000079A0B9B441E02EB44023146404602F04B
:104AA00017F81F9A1F991F9B52F8252053F824309E
:104AB00041F8242014AA02EB840441F825305BF865
:104AC000253044F8103C12AB53F8253044F8083C2C
:104AD000B84511DD14A956F8293041F81C3D32467D
:104AE0000AF10103099800F02BF91E9B43F82500F9
:104AF0000D9B46F8293003E01E9B089A43F82520B9
:104B0000059BBB4218DD56F829300D934FF07E53BC
:104B100046F829300EAB02930AF10203019305997E
:104B20001E9B009653F8253009985246C91B00F089
:104B300071F80D9B46F82930AC0010AB03EB04096B
:104B400012AB1C44069B059A93425ADC069B59F80B
:104B5000040F0D90002103F1FF3A02F0D7FF002867
:104B60004AD1079B2B4403EB4A0A0AF18043013BDD
:104B700056F8230024F090FD0D9B0993194602F08E
:104B8000E5FE014602F02EFE01464FF07E5002F097
:104B90001FFD0021834602F0C3FF099B08B14FF0BF
:104BA000000B1846616802F0D1FE014602F01AFEC1
:104BB0000146584602F016FE154902F0BBFF90B1BF
:104BC000B8450BDD0AF101023146C7EB080001F0E0
:104BD0002BFF0D90C9F8000060600DE0089BC9F83C
:104BE0000030636008E0584624F034FD01460D981B
:104BF00002F0F8FDC9F80000069B01330693043467
:104C0000A0E701353C4626E715B0BDE8F08F00BFB0
:104C1000F304B5392DE9F04F89B0994604460F46A3
:104C2000149BDDF84880DDF84CB005930021484620
:104C3000924602F06BFF002846D104EB0A0303F111
:104C40008043013B08EB8305002C15DD002155F85E
:104C5000040D02F05BFF78B1013CF5E7002156F846
:104C6000040F069302F052FF90B1069B079A01359C
:104C7000AA420792F2DC1F46002F09DD7B1E0BEBD8
:104C8000430505F18046023E08EB86066219EFE710
:104C9000002C19DD059B029342465B4639462046AF
:104CA0008DE8000501F025FE059B129309F10042F5
:104CB000534639462046CDF850B0CDF84C8009B067
:104CC000BDE8F04F01F062BE09B0BDE8F08F000012
:104CD00038B50D4624F0E0FC0446284624F0DCFC00
:104CE00001460546204602F01BFF294670B12046CA
:104CF00002F02CFE014602F075FD4FF07E5102F0ED
:104D000069FC24F0A7FC0146284614E0204602F086
:104D100025FF70B12146284602F018FE014602F038
:104D200061FD4FF07E5102F055FC24F093FC0146EA
:104D300000E00249204602F055FD38BDF304B53FBE
:104D40002DE9F04F061E85B00F4691461D4602DC48
:104D50004FF0000AB3E006F1FF3A49461A465046C2
:104D600001F062FE0021044602F0D0FE0028EFD1DF
:104D700021463868FFF7ACFF00210446386802F08E
:104D8000E3FE08B104F10044204624F085FC4FF016
:104D9000406102F0C5FE05F180482E44A8F10208EA
:104DA000002869D0023E09EB88084FF0FF3B0BF169
:104DB000010B42462B46B3420DDC52F8040F02931E
:104DC0004FF0E6410192039202F00CFD019A029B22
:104DD00010600133EFE74FF0E641204602F002FD9C
:104DE0004FF0E6410446386802F0FCFC386020468B
:104DF00024F052FC4FF0406102F0A6FE0028D6D00D
:104E000049462A4650463C6801F00EFE01462046BF
:104E1000FFF75EFFD7F8009004460021484602F0F5
:104E200093FE08B104F100444946204602F0D0FB4D
:104E3000214602F08BFD21468246484602F0C8FB1F
:104E400001464FF07E5002F081FD8146B54208DCFC
:104E500058F8040F494602F0C5FC0135C8F80000B7
:104E6000F4E7002520464FF0406102F0BBFC01351D
:104E7000AB450446F6DA21E0D7F800B020465946A3
:104E800002F0A6FB214602F061FD2146824658460B
:104E900002F09EFB01464FF07E5002F057FD023EAD
:104EA000834609EB8809B54208DC59F8040F5946D6
:104EB00002F098FC0135C9F80000F4E73C60504668
:104EC00005B0BDE8F08F00BF38B5051F00F1300414
:104ED000AC4208D0002155F8040F02F017FE00285C
:104EE000F6D1012038BD002038BD0000F0B51468AF
:104EF000059D1C448C4210D806998B4210D8002185
:104F0000994207DA4718166815F801E007F806E035
:104F10000131F5E714600020F0BD6FF02800F0BD0E
:104F20006FF02500F0BD90F8813C2DE9F047044674
:104F3000002B63D0324EDFF8D080FCF783FD0023D6
:104F400046FA03F212F0010F2D4F03F1010509D0CB
:104F500013F8083003F21F63E9B234F81320204637
:104F6000FCF76AFE1A2D2B46EAD12046FCF7ECFC32
:104F7000DFF89480DFF89490002647FA06F3DB0709
:104F800016D401361A2EF8D10025132284F8815C3C
:104F9000294604F6664021F035FD1A4B84F87D5C05
:104FA000DB7803F2335304F6264204EB43031AE0A2
:104FB00016F80830234493F8653C002BE1D039F90A
:104FC00016A000234AFA03F212F0010F03F10105C3
:104FD00003D0E9B22046FCF703FE0B2D2B46F1D19E
:104FE000CFE7042D0AD0588832F8021F884205F115
:104FF0000105F6D184F87D5CBDE8F087BDE8F08757
:10500000EF79F203FAD102087CD2020896D20208A4
:1050100070B500241C70134C049D0C4414F8014C12
:1050200000EB4404B4F8684A2C804FF6FF75AC429C
:1050300017D0B0F87A6CB6FBF4F504FB1564A4B293
:1050400014B190F8820C60B1012001391870C9B216
:10505000936882F83D0000FA01F11943916082F8EB
:105060003E0070BDFAD10208F0B50023324E334F36
:105070001D464FF0010E4FF6FF7C46FA03F212F088
:10508000010F2D4C0ED0DA5D02F10042013A31F8E9
:105090001220B2F5E16F03D0624518BF012501E08F
:1050A00080F8B3EC01331A2BE7D190F8B33C2BB165
:1050B000002D0CBF00206FF00F00F0BDB0F8240CE5
:1050C0001E4E024644FA03F5ED0706D59D5D013DEF
:1050D00031F81550AA4228BF2A4601331A2BF1D1C4
:1050E0004FF6FF75AA421FD0B0FBF2F302FB130389
:1050F0009BB2DBB9114E01232F461B2B03F1FF306E
:1051000012D044FA00F0C00713D5981910F8010C1A
:10511000013831F81050BD420BD0B5FBF2F002FB64
:10512000105080B210B904E00020F0BD6FF00F0005
:10513000F0BD0133E1E700BFEF79F2037CD2020852
:1051400070B588B008AE2A4B46F8183D04460D46A7
:105150000422314603A821F0E6FC9DF80C302370B0
:105160009DF80D3063709DF80E30A3709DF80F30E0
:10517000E37008A9002340F2BD1261E9042306A8E8
:10518000082221F0D0FC06A90822201D21F0CBFC2A
:105190002B683146103B042203A8029321F0C3FC84
:1051A0009DF80C3023739DF80D3063739DF80E301D
:1051B000A3739DF80F30E37301AA2046296800F01D
:1051C0006DFD2B689DF8042023441A712B689DF80F
:1051D000052023445A712B68234400229A712B68BE
:1051E0001C44E2712B6808332B6008B070BD00BF0F
:1051F000000002022DE9FF47164604AA05460C20CE
:1052000002F8090DFE200C46FFF786FB9DF807808B
:105210000390002305F69E4905F68A4A434561DA64
:105220005F1CFBB2013B0B2B5AD8DFE803F0060CE6
:105230001218202830383E464B5203AB32462146E6
:1052400095F87E0C4AE003AB3246214695F87F0C78
:1052500044E003AB3246214695F8800C3EE003ABB8
:105260003246214605F6284001F04FFA38E003ABFC
:105270003246214605F6183001F06AFA30E003ABF9
:105280003246214605F6FC3000F054FD28E003AB21
:1052900032462146B5F8240C00F0DBFD20E003ABDC
:1052A0003246214695F8840C18E003AB324621467D
:1052B00005F6864000F0EEFD12E003AB32462146D3
:1052C000504603E003AB32462146484600F087FDD6
:1052D00006E095F8B20C03AB3246214600F056FECC
:1052E0003B469BE704A9039B21F8063D022202A846
:1052F00021F019FC9DF80830237003989DF80930BF
:10530000637004B0BDE8F087F0B500241460002598
:105310004FF6FF74C3E900450D3000248C420EDACD
:105320000578182D08D150F8055C1560A0F10D0521
:10533000D5E90067C3E9006701341030EEE7F0BD3E
:1053400030B585B00DF103030D4602AA01A9FCF7A3
:10535000C9FA9DF8033053B1294601984FF0010472
:1053600002F0D4FB08B14FF00004E0B200E00120ED
:1053700005B030BD2DE9F347DDF828900B9F0024E0
:1053800089F800403C7090460A689A46835C8DF824
:1053900004300244064653788DF8053002220D464B
:1053A0000DF1060001A921F0BEFBBDF806200C9B03
:1053B00052451A6003D9E02389F800300FE02346F4
:1053C000934206DA2968F018415C08F803100133AB
:1053D000F6E798F802303B702B681A442A6002B056
:1053E000BDE8F0870A4B194410B511F8013C591E6D
:1053F00000EB4303B3F83E4C94421EBF091801244E
:1054000081F8664CA3F83E2C012380F8813C10BD46
:105410007CD202080139032910B504460FD8683040
:10542000FDF771FF20460121FCF762FC044B236667
:10543000636620460221BDE81040FCF759BC10BD50
:105440000000484202232DE9F04180F87E3C012310
:10545000044680F87F3C052380F8803C1822A4494C
:1054600000F6284004F6163621F05DFB04F6FA3704
:1054700033464FF6FF7223F8022FBB42FBD14FF4A5
:10548000E16347F230504FF4967141F27072642537
:1054900040F2DC5EA4F88A3BA4F88C3BA4F88E3B77
:1054A000A4F8903BA4F8A43BA4F89A3BA4F8180BEA
:1054B000A4F8641BA4F8B02BA4F81A0BA4F8661B7C
:1054C000A4F8B22BA4F81C0BA4F8681BA4F8B42B06
:1054D000A4F81E0BA4F86A1BA4F8B62BA4F8320B90
:1054E000A4F87E1BA4F8CA2BA4F8280BA4F8741BFC
:1054F000A4F8C02BA4F82A0BA4F83E5BA4F8405BE8
:10550000A4F8425BA4F8445BA4F8585BA4F84E5B93
:10551000A4F8505BA4F8761BA4F89C3BA4F8923B3B
:10552000A4F8943BA4F8963BA4F8983BA4F83C3B21
:10553000A4F8A23BA4F8C22BA4F8460BA4F86C1B59
:10554000A4F8B82BA4F8DEEBA4F8480BA4F86E1B63
:10555000A4F8BA2BA4F8E0EBA4F84A0BA4F8701B4B
:10556000A4F8BC2BA4F8E2EBA4F8260BA4F8721B59
:10557000A4F8BE2BA4F8300BA4F87C1BA4F8C82B0D
:10558000A4F8205BA4F8225BA4F8245BA4F84C5B8D
:10559000A4F8565BA4F82C5BA4F8520BA4F8781B73
:1055A000A4F89E3BA4F8C42BA4F8540BA4F87A1BCF
:1055B000A4F8A03BA4F8C62BA4F8343BA4F8363BCF
:1055C000A4F8383BA4F83A3B40224A49A4F8EAEB55
:1055D000A4F82E5BA4F8ECEB04F6D82021F0A3FA93
:1055E000454BC4F8E03A0023C4F8DC3AC4F8D83A92
:1055F000C4F8EC3AC4F8F03AC4F8F43A3F4BC4F8B3
:10560000003B3F4BC4F8FC3A3E4BC4F8F83A3E4BE3
:10561000C4F8043B4FF080433C4AC4F80C3BC4F848
:10562000103B3B4BC4F8E42AC4F8143B04F5426237
:105630003B464FF6FF7123F8021F9342FBD147F21E
:1056400030530522A4F8243C84F8862C00230A2237
:10565000DFF8CCE02F4D84F8872C84F8843C84F864
:10566000853C04F6884104F69C4213F90E0021F8AB
:10567000020F35F8130022F8020F01330A2BF4D180
:1056800084F8B23C0023A4F8263C4FF6FF7236F8AB
:10569000023F934205D0B4F8261C994238BFA4F8C3
:1056A000263CBE42F3D11C4E1C4FDFF8788000250B
:1056B00046FA05F3DB0709D5EB5D18F8051004EB96
:1056C00043032046B3F8FA2BFFF78CFE01351A2D61
:1056D000EED104F6654304F67842012103F8011F78
:1056E0009A42FBD12046BDE8F041FFF71CBC00BF49
:1056F000E2D1020888D10208000082C20000FA420A
:105700000000C8420024F449F874C44C00002A4345
:105710000000104168D10208EF79F2037CD2020840
:105720007CD10208C8D1020870B5002300240025EE
:1057300000F52C6280F87D3CA0F87A3CC2E9004577
:1057400000F6C822C2E9004500F52D62C2E9004515
:1057500047F23052A0F8222C00F63E4100F6654494
:1057600000F664454FF6FF761A4621F8026FA9420B
:105770004FF0000304F8012FF7D1662280F8832C44
:10578000012280F8813C80F8823C80F8B33C80F8AC
:105790007C3C80F8882C80F8B43C80F8B53C70BD27
:1057A00090F8853C934230B508D012B1931E012B7E
:1057B00004D8002380F87C3C8B6058E0B0F8483C6B
:1057C000B3F5E16F12D18B6843F004048C602D4C6B
:1057D000647B00EB4404B4F8685A4FF6FF74A542AA
:1057E0001EBF43F4005343F004038B60B0F84A3CFF
:1057F000B3F5E16F02BF8B6843F001038B60B0F833
:105800004C3CB3F5E16F02BF8B6843F002038B6041
:10581000B0F84E3CB3F5E16F02BF8B6843F008036C
:105820008B60B0F8643CB3F5E16F02BF8B6843F462
:1058300000038B60B0F85C3CB3F5E16F0ED0B0F8BC
:105840005E3CB3F5E16F09D0B0F8603CB3F5E16FB1
:1058500004D0B0F8623CB3F5E16F05D18B6843F436
:10586000000343F00F038B608B6813B1012381F8B1
:105870003D30002380F8B43C80F8852C81F83E2030
:1058800030BD00BFFAD10208F0B589B01E460E9FA8
:105890000023172904460D463B6001D8DB236AE04C
:1058A000914201D9DA2366E003788DF80830437815
:1058B0008DF8093083788DF80A300422C3788DF88A
:1058C0000B3002A903A821F02EF9039B2B4A934227
:1058D00003D0013301D0DE234DE00822211D06A8AC
:1058E00021F021F9082206A904A821F01CF9DDE91C
:1058F0000423002140F2BD108B4208BF824206D033
:10590000002B08BFB2F1FF3F01D0DD2333E0237B42
:105910008DF80830637B8DF80930A37B8DF80A3051
:1059200002A9E37B8DF80B30042203A821F0FBF8D9
:10593000039901F118039D4201D0D8231BE02046B2
:105940002C4401AA103100F0A9F99DF8042014F8A4
:10595000043C9A420BD19DF8052014F8033C9A426E
:1059600005D114F8023C13B914F8013C0BB1DC2347
:1059700001E010223A60337009B0F0BD000002026D
:105980002DE9F04786B004AB05AD009304460DF158
:105990000F030195FE200E46FEF798FF9DF90F308C
:1059A000002B40F09980012704F69E4804F68A49AE
:1059B00004F6864AFBB2013B0A2B4DD8DFE803F020
:1059C000060D141B222930373E4446002946304636
:1059D00000F0C9FA84F87E0C44E02946304600F015
:1059E000C2FA84F87F0C3DE02946304600F0BBFA4D
:1059F00084F8800C36E004F628422946304600F050
:105A00002FFB2FE004F618322946304600F05CFBED
:105A100028E004F6FC322946304600F08DFB21E0F8
:105A20002946304600F0FEF9A4F8240C1AE0294675
:105A3000304600F098FA84F8840C13E05246294668
:105A4000304600F05BFC0DE04A4600E04246294645
:105A5000304600F0CBFC05E02946304600F083FAE2
:105A600084F8B20C01370D2FA4D10023A4F8263CF2
:105A700004F6FA3104F616334FF6FF7033F8022FAE
:105A8000824205D0B4F8265C954238BFA4F8262C93
:105A90009942F3D1134E144FDFF85080002546FA97
:105AA00005F3DB0709D5EB5D18F8051004EB43039C
:105AB0002046B3F8FA2BFFF795FC01351A2DEED1ED
:105AC00004F6654304F67842012103F8011F9A4267
:105AD000FBD12046FFF727FA9DF90F0006B0BDE87D
