:020000040800F2
:10000000C04A0020D500000875A10008ED6800086E
:1000100000000000000000000000000000000000E0
:1000200000000000000000000000000075E3000870
:100030000000000000000000B7AB00087D130108BD
:10004000E7000008E700000803BE0008E70000081A
:10005000E7000008D5230008E5230008F523000881
:10006000E7000008E7000008B1220008E7000008E8
:10007000E7000008E7000008E7000008E7000008C4
:10008000E7000008E7000008E700000800000000A3
:10009000E7000008E7000008E7000008E7000008A4
:1000A000E7000008E7000008E70000086119010800
:1000B000E7000008E700000800000000DD39010843
:1000C0000348854600F03AFD004800474D9201087C
:1000D000C04A00200448804704480047FEE7FEE786
:1000E000FEE7FEE7FEE7FEE795150108C100000800
:1000F00030B50B46014600202022012409E00D46C0
:10010000D5409D4205D31D469540491B2546954047
:1001100040191546521E002DF1DC30BD70B500248B
:100120002546002801DA01244042002901DA012590
:100130004942FFF7DDFFAC4200D04042002C00D026
:10014000494270BDF0B51FB40646002082B0054696
:100150004024019100901BE0019922460F46304651
:1001600000F0CAFB049A059B801A994110D31046EF
:100170001946224600F0B0FB361A8F4101972246FD
:1001800001200021009F00F0A7FB38184D4100908E
:100190002046641E0028DFDC019B00982946324679
:1001A00007B0F0BD03460B439B0703D009E008C925
:1001B000121F08C0042AFAD203E00B780370401C17
:1001C000491C521EF9D27047D2B201E00270401CA5
:1001D000491EFBD270470022F6E710B513460A46C7
:1001E00004461946FFF7F0FF204610BDF8B5024659
:1001F0004A40D40F42004B0052085B089A4202D298
:100200000246084611464A0023D0C30D4A00DDB21B
:10021000120EAD1A202D35DA49020126490AF605DB
:100220008A19002C00D0524220214F1B1146B940A0
:100230002A411018C20D9A4221D0002C17D0012D4E
:1002400008DCDA05801AD20F8019D207DBB200F081
:100250007FFBF8BDDA05801A012340001B06C01899
:1002600080185A428018CA0F1043490007E0490815
:10027000C2071143DA05801A80194008801800F07F
:100280005FFBF8BD61000122511A001BF7E7012254
:10029000D2075140AAE70122D2075040A6E7024602
:1002A00070B54A40D30FDB0740002DD04A002AD05A
:1002B000010E140E000212020919400A520A841893
:1002C000E50104465443000A120A2E045043A419BF
:1002D0004219200CC543AA18120C0125AD03521C6B
:1002E000521912047F39240400D0521C104301D447
:1002F0004000491EC2B20C06C0092018401C40082C
:10030000802A02D003E0002070BD40084000002990
:1003100000DA0020184370BD70B502464A40D50F80
:1003200040004A00ED0740085208002814D0002A77
:1003300012D0C40DD30D41020120C0055202490A5A
:10034000520AE41A091812187D34914201D3641C30
:1003500000E04900002C01DA002070BD002391422A
:1003600001D3891A0343400849000028F7D1002926
:100370000AD0914202D10121C90705E0914201D280
:10038000012101E00121C943E005C018401900F036
:10039000D7FA70BDF0B507460846584087B0C00F81
:1003A000049048000E46590040084908BC1A88418C
:1003B00005D2384631461E4617460B4602465800BF
:1003C000400810434CD0300D039040055900400DBB
:1003D000490D0590401A0290402872DA1803012155
:1003E000000B09050843019004980092002805D0ED
:1003F00001995242002088410092019002984021C8
:100400000A1A0199009800F067FA05460C466B46F7
:1004100007CB00F082FAC0197141039A0E0D002338
:10042000D71756401A467A40164344D0049A002AF9
:100430002DD0029A012A039A15DC1205C01A9141A7
:1004400001263605001C7141D20F059ED20700938C
:10045000019202962A46234600F0C0FA07B0F0BD8A
:1004600038463146FAE71605224A0F46B218C01A36
:10047000B74101210905001C4F4100187F41114679
:1004800018187941E20F10436D19644113E0E20737
:100490006D0815436408C2071443039A0126120528
:1004A000C01A91413605001C7141CE074008304307
:1004B0004908C01851412A46234600F082FACDE788
:1004C000FFE7049801224000C117121A00238B4154
:1004D00004983146C417381AA141EEE730B401241C
:1004E000E407634030BC55E730B40124E4076140C1
:1004F00030BC4FE70000E0FFF0B51FB488B00B99A7
:100500000998002448400999C00F490049080991F9
:10051000C0070B990090490049080B910999089868
:10052000A64608431CD00B990A98084318D009988E
:1005300001244000420D4800410D099824050003A4
:10054000000B204309900B980003000B20430B90F5
:1005500050181C494018002201901446104605E02E
:10056000002001460DB0F0BD032801DA034600E08B
:1005700003239C46C11A0AAE0AE05F0008ADED5B9A
:100580004F00F75B7D430027AA187C41491C5B1E86
:100590006145F2DD410004AB5A522104120C0A43BA
:1005A000240C401C0828DFDB01980290009970465B
:1005B00001910090059B049A0799069800F00EFAA5
:1005C000D0E700000DFCFFFFF0B50C465C4085B0A5
:1005D000E40FE40703944C00002664085900944695
:1005E000490802460296224321D062460A431ED0A1
:1005F0006200570D4A000E032303550D01240246E5
:100600002C492405781B1B0B360B4018234326432B
:10061000614600901C46501AB44103D30098401C18
:10062000009002E0921800985B41002803DA002055
:10063000014605B0F0BD00200121090507468646A8
:1006400011E064461D46141BB54106D36546521B96
:10065000B341744607430C43A646CD0740084908FA
:10066000284392185B4105460D43EAD110461843D2
:1006700013D06046194650407140084306D060468A
:10068000101AB34106D20122002306E00022012302
:10069000DB0702E00122D2435310009874460105A3
:1006A000381C6141029C039D0019694100F089F9E1
:1006B000BFE70000FD030000C217C10F504010B596
:1006C0004018CA079623002100F042F910BD10B56A
:1006D00000229623114600F03BF910BD0EB5C2175B
:1006E000C10F5040CA0740180021054B02930192E8
:1006F00000910A460B4600F071F903B000BD0000FE
:10070000330400000EB505490291002100910A460C
:100710000B46019100F062F903B000BD3304000004
:10072000C20F410040020123400ADB05D207090E37
:10073000C0187F2901DA00207047962903DC962330
:10074000591AC84001E096398840002AF4D0404246
:100750007047410040020122400AD205090E80186C
:100760007F2901DA00207047962903DC9622511A6E
:10077000C8407047963988407047000070B5CD0F6B
:100780004A0009030123090B1B0519430B4BED0715
:100790000024520D9A4201DA002070BD074B343319
:1007A0009A4203DC9A1A00F0A7F802E004495118B3
:1007B00088402C43F1D0404270BD0000FF03000090
:1007C000CDFBFFFF4A0009030123090B1B05194359
:1007D000094B10B5520D9A4201DA002010BD064BAC
:1007E00034339A4203DC9A1A00F086F810BD0349AC
:1007F0005118884010BD0000FF030000CDFBFFFF33
:10080000C20FD207400040080BD0C10D0723DB0107
:10081000C91840020905400A1143C20840071143A4
:10082000704700200146704710B5002904DB012401
:10083000E40740428C412146002B04DB1C46012387
:10084000DB075242A3418B4200D1824210BD00001F
:1008500010B5002904DB0124E40740428C41214605
:10086000002B04DB1C460123DB075242A3419942C3
:1008700000D1904210BD0000CB0FDB07490010B53E
:10088000490802460A4307D00A0D07240903E40178
:10089000090B121B002A01DC002010BDC900440F07
:1008A0000C43C100E018D205801800F049F810BDD3
:1008B0000122D207002800DB101A002900DB511AA0
:1008C000814270470122D207002800DB101A00295C
:1008D00000DB511A8842704710B5202A04DB01461C
:1008E000203A9140002010BD914020239C1A0346DD
:1008F000E3401943904010BD10B5202A04DB0846A0
:10090000203AD040002110BD0B46D340D0402024D7
:10091000A21A91400843194610BD10B5202A06DBE3
:10092000CB170846203A1041C1170B4306E00B468F
:100930001341D0402024A21A91400843194610BD0B
:10094000002904DA401C490001D1400840007047EA
:1009500070B40024050C05D11024000402D1002934
:1009600021D01124050E01D100020834050F01D158
:100970000001241D850F01D18000A41C002801DB8B
:100980004000641C002908D020252E1B0D46F54090
:10099000A14000D001212943084301061B1B000A86
:1009A000DB1D02D5002070BC7047DB0518188018CD
:1009B0000029F8DA401C4900F5D170BC400840001D
:1009C000704710B5002B08DA0024401C61419218D2
:1009D0005B411A4301D14008400010BDF0B51FB47F
:1009E00082B005460C0003D0084613F0BFF902E0C0
:1009F00013F0BCF920300246009021462846FFF74C
:100A00006BFF049B059A04460F46184311430843A5
:100A100014D0184610431BD0009840210A1A1846DB
:100A20000599FFF769FF05460E46009A0599049857
:100A3000FFF752FF084305D0012004E02046394665
:100A400007B0F0BD0020C11705430E432C433743C8
:100A500000990E986305401A7905E40A00220C43B8
:100A6000FD0A0A3002D500200146E9E70105101908
:100A700069410C9C0D9D00196941FFF7A2FFDFE75A
:100A8000F8B50546480040080C46284304D06000ED
:100A9000184A400D904201DD2846F8BD1549353908
:100AA000884210DC88420BDB290D20030843290310
:100AB000014305D0E00F1049C00741180020F8BDE0
:100AC00000200146F8BD161A4020821B2846214608
:100AD000FFF702FF07460091284621463246FFF7FE
:100AE0000BFF3A46009BFFF76CFF3246FFF7F4FE20
:100AF000F8BD0000330400000000F03F4A00090385
:100B00000123090B1B0519430A4B10B5520D9A42DC
:100B100002DA0020014610BD064B34339A4203DC52
:100B20009A1AFFF7E9FE10BD034BD218FFF7D4FE67
:100B300010BD0000FF030000CDFBFFFF064C0125A8
:100B4000064E05E0E36807CC2B430C3C9847103475
:100B5000B442F7D3FFF7B8FACCAC0108ECAC01080B
:100B600070B58D180478401CA207920F01D102784D
:100B7000401C231106D10378401C03E006780E7058
:100B8000401C491C521EF9D1002B15D002780C26AE
:100B90008A1A3440401C0C2C03D0A401121B9B1C4D
:100BA00008E004782402121B401CF8E714780C704B
:100BB000491C521C5B1EF9D5A942D3D3002070BD3D
:100BC00038B50446074908480068FFF791FA6043C2
:100BD000009002E00098401E009000980028F9D193
:100BE00038BD000040420F004C00002070B50446A4
:100BF0000025206880688007800F012807D12068C1
:100C00000068C007C00F002801D0012000E00020CC
:100C1000002839D1206880681C490840002801D18B
:100C2000012000E00020002809D1A06D1021084318
:100C3000A065E06D01210843E065012070BD2068DA
:100C4000806801210843216888600120FFF7B8FF10
:100C500005F09CFB05460EE005F098FB401B0A28BA
:100C600009D9A06D10210843A065E06D012108435A
:100C7000E0650120E2E720680068C007C00F01219D
:100C8000484048400028E7D00020D7E71700008000
:100C900030B589B005460C461022002105A818F091
:100CA00008FC224605A905A813F04DFD6846007D05
:100CB0008021084000281CD000BF00200AE005A9C0
:100CC000095C490005AB421C9A5CD211114305AA8C
:100CD0001154401C0F28F2DB08A9C97849060A0EF6
:100CE00008A9CA7000BFC8788721484008A9C87001
:100CF00016E000BF00200AE005A9095C490005AB29
:100D0000421C9A5CD211114305AA1154401C0F28B1
:100D1000F2DB08A9C97849060A0E08A9CA7000BF03
:100D2000FF201530005910280FD100BF002009E026
:100D3000E11DFA31095C05AA125C5140E21DFA324C
:100D40001154401C1028F3DB61E06846007D8021CF
:100D5000084000281CD000BF00200AE005A9095C5B
:100D6000490005AB421C9A5CD211114305AA1154EB
:100D7000401C0F28F2DB08A9C97849060A0E08A909
:100D8000CA7000BFC8788721484008A9C87016E01B
:100D900000BF00200AE005A9095C490005AB421C20
:100DA0009A5CD211114305AA1154401C0F28F2DBA2
:100DB00008A9C97849060A0E08A9CA7000BF80218F
:100DC000FF2015300259E01DFA30815406E0002161
:100DD000FF2015300259E01DFA308154FF201530F4
:100DE0000059401CFF21153108511028EFD300BFD6
:100DF000002009E0E11DFA31095C05AA125C5140AE
:100E0000E21DFA321154401C1028F3DB00BF00BF72
:100E100000200AE02146F131095CE21DFA32125C41
:100E200051402246F1321154401C1028F2DB00BF21
:100E300010222146F13101A818F021FB2246294653
:100E400001A813F080FC1022002105A818F031FB46
:100E500009B030BD10B50446102200212046F13003
:100E600018F027FB0021FF2015300151F022204609
:100E700018F01FFB10BD70B504460D462246102128
:100E8000284613F08DFC70BDF0B585B004460F46C2
:100E90001546FF201530005900283ED0FF201530A0
:100EA00000591021081AA84204D2FF201530005919
:100EB000081A00E028460646B2B2FF21153109594A
:100EC000E31DFA33C818394618F0D9FAFF20153057
:100ED00000598119FF20153001510059102801D304
:100EE000B54201D105B0F0BD00BF00200AE02146A7
:100EF000F131095CE21DFA32125C51402246F132B6
:100F00001154401C1028F2DB00BF22462146F1316B
:100F1000084613F018FCBF19AD1B21E000BF0020EC
:100F200008E02146F131095C3A5C51402246F13239
:100F30001154401C1028F4DB00BF10222146F1316F
:100F4000684618F09CFA22466946684613F0FBFB97
:100F5000102269462046F13018F091FA1037103D02
:100F6000102DDBD8AAB23946E01DFA3018F087FA06
:100F7000FF201530055100BFB4E700001CB50F4835
:100F80000079002814D10120694608710C48806856
:100F900000900A4944314968087869460CF003FA20
:100FA000002106483C38017500200449087100BF43
:100FB00002483C38807C014948711CBDD81A002089
:100FC000041D00201CB51A48817C407C81422EDA29
:100FD0001748807C401C16498874887CC10F09180A
:100FE00049104900411A012921D122216846017185
:100FF0000F4880304068FF301930017D68468171AC
:101000000B4880304068F8304178684641710849A3
:1010100080314968087801A90CF0B7F90090009870
:1010200041B2034880304068F830417000BF1CBDB9
:101030009C1A002010B50446002000F0F3F8034885
:1010400010F018FC00200249087010BD383A00204A
:10105000620D002010B504460120074908700749B9
:10106000074810F007FB2146054810F0B0FB044884
:1010700010F0C2FB10BD0000620D0020351000080A
:10108000383A002010B504461E2001F0D7FF012198
:1010900049030B4802F088F9002810D1094800786C
:1010A00000280CD108480078002808D100F0CAF8C0
:1010B00001200FF0E7FE7D20C000FFF7CBFF10BD41
:1010C00000040050620D0020600D002010B50446A1
:1010D000012000F0A7F8034810F0CCFB00200249E3
:1010E000087010BD203A0020600D002010B50446A5
:1010F0000120074908700749074810F0BBFA21464C
:10110000054810F064FB044810F076FB10BD0000A9
:10111000600D0020CD100008203A002010B50446D4
:101120001E2001F08BFF012189030A4802F03CF9DF
:1011300000280DD108480078002809D1012000F0CE
:1011400081F802200FF09EFE7D20C000FFF7CEFF49
:1011500010BD000000040050600D002010B586B0E6
:10116000044600BF002C06D0012C13D0022C20D046
:10117000032C3CD12CE000BF2748C06A0221084361
:101180002549C8620846C06A02210840009000BF95
:1011900000BF2DE000BF2048C06A012108431E495E
:1011A000C8620846C06AC007C00F009000BF00BFF9
:1011B0001EE000BF1848C06A022108431649C862F1
:1011C0000846C06A02210840009000BF00BF0FE03F
:1011D00000BF1148C06A022108430F49C86208468F
:1011E000C06A02210840009000BF00BF00E000BFBD
:1011F00000BF00BF60000949085A01900120029019
:101200000020039003200490A100054A505801A932
:1012100001F0CEFF06B010BD0010024024A301086B
:101220003800002010B504466200044B995AA20011
:10123000034B9858002202F0C0F810BD24A3010807
:101240003800002010B504466200044B995AA200F1
:10125000034B9858012202F0B0F810BD24A30108F6
:101260003800002070477047014601207047000099
:1012700070B505461C480068401C1B4908601B49A6
:10128000194818F0B5FB19480068194900228A5E10
:1012900080181649086014480068401C124908600C
:1012A000124801681048006818F02AFF0E480168CB
:1012B0000E480068FEF71CFF044621460D4813F057
:1012C0002FFB0D490860084909680C4A514308463C
:1012D00009490968FEF70CFF0849081A0649086021
:1012E000074810F089FA70BD540D0020500D002001
:1012F000A00D002060390020580D002010270000AC
:101300004438002010B51549154818F071FB1448F1
:10131000016812480068FEF7EBFE044621461148BA
:1013200013F0FEFA104908600D4909680F4A51434D
:1013300008460D490968FEF7DBFE0C49081A0A4900
:1013400008600B490B4810F095F90B49094810F05B
:101350003EFA084810F050FA10BD0000500D002071
:10136000540D002060390020580D00201027000087
:101370007112000844380020005C26050FB4F0B557
:10138000CBB0074610A817F093F8F7A110A812F0F9
:10139000D9FC50A80079002805D0F4A110A803308A
:1013A00012F0D0FC04E0F2A110A8033012F0CAFC45
:1013B00051A8007A51A9C97951AA927951AB5B79A8
:1013C000029303920491059051A8007951A9C9781C
:1013D0000091019051A8837850A84279E5A1FA388C
:1013E00012F0B0FC51A8007C51A9C97B51AA927B94
:1013F00051AB5B7B029303920491059051A8007B53
:1014000051A9C97A0091019051A8837A50A8427BD2
:10141000D8A1EA3812F096FC55A80130C07B51A93A
:10142000C97F51AA927F51AB5B7F0A930B920C91BB
:101430000D9051A8007F51A9C97E51AA927E51AB4F
:101440005B7E069307920891099051A8007E51A9EE
:10145000C97D51AA927D51AB5B7D029303920491A9
:10146000059051A8007D51A9C97C0091019051A817
:10147000837C50A8427DC849DA3812F063FC59A831
:101480000130C07859A9013189780091019059A89B
:101490000130437858A84279BAA1DA3812F052FCE8
:1014A0005AA80130C07B5AA90131897B5AAA01325E
:1014B000527B5AAB01331B7B0A930B920C910D901C
:1014C0005AA80130C07A5AA90131897A5AAA013240
:1014D000527A5AAB01331B7A06930792089109900E
:1014E0005AA80130C0795AA9013189795AAA013222
:1014F00052795AAB01331B79029303920491059000
:101500005AA80130C0785AA9013189780091019018
:101510005AA80130437858A8427A9F49D23812F02D
:1015200011FC5EA80130C07B5EA90131897B5EAAF7
:101530000132527B5EAB01331B7B0A930B920C9101
:101540000D905EA80130C07A5EA90131897A5EAA49
:101550000132527A5EAB01331B7A069307920891EF
:1015600009905EA80130C0795EA9013189795EAA2F
:10157000013252795EAB01331B79029303920491DD
:1015800005905EA80130C0785EA90131897800918C
:1015900001905EA80130437858A8427E7E49B23857
:1015A00012F0D0FB60A8407A3030C1B230A881730D
:1015B00060A8807A3030C1B230A8C17360A8C07A08
:1015C0003030C1B230A8017460A8027B73A1AF387B
:1015D00012F0B8FB60A8427B70A135A812F0B2FBF4
:1015E00060A8807B3030C1B230A8C1757D21C900B0
:1015F0006498FEF77DFD0446E12109012046FEF7CF
:1016000077FD0F90E12109012046FEF771FD0E9153
:101610003C210E98FEF76CFD06463C212046FEF765
:1016200067FD0D46334600955DA136A80F9A12F06E
:1016300089FB00247D21C9006598FEF759FD044609
:10164000E12109012046FEF753FD0F90E121090138
:101650002046FEF74DFD0E913C210E98FEF748FD09
:1016600006463C212046FEF743FD0D4633460095D5
:101670004BA138A80F9A12F065FB00247D21C90008
:101680006698FEF735FD0446E12109012046FEF784
:101690002FFD0F90E12109012046FEF729FD0E9153
:1016A0003C210E98FEF724FD06463C212046FEF71D
:1016B0001FFD0D463346009539A13AA80F9A12F046
:1016C00041FB60A8007F002804D039A13CA812F09B
:1016D00039FB03E037A13CA812F034FB60A8407F3F
:1016E000002805D032A13CA8033012F02BFB04E007
:1016F00030A13CA8033012F025FB002454222046E0
:10170000641C3DA902310A5460A8807F002804D0DF
:101710003C222046641C0A5405E03E222046641CFC
:101720003DA902310A5460A91F228A568A39081934
:101730001AA112F007FB68A90878002805D01CA19F
:1017400040A8023012F0FEFA04E01AA140A80230CC
:1017500012F0F8FA68A8407800282DD014A141A80A
:10176000013012F0EFFA2CE06E6F2A004F54410066
:1017700041425000253032582530325825303258F9
:1017800025303258253032582530325825303258DD
:10179000253032580000000088AC010825642A007A
:1017A000253032643A253032643A25303264000004
:1017B000594553004E4F2A00334941A8013012F0D9
:1017C000C1FA002448222046641C42A90A5468A891
:1017D0008078002804D03C222046641C0A5404E08F
:1017E0003E222046641C42A90A5460A98A8C42A960
:1017F00008192549183912F0A5FA68A9887900282E
:1018000005D02149091F45A812F09CFA03E01E49A2
:1018100045A812F097FA68A8C079002806D01A499E
:10182000091F45A8033012F08DFA04E0164945A8B7
:10183000033012F087FA00244C222046641C46A98B
:1018400002310A5468A8007A002804D03C222046BD
:10185000641C0A5405E03E222046641C46A902315D
:101860000A5460A94A8D663908190749183912F0D7
:1018700069FAEA2210A93846FEF794FC4BB0F0BC96
:1018800008BC04B018470000B4170008FFB587B0C3
:1018900004461F460020069010256557112020564B
:1018A0000590A06838606079012852D1022168460D
:1018B0000174A17C8174E07C04A90BF066FD0390A7
:1018C000039846B2B54201DD284600E030460546A1
:1018D000B54203D10020386006903AE0A189A068A3
:1018E000884202D30120069001E000200690A089E2
:1018F000E1894018A16888422BD8082069460874FD
:10190000E07C04A90BF041FD0390039840B20590E0
:10191000E189A068FEF7ECFB01291AD12221684673
:1019200001744574A17C8174E07C04A90BF02DFD49
:101930000390039845B2B5420BD100200690207960
:10194000012806D169460872E07C01A90BF02BFD45
:1019500000BF0898057009990598087006980BB0A3
:10196000F0BD000030B589B0044633484068FF3010
:10197000C130007E002802D16946087502E00120CE
:10198000694608752C484068FF302130417F684621
:101990008175C47503A80FF040FD27484068FF30EB
:1019A000CD3040680090244840680546FF35CD356D
:1019B00029780B46697809020B43A97809040B437F
:1019C000E8780006034301A8049A03990FF050FD3C
:1019D000029901980791069017488038806908900D
:1019E000002168464175144840784007C00F002820
:1019F00007D0002005F0F8FF002802D0012069463A
:101A000048750D494968087805A90AF0D5FB0A48C8
:101A10008038806908494968FF31C13149884843A5
:101A2000054980398969411A03484068FF3081308F
:101A3000816409B030BD00001C1B002010B50446B5
:101A40000748806C002809D00548806C8068002811
:101A500004D00348806C81682046884710BD000090
:101A60009C19002038B505460C46002000906946B8
:101A7000284600F077FF002801D0002038BD0098EC
:101A8000844203D80098401C002801D10120F5E7CA
:101A90000020F3E710B505F0D1FD002801D00E209D
:101AA00010BD0A484068E030007C01280BD105F0E9
:101AB000CBFD002801D00F20F2E705F0C3FD002880
:101AC00001D00F20ECE70020EAE700001C1B0020FB
:101AD0000B48807C0A49497C884201DB0120704721
:101AE0000748803040788007C00F002805D00448A0
:101AF0003C300079012800D1F1E70020EFE7000039
:101B00009C1A00201148017C80304068FF30193059
:101B10000078814201DB012070470C48803040781A
:101B20008007C00F00280FD0084880304068E030A0
:101B3000007C002801D10120EEE704481C30407CE5
:101B4000002801D10120E7E70020E5E79C1A0020EA
:101B5000FFB585B004460E460E9F002E01D0002F23
:101B600002D1022009B0F0BD1748FFF773F96946AA
:101B7000089800F0DDFE0546002D22D10099491C91
:101B80001148FFF778F9002C04D0102221460E48A6
:101B9000FFF77AF931460C48079AFFF775F90A49B9
:101BA00001A8FFF775F86946C87900068979090424
:101BB0000843694649790902084369460979084397
:101BC00038602846CEE70000EC200020FFB587B043
:101BD00005460C461646139F002D01D0002F02D15A
:101BE0000A200BB0F0BDFF200130844201DD0E2041
:101BF000F7E703AA129911986B4607C331462046AE
:101C0000109B0A9A08F0D8FF33462246294603A8BB
:101C100000970EF0CFFB002801D00F20E1E7002055
:101C2000DFE7F0B59BB007460C46E0784F2801D1BE
:101C3000012000E000202179542901D1012100E098
:101C4000002108406179412901D1012100E00021F2
:101C50000840002803D001206946087118E0E078A8
:101C6000412801D1012000E000202179422901D141
:101C7000012100E0002108406179502901D10121B2
:101C800000E000210840002802D0002069460871C9
:101C90001022A11D01A8013018F0ECF810222146F5
:101CA000163103A8013018F0E5F82022214626312C
:101CB00005A8013018F0DEF808222146463109A8AF
:101CC000013018F0D7F8202221464E310AA8013001
:101CD00018F0D0F8202221466E310EA8013018F0FD
:101CE000C9F88E20005D3038C1B210A841728F2033
:101CF000005D3038C1B210A881729020005D30388C
:101D0000C1B210A8C172002500210173417311E016
:101D100010A8007B0A214843C1B210A80173017BBF
:101D200020469130405D30380818C1B210A80173C8
:101D3000681CC5B220469130405D2A28E8D10025B4
:101D400011E010A8407B0A214843C1B210A841739A
:101D5000417B20469430405D30380818C1B210A84D
:101D60004173681CC5B220469430405D2A28E8D1F2
:101D700000259720005D303810A988739820005DF9
:101D800030380A2148439921095D40183038E12153
:101D9000090141439B20005D30380A2250439C22B8
:101DA000125D801830383C22504309189E20005D97
:101DB00030380A2250439F22125D801830380818AC
:101DC0007D21C90048431490A020005D30380A21CD
:101DD0004843A121095D40183038E1210901414300
:101DE000A320005D30380A225043A422125D8018DF
:101DF00030383C2250430918A620005D30380A22B2
:101E00005043A722125D8018303808187D21C90080
:101E100048431590A820005D30380A214843A92185
:101E2000095D40183038E12109014143AB20005DD4
:101E300030380A225043AC22125D801830383C22E0
:101E400050430918AE20005D30380A225043AF22BB
:101E5000125D8018303808187D21C900484316905B
:101E6000B020005D592803D0B020005D792813D13F
:101E7000B120005D452803D0B120005D65280BD15D
:101E8000B220005D532803D0B220005D732803D137
:101E9000012010A9087702E0002010A90877B320DC
:101EA000005D592803D0B320005D792813D1B420F8
:101EB000005D452803D0B420005D65280BD1B52016
:101EC000005D532803D0B520005D732803D10120A5
:101ED00010A9487712E0B320005D4E2803D0B3204C
:101EE000005D6E280AD1B420005D4F2803D0B420D5
:101EF000005D6F2802D1002010A94877B720005D4F
:101F00003C2803D1012010A9887702E0002010A905
:101F100088770225002010A9C8772046B630405D9A
:101F20002D2801D1681CC5B211E010A8C07F0A217C
:101F3000484341B210A8C177C17F2046B630405D0A
:101F40003038081841B210A8C177681CC5B22046C5
:101F5000B630405D2A28E8D1B820005D2D2806D192
:101F600010A8C07F404241B210A8C17702E010A87B
:101F7000C17FC177C220005D592803D0C220005D17
:101F8000792813D1C320005D452803D0C320005D0C
:101F900065280BD1C420005D532803D0C420005D08
:101FA000732803D1012018A9087002E0002018A9A5
:101FB0000870C520005D592803D0C520005D792830
:101FC00013D1C620005D452803D0C620005D6528DA
:101FD0000BD1C720005D532803D0C720005D7328B4
:101FE00003D1012018A9487012E0C520005D4E28D9
:101FF00003D0C520005D6E280AD1C620005D4F28A1
:1020000003D0C620005D6F2802D1002018A94870B7
:10201000C920005D3C2803D1012018A9887002E086
:10202000002018A98870022500260BE030460A21FE
:10203000484306462046C830405D3038801906B215
:10204000681CC5B22046C830405D2A28EED110A9D0
:102050008E84D420005D592803D0D420005D7928D7
:1020600013D1D520005D452803D0D520005D65281B
:102070000BD1D620005D532803D0D620005D7328F5
:1020800003D1012018A9887102E0002018A98871E5
:10209000D720005D592803D0D720005D792813D1BF
:1020A000D820005D452803D0D820005D65280BD1DD
:1020B000D920005D532803D0D920005D732803D1B7
:1020C000012018A9C87112E0D720005D4E2803D066
:1020D000D720005D6E280AD1D820005D4F2803D09C
:1020E000D820005D6F2802D1002018A9C871DB201C
:1020F000005D3C2803D1012018A9087202E00020ED
:1021000018A90872022500260BE030460A21484330
:1021100006462046DA30405D3038801906B2681C29
:10212000C5B22046DA30405D2A28EED110A94E858E
:10213000682201A93846FEF735F81BB0F0BD30B56E
:102140000246002300200AE00124844014400125B7
:102150008540AC4201D15C1CE3B2441CE0B2884231
:10216000F2DB184630BDFFB583B00F461E46002097
:10217000029001900025009053E0002448E0009870
:1021800041000598405A0121A140084000283CD058
:1021900028190C2148433058002800D136E0039814
:1021A000002806D10120A0404007400F002800D1A0
:1021B0002CE028190C23584380190823C3561A1100
:1021C00028190C2358438019007A0007011778B2A8
:1021D0000AF0C4FA002800D118E028190C2148435D
:1021E0008019407A01010C980818C068002804D0B2
:1021F0000198401CC0B2019008E02819C2B20298B0
:10220000411CC9B202910D990A5400BF601CC4B2AE
:10221000102CB4DB28461030C5B20098401CC0B268
:102220000090102DA9DB0E9901980870029807B054
:10223000F0BD000000B587B0142102A8FDF7CBFF68
:10224000032003900020049003204003029000BF6D
:102250001648C06A012108431449C8620846C06A8A
:10226000C007C00F019000BF00BF02A905200007F2
:1022700000F09EFF0D48C06A400840000B49C8624C
:102280000846406B0121890508430849486300F06E
:10229000B7FE00F0C9FE00F0BDFE0448406B01210E
:1022A000890588430149486307B000BD001002401A
:1022B00070470000FFB585B0044615460698002813
:1022C00004D0002D02D00898002802D10A2009B0BD
:1022D000F0BD00200190029003900490052C06D0E0
:1022E000062C05D0072C04D0082C0AD105E000BF2D
:1022F00000BF01206946087105E0022069460871A7
:1023000001E00B20E3E700BF032201A8013006999A
:1023100017F0B5F80322294602A817F0B0F80222F8
:1023200002A80330089917F0AAF80D484068234620
:10233000022201A9064600903778384677783F0296
:102340003843B7783F043843F678360630430EF00A
:1023500044F8002801D00F20B9E70020B7E70000BB
:102360004C1D00200246002A01D0002901D1032083
:102370007047107B0007000F002806DD2020805CDE
:10238000002802DD0020087020E02820805C002862
:1023900002D10120087019E0107B0007000F00280F
:1023A00006D12020805C002802D1022008700DE0B8
:1023B000107B0007000F002806D12020805C002839
:1023C00002DD0320087001E01720D1E70020CFE7ED
:1023D0007047704710B5012000F0DAFE022000F0CF
:1023E000D7FE10BD10B5042000F0D2FE082000F08A
:1023F000CFFE10BD10B5102000F0CAFE202000F066
:10240000C7FE402000F0C4FE802000F0C1FEFF2087
:10241000013000F0BDFE0120400200F0B9FE0120B5
:10242000800200F0B5FE0120C00200F0B1FE0120E4
:10243000000300F0ADFE0120400300F0A9FE0120E2
:10244000800300F0A5FE0120C00300F0A1FE10BD36
:1024500000BFFEE710B50520FFF7F0FA10BD10B57C
:102460000420FFF7EBFA10BD10B50620FFF7E6FADF
:1024700010BD10B50220FFF7E1FA10BD10B5002025
:10248000FFF7DCFA10BD10B50120FFF7D7FA10BD39
:1024900010B50320FFF7D2FA10BD30B504460D4643
:1024A00000222946204600F001F830BDF0B5034671
:1024B000012500241148407A01281CDC00200F4E21
:1024C000767A0E4FB8553846407A8600381D8351CB
:1024D000001F467A083082553E46707A461C7E724E
:1024E00004462046303008703A2048702F2088700B
:1024F0000020C87000252846F0BD0000903700205D
:1025000010B504460021204600F002F810BD00007E
:1025100070B502460B46002101200D4C647A012C57
:1025200015DB1478303CE1B28D00094C241D645950
:10253000002C0CD000258E00054C241DA551241D17
:102540006554083C647A641E014D6C72002070BDB5
:102550009037002000210A4A51610A494968012246
:1025600052021143074A516011464968082211433B
:10257000044A51600021C209D20111607047000075
:10258000C00F002000200240002039498969FF2245
:1025900001321140914208D1364949690222114362
:1025A000344A5161FF2101310843314989690122CF
:1025B00052021140914208D12E494969012211432A
:1025C0002C4A5161012149020843294989690122A4
:1025D00092021140914208D12649496908221143CB
:1025E000244A516101218902084321498969012254
:1025F000D2021140914208D11E4949690422114377
:102600001C4A51610121C902084319498969012203
:1026100052031140914208D11649496910221143D1
:10262000144A516101214903084311498969012272
:1026300052041140914207D10E49496920221143A9
:102640000C4A516120210843094989690122120479
:102650001140914208D10749496940221143054A76
:102660005161012109040843014988617047000054
:1026700000200240C00F002070B5044600F0A4FE08
:1026800005460BE0601C002808D0002C04D000F0A8
:102690009BFE401BA04201D9032070BD1F488069EA
:1026A000C007C00F0028EDD11C48806902210840F6
:1026B000022801D11949886118488069FF21013138
:1026C0000840884223D01548806949000840884264
:1026D0001DD01248806949000840884217D00F4831
:1026E000806949000840884211D00C4880698900FF
:1026F000084088420BD00948806909010840884297
:1027000005D00648806949100840884203D1FFF788
:102710003BFF0120C1E70020BFE70000002002408E
:1027200010B50446002C00D110BD10220021204617
:1027300016F0BFFE0120F7E710B5002204210520A6
:10274000000700F03AFE002204210520000700F0F7
:1027500034FE0022FF2101310520000700F02DFE8C
:1027600010BD10B5012204210520000700F025FE50
:10277000012204210520000700F01FFE10BD00000B
:1027800001468800094A1058094A8018002807D0D5
:102790008018002806D052008018002804D000BFFE
:1027A000002070470120FCE70220FAE790A301080F
:1027B000B817FEFF08B5194819490860FF20E13035
:1027C00048600846143005F045FA154908610020B4
:1027D000009014494968087869460AF0CBFD104911
:1027E00088600098C86008461C300DF031FE0C4926
:1027F00088610846243004F075FF094908620846DC
:102800002C3004F013FF064988620846343005F086
:1028100071F803490863084608BD0000241B002026
:10282000041D00201C1B0020F8B505460E46174667
:10283000344608E02078A84201D12046F8BD204661
:1028400004F052FA0446BC42F4D10020F6E7FFB58A
:1028500081B005460E4617460B9C002F04D0002C75
:1028600002D00C98002802D10A2005B0F0BD2B0040
:1028700011F0ABFA0515181B1E0421006846807C78
:10288000012809D1002E01D0032E02D10220207090
:1028900004E00120207001E0032020700DE00420FE
:1028A00020700AE00520207007E00620207004E078
:1028B0000720207001E00520D7E700BFFA892078C3
:1028C0000C9B0A9905F06EF9CFE700000246002143
:1028D0000FE0C800094B1858904208D8481CC000A7
:1028E0001858904203D9C800C01800797047481C96
:1028F000C1B21529EDD300BFFEE7000000A2010818
:1029000010B502460B4600210BE08800074C205C06
:10291000904204D1880000191860002010BD481CA6
:10292000C1B20529F1DB0C20F8E70000F00300201C
:1029300030B502460B4600210DE008010818084C8E
:10294000205C904205D10801081800191860002089
:1029500030BD481CC1B21829EFDB0320F8E70000A6
:102960000422002000B50246002901D10A2000BD42
:10297000130011F02AFA083A05101B262B30353ABD
:102980001C484068006908601A4840681030194BBC
:102990005B6818632BE01748406840690860154879
:1029A00040681430134B5B68186320E0114840689E
:1029B000806908600F48406818300E4B5B681863E8
:1029C00015E00C484068C069086010E0094840689C
:1029D000006A08600BE007484068406A086006E04B
:1029E00004484068806A086001E00520BFE700BF36
:1029F0000020BCE74C1D00201CB504460E48406872
:102A0000FF301930017D6846817144710D210171DB
:102A100009484068FF302130C07F012802D10E20D4
:102A20006946087104494968087801A90AF0ADFCB3
:102A300000900098C0B21CBD1C1B00200246002361
:102A40008A4201D1CBB201E0501EC3B258B27047E6
:102A500070B50948046945698669A419002C0AD033
:102A600008220649204604F04BF90422034910319C
:102A7000284604F045F970BD4000F81F46070020C5
:102A8000F8B5044600250026002700BF5420005D4D
:102A9000012801D10220F8BD01215420015500BFB9
:102AA000206880688007800F012806D120680068B0
:102AB0000840002801D0012000E0002000283FD17C
:102AC000A06DFF210131884302210843A0652068E1
:102AD000C0688707BF0F2068C06880088000216831
:102AE000C860206880680121C907084321688860A0
:102AF00003F04CFC064611E003F048FC801B0A285A
:102B00000CD9A06D0221884310210843A06500BFA5
:102B100000215420015500BF0120BCE720688068D7
:102B2000C00FC0070028E7D12068C068384321687B
:102B3000C860A06D0221884301210843A06504E01C
:102B4000A06D20210843A065012500BF002154206D
:102B5000015500BF28469EE770B504460D4600BFEC
:102B60005420005D012801D1022070BD01215420B4
:102B7000015500BF206880680421084080080028B3
:102B80000AD0A06D20210843A06500BF0021542079
:102B9000015500BF0120E8E72D496868884229D027
:102BA0002068806A29684903490B084321688862C4
:102BB00028684003400B27490840012189048842C6
:102BC00008D12548806849010843234988600A20C4
:102BD000FDF7F6FF28684003400B2049084001211B
:102BE000490488422CD11C488068490108431A498D
:102BF000886025E02068806A29684903490B88437A
:102C00002168886228684003400B1249084001216E
:102C10008904884205D110488068490188430E49DB
:102C2000886028684003400B0C4908400121490492
:102C3000884205D108488068490188430649886070
:102C400000BF00215420015500BF00208DE7000087
:102C50000110000000000448002701400000024469
:102C600001460868006C704710B50446002C01D17D
:102C7000012010BDA06D002806D1E0650021542080
:102C80000155204600F00AF9A06D102108400028E7
:102C900006D12068806804210840800800280AD0F6
:102CA000A06D10210843A06500BF002154200155EC
:102CB00000BF0120DDE7A06DFF2101318843022123
:102CC0000843A065206880688007800F012807D12D
:102CD00020680068C007C00F002801D0012000E074
:102CE000002000283AD100BF03218907606888428C
:102CF00007D049426068884203D049006068884232
:102D00000CD1206800698000800821680861206873
:102D10000069616808432168086112E02068006961
:102D200080008008216808615A4880680F21890462
:102D30008843584988600846806861680843554957
:102D4000886000BF2068C068182188432168C86077
:102D50002068C068A16808432168C8604D48806841
:102D60000121490688434B49886008468068218FC5
:102D7000490608434749886020688068012109079F
:102D80000840002804D120688068084321688860D2
:102D90002068C068404908402168C8602169E0682F
:102DA000022901D1042100E000210843216A4903DE
:102DB0000843216B49000843616B0843A1698903FB
:102DC0000843E169C90308432168C96808432168C9
:102DD000C860FF21C231A06A884207D0E16AA06AB8
:102DE00008432168C96808432168C860606A0128EF
:102DF00012D1206A002807D12068C0680121090487
:102E000008432168C86007E0A06D20210843A06541
:102E1000E06D01210843E065206C012817D120688E
:102E20000069FF218900884321680861616CA06CFA
:102E30000843E16C08432168096908432168086177
:102E40002068006901210843216808610BE02068BF
:102E50000069C007C00F002805D02068006940083D
:102E600040002168086120684069C008C0002168EE
:102E7000486120684069E16B08432168486100208F
:102E8000E065A06D0221884301210843A065002070
:102E9000EFE60000002701401902FEFF7047F8B579
:102EA00004460D46002600276069082801D108273E
:102EB00011E02068C068C007C00F00280AD0A06DCC
:102EC00020210843A06500BF00215420015500BF08
:102ED0000120F8BD0C2703F059FA064614E0681CDF
:102EE000002811D0002D04D003F050FA801BA84216
:102EF0000AD9A06D04210843A06500BF0021542019
:102F0000015500BF0320E4E720680068384000282E
:102F1000E5D0A06D012149020843A0652068C06882
:102F2000032189020840002825D1206A002822D1E7
:102F3000206800680821084008281CD120688068A3
:102F400004210840800800280DD1206840680C2129
:102F5000884321684860A06DFF2101318843012129
:102F60000843A06507E0A06D20210843A065E06D3F
:102F700001210843E065A069002802D10C202168E6
:102F800008600020A5E7000070B504460025206811
:102F9000806804210840800800282BD100BF5420FD
:102FA000005D012801D1022070BD0121542001558E
:102FB00000BFE069012803D02046FDF717FE054653
:102FC000002D18D1A06D0D490840FF2101310843A3
:102FD000A0650020E06500BF00215420015500BF1E
:102FE0001C2021680860206880680421084321684B
:102FF000886000E002252846D6E70000FEF1FFFFCA
:10300000034840684008400001494860704700009C
:103010000058014003484068042188430149486042
:10302000704700000058014003484068022188436F
:1030300001494860704700000058014001B5009800
:1030400003F000F908BD0000F8B504460E4601275C
:10305000002500BF1C48007C012801D10220F8BDDA
:1030600001201949087400BF1848FFF705FB0746FF
:10307000002F22D1401E3060656817E02846FFF718
:1030800069FA1248FFF7F8FA074611484068082124
:1030900088430F49486008464068491588430C49F1
:1030A0004860002F01D0356006E08035A068C0017F
:1030B00061684018A842E1D800BF00BF0020024963
:1030C000087400BF3846CAE7C00F002050C3000094
:1030D000002002400348406802210843014948603B
:1030E0000020704700200240F8B507460C46154600
:1030F000012600BF0E48007C012801D10220F8BD46
:1031000001200B49087400BF0A48FFF7B5FA0646CC
:10311000002E06D10649486125600648FFF7ACFA43
:10312000064600BF00200249087400BF3046E6E7AB
:10313000C00F002050C300000D4840680221084025
:10314000002810D00A484068C007C00F002804D0EB
:1031500008480749C8600848C86008480449086129
:103160000748086101E0012070470020FCE70000EB
:1031700000200240EFCDAB8905040302BFAE9D8C59
:103180001615141310B50446204602F07DFE10BD3E
:1031900010B50446054840692040002804D0034883
:1031A00044612046FFF7EEFF10BD0000000401401F
:1031B00070B50346002200240020DFE0012696407F
:1031C0000D6835402C46002C77D04D68022D02D07A
:1031D0004D68122D15D1D508AE001D462035A859D1
:1031E0005507EE0E0F25B5400646AE43304656074E
:1031F000F60E0D69B5402843D508AD001E462036B1
:1032000070514D68012D08D04D68022D05D04D68D4
:10321000112D02D04D68122D18D198685600032543
:10322000B5400646AE4330465600CD68B54028430B
:1032300098605868012595400646AE4330461026F2
:103240004D6835402D099540284358601868560050
:103250000325B5400646AE4330460D79AD07AD0FA8
:103260005600B54028431860D86856000325B5407D
:103270000646AE43304656008D68B5402843D860B8
:10328000012636074D683540B54276D13E4D6D6B0F
:10329000012635433C4E75633C4D9608B600A8594F
:1032A00095072E0F0F25B5400646AE43304605253F
:1032B0002D07AB4202D100251AE05EE0344DAB424F
:1032C00001D1012514E0334DAB4201D102250FE0BD
:1032D000314DAB4201D103250AE0304DAB4201D163
:1032E000042505E02E4DAB4201D1052500E0062561
:1032F0009607360FB5402843244D9608B600A851CE
:10330000284D28680546A5432846012636044D6801
:103310003540B54202D1054625432846214D286057
:1033200068680546A5432846012676044D68354061
:10333000B54202D10546254328461A4D6860A86863
:103340000546A5432846012636054D683540B54259
:1033500002D1054625432846124DA860E868054677
:10336000A5432846012676054D683540B54202D171
:103370000546254328460B4DE860521C0D68D54094
:10338000002D00D01AE770BD001002400800014077
:103390000004005000080050000C005000100050C5
:1033A000001C005000040140024613690B40002B32
:1033B00001D0012000E000207047002A01D0816187
:1033C00000E081627047000001480068704700001B
:1033D0005000002010B50446002C01D1012010BD82
:1033E00024214120015520680068400840002168E0
:1033F0000860204600F042FA00206064002141206D
:103400000155002020634220015500BF4020015596
:1034100000BF0020E3E701464120405C7047000008
:1034200010B50446002C01D1012010BD4120005DE3
:10343000002805D1002140200155204600F01FFA48
:10344000242141200155206800684008400021687F
:1034500008600F21090660688843216808612068B8
:1034600080680121C903884321688860E0680128D9
:1034700006D10121C903A06808432168886005E0DE
:1034800021218902A068084321688860E068022839
:1034900002D18002216848602068406814490843CE
:1034A000216848602068C0680121C90388432168F9
:1034B000C860616920690843A1690902084321685D
:1034C000C860216AE06908432168086020680068D4
:1034D0000121084321680860002060642021412008
:1034E00001550020206300214220015500209CE767
:1034F00000800002FFB583B004460C9F0E9E00259D
:103500004120005D20286FD1002F02D00D980028A7
:1035100002D1012007B0F0BD00BF4020005D0128AE
:1035200001D10220F6E701214020015500BF02F041
:103530002DFF054619230122D1032046009503F0F3
:103540004DFB002801D00320E4E722214120015552
:103550004021422001550020606467620D9860851B
:103560000020606300960195204604A90EC903F06F
:1035700085FA002810D0606C042806D100BF002115
:103580004020015500BF0120C4E700BF00214020BA
:10359000015500BF0320BDE7608DFF280CD9FF2037
:1035A000208543480090208DC2B201231B0620468F
:1035B000049903F0F7FA0BE0608D20853C480090F9
:1035C000208DC2B201235B062046049903F0EAFA7B
:1035D00000BF3346002204212046009503F0FEFA86
:1035E000002802D0032095E75FE02068406AC1B25E
:1035F000626A501C60621170208D401E2085608DB3
:10360000401E6085208D002829D1608D002826D09D
:103610003346002280212046009503F0DFFA00287F
:1036200001D0032076E7608DFF280CD9FF2020858C
:1036300000200090208DC2B201231B062046049971
:1036400003F0B0FA0BE0608D208500200090208D03
:10365000C2B201235B062046049903F0A3FA608DF1
:103660000028B6D12A463146204603F0E0FA002869
:1036700006D0606C042801D101204BE7032049E704
:1036800020202168C861206840680A4908402168F4
:10369000486020214120015500214220015500BFF2
:1036A0004020015500BF002034E7022032E700002F
:1036B0000024008000E800FEFFB583B004460C9FA4
:1036C0000E9E00254120005D202870D1002F02D0E1
:1036D0000D98002802D1012007B0F0BD00BF4020A6
:1036E000005D012801D10220F6E7012140200155AB
:1036F00000BF02F04BFE054619230122D1032046EC
:10370000009503F06BFA002801D00320E4E72121A3
:10371000412001554021422001550020606467622C
:103720000D9860850020606300960195204604A9ED
:103730000EC903F0EDF9002810D0606C042806D102
:1037400000BF00214020015500BF0120C4E700BF99
:1037500000214020015500BF0320BDE7608DFF28F8
:103760000CD9FF20208500200090208DC2B20123BB
:103770001B062046049903F015FA0BE0608D2085A6
:1037800000200090208DC2B201235B0620460499E0
:1037900003F008FA00BF2A463146204603F074FAC7
:1037A000002807D0606C042802D1012094E760E073
:1037B000032091E7616A481C60620878216888628A
:1037C000608D401E6085208D401E2085208D002844
:1037D00029D1608D002826D0334600228021204642
:1037E000009503F0FBF9002801D0032074E7608DF9
:1037F000FF280CD9FF20208500200090208DC2B228
:1038000001231B062046049903F0CCF90BE0608DE0
:10381000208500200090208DC2B201235B06204647
:10382000049903F0BFF9608D0028B4D12A463146CF
:10383000204603F0FCF9002806D0606C042801D172
:10384000012049E7032047E720202168C86120685C
:1038500040680949084021684860202141200155FD
:1038600000214220015500BF4020015500BF00202B
:1038700032E7022030E7000000E800FE70477047A2
:1038800002480068401C0149086070475000002051
:1038900010B5064800680221084304490860032067
:1038A00000F006F800F008F8002010BD00200240EB
:1038B000014600207047000010B50C48806B0121C4
:1038C000090708430949886300F0F8FC00F0ECFCA4
:1038D00007480068082108430549086000BF00BF89
:1038E00000F0D8FC02F0BAFB10BD0000001002404E
:1038F000002002400146002915DBCB06DB0E012229
:103900009A400A4B1A6000BF00BF00BFBFF34F8F41
:1039100000BF00BF00BF00BF00BF00BFBFF36F8F7D
:1039200000BF00BF00BF00BF7047000080E100E0A3
:103930000146002905DBCB06DB0E01229A40024B33
:103940001A6000BF7047000000E100E070B5044657
:103950000D4616462946204610F044FA70BD000078
:1039600000BF00BF00BF00BF00BFBFF34F8F00BF4D
:1039700000BF00BF06480749C86000BF00BF00BFC6
:10398000BFF34F8F00BF00BF00BF00BF00BFFDE708
:103990000400FA0500ED00E00246116801239B20B7
:1039A000800083505820405A1843582358525820BA
:1039B000405A0223184358235852002070470146AA
:1039C0000A6801234D20C0004350002013235B01EF
:1039D000CB1818705420805A01231843542398524E
:1039E0005420805A022318435423985200207047D1
:1039F000704770B505460C4680202040802805D1D0
:103A00006007060E28462830311804E06601284673
:103A1000FF3029303118002A03D100200873CB80F1
:103A200004E0012008730B81180C4881002070BD50
:103A300070B504460D466B012146283159184A6974
:103A400027210901085929460EF05EFA70BD70B5AC
:103A500004460D466B012146FF31293159184A6948
:103A600027210901085929460EF0E4FA70BD10B566
:103A70000446002C01D1012010BD03201121490171
:103A800061184872204600F0C5FB204600F014FB88
:103A90000020112149016118487200BFECE710B500
:103AA000044600BF112040012018007A012801D1EE
:103AB000022010BD0120112149016118087200BFC8
:103AC00020680FF0C5FC00BF0020112149016118DA
:103AD000087200BF00BFECE770B504460E468020B8
:103AE0003040802807D17007010E204628300D187D
:103AF0000120687007E07007010E2046FF30293072
:103B00000D18002068707007400F287000BF11204A
:103B100040012018007A012801D1022070BD012047
:103B2000112149016118087200BF294620680FF071
:103B300053FB00BF0020112149016118087200BF2A
:103B400000BFEBE770B504460E463007000F616812
:103B5000884201D9012070BD80203040802807D1E3
:103B60007007010E204628300D180120687007E00C
:103B70007007010E2046FF3029300D1800206870B4
:103B80000020A8707007400F287000BF112040016E
:103B90002018007A012801D10220DCE70120112140
:103BA00049016118087200BF294620680FF07AFCAD
:103BB00000BF0020112149016118087200BF00BF39
:103BC000C9E702460020704702464807030E104628
:103BD000FF3029301818C0697047FFB581B005461D
:103BE0000E461F460020009080203040802807D1DC
:103BF0007007010E284628300C180120607007E07D
:103C00007007010E2846FF3029300C180020607024
:103C10007007400F207003982061E77060780028DB
:103C200001D02078E081022F01D10020207100BF57
:103C3000112040012818007A012802D1022005B085
:103C4000F0BD0120112149016918087200BF214609
:103C500028680FF087F800BF00201121490169187A
:103C6000087200BF0098EAE7FFB581B005460E462E
:103C700017467007010E2846FF3029300C1867617F
:103C80000498A0610020E06160707007400F207010
:103C90007007400F002804D1214628680FF098FCD7
:103CA00003E0214628680FF093FC002005B0F0BD2A
:103CB00070B504460D466807400F6168884201D917
:103CC000012070BD80202840802807D16807010EA0
:103CD000204628300E180120707006E06901204649
:103CE000FF3029300E18002070700120B070680776
:103CF000400F307000BF112040012018007A0128C9
:103D000001D10220DDE7012011214901611808726B
:103D100000BF314620680FF02DFC6807400F0028D7
:103D200005D123210901611820680FF0B7FB00BFFE
:103D30000020112149016118087200BF00BFC0E7CF
:103D4000FFB581B005460E4617467007010E28469E
:103D500028300C1867610498A0610020E061012000
:103D600060707007400F20707007400F002804D16A
:103D7000214628680FF02CFC03E0214628680FF04C
:103D800027FC002005B0F0BD10B5044620680FF0F8
:103D90002DFE0121C9030840884202D1204606F0C9
:103DA000C3FC20680FF022FE0121890208408842EE
:103DB0000DD1206840308088884321684031888058
:103DC000204600F0A9F90021204600F0D7F920682C
:103DD0000FF00CFE012189030840884206D12068BB
:103DE00040308088884321684031888020680FF007
:103DF000FDFD012149030840884206D1206840307A
:103E00008088884321684031888020680FF0EEFD6B
:103E100001210903084088422BD1206840300088E6
:103E200058490840216840310880206840300088A7
:103E30005449091F0840216840310880132040017F
:103E400020180078012808D10020132149016118A9
:103E5000087000212046FFF7CBFD204600F070F9E6
:103E6000206840308088012109038843216840315F
:103E7000888020680FF0BAFD0121C90208408842FD
:103E800024D120684030008808210843216840314F
:103E900008802068403080880121C9028843216859
:103EA0004031888020684030008804210843216820
:103EB0004031088020680FF099FD01210903084076
:103EC000000B002802D1204600F0D0F920680FF046
:103ED0008DFD80210840802832D1206840308088C4
:103EE00088432168403188801320400120180078E1
:103EF000002822D12068403000880421084321682E
:103F0000403108802068403000880821084321683B
:103F10004031088001201321490161180870206890
:103F20004030808AF02108408108992080000151AA
:103F300001212046FFF75CFD02E0204600F096F9E3
:103F400020680FF053FD012149020840884209D141
:103F5000206840308088884321684031888020462E
:103F600000F004F920680FF041FDFF210131084005
:103F7000884206D1206840308088884321684031DB
:103F8000888010BDFBFF000030B585B00446002CD2
:103F900002D1012005B030BD112040012018407A27
:103FA000002806D11121490161180872204600F04D
:103FB00099F80320112149016118487220680FF017
:103FC00061FA002523E001216A01204628301018FB
:103FD0004170690120462830455469010818C5819F
:103FE00000216A01204628301018C1706A0120465D
:103FF0002830101801616A012046283010184161EC
:104000006A012046283010188161681CC5B26068BA
:10401000A842D8D8002523E000216A012046FF30BD
:1040200029301018417069012046FF30293045546D
:1040300000216A011018C1706A012046FF30293042
:10404000101801616A012046FF30293010184161C3
:104050006A012046FF30293010188161681CC5B202
:104060006068A842D8D81422214610316846FCF76F
:1040700099F820460FC80FF0F4F9002806D0022066
:104080001121490161184872012083E70021242091
:10409000015501201121490161184872E069012888
:1040A00002D12046FFF78BFC206A012802D120466E
:1040B000FFF772FC00206DE710B504460749206841
:1040C000884209D10648806B0121C905884304490B
:1040D00088631F20FFF70EFC10BD0000005C00404D
:1040E0000010024010B504460949206888420ED1EC
:1040F0000848806B0121C9050843064988630022EE
:1041000011461F20FFF722FC1F20FFF711FC10BDF6
:10411000005C00400010024070B504460125A06814
:10412000022801D0FEF794F92721090108592946F0
:104130000EF0FDF82721090108590EF09EF870BD18
:1041400010B50446A069002807D007480069062179
:104150008843054908610DF0B2F927210901085982
:104160000EF0C2F810BD000000ED00E010B50446EE
:104170002721090108590EF0C2F810BD70B5044698
:104180000D4600BF112040012018007A012801D1FE
:10419000022070BD0120112149016118087200BF81
:1041A00024200555294620680FF044FC00BF00205C
:1041B000112149016118087200BF00BFE9E710B57D
:1041C00004462721090108592321090161180EF02D
:1041D000C5F810BD10B5044600BF112040012018DD
:1041E000007A012801D1022010BD012011214901CE
:1041F0006118087200BF20680FF020F920680FF0E6
:10420000E1FB00BF0020112149016118087200BFC5
:1042100000BFE9E710B5044600BF11204001201897
:10422000007A012801D1022010BD0120112149018D
:104230006118087200BF20680FF024F920680FF0A1
:1042400001FC002808D000BF00201121490161189D
:10425000087200BF0120E7E700BF002011214901DB
:104260006118087200BF00BFDEE7000010B5044609
:104270002721090108590EF0EAF8A069002805D0A5
:1042800003480069062108430149086110BD000088
:1042900000ED00E00348006801218902084301495C
:1042A000086070470070004003480068012149021F
:1042B00008430149086070470070004003480068E7
:1042C00010218843014908607047000000700040D9
:1042D00010B5024600200B4B18688008800003468A
:1042E00013431846074B1860074B1B690424A3436C
:1042F000054C2361012901D130BF02E040BF20BF3E
:1043000020BF10BD0070004000ED00E010B5024677
:1043100000200E4B1868800880000346134318469F
:104320000A4B18600A4B1B6904242343084C236181
:10433000012901D130BF02E040BF20BF20BF044BA4
:104340001B690424A343024C236110BD007000408C
:1043500000ED00E0F8B50446002600252021206885
:10436000084020287CD120680840202800D100BFC8
:1043700000279148806B012109070840002805D1DA
:104380008D48806B08438C49886301278B480068FF
:10439000FF2101310840002816D1884800680843F1
:1043A00086490860FFF710F8064606E0FFF70CF8AC
:1043B000801B642801D90320F8BD80480068FF21D4
:1043C000013108400028F1D07B480068032109052D
:1043D0000840054660680840A8420DD00911606891
:1043E0000840884208D17448006801214904084007
:1043F000002801D00120DFE76F4840300069032129
:10440000090408400546002D3CD060680840A842D9
:1044100038D0202120680840202833D16648403019
:104420000069032109048843054663484030006958
:104430000121C90408436049403108610846006908
:104440000121C90488435C4940310861084605617F
:1044500080152840002815D0FEF7B6FF064608E074
:1044600039E0FEF7B1FF801B5549884201D903208E
:10447000A2E7514840300069012149020840400A42
:104480000028EED000BF00BF032109046068084087
:1044900088420AD14848006809018843032212056E
:1044A0006168114008434449086000BF42484030F9
:1044B0000069032212046168114008433E494031FB
:1044C000086100BF012F05D13B48806B89058843F7
:1044D0003949886300BF2078C007C00F002809D081
:1044E00035484030C06880088000A16808433249E0
:1044F0004031C860022120680840022809D12E48B6
:104500004030C0680C218843E16808432A494031A3
:10451000C86004212068084004280AD12648403099
:10452000C068032189028843216908432249403138
:10453000C86008212068084008280AD11E48403079
:10454000C068032109038843616908431A4940315F
:10455000C860FF2101312068084088420AD116480E
:104560004030C068032109048843A1690843124907
:104570004031C860402120680840402809D10E48D9
:104580004030C06809058843216A08430A49403120
:10459000C86080212068084080280AD10648403041
:1045A000C068032189048843E16908430249403116
:1045B000C860002000E700000010024000700040CA
:1045C0008813000070B504460D4600267648006842
:1045D000C007C00FA8420ED27348006840084000D0
:1045E00028437149086008460068C007C00FA84208
:1045F00001D0012070BD022120680840022807D1A7
:104600006A48C068F0218843A16808436749C860C8
:104610002078C007C00F00284CD06068022809D15C
:1046200062480068012149040840400C002824D158
:104630000120DFE76068032809D15C480068012198
:1046400049060840400E002817D10120D2E76068D3
:10465000012808D155480068042108408008002836
:104660000BD10120C6E751480068012149020840EA
:10467000400A002801D10120BCE74C48C0688008EE
:104680008000616808434949C860FEF79DFE064600
:10469000606802280FD107E0FEF796FE801B4449B0
:1046A000884201D90320A5E74048C0680C21084092
:1046B0000828F1D134E0606803280FD107E0FEF745
:1046C00083FE801B3A49884201D9032092E737488C
:1046D000C0680C2108400C28F1D121E06068012855
:1046E0000FD107E0FEF770FE801B3149884201D9E7
:1046F00003207FE72D48C0680C2108400428F1D131
:104700000EE007E0FEF760FE801B2949884201D9D0
:1047100003206FE72548C0680C2108400028F1D12C
:1047200021480068C007C00FA8420ED91E48006883
:104730004008400028431C49086008460068C0073C
:10474000C00FA84201D0012054E70421206808408E
:10475000042808D11548C068072109028843E16888
:1047600008431249C860082120680840082809D178
:104770000E48C0680721C90288432169C90008435F
:104780000A49C86000F01AF80849C968F0221140C7
:104790000909084A515CC840074908600320FFF72F
:1047A00087F8002026E700000020024000100240A9
:1047B000881300002FA301084C000020FEB500253F
:1047C0000026002700240020019000902F48C56893
:1047D0000C202840002847D0042804D008280ED0F8
:1047E0000C2840D10EE0294800681021084000281C
:1047F00002D02748009001E02648009042E0264879
:1048000000903FE00F2080042840800C23490E5C7C
:10481000032080052840800D471C1C48C0680121EA
:1048200009040840002807D01B497143084639464F
:10483000FBF75EFC044614E01448006810210840B1
:10484000002807D01249714308463946FBF750FC4F
:10485000044606E00F49714308463946FBF748FC19
:10486000044600940EE000BF084840680721490351
:104870000840400B01900198401C01218140C80371
:10488000009000BF00BF0098FEBD00000010024075
:1048900000093D000024F40000127A0047A301083B
:1048A000F8B5044600252078C007C00F00287FD047
:1048B000FE48C0680C21084008280BD0FB48C0689F
:1048C00008400C2813D1F948C068012109040840A8
:1048D00088420CD1F5480068012149040840400C89
:1048E000002865D06068002862D10120F8BD00BFB3
:1048F000012109046068884205D1EC48006808433A
:10490000EA49086027E005210904606888420ED161
:10491000E6480068012189040843E4490860084624
:104920000068012109040843E049086013E0DF48FA
:104930000068012109048843DC49086008460068D2
:10494000012109040840009000BFD8480068890090
:104950008843D649086000BF6068002814D0FEF77D
:1049600033FD054607E0FEF72FFD401BD049884286
:1049700001D90320BAE7CD48006801214904084065
:10498000400C0028EFD013E0FEF71EFD054607E0BF
:10499000FEF71AFD401BC649884201D90320A5E74E
:1049A000C2480068012149040840400C0028EFD1AA
:1049B000022120680840022868D1BC48C0680C2148
:1049C000084004280BD0B948C06808400C281DD105
:1049D000B648C068012109040840002816D1B34830
:1049E0000068042108408008002804D0E0680128FD
:1049F00001D001207AE7AD4840681F2109028843B1
:104A0000216909020843A94948603FE0E06800289D
:104A100024D0A648006809218843E1680843A349D7
:104A20000860FEF7D1FC054606E0FEF7CDFC401B12
:104A3000022801D9032059E79C4800680421084056
:104A400080080028F1D0994840681F210902884356
:104A50002169090208439549486017E093480068B6
:104A60004008400091490860FEF7AEFC054606E0AC
:104A7000FEF7AAFC401B022801D9032036E78B4829
:104A800000680421084080080028F1D11021206826
:104A90000840102860D18548C0680C2108400028D3
:104AA0005BD182480068012149020840400A002881
:104AB00004D0E069002801D1012017E77B48616A32
:104AC0004068072252031040814219D9606A07F0FA
:104AD00011F9002801D0012008E774484068072137
:104AE00049038843616A0843704948600846406842
:104AF0000002000A218C090608436C49486018E04E
:104B00006A484068072149038843616A0843674946
:104B10004860084640680002000A218C09060843E4
:104B200062494860606A07F0E5F8002801D001207A
:104B3000DCE6606A400B401C01218140C8035B49F0
:104B4000C968F022114009095A4A515CC8405A49C3
:104B500008600320FEF7ACFE49E0E06900282CD095
:104B600052480068FF210131084350490860FEF7B0
:104B70002BFC054606E0FEF727FC401B022801D966
:104B80000320B3E649480068012149020840400A71
:104B90000028F0D045484068072149038843616AEE
:104BA000084342494860084640680002000A218CD8
:104BB000090608433D49486019E03C480068FF2168
:104BC0000131884339490860FEF7FEFB054606E0DF
:104BD000FEF7FAFB401B022801D9032086E6334882
:104BE0000068012149020840400A0028F0D108214C
:104BF00020680840082839D1606900281BD02B485C
:104C00004030006901210843284940310861FEF71E
:104C1000DBFB054606E0FEF7D7FB401B022801D967
:104C2000032063E621484030006902210840400823
:104C30000028F0D01AE01D484030006940084000CC
:104C40001A4940310861FEF7BFFB054606E0FEF752
:104C5000BBFB401B022801D9032047E61348403024
:104C600000690221084040080028F0D10421206892
:104C7000084004287BD100260C48806B8906084038
:104C8000002805D10948806B08430849886301263C
:104C90000A480068FF2101310840002822D1074856
:104CA00000680843054908600AE00000001002405F
:104CB000881300002FA301084C0000200070004062
:104CC000FEF782FB054606E0FEF77EFB401B6428EC
:104CD00001D903200AE6A6480068FF2101310840F7
:104CE0000028F1D000BFFF210131A068884205D122
:104CF000A048006908439F49086130E0A068002887
:104D00000DD19C480069FF21013188439949086110
:104D10000846006909158843964908611FE0052186
:104D20000902A06888420DD19248006901218902D8
:104D300008439049086108460069891508438D4970
:104D400008610CE08B480069FF21013188438949E3
:104D5000086108460069091588438649086100BF53
:104D6000A068002815D0FEF72FFB054608E02FE0CD
:104D7000FEF72AFB401B8049884201D90320B5E594
:104D80007C480069012149020840400A0028EFD010
:104D900013E0FEF719FB054607E0FEF715FB401B85
:104DA0007549884201D90320A0E5724800690121B4
:104DB00049020840400A0028EFD1012E07D16D4872
:104DC0004038806B310788436A494039886300BFA7
:104DD000202120680840202852D1A06900282BD02B
:104DE00000BF644840388068012108436149403968
:104DF00088600846406B012108435E49403948639A
:104E00005E48006A0121490308435C49086200BF0B
:104E1000FEF7DAFA054606E0FEF7D6FA401B02284E
:104E200001D9032062E553484038806802210840D8
:104E300040080028F0D023E000BF4E48403880688A
:104E4000400840004B49403988604C48006A0121C5
:104E5000490388434949086200BFFEF7B5FA054691
:104E600006E0FEF7B1FA401B022801D903203DE518
:104E70004048403880680221084040080028F0D1AE
:104E8000A06A002872D03B484038C0680C21084016
:104E90000C2869D0A06A022848D1364840380068FA
:104EA000012109068843334940390860FEF78CFA2E
:104EB000054606E0FEF788FA401B022801D90320C8
:104EC00014E52C4840380068012149060840400E8E
:104ED0000028EFD1216BE06A0843616B0843254944
:104EE0004039C968FD2212049143084321494039E1
:104EF000C860084600680121090608431D49403979
:104F00000860FEF761FA054606E0FEF75DFA401B11
:104F1000022801D90320E9E416484038006801213D
:104F200049060840400E0028EFD01FE011484038E5
:104F300000680121090688430E4940390860FEF7E0
:104F400043FA054606E0FEF73FFA401B022801D966
:104F50000320CBE407484038006801214906084097
:104F6000400E0028EFD101E00120BFE40020BDE4A5
:104F70000070004040100240881300000000014013
:104F8000024600231068034650338800C31818688F
:104F9000704710B500230468234650338C00E31893
:104FA0001A6010BD014600BF2020405C012801D1DD
:104FB0000220704701222020425400BF02222120FB
:104FC000425400BFCA200A68506253200A685062E7
:104FD00000BF08688068202210430A68906000BF04
:104FE000FF200A68506200BF01222120425400BF06
:104FF00000222020425400BF0020DAE710B504460A
:105000000CF06EFB10BD70B504460D46002600BFC7
:105010002020005D012801D1022070BD0121202047
:10502000015500BF02212120015500BFCA2021687F
:10503000486253202168486200BFFF20013085424A
:105040002CD12068806829468843216888602068C0
:1050500080682901884321688860FEF7B5F9064613
:1050600015E0FEF7B1F9801B7D21C90088420ED9F9
:1050700000BFFF202168486200BF032121200155A5
:1050800000BF00212020015500BF0320C5E7206894
:10509000C068C007C00F0028E3D02EE020688068F9
:1050A00001214902884321688860206880680121C5
:1050B0004903884321688860FEF786F9064615E0B3
:1050C000FEF782F9801B7D21C90088420ED900BFFE
:1050D000FF202168486200BF03212120015500BF45
:1050E00000212020015500BF032096E72068C068FA
:1050F0000221084040080028E2D000BFFF202168BC
:10510000486200BF01212120015500BF002120205D
:10511000015500BF002080E7F0B506460C46174653
:10512000002530684068124908400546FF20000409
:105130002840000CE0701F2000022840000A607028
:10514000A806800EA070072040032840400B207066
:10515000002F0BD1E07806F019FEE070607806F0C1
:1051600015FE6070A07806F011FEA0700020F0BD62
:105170003FFFFF00F0B505460C461746002628689D
:10518000806A6060286800694004400CA06028685C
:1051900000681249084006463F2000043040000CD9
:1051A00020707F2000023040000A60707006400EC0
:1051B000A070012080053040000CE070002F0BD162
:1051C000207806F0E3FD2070607806F0DFFD607067
:1051D000A07806F0DBFDA0700020F0BD7F7F7F008F
:1051E00010B50446002C01D1012010BD2120005D26
:1051F000002805D1002120200155204600F054F858
:1052000002212120015500BFCA2021684862532095
:105210002168486200BF204606F0D2FD002809D070
:1052200000BFFF202168486200BF042121200155F2
:105230000120DAE7206880681A4908402168886000
:10524000216960680843A1690843216889680843A7
:10525000216888602168E068086120680069218908
:1052600009040843216808612068C06880218843D8
:105270002168C8602068C06C800880002168C8640C
:105280006169E06908432168C96C08432168C86402
:1052900000BFFF202168486200BF01212120015585
:1052A0000020A2E7BFFF8FFF10B598B0044604208E
:1052B0000A9000201490FF2001300C900AA8FFF7FC
:1052C000EFFA002801D0FDF7C3F820200190C002BA
:1052D000029001A8FFF73EF8002801D0FDF7B8F8CA
:1052E0000848006901218904084306490861002231
:1052F00011460220FEF72AFB0220FEF719FB18B028
:1053000010BD000040100240FEB504460D46164692
:10531000002700200190009000BF2020005D0128A0
:1053200001D10220FEBD01212020015500BF022134
:1053300021200155002E2AD1206880684021084094
:10534000002800D002E00020E87000BFE8690028D3
:1053500000D100E000BF287806F025FD030468783E
:1053600006F021FD00020343A87806F01CFD03436C
:10537000E878000403432021485D06F014FD000690
:105380000343E86903436869034301932FE02068FE
:10539000806840210840002804D0287806F0F6FCF8
:1053A000019002E00020E87000BFE869002805D104
:1053B0002021485D06F0EAFC019005E02021485DCF
:1053C00006F0E4FC019000BF287800046978090227
:1053D0000843A9780843E978090408432021495D76
:1053E00009060843E9690843696908430190A96906
:1053F00068680843009000BFCA20216848625320B3
:105400002168486200BFFF210131686A884241D1AA
:10541000206880688843216888602068C06880218F
:1054200008404D4908432168C860FDF7CDFF074695
:1054300015E0FDF7C9FFC01B7D21C90088420ED9C8
:1054400000BFFF202168486200BF032121200155D1
:1054500000BF00212020015500BF032062E7206823
:10546000C068C007C00F0028E3D001982168C86158
:1054700000982168486420688068FF210131084352
:105480002168886020688068012109030843216839
:10549000886043E0206880680121490288432168D0
:1054A00088602068C068802108402C490843216832
:1054B000C860FDF789FF074615E0FDF785FFC01BB3
:1054C0007D21C90088420ED900BFFF2021684862B3
:1054D00000BF03212120015500BF002120200155DC
:1054E00000BF03201EE72068C06802210840400872
:1054F0000028E2D001982168086200982168886439
:10550000206880680121490208432168886020687A
:1055100080680121490308432168886010480068B9
:105520000121490408430E490860084680680121AA
:10553000490408430A49886000BFFF202168486287
:1055400000BF01212120015500BF0021202001556D
:1055500000BF0020E6E600007FFEFFFF7FFDFFFFAB
:1055600000040140F8B504460D461646002700BF6A
:105570002020005D012801D10220F8BD012120205A
:10558000015500BF022121200155002E09D1687864
:1055900010210840102804D16878EF2108400A3013
:1055A0006870002E11D1E87806F0FDFB03046878DE
:1055B00006F0F9FB00020343A87806F0F4FB03436E
:1055C0002878400303431F4612E0687806F0DEFBAC
:1055D0000746A87806F0DAFB0746E8780004697801
:1055E00009020843A9780843297849030843074674
:1055F00000BFCA202168486253202168486200BF6A
:10560000204606F0DDFB00280ED000BFFF202168F9
:10561000486200BF04212120015500BF0021202045
:10562000015500BF0120A8E71948384021684860AB
:105630002068C068802188432168C860206880682D
:1056400020210840002813D1204600F0CDF8002882
:105650000ED000BFFF202168486200BF0421212036
:10566000015500BF00212020015500BF012084E723
:1056700000BFFF202168486200BF012121200155A1
:1056800000BF00212020015500BF002075E7000069
:105690003FFFFF00F8B504460D461646002700BF41
:1056A0002020005D012801D10220F8BD0121202029
:1056B000015500BF022121200155002E1BD1206879
:1056C000806840210840002800D002E00020E870F7
:1056D00000BF287806F067FB0304687806F063FBD8
:1056E00000020343A87806F05EFB0343E878000459
:1056F00003431F4618E020688068402108400028C6
:1057000004D0287806F042FB074602E00020E8704B
:1057100000BF28780004697809020843A978084383
:10572000E97809040843074600BFCA202168486297
:1057300053202168486200BF204606F041FB002844
:105740000ED000BFFF202168486200BF0421212045
:10575000015500BF00212020015500BF0120A4E712
:105760002048384021680860206880680121890449
:105770008843216888602969E86808432168896846
:105780000843216888602068C068802188432168B8
:10579000C8602068806820210840002813D1204676
:1057A00000F022F800280ED000BFFF2021684862D8
:1057B00000BF04212120015500BF002120200155F8
:1057C00000BF012071E700BFFF202168486200BFD1
:1057D00001212120015500BF00212020015500BFDB
:1057E000002062E77F7F7F0070B5044600252068B7
:1057F000C068A02188432168C860FDF7E5FD054623
:1058000008E0FDF7E1FD401B7D21C900884201D978
:10581000032070BD2068C068202108400028F0D017
:105820000020F6E710B50446002C01D1012010BD80
:105830005120005D002805D100215020015520464F
:1058400000F037F8022151200155206800684021FE
:10585000884321680860A16860680843E1680843DC
:10586000216908436169084301225202A16911407C
:105870000843E1690843216A0843A16A0843216893
:105880000860A069000C04210840616A084321688F
:1058900048602168E06A08612068C0699100884317
:1058A0002168C86100206065012151200155002058
:1058B000BDE77047F8B504460E4617461D46002062
:1058C00000905120005D012803D05120005D222866
:1058D00073D1002E03D0002F01D0002D01D1012063
:1058E000F8BD00BF5020005D012801D10220F7E77C
:1058F00001215020015500BF5120005D012802D137
:1059000032215120015500206065A763A587E587F6
:105910002663A586E586A064E06401214903A06AA8
:1059200088420DD100BF2068006888432168086064
:10593000206800680121490308432168086000BF0E
:105940002068006840210840402804D02068006892
:105950000843216808600121C902E06888427DD1BE
:105960006068002807D0FF210531606888420CD1AB
:10597000E08E012809D1206B00882168C860206B67
:10598000801C2063E08E401EE086E08E002820D13F
:1059900001214903A06A884205D1206800684910A6
:1059A000084321680860002201212046069B08F078
:1059B000F6FB002802D0032092E738E12068C06897
:1059C000A16B0880A06B801CA063E08F401EE08765
:1059D000D7E035E0002202212046069B08F0DFFBDD
:1059E000002801D003207BE7206B00882168C86075
:1059F000206B801C2063E08E401EE086E08E002835
:105A00000AD101214903A06A884205D120680068B3
:105A10004910084321680860002201212046069BA6
:105A200008F0BDFB002801D0032059E72068C068BA
:105A3000A16B0880A06B801CA063E08F401EE087F4
:105A4000E08E0028C6D160680028C1D10022012163
:105A50002046069B08F0A3FB002800E00DE001D0E3
:105A600003203DE72068C068A16B0880A06B801C04
:105A7000A063E08F401EE08783E06068002807D0C5
:105A8000FF210531606888420BD1E08E012808D1E2
:105A9000216B481C206308782168C860E08E401E96
:105AA000E086E08E00281CD101214903A06A8842CB
:105AB00005D1206800684910084321680860002269
:105AC00001212046069B08F06AFB002801D0032034
:105AD00006E72068C068A16B0870E08F401EE08771
